{"abi":[{"inputs":[{"internalType":"uint256","name":"minimum","type":"uint256"},{"internalType":"address","name":"managerAddress","type":"address"}],"stateMutability":"nonpayable","type":"constructor"},{"inputs":[{"internalType":"uint256","name":"index","type":"uint256"}],"name":"approveRequest","outputs":[],"stateMutability":"nonpayable","type":"function"},{"inputs":[{"internalType":"address","name":"","type":"address"}],"name":"approvers","outputs":[{"internalType":"bool","name":"","type":"bool"}],"stateMutability":"view","type":"function"},{"inputs":[],"name":"approversCount","outputs":[{"internalType":"uint256","name":"","type":"uint256"}],"stateMutability":"view","type":"function"},{"inputs":[],"name":"contribute","outputs":[],"stateMutability":"payable","type":"function"},{"inputs":[{"internalType":"string","name":"description","type":"string"},{"internalType":"uint256","name":"value","type":"uint256"},{"internalType":"address payable","name":"recipient","type":"address"}],"name":"createRequest","outputs":[],"stateMutability":"nonpayable","type":"function"},{"inputs":[{"internalType":"uint256","name":"index","type":"uint256"}],"name":"finalizeRequest","outputs":[],"stateMutability":"nonpayable","type":"function"},{"inputs":[{"internalType":"uint256","name":"index","type":"uint256"}],"name":"getRequest","outputs":[{"internalType":"string","name":"description","type":"string"},{"internalType":"uint256","name":"value","type":"uint256"},{"internalType":"address","name":"recipient","type":"address"},{"internalType":"bool","name":"complete","type":"bool"},{"internalType":"uint256","name":"approvalCount","type":"uint256"}],"stateMutability":"view","type":"function"},{"inputs":[],"name":"manager","outputs":[{"internalType":"address","name":"","type":"address"}],"stateMutability":"view","type":"function"},{"inputs":[],"name":"minimumContribution","outputs":[{"internalType":"uint256","name":"","type":"uint256"}],"stateMutability":"view","type":"function"}],"devdoc":{"kind":"dev","methods":{},"version":1},"evm":{"assembly":"    /* \"Campaign.sol\":423:2839  contract Campaign {... */\n  mstore(0x40, 0x80)\n    /* \"Campaign.sol\":945:1075  constructor(uint minimum, address managerAddress) {... */\n  callvalue\n  dup1\n  iszero\n  tag_1\n  jumpi\n  0x00\n  dup1\n  revert\ntag_1:\n  pop\n  mload(0x40)\n  sub(codesize, bytecodeSize)\n  dup1\n  bytecodeSize\n  dup4\n  codecopy\n  dup2\n  dup2\n  add\n  0x40\n  mstore\n  dup2\n  add\n  swap1\n  tag_2\n  swap2\n  swap1\n  tag_3\n  jump\t// in\ntag_2:\n    /* \"Campaign.sol\":1015:1029  managerAddress */\n  dup1\n    /* \"Campaign.sol\":1005:1012  manager */\n  0x02\n  0x00\n    /* \"Campaign.sol\":1005:1029  manager = managerAddress */\n  0x0100\n  exp\n  dup2\n  sload\n  dup2\n  0xffffffffffffffffffffffffffffffffffffffff\n  mul\n  not\n  and\n  swap1\n  dup4\n  0xffffffffffffffffffffffffffffffffffffffff\n  and\n  mul\n  or\n  swap1\n  sstore\n  pop\n    /* \"Campaign.sol\":1061:1068  minimum */\n  dup2\n    /* \"Campaign.sol\":1039:1058  minimumContribution */\n  0x03\n    /* \"Campaign.sol\":1039:1068  minimumContribution = minimum */\n  dup2\n  swap1\n  sstore\n  pop\n    /* \"Campaign.sol\":945:1075  constructor(uint minimum, address managerAddress) {... */\n  pop\n  pop\n    /* \"Campaign.sol\":423:2839  contract Campaign {... */\n  jump(tag_6)\n    /* \"#utility.yul\":88:205   */\ntag_8:\n    /* \"#utility.yul\":197:198   */\n  0x00\n    /* \"#utility.yul\":194:195   */\n  dup1\n    /* \"#utility.yul\":187:199   */\n  revert\n    /* \"#utility.yul\":334:411   */\ntag_10:\n    /* \"#utility.yul\":371:378   */\n  0x00\n    /* \"#utility.yul\":400:405   */\n  dup2\n    /* \"#utility.yul\":389:405   */\n  swap1\n  pop\n    /* \"#utility.yul\":334:411   */\n  swap2\n  swap1\n  pop\n  jump\t// out\n    /* \"#utility.yul\":417:539   */\ntag_11:\n    /* \"#utility.yul\":490:514   */\n  tag_23\n    /* \"#utility.yul\":508:513   */\n  dup2\n    /* \"#utility.yul\":490:514   */\n  tag_10\n  jump\t// in\ntag_23:\n    /* \"#utility.yul\":483:488   */\n  dup2\n    /* \"#utility.yul\":480:515   */\n  eq\n    /* \"#utility.yul\":470:533   */\n  tag_24\n  jumpi\n    /* \"#utility.yul\":529:530   */\n  0x00\n    /* \"#utility.yul\":526:527   */\n  dup1\n    /* \"#utility.yul\":519:531   */\n  revert\n    /* \"#utility.yul\":470:533   */\ntag_24:\n    /* \"#utility.yul\":417:539   */\n  pop\n  jump\t// out\n    /* \"#utility.yul\":545:688   */\ntag_12:\n    /* \"#utility.yul\":602:607   */\n  0x00\n    /* \"#utility.yul\":633:639   */\n  dup2\n    /* \"#utility.yul\":627:640   */\n  mload\n    /* \"#utility.yul\":618:640   */\n  swap1\n  pop\n    /* \"#utility.yul\":649:682   */\n  tag_26\n    /* \"#utility.yul\":676:681   */\n  dup2\n    /* \"#utility.yul\":649:682   */\n  tag_11\n  jump\t// in\ntag_26:\n    /* \"#utility.yul\":545:688   */\n  swap3\n  swap2\n  pop\n  pop\n  jump\t// out\n    /* \"#utility.yul\":694:820   */\ntag_13:\n    /* \"#utility.yul\":731:738   */\n  0x00\n    /* \"#utility.yul\":771:813   */\n  0xffffffffffffffffffffffffffffffffffffffff\n    /* \"#utility.yul\":764:769   */\n  dup3\n    /* \"#utility.yul\":760:814   */\n  and\n    /* \"#utility.yul\":749:814   */\n  swap1\n  pop\n    /* \"#utility.yul\":694:820   */\n  swap2\n  swap1\n  pop\n  jump\t// out\n    /* \"#utility.yul\":826:922   */\ntag_14:\n    /* \"#utility.yul\":863:870   */\n  0x00\n    /* \"#utility.yul\":892:916   */\n  tag_29\n    /* \"#utility.yul\":910:915   */\n  dup3\n    /* \"#utility.yul\":892:916   */\n  tag_13\n  jump\t// in\ntag_29:\n    /* \"#utility.yul\":881:916   */\n  swap1\n  pop\n    /* \"#utility.yul\":826:922   */\n  swap2\n  swap1\n  pop\n  jump\t// out\n    /* \"#utility.yul\":928:1050   */\ntag_15:\n    /* \"#utility.yul\":1001:1025   */\n  tag_31\n    /* \"#utility.yul\":1019:1024   */\n  dup2\n    /* \"#utility.yul\":1001:1025   */\n  tag_14\n  jump\t// in\ntag_31:\n    /* \"#utility.yul\":994:999   */\n  dup2\n    /* \"#utility.yul\":991:1026   */\n  eq\n    /* \"#utility.yul\":981:1044   */\n  tag_32\n  jumpi\n    /* \"#utility.yul\":1040:1041   */\n  0x00\n    /* \"#utility.yul\":1037:1038   */\n  dup1\n    /* \"#utility.yul\":1030:1042   */\n  revert\n    /* \"#utility.yul\":981:1044   */\ntag_32:\n    /* \"#utility.yul\":928:1050   */\n  pop\n  jump\t// out\n    /* \"#utility.yul\":1056:1199   */\ntag_16:\n    /* \"#utility.yul\":1113:1118   */\n  0x00\n    /* \"#utility.yul\":1144:1150   */\n  dup2\n    /* \"#utility.yul\":1138:1151   */\n  mload\n    /* \"#utility.yul\":1129:1151   */\n  swap1\n  pop\n    /* \"#utility.yul\":1160:1193   */\n  tag_34\n    /* \"#utility.yul\":1187:1192   */\n  dup2\n    /* \"#utility.yul\":1160:1193   */\n  tag_15\n  jump\t// in\ntag_34:\n    /* \"#utility.yul\":1056:1199   */\n  swap3\n  swap2\n  pop\n  pop\n  jump\t// out\n    /* \"#utility.yul\":1205:1712   */\ntag_3:\n    /* \"#utility.yul\":1284:1290   */\n  0x00\n    /* \"#utility.yul\":1292:1298   */\n  dup1\n    /* \"#utility.yul\":1341:1343   */\n  0x40\n    /* \"#utility.yul\":1329:1338   */\n  dup4\n    /* \"#utility.yul\":1320:1327   */\n  dup6\n    /* \"#utility.yul\":1316:1339   */\n  sub\n    /* \"#utility.yul\":1312:1344   */\n  slt\n    /* \"#utility.yul\":1309:1428   */\n  iszero\n  tag_36\n  jumpi\n    /* \"#utility.yul\":1347:1426   */\n  tag_37\n  tag_8\n  jump\t// in\ntag_37:\n    /* \"#utility.yul\":1309:1428   */\ntag_36:\n    /* \"#utility.yul\":1467:1468   */\n  0x00\n    /* \"#utility.yul\":1492:1556   */\n  tag_38\n    /* \"#utility.yul\":1548:1555   */\n  dup6\n    /* \"#utility.yul\":1539:1545   */\n  dup3\n    /* \"#utility.yul\":1528:1537   */\n  dup7\n    /* \"#utility.yul\":1524:1546   */\n  add\n    /* \"#utility.yul\":1492:1556   */\n  tag_12\n  jump\t// in\ntag_38:\n    /* \"#utility.yul\":1482:1556   */\n  swap3\n  pop\n    /* \"#utility.yul\":1438:1566   */\n  pop\n    /* \"#utility.yul\":1605:1607   */\n  0x20\n    /* \"#utility.yul\":1631:1695   */\n  tag_39\n    /* \"#utility.yul\":1687:1694   */\n  dup6\n    /* \"#utility.yul\":1678:1684   */\n  dup3\n    /* \"#utility.yul\":1667:1676   */\n  dup7\n    /* \"#utility.yul\":1663:1685   */\n  add\n    /* \"#utility.yul\":1631:1695   */\n  tag_16\n  jump\t// in\ntag_39:\n    /* \"#utility.yul\":1621:1695   */\n  swap2\n  pop\n    /* \"#utility.yul\":1576:1705   */\n  pop\n    /* \"#utility.yul\":1205:1712   */\n  swap3\n  pop\n  swap3\n  swap1\n  pop\n  jump\t// out\n    /* \"Campaign.sol\":423:2839  contract Campaign {... */\ntag_6:\n  dataSize(sub_0)\n  dup1\n  dataOffset(sub_0)\n  0x00\n  codecopy\n  0x00\n  return\nstop\n\nsub_0: assembly {\n        /* \"Campaign.sol\":423:2839  contract Campaign {... */\n      mstore(0x40, 0x80)\n      jumpi(tag_1, lt(calldatasize, 0x04))\n      shr(0xe0, calldataload(0x00))\n      dup1\n      0x8a9cfd55\n      gt\n      tag_11\n      jumpi\n      dup1\n      0x8a9cfd55\n      eq\n      tag_6\n      jumpi\n      dup1\n      0x937e09b1\n      eq\n      tag_7\n      jumpi\n      dup1\n      0xc58343ef\n      eq\n      tag_8\n      jumpi\n      dup1\n      0xd7bb99ba\n      eq\n      tag_9\n      jumpi\n      dup1\n      0xd7d1bbdb\n      eq\n      tag_10\n      jumpi\n      jump(tag_1)\n    tag_11:\n      dup1\n      0x03441006\n      eq\n      tag_2\n      jumpi\n      dup1\n      0x0a144391\n      eq\n      tag_3\n      jumpi\n      dup1\n      0x481c6a75\n      eq\n      tag_4\n      jumpi\n      dup1\n      0x82fde093\n      eq\n      tag_5\n      jumpi\n    tag_1:\n      0x00\n      dup1\n      revert\n        /* \"Campaign.sol\":2500:2837  function finalizeRequest(uint index) public restricted {... */\n    tag_2:\n      callvalue\n      dup1\n      iszero\n      tag_12\n      jumpi\n      0x00\n      dup1\n      revert\n    tag_12:\n      pop\n      tag_13\n      0x04\n      dup1\n      calldatasize\n      sub\n      dup2\n      add\n      swap1\n      tag_14\n      swap2\n      swap1\n      tag_15\n      jump\t// in\n    tag_14:\n      tag_16\n      jump\t// in\n    tag_13:\n      stop\n        /* \"Campaign.sol\":779:820  mapping(address => bool) public approvers */\n    tag_3:\n      callvalue\n      dup1\n      iszero\n      tag_17\n      jumpi\n      0x00\n      dup1\n      revert\n    tag_17:\n      pop\n      tag_18\n      0x04\n      dup1\n      calldatasize\n      sub\n      dup2\n      add\n      swap1\n      tag_19\n      swap2\n      swap1\n      tag_20\n      jump\t// in\n    tag_19:\n      tag_21\n      jump\t// in\n    tag_18:\n      mload(0x40)\n      tag_22\n      swap2\n      swap1\n      tag_23\n      jump\t// in\n    tag_22:\n      mload(0x40)\n      dup1\n      swap2\n      sub\n      swap1\n      return\n        /* \"Campaign.sol\":714:736  address public manager */\n    tag_4:\n      callvalue\n      dup1\n      iszero\n      tag_24\n      jumpi\n      0x00\n      dup1\n      revert\n    tag_24:\n      pop\n      tag_25\n      tag_26\n      jump\t// in\n    tag_25:\n      mload(0x40)\n      tag_27\n      swap2\n      swap1\n      tag_28\n      jump\t// in\n    tag_27:\n      mload(0x40)\n      dup1\n      swap2\n      sub\n      swap1\n      return\n        /* \"Campaign.sol\":826:852  uint public approversCount */\n    tag_5:\n      callvalue\n      dup1\n      iszero\n      tag_29\n      jumpi\n      0x00\n      dup1\n      revert\n    tag_29:\n      pop\n      tag_30\n      tag_31\n      jump\t// in\n    tag_30:\n      mload(0x40)\n      tag_32\n      swap2\n      swap1\n      tag_33\n      jump\t// in\n    tag_32:\n      mload(0x40)\n      dup1\n      swap2\n      sub\n      swap1\n      return\n        /* \"Campaign.sol\":1828:2179  function createRequest(... */\n    tag_6:\n      callvalue\n      dup1\n      iszero\n      tag_34\n      jumpi\n      0x00\n      dup1\n      revert\n    tag_34:\n      pop\n      tag_35\n      0x04\n      dup1\n      calldatasize\n      sub\n      dup2\n      add\n      swap1\n      tag_36\n      swap2\n      swap1\n      tag_37\n      jump\t// in\n    tag_36:\n      tag_38\n      jump\t// in\n    tag_35:\n      stop\n        /* \"Campaign.sol\":742:773  uint public minimumContribution */\n    tag_7:\n      callvalue\n      dup1\n      iszero\n      tag_39\n      jumpi\n      0x00\n      dup1\n      revert\n    tag_39:\n      pop\n      tag_40\n      tag_41\n      jump\t// in\n    tag_40:\n      mload(0x40)\n      tag_42\n      swap2\n      swap1\n      tag_33\n      jump\t// in\n    tag_42:\n      mload(0x40)\n      dup1\n      swap2\n      sub\n      swap1\n      return\n        /* \"Campaign.sol\":1285:1822  function getRequest(... */\n    tag_8:\n      callvalue\n      dup1\n      iszero\n      tag_43\n      jumpi\n      0x00\n      dup1\n      revert\n    tag_43:\n      pop\n      tag_44\n      0x04\n      dup1\n      calldatasize\n      sub\n      dup2\n      add\n      swap1\n      tag_45\n      swap2\n      swap1\n      tag_15\n      jump\t// in\n    tag_45:\n      tag_46\n      jump\t// in\n    tag_44:\n      mload(0x40)\n      tag_47\n      swap6\n      swap5\n      swap4\n      swap3\n      swap2\n      swap1\n      tag_48\n      jump\t// in\n    tag_47:\n      mload(0x40)\n      dup1\n      swap2\n      sub\n      swap1\n      return\n        /* \"Campaign.sol\":1081:1279  function contribute() public payable {... */\n    tag_9:\n      tag_49\n      tag_50\n      jump\t// in\n    tag_49:\n      stop\n        /* \"Campaign.sol\":2185:2494  function approveRequest(uint index) public {... */\n    tag_10:\n      callvalue\n      dup1\n      iszero\n      tag_51\n      jumpi\n      0x00\n      dup1\n      revert\n    tag_51:\n      pop\n      tag_52\n      0x04\n      dup1\n      calldatasize\n      sub\n      dup2\n      add\n      swap1\n      tag_53\n      swap2\n      swap1\n      tag_15\n      jump\t// in\n    tag_53:\n      tag_54\n      jump\t// in\n    tag_52:\n      stop\n        /* \"Campaign.sol\":2500:2837  function finalizeRequest(uint index) public restricted {... */\n    tag_16:\n        /* \"Campaign.sol\":913:920  manager */\n      0x02\n      0x00\n      swap1\n      sload\n      swap1\n      0x0100\n      exp\n      swap1\n      div\n      0xffffffffffffffffffffffffffffffffffffffff\n      and\n        /* \"Campaign.sol\":899:920  msg.sender == manager */\n      0xffffffffffffffffffffffffffffffffffffffff\n      and\n        /* \"Campaign.sol\":899:909  msg.sender */\n      caller\n        /* \"Campaign.sol\":899:920  msg.sender == manager */\n      0xffffffffffffffffffffffffffffffffffffffff\n      and\n      eq\n        /* \"Campaign.sol\":891:921  require(msg.sender == manager) */\n      tag_56\n      jumpi\n      0x00\n      dup1\n      revert\n    tag_56:\n        /* \"Campaign.sol\":2581:2592  numRequests */\n      sload(0x00)\n        /* \"Campaign.sol\":2573:2578  index */\n      dup2\n        /* \"Campaign.sol\":2573:2592  index < numRequests */\n      lt\n        /* \"Campaign.sol\":2565:2593  require(index < numRequests) */\n      tag_58\n      jumpi\n      0x00\n      dup1\n      revert\n    tag_58:\n        /* \"Campaign.sol\":2604:2627  Request storage request */\n      0x00\n        /* \"Campaign.sol\":2630:2638  requests */\n      0x01\n        /* \"Campaign.sol\":2630:2645  requests[index] */\n      0x00\n        /* \"Campaign.sol\":2639:2644  index */\n      dup4\n        /* \"Campaign.sol\":2630:2645  requests[index] */\n      dup2\n      mstore\n      0x20\n      add\n      swap1\n      dup2\n      mstore\n      0x20\n      add\n      0x00\n      keccak256\n        /* \"Campaign.sol\":2604:2645  Request storage request = requests[index] */\n      swap1\n      pop\n        /* \"Campaign.sol\":2664:2671  request */\n      dup1\n        /* \"Campaign.sol\":2664:2680  request.complete */\n      0x02\n      add\n      0x14\n      swap1\n      sload\n      swap1\n      0x0100\n      exp\n      swap1\n      div\n      0xff\n      and\n        /* \"Campaign.sol\":2663:2680  !request.complete */\n      iszero\n        /* \"Campaign.sol\":2655:2681  require(!request.complete) */\n      tag_59\n      jumpi\n      0x00\n      dup1\n      revert\n    tag_59:\n        /* \"Campaign.sol\":2741:2742  2 */\n      0x02\n        /* \"Campaign.sol\":2724:2738  approversCount */\n      sload(0x05)\n        /* \"Campaign.sol\":2724:2742  approversCount / 2 */\n      tag_60\n      swap2\n      swap1\n      tag_61\n      jump\t// in\n    tag_60:\n        /* \"Campaign.sol\":2699:2706  request */\n      dup2\n        /* \"Campaign.sol\":2699:2720  request.approvalCount */\n      0x03\n      add\n      sload\n        /* \"Campaign.sol\":2699:2743  request.approvalCount > (approversCount / 2) */\n      gt\n        /* \"Campaign.sol\":2691:2744  require(request.approvalCount > (approversCount / 2)) */\n      tag_62\n      jumpi\n      0x00\n      dup1\n      revert\n    tag_62:\n        /* \"Campaign.sol\":2755:2762  request */\n      dup1\n        /* \"Campaign.sol\":2755:2772  request.recipient */\n      0x02\n      add\n      0x00\n      swap1\n      sload\n      swap1\n      0x0100\n      exp\n      swap1\n      div\n      0xffffffffffffffffffffffffffffffffffffffff\n      and\n        /* \"Campaign.sol\":2755:2781  request.recipient.transfer */\n      0xffffffffffffffffffffffffffffffffffffffff\n      and\n        /* \"Campaign.sol\":2755:2796  request.recipient.transfer(request.value) */\n      0x08fc\n        /* \"Campaign.sol\":2782:2789  request */\n      dup3\n        /* \"Campaign.sol\":2782:2795  request.value */\n      0x01\n      add\n      sload\n        /* \"Campaign.sol\":2755:2796  request.recipient.transfer(request.value) */\n      swap1\n      dup2\n      iszero\n      mul\n      swap1\n      mload(0x40)\n      0x00\n      mload(0x40)\n      dup1\n      dup4\n      sub\n      dup2\n      dup6\n      dup9\n      dup9\n      call\n      swap4\n      pop\n      pop\n      pop\n      pop\n      iszero\n      dup1\n      iszero\n      tag_64\n      jumpi\n      returndatasize\n      0x00\n      dup1\n      returndatacopy\n      revert(0x00, returndatasize)\n    tag_64:\n      pop\n        /* \"Campaign.sol\":2826:2830  true */\n      0x01\n        /* \"Campaign.sol\":2807:2814  request */\n      dup2\n        /* \"Campaign.sol\":2807:2823  request.complete */\n      0x02\n      add\n      0x14\n        /* \"Campaign.sol\":2807:2830  request.complete = true */\n      0x0100\n      exp\n      dup2\n      sload\n      dup2\n      0xff\n      mul\n      not\n      and\n      swap1\n      dup4\n      iszero\n      iszero\n      mul\n      or\n      swap1\n      sstore\n      pop\n        /* \"Campaign.sol\":2555:2837  {... */\n      pop\n        /* \"Campaign.sol\":2500:2837  function finalizeRequest(uint index) public restricted {... */\n      pop\n      jump\t// out\n        /* \"Campaign.sol\":779:820  mapping(address => bool) public approvers */\n    tag_21:\n      mstore(0x20, 0x04)\n      dup1\n      0x00\n      mstore\n      keccak256(0x00, 0x40)\n      0x00\n      swap2\n      pop\n      sload\n      swap1\n      0x0100\n      exp\n      swap1\n      div\n      0xff\n      and\n      dup2\n      jump\t// out\n        /* \"Campaign.sol\":714:736  address public manager */\n    tag_26:\n      0x02\n      0x00\n      swap1\n      sload\n      swap1\n      0x0100\n      exp\n      swap1\n      div\n      0xffffffffffffffffffffffffffffffffffffffff\n      and\n      dup2\n      jump\t// out\n        /* \"Campaign.sol\":826:852  uint public approversCount */\n    tag_31:\n      sload(0x05)\n      dup2\n      jump\t// out\n        /* \"Campaign.sol\":1828:2179  function createRequest(... */\n    tag_38:\n        /* \"Campaign.sol\":913:920  manager */\n      0x02\n      0x00\n      swap1\n      sload\n      swap1\n      0x0100\n      exp\n      swap1\n      div\n      0xffffffffffffffffffffffffffffffffffffffff\n      and\n        /* \"Campaign.sol\":899:920  msg.sender == manager */\n      0xffffffffffffffffffffffffffffffffffffffff\n      and\n        /* \"Campaign.sol\":899:909  msg.sender */\n      caller\n        /* \"Campaign.sol\":899:920  msg.sender == manager */\n      0xffffffffffffffffffffffffffffffffffffffff\n      and\n      eq\n        /* \"Campaign.sol\":891:921  require(msg.sender == manager) */\n      tag_66\n      jumpi\n      0x00\n      dup1\n      revert\n    tag_66:\n        /* \"Campaign.sol\":1977:1994  Request storage r */\n      0x00\n        /* \"Campaign.sol\":1997:2005  requests */\n      0x01\n        /* \"Campaign.sol\":1997:2020  requests[numRequests++] */\n      0x00\n        /* \"Campaign.sol\":2006:2017  numRequests */\n      dup1\n      0x00\n        /* \"Campaign.sol\":2006:2019  numRequests++ */\n      dup2\n      sload\n      dup1\n      swap3\n      swap2\n      swap1\n      tag_68\n      swap1\n      tag_69\n      jump\t// in\n    tag_68:\n      swap2\n      swap1\n      pop\n      sstore\n        /* \"Campaign.sol\":1997:2020  requests[numRequests++] */\n      dup2\n      mstore\n      0x20\n      add\n      swap1\n      dup2\n      mstore\n      0x20\n      add\n      0x00\n      keccak256\n        /* \"Campaign.sol\":1977:2020  Request storage r = requests[numRequests++] */\n      swap1\n      pop\n        /* \"Campaign.sol\":2046:2057  description */\n      dup5\n      dup5\n        /* \"Campaign.sol\":2030:2031  r */\n      dup3\n        /* \"Campaign.sol\":2030:2043  r.description */\n      0x00\n      add\n        /* \"Campaign.sol\":2030:2057  r.description = description */\n      swap2\n      dup3\n      tag_70\n      swap3\n      swap2\n      swap1\n      tag_71\n      jump\t// in\n    tag_70:\n      pop\n        /* \"Campaign.sol\":2077:2082  value */\n      dup3\n        /* \"Campaign.sol\":2067:2068  r */\n      dup2\n        /* \"Campaign.sol\":2067:2074  r.value */\n      0x01\n      add\n        /* \"Campaign.sol\":2067:2082  r.value = value */\n      dup2\n      swap1\n      sstore\n      pop\n        /* \"Campaign.sol\":2106:2115  recipient */\n      dup2\n        /* \"Campaign.sol\":2092:2093  r */\n      dup2\n        /* \"Campaign.sol\":2092:2103  r.recipient */\n      0x02\n      add\n      0x00\n        /* \"Campaign.sol\":2092:2115  r.recipient = recipient */\n      0x0100\n      exp\n      dup2\n      sload\n      dup2\n      0xffffffffffffffffffffffffffffffffffffffff\n      mul\n      not\n      and\n      swap1\n      dup4\n      0xffffffffffffffffffffffffffffffffffffffff\n      and\n      mul\n      or\n      swap1\n      sstore\n      pop\n        /* \"Campaign.sol\":2138:2143  false */\n      0x00\n        /* \"Campaign.sol\":2125:2126  r */\n      dup2\n        /* \"Campaign.sol\":2125:2135  r.complete */\n      0x02\n      add\n      0x14\n        /* \"Campaign.sol\":2125:2143  r.complete = false */\n      0x0100\n      exp\n      dup2\n      sload\n      dup2\n      0xff\n      mul\n      not\n      and\n      swap1\n      dup4\n      iszero\n      iszero\n      mul\n      or\n      swap1\n      sstore\n      pop\n        /* \"Campaign.sol\":2171:2172  0 */\n      0x00\n        /* \"Campaign.sol\":2153:2154  r */\n      dup2\n        /* \"Campaign.sol\":2153:2168  r.approvalCount */\n      0x03\n      add\n        /* \"Campaign.sol\":2153:2172  r.approvalCount = 0 */\n      dup2\n      swap1\n      sstore\n      pop\n        /* \"Campaign.sol\":1967:2179  {... */\n      pop\n        /* \"Campaign.sol\":1828:2179  function createRequest(... */\n      pop\n      pop\n      pop\n      pop\n      jump\t// out\n        /* \"Campaign.sol\":742:773  uint public minimumContribution */\n    tag_41:\n      sload(0x03)\n      dup2\n      jump\t// out\n        /* \"Campaign.sol\":1285:1822  function getRequest(... */\n    tag_46:\n        /* \"Campaign.sol\":1389:1414  string memory description */\n      0x60\n        /* \"Campaign.sol\":1428:1438  uint value */\n      0x00\n        /* \"Campaign.sol\":1452:1469  address recipient */\n      dup1\n        /* \"Campaign.sol\":1483:1496  bool complete */\n      0x00\n        /* \"Campaign.sol\":1510:1528  uint approvalCount */\n      dup1\n        /* \"Campaign.sol\":1569:1580  numRequests */\n      sload(0x00)\n        /* \"Campaign.sol\":1561:1566  index */\n      dup7\n        /* \"Campaign.sol\":1561:1580  index < numRequests */\n      lt\n        /* \"Campaign.sol\":1553:1581  require(index < numRequests) */\n      tag_73\n      jumpi\n      0x00\n      dup1\n      revert\n    tag_73:\n        /* \"Campaign.sol\":1591:1614  Request storage request */\n      0x00\n        /* \"Campaign.sol\":1617:1625  requests */\n      0x01\n        /* \"Campaign.sol\":1617:1632  requests[index] */\n      0x00\n        /* \"Campaign.sol\":1626:1631  index */\n      dup9\n        /* \"Campaign.sol\":1617:1632  requests[index] */\n      dup2\n      mstore\n      0x20\n      add\n      swap1\n      dup2\n      mstore\n      0x20\n      add\n      0x00\n      keccak256\n        /* \"Campaign.sol\":1591:1632  Request storage request = requests[index] */\n      swap1\n      pop\n        /* \"Campaign.sol\":1663:1670  request */\n      dup1\n        /* \"Campaign.sol\":1663:1682  request.description */\n      0x00\n      add\n        /* \"Campaign.sol\":1696:1703  request */\n      dup2\n        /* \"Campaign.sol\":1696:1709  request.value */\n      0x01\n      add\n      sload\n        /* \"Campaign.sol\":1723:1730  request */\n      dup3\n        /* \"Campaign.sol\":1723:1740  request.recipient */\n      0x02\n      add\n      0x00\n      swap1\n      sload\n      swap1\n      0x0100\n      exp\n      swap1\n      div\n      0xffffffffffffffffffffffffffffffffffffffff\n      and\n        /* \"Campaign.sol\":1754:1761  request */\n      dup4\n        /* \"Campaign.sol\":1754:1770  request.complete */\n      0x02\n      add\n      0x14\n      swap1\n      sload\n      swap1\n      0x0100\n      exp\n      swap1\n      div\n      0xff\n      and\n        /* \"Campaign.sol\":1784:1791  request */\n      dup5\n        /* \"Campaign.sol\":1784:1805  request.approvalCount */\n      0x03\n      add\n      sload\n        /* \"Campaign.sol\":1642:1815  return (... */\n      dup5\n      dup1\n      sload\n      tag_74\n      swap1\n      tag_75\n      jump\t// in\n    tag_74:\n      dup1\n      0x1f\n      add\n      0x20\n      dup1\n      swap2\n      div\n      mul\n      0x20\n      add\n      mload(0x40)\n      swap1\n      dup2\n      add\n      0x40\n      mstore\n      dup1\n      swap3\n      swap2\n      swap1\n      dup2\n      dup2\n      mstore\n      0x20\n      add\n      dup3\n      dup1\n      sload\n      tag_76\n      swap1\n      tag_75\n      jump\t// in\n    tag_76:\n      dup1\n      iszero\n      tag_77\n      jumpi\n      dup1\n      0x1f\n      lt\n      tag_78\n      jumpi\n      0x0100\n      dup1\n      dup4\n      sload\n      div\n      mul\n      dup4\n      mstore\n      swap2\n      0x20\n      add\n      swap2\n      jump(tag_77)\n    tag_78:\n      dup3\n      add\n      swap2\n      swap1\n      0x00\n      mstore\n      keccak256(0x00, 0x20)\n      swap1\n    tag_79:\n      dup2\n      sload\n      dup2\n      mstore\n      swap1\n      0x01\n      add\n      swap1\n      0x20\n      add\n      dup1\n      dup4\n      gt\n      tag_79\n      jumpi\n      dup3\n      swap1\n      sub\n      0x1f\n      and\n      dup3\n      add\n      swap2\n    tag_77:\n      pop\n      pop\n      pop\n      pop\n      pop\n      swap5\n      pop\n      swap6\n      pop\n      swap6\n      pop\n      swap6\n      pop\n      swap6\n      pop\n      swap6\n      pop\n      pop\n        /* \"Campaign.sol\":1285:1822  function getRequest(... */\n      swap2\n      swap4\n      swap6\n      swap1\n      swap3\n      swap5\n      pop\n      jump\t// out\n        /* \"Campaign.sol\":1081:1279  function contribute() public payable {... */\n    tag_50:\n        /* \"Campaign.sol\":1150:1157  manager */\n      0x02\n      0x00\n      swap1\n      sload\n      swap1\n      0x0100\n      exp\n      swap1\n      div\n      0xffffffffffffffffffffffffffffffffffffffff\n      and\n        /* \"Campaign.sol\":1136:1157  msg.sender != manager */\n      0xffffffffffffffffffffffffffffffffffffffff\n      and\n        /* \"Campaign.sol\":1136:1146  msg.sender */\n      caller\n        /* \"Campaign.sol\":1136:1157  msg.sender != manager */\n      0xffffffffffffffffffffffffffffffffffffffff\n      and\n      sub\n        /* \"Campaign.sol\":1128:1158  require(msg.sender != manager) */\n      tag_81\n      jumpi\n      0x00\n      dup1\n      revert\n    tag_81:\n        /* \"Campaign.sol\":1188:1207  minimumContribution */\n      sload(0x03)\n        /* \"Campaign.sol\":1176:1185  msg.value */\n      callvalue\n        /* \"Campaign.sol\":1176:1207  msg.value > minimumContribution */\n      gt\n        /* \"Campaign.sol\":1168:1208  require(msg.value > minimumContribution) */\n      tag_82\n      jumpi\n      0x00\n      dup1\n      revert\n    tag_82:\n        /* \"Campaign.sol\":1242:1246  true */\n      0x01\n        /* \"Campaign.sol\":1218:1227  approvers */\n      0x04\n        /* \"Campaign.sol\":1218:1239  approvers[msg.sender] */\n      0x00\n        /* \"Campaign.sol\":1228:1238  msg.sender */\n      caller\n        /* \"Campaign.sol\":1218:1239  approvers[msg.sender] */\n      0xffffffffffffffffffffffffffffffffffffffff\n      and\n      0xffffffffffffffffffffffffffffffffffffffff\n      and\n      dup2\n      mstore\n      0x20\n      add\n      swap1\n      dup2\n      mstore\n      0x20\n      add\n      0x00\n      keccak256\n      0x00\n        /* \"Campaign.sol\":1218:1246  approvers[msg.sender] = true */\n      0x0100\n      exp\n      dup2\n      sload\n      dup2\n      0xff\n      mul\n      not\n      and\n      swap1\n      dup4\n      iszero\n      iszero\n      mul\n      or\n      swap1\n      sstore\n      pop\n        /* \"Campaign.sol\":1256:1270  approversCount */\n      0x05\n      0x00\n        /* \"Campaign.sol\":1256:1272  approversCount++ */\n      dup2\n      sload\n      dup1\n      swap3\n      swap2\n      swap1\n      tag_83\n      swap1\n      tag_69\n      jump\t// in\n    tag_83:\n      swap2\n      swap1\n      pop\n      sstore\n      pop\n        /* \"Campaign.sol\":1081:1279  function contribute() public payable {... */\n      jump\t// out\n        /* \"Campaign.sol\":2185:2494  function approveRequest(uint index) public {... */\n    tag_54:\n        /* \"Campaign.sol\":2254:2265  numRequests */\n      sload(0x00)\n        /* \"Campaign.sol\":2246:2251  index */\n      dup2\n        /* \"Campaign.sol\":2246:2265  index < numRequests */\n      lt\n        /* \"Campaign.sol\":2238:2266  require(index < numRequests) */\n      tag_85\n      jumpi\n      0x00\n      dup1\n      revert\n    tag_85:\n        /* \"Campaign.sol\":2276:2299  Request storage request */\n      0x00\n        /* \"Campaign.sol\":2302:2310  requests */\n      0x01\n        /* \"Campaign.sol\":2302:2317  requests[index] */\n      0x00\n        /* \"Campaign.sol\":2311:2316  index */\n      dup4\n        /* \"Campaign.sol\":2302:2317  requests[index] */\n      dup2\n      mstore\n      0x20\n      add\n      swap1\n      dup2\n      mstore\n      0x20\n      add\n      0x00\n      keccak256\n        /* \"Campaign.sol\":2276:2317  Request storage request = requests[index] */\n      swap1\n      pop\n        /* \"Campaign.sol\":2336:2345  approvers */\n      0x04\n        /* \"Campaign.sol\":2336:2357  approvers[msg.sender] */\n      0x00\n        /* \"Campaign.sol\":2346:2356  msg.sender */\n      caller\n        /* \"Campaign.sol\":2336:2357  approvers[msg.sender] */\n      0xffffffffffffffffffffffffffffffffffffffff\n      and\n      0xffffffffffffffffffffffffffffffffffffffff\n      and\n      dup2\n      mstore\n      0x20\n      add\n      swap1\n      dup2\n      mstore\n      0x20\n      add\n      0x00\n      keccak256\n      0x00\n      swap1\n      sload\n      swap1\n      0x0100\n      exp\n      swap1\n      div\n      0xff\n      and\n        /* \"Campaign.sol\":2328:2358  require(approvers[msg.sender]) */\n      tag_86\n      jumpi\n      0x00\n      dup1\n      revert\n    tag_86:\n        /* \"Campaign.sol\":2377:2384  request */\n      dup1\n        /* \"Campaign.sol\":2377:2394  request.approvals */\n      0x04\n      add\n        /* \"Campaign.sol\":2377:2406  request.approvals[msg.sender] */\n      0x00\n        /* \"Campaign.sol\":2395:2405  msg.sender */\n      caller\n        /* \"Campaign.sol\":2377:2406  request.approvals[msg.sender] */\n      0xffffffffffffffffffffffffffffffffffffffff\n      and\n      0xffffffffffffffffffffffffffffffffffffffff\n      and\n      dup2\n      mstore\n      0x20\n      add\n      swap1\n      dup2\n      mstore\n      0x20\n      add\n      0x00\n      keccak256\n      0x00\n      swap1\n      sload\n      swap1\n      0x0100\n      exp\n      swap1\n      div\n      0xff\n      and\n        /* \"Campaign.sol\":2376:2406  !request.approvals[msg.sender] */\n      iszero\n        /* \"Campaign.sol\":2368:2407  require(!request.approvals[msg.sender]) */\n      tag_87\n      jumpi\n      0x00\n      dup1\n      revert\n    tag_87:\n        /* \"Campaign.sol\":2450:2454  true */\n      0x01\n        /* \"Campaign.sol\":2418:2425  request */\n      dup2\n        /* \"Campaign.sol\":2418:2435  request.approvals */\n      0x04\n      add\n        /* \"Campaign.sol\":2418:2447  request.approvals[msg.sender] */\n      0x00\n        /* \"Campaign.sol\":2436:2446  msg.sender */\n      caller\n        /* \"Campaign.sol\":2418:2447  request.approvals[msg.sender] */\n      0xffffffffffffffffffffffffffffffffffffffff\n      and\n      0xffffffffffffffffffffffffffffffffffffffff\n      and\n      dup2\n      mstore\n      0x20\n      add\n      swap1\n      dup2\n      mstore\n      0x20\n      add\n      0x00\n      keccak256\n      0x00\n        /* \"Campaign.sol\":2418:2454  request.approvals[msg.sender] = true */\n      0x0100\n      exp\n      dup2\n      sload\n      dup2\n      0xff\n      mul\n      not\n      and\n      swap1\n      dup4\n      iszero\n      iszero\n      mul\n      or\n      swap1\n      sstore\n      pop\n        /* \"Campaign.sol\":2464:2471  request */\n      dup1\n        /* \"Campaign.sol\":2464:2485  request.approvalCount */\n      0x03\n      add\n      0x00\n        /* \"Campaign.sol\":2464:2487  request.approvalCount++ */\n      dup2\n      sload\n      dup1\n      swap3\n      swap2\n      swap1\n      tag_88\n      swap1\n      tag_69\n      jump\t// in\n    tag_88:\n      swap2\n      swap1\n      pop\n      sstore\n      pop\n        /* \"Campaign.sol\":2228:2494  {... */\n      pop\n        /* \"Campaign.sol\":2185:2494  function approveRequest(uint index) public {... */\n      pop\n      jump\t// out\n        /* \"#utility.yul\":88:205   */\n    tag_90:\n        /* \"#utility.yul\":197:198   */\n      0x00\n        /* \"#utility.yul\":194:195   */\n      dup1\n        /* \"#utility.yul\":187:199   */\n      revert\n        /* \"#utility.yul\":211:328   */\n    tag_91:\n        /* \"#utility.yul\":320:321   */\n      0x00\n        /* \"#utility.yul\":317:318   */\n      dup1\n        /* \"#utility.yul\":310:322   */\n      revert\n        /* \"#utility.yul\":334:411   */\n    tag_92:\n        /* \"#utility.yul\":371:378   */\n      0x00\n        /* \"#utility.yul\":400:405   */\n      dup2\n        /* \"#utility.yul\":389:405   */\n      swap1\n      pop\n        /* \"#utility.yul\":334:411   */\n      swap2\n      swap1\n      pop\n      jump\t// out\n        /* \"#utility.yul\":417:539   */\n    tag_93:\n        /* \"#utility.yul\":490:514   */\n      tag_141\n        /* \"#utility.yul\":508:513   */\n      dup2\n        /* \"#utility.yul\":490:514   */\n      tag_92\n      jump\t// in\n    tag_141:\n        /* \"#utility.yul\":483:488   */\n      dup2\n        /* \"#utility.yul\":480:515   */\n      eq\n        /* \"#utility.yul\":470:533   */\n      tag_142\n      jumpi\n        /* \"#utility.yul\":529:530   */\n      0x00\n        /* \"#utility.yul\":526:527   */\n      dup1\n        /* \"#utility.yul\":519:531   */\n      revert\n        /* \"#utility.yul\":470:533   */\n    tag_142:\n        /* \"#utility.yul\":417:539   */\n      pop\n      jump\t// out\n        /* \"#utility.yul\":545:684   */\n    tag_94:\n        /* \"#utility.yul\":591:596   */\n      0x00\n        /* \"#utility.yul\":629:635   */\n      dup2\n        /* \"#utility.yul\":616:636   */\n      calldataload\n        /* \"#utility.yul\":607:636   */\n      swap1\n      pop\n        /* \"#utility.yul\":645:678   */\n      tag_144\n        /* \"#utility.yul\":672:677   */\n      dup2\n        /* \"#utility.yul\":645:678   */\n      tag_93\n      jump\t// in\n    tag_144:\n        /* \"#utility.yul\":545:684   */\n      swap3\n      swap2\n      pop\n      pop\n      jump\t// out\n        /* \"#utility.yul\":690:1019   */\n    tag_15:\n        /* \"#utility.yul\":749:755   */\n      0x00\n        /* \"#utility.yul\":798:800   */\n      0x20\n        /* \"#utility.yul\":786:795   */\n      dup3\n        /* \"#utility.yul\":777:784   */\n      dup5\n        /* \"#utility.yul\":773:796   */\n      sub\n        /* \"#utility.yul\":769:801   */\n      slt\n        /* \"#utility.yul\":766:885   */\n      iszero\n      tag_146\n      jumpi\n        /* \"#utility.yul\":804:883   */\n      tag_147\n      tag_90\n      jump\t// in\n    tag_147:\n        /* \"#utility.yul\":766:885   */\n    tag_146:\n        /* \"#utility.yul\":924:925   */\n      0x00\n        /* \"#utility.yul\":949:1002   */\n      tag_148\n        /* \"#utility.yul\":994:1001   */\n      dup5\n        /* \"#utility.yul\":985:991   */\n      dup3\n        /* \"#utility.yul\":974:983   */\n      dup6\n        /* \"#utility.yul\":970:992   */\n      add\n        /* \"#utility.yul\":949:1002   */\n      tag_94\n      jump\t// in\n    tag_148:\n        /* \"#utility.yul\":939:1002   */\n      swap2\n      pop\n        /* \"#utility.yul\":895:1012   */\n      pop\n        /* \"#utility.yul\":690:1019   */\n      swap3\n      swap2\n      pop\n      pop\n      jump\t// out\n        /* \"#utility.yul\":1025:1151   */\n    tag_95:\n        /* \"#utility.yul\":1062:1069   */\n      0x00\n        /* \"#utility.yul\":1102:1144   */\n      0xffffffffffffffffffffffffffffffffffffffff\n        /* \"#utility.yul\":1095:1100   */\n      dup3\n        /* \"#utility.yul\":1091:1145   */\n      and\n        /* \"#utility.yul\":1080:1145   */\n      swap1\n      pop\n        /* \"#utility.yul\":1025:1151   */\n      swap2\n      swap1\n      pop\n      jump\t// out\n        /* \"#utility.yul\":1157:1253   */\n    tag_96:\n        /* \"#utility.yul\":1194:1201   */\n      0x00\n        /* \"#utility.yul\":1223:1247   */\n      tag_151\n        /* \"#utility.yul\":1241:1246   */\n      dup3\n        /* \"#utility.yul\":1223:1247   */\n      tag_95\n      jump\t// in\n    tag_151:\n        /* \"#utility.yul\":1212:1247   */\n      swap1\n      pop\n        /* \"#utility.yul\":1157:1253   */\n      swap2\n      swap1\n      pop\n      jump\t// out\n        /* \"#utility.yul\":1259:1381   */\n    tag_97:\n        /* \"#utility.yul\":1332:1356   */\n      tag_153\n        /* \"#utility.yul\":1350:1355   */\n      dup2\n        /* \"#utility.yul\":1332:1356   */\n      tag_96\n      jump\t// in\n    tag_153:\n        /* \"#utility.yul\":1325:1330   */\n      dup2\n        /* \"#utility.yul\":1322:1357   */\n      eq\n        /* \"#utility.yul\":1312:1375   */\n      tag_154\n      jumpi\n        /* \"#utility.yul\":1371:1372   */\n      0x00\n        /* \"#utility.yul\":1368:1369   */\n      dup1\n        /* \"#utility.yul\":1361:1373   */\n      revert\n        /* \"#utility.yul\":1312:1375   */\n    tag_154:\n        /* \"#utility.yul\":1259:1381   */\n      pop\n      jump\t// out\n        /* \"#utility.yul\":1387:1526   */\n    tag_98:\n        /* \"#utility.yul\":1433:1438   */\n      0x00\n        /* \"#utility.yul\":1471:1477   */\n      dup2\n        /* \"#utility.yul\":1458:1478   */\n      calldataload\n        /* \"#utility.yul\":1449:1478   */\n      swap1\n      pop\n        /* \"#utility.yul\":1487:1520   */\n      tag_156\n        /* \"#utility.yul\":1514:1519   */\n      dup2\n        /* \"#utility.yul\":1487:1520   */\n      tag_97\n      jump\t// in\n    tag_156:\n        /* \"#utility.yul\":1387:1526   */\n      swap3\n      swap2\n      pop\n      pop\n      jump\t// out\n        /* \"#utility.yul\":1532:1861   */\n    tag_20:\n        /* \"#utility.yul\":1591:1597   */\n      0x00\n        /* \"#utility.yul\":1640:1642   */\n      0x20\n        /* \"#utility.yul\":1628:1637   */\n      dup3\n        /* \"#utility.yul\":1619:1626   */\n      dup5\n        /* \"#utility.yul\":1615:1638   */\n      sub\n        /* \"#utility.yul\":1611:1643   */\n      slt\n        /* \"#utility.yul\":1608:1727   */\n      iszero\n      tag_158\n      jumpi\n        /* \"#utility.yul\":1646:1725   */\n      tag_159\n      tag_90\n      jump\t// in\n    tag_159:\n        /* \"#utility.yul\":1608:1727   */\n    tag_158:\n        /* \"#utility.yul\":1766:1767   */\n      0x00\n        /* \"#utility.yul\":1791:1844   */\n      tag_160\n        /* \"#utility.yul\":1836:1843   */\n      dup5\n        /* \"#utility.yul\":1827:1833   */\n      dup3\n        /* \"#utility.yul\":1816:1825   */\n      dup6\n        /* \"#utility.yul\":1812:1834   */\n      add\n        /* \"#utility.yul\":1791:1844   */\n      tag_98\n      jump\t// in\n    tag_160:\n        /* \"#utility.yul\":1781:1844   */\n      swap2\n      pop\n        /* \"#utility.yul\":1737:1854   */\n      pop\n        /* \"#utility.yul\":1532:1861   */\n      swap3\n      swap2\n      pop\n      pop\n      jump\t// out\n        /* \"#utility.yul\":1867:1957   */\n    tag_99:\n        /* \"#utility.yul\":1901:1908   */\n      0x00\n        /* \"#utility.yul\":1944:1949   */\n      dup2\n        /* \"#utility.yul\":1937:1950   */\n      iszero\n        /* \"#utility.yul\":1930:1951   */\n      iszero\n        /* \"#utility.yul\":1919:1951   */\n      swap1\n      pop\n        /* \"#utility.yul\":1867:1957   */\n      swap2\n      swap1\n      pop\n      jump\t// out\n        /* \"#utility.yul\":1963:2072   */\n    tag_100:\n        /* \"#utility.yul\":2044:2065   */\n      tag_163\n        /* \"#utility.yul\":2059:2064   */\n      dup2\n        /* \"#utility.yul\":2044:2065   */\n      tag_99\n      jump\t// in\n    tag_163:\n        /* \"#utility.yul\":2039:2042   */\n      dup3\n        /* \"#utility.yul\":2032:2066   */\n      mstore\n        /* \"#utility.yul\":1963:2072   */\n      pop\n      pop\n      jump\t// out\n        /* \"#utility.yul\":2078:2288   */\n    tag_23:\n        /* \"#utility.yul\":2165:2169   */\n      0x00\n        /* \"#utility.yul\":2203:2205   */\n      0x20\n        /* \"#utility.yul\":2192:2201   */\n      dup3\n        /* \"#utility.yul\":2188:2206   */\n      add\n        /* \"#utility.yul\":2180:2206   */\n      swap1\n      pop\n        /* \"#utility.yul\":2216:2281   */\n      tag_165\n        /* \"#utility.yul\":2278:2279   */\n      0x00\n        /* \"#utility.yul\":2267:2276   */\n      dup4\n        /* \"#utility.yul\":2263:2280   */\n      add\n        /* \"#utility.yul\":2254:2260   */\n      dup5\n        /* \"#utility.yul\":2216:2281   */\n      tag_100\n      jump\t// in\n    tag_165:\n        /* \"#utility.yul\":2078:2288   */\n      swap3\n      swap2\n      pop\n      pop\n      jump\t// out\n        /* \"#utility.yul\":2294:2412   */\n    tag_101:\n        /* \"#utility.yul\":2381:2405   */\n      tag_167\n        /* \"#utility.yul\":2399:2404   */\n      dup2\n        /* \"#utility.yul\":2381:2405   */\n      tag_96\n      jump\t// in\n    tag_167:\n        /* \"#utility.yul\":2376:2379   */\n      dup3\n        /* \"#utility.yul\":2369:2406   */\n      mstore\n        /* \"#utility.yul\":2294:2412   */\n      pop\n      pop\n      jump\t// out\n        /* \"#utility.yul\":2418:2640   */\n    tag_28:\n        /* \"#utility.yul\":2511:2515   */\n      0x00\n        /* \"#utility.yul\":2549:2551   */\n      0x20\n        /* \"#utility.yul\":2538:2547   */\n      dup3\n        /* \"#utility.yul\":2534:2552   */\n      add\n        /* \"#utility.yul\":2526:2552   */\n      swap1\n      pop\n        /* \"#utility.yul\":2562:2633   */\n      tag_169\n        /* \"#utility.yul\":2630:2631   */\n      0x00\n        /* \"#utility.yul\":2619:2628   */\n      dup4\n        /* \"#utility.yul\":2615:2632   */\n      add\n        /* \"#utility.yul\":2606:2612   */\n      dup5\n        /* \"#utility.yul\":2562:2633   */\n      tag_101\n      jump\t// in\n    tag_169:\n        /* \"#utility.yul\":2418:2640   */\n      swap3\n      swap2\n      pop\n      pop\n      jump\t// out\n        /* \"#utility.yul\":2646:2764   */\n    tag_102:\n        /* \"#utility.yul\":2733:2757   */\n      tag_171\n        /* \"#utility.yul\":2751:2756   */\n      dup2\n        /* \"#utility.yul\":2733:2757   */\n      tag_92\n      jump\t// in\n    tag_171:\n        /* \"#utility.yul\":2728:2731   */\n      dup3\n        /* \"#utility.yul\":2721:2758   */\n      mstore\n        /* \"#utility.yul\":2646:2764   */\n      pop\n      pop\n      jump\t// out\n        /* \"#utility.yul\":2770:2992   */\n    tag_33:\n        /* \"#utility.yul\":2863:2867   */\n      0x00\n        /* \"#utility.yul\":2901:2903   */\n      0x20\n        /* \"#utility.yul\":2890:2899   */\n      dup3\n        /* \"#utility.yul\":2886:2904   */\n      add\n        /* \"#utility.yul\":2878:2904   */\n      swap1\n      pop\n        /* \"#utility.yul\":2914:2985   */\n      tag_173\n        /* \"#utility.yul\":2982:2983   */\n      0x00\n        /* \"#utility.yul\":2971:2980   */\n      dup4\n        /* \"#utility.yul\":2967:2984   */\n      add\n        /* \"#utility.yul\":2958:2964   */\n      dup5\n        /* \"#utility.yul\":2914:2985   */\n      tag_102\n      jump\t// in\n    tag_173:\n        /* \"#utility.yul\":2770:2992   */\n      swap3\n      swap2\n      pop\n      pop\n      jump\t// out\n        /* \"#utility.yul\":2998:3115   */\n    tag_103:\n        /* \"#utility.yul\":3107:3108   */\n      0x00\n        /* \"#utility.yul\":3104:3105   */\n      dup1\n        /* \"#utility.yul\":3097:3109   */\n      revert\n        /* \"#utility.yul\":3121:3238   */\n    tag_104:\n        /* \"#utility.yul\":3230:3231   */\n      0x00\n        /* \"#utility.yul\":3227:3228   */\n      dup1\n        /* \"#utility.yul\":3220:3232   */\n      revert\n        /* \"#utility.yul\":3244:3361   */\n    tag_105:\n        /* \"#utility.yul\":3353:3354   */\n      0x00\n        /* \"#utility.yul\":3350:3351   */\n      dup1\n        /* \"#utility.yul\":3343:3355   */\n      revert\n        /* \"#utility.yul\":3381:3934   */\n    tag_106:\n        /* \"#utility.yul\":3439:3447   */\n      0x00\n        /* \"#utility.yul\":3449:3455   */\n      dup1\n        /* \"#utility.yul\":3499:3502   */\n      dup4\n        /* \"#utility.yul\":3492:3496   */\n      0x1f\n        /* \"#utility.yul\":3484:3490   */\n      dup5\n        /* \"#utility.yul\":3480:3497   */\n      add\n        /* \"#utility.yul\":3476:3503   */\n      slt\n        /* \"#utility.yul\":3466:3588   */\n      tag_178\n      jumpi\n        /* \"#utility.yul\":3507:3586   */\n      tag_179\n      tag_103\n      jump\t// in\n    tag_179:\n        /* \"#utility.yul\":3466:3588   */\n    tag_178:\n        /* \"#utility.yul\":3620:3626   */\n      dup3\n        /* \"#utility.yul\":3607:3627   */\n      calldataload\n        /* \"#utility.yul\":3597:3627   */\n      swap1\n      pop\n        /* \"#utility.yul\":3650:3668   */\n      0xffffffffffffffff\n        /* \"#utility.yul\":3642:3648   */\n      dup2\n        /* \"#utility.yul\":3639:3669   */\n      gt\n        /* \"#utility.yul\":3636:3753   */\n      iszero\n      tag_180\n      jumpi\n        /* \"#utility.yul\":3672:3751   */\n      tag_181\n      tag_104\n      jump\t// in\n    tag_181:\n        /* \"#utility.yul\":3636:3753   */\n    tag_180:\n        /* \"#utility.yul\":3786:3790   */\n      0x20\n        /* \"#utility.yul\":3778:3784   */\n      dup4\n        /* \"#utility.yul\":3774:3791   */\n      add\n        /* \"#utility.yul\":3762:3791   */\n      swap2\n      pop\n        /* \"#utility.yul\":3840:3843   */\n      dup4\n        /* \"#utility.yul\":3832:3836   */\n      0x01\n        /* \"#utility.yul\":3824:3830   */\n      dup3\n        /* \"#utility.yul\":3820:3837   */\n      mul\n        /* \"#utility.yul\":3810:3818   */\n      dup4\n        /* \"#utility.yul\":3806:3838   */\n      add\n        /* \"#utility.yul\":3803:3844   */\n      gt\n        /* \"#utility.yul\":3800:3928   */\n      iszero\n      tag_182\n      jumpi\n        /* \"#utility.yul\":3847:3926   */\n      tag_183\n      tag_105\n      jump\t// in\n    tag_183:\n        /* \"#utility.yul\":3800:3928   */\n    tag_182:\n        /* \"#utility.yul\":3381:3934   */\n      swap3\n      pop\n      swap3\n      swap1\n      pop\n      jump\t// out\n        /* \"#utility.yul\":3940:4044   */\n    tag_107:\n        /* \"#utility.yul\":3985:3992   */\n      0x00\n        /* \"#utility.yul\":4014:4038   */\n      tag_185\n        /* \"#utility.yul\":4032:4037   */\n      dup3\n        /* \"#utility.yul\":4014:4038   */\n      tag_95\n      jump\t// in\n    tag_185:\n        /* \"#utility.yul\":4003:4038   */\n      swap1\n      pop\n        /* \"#utility.yul\":3940:4044   */\n      swap2\n      swap1\n      pop\n      jump\t// out\n        /* \"#utility.yul\":4050:4188   */\n    tag_108:\n        /* \"#utility.yul\":4131:4163   */\n      tag_187\n        /* \"#utility.yul\":4157:4162   */\n      dup2\n        /* \"#utility.yul\":4131:4163   */\n      tag_107\n      jump\t// in\n    tag_187:\n        /* \"#utility.yul\":4124:4129   */\n      dup2\n        /* \"#utility.yul\":4121:4164   */\n      eq\n        /* \"#utility.yul\":4111:4182   */\n      tag_188\n      jumpi\n        /* \"#utility.yul\":4178:4179   */\n      0x00\n        /* \"#utility.yul\":4175:4176   */\n      dup1\n        /* \"#utility.yul\":4168:4180   */\n      revert\n        /* \"#utility.yul\":4111:4182   */\n    tag_188:\n        /* \"#utility.yul\":4050:4188   */\n      pop\n      jump\t// out\n        /* \"#utility.yul\":4194:4349   */\n    tag_109:\n        /* \"#utility.yul\":4248:4253   */\n      0x00\n        /* \"#utility.yul\":4286:4292   */\n      dup2\n        /* \"#utility.yul\":4273:4293   */\n      calldataload\n        /* \"#utility.yul\":4264:4293   */\n      swap1\n      pop\n        /* \"#utility.yul\":4302:4343   */\n      tag_190\n        /* \"#utility.yul\":4337:4342   */\n      dup2\n        /* \"#utility.yul\":4302:4343   */\n      tag_108\n      jump\t// in\n    tag_190:\n        /* \"#utility.yul\":4194:4349   */\n      swap3\n      swap2\n      pop\n      pop\n      jump\t// out\n        /* \"#utility.yul\":4355:5190   */\n    tag_37:\n        /* \"#utility.yul\":4452:4458   */\n      0x00\n        /* \"#utility.yul\":4460:4466   */\n      dup1\n        /* \"#utility.yul\":4468:4474   */\n      0x00\n        /* \"#utility.yul\":4476:4482   */\n      dup1\n        /* \"#utility.yul\":4525:4527   */\n      0x60\n        /* \"#utility.yul\":4513:4522   */\n      dup6\n        /* \"#utility.yul\":4504:4511   */\n      dup8\n        /* \"#utility.yul\":4500:4523   */\n      sub\n        /* \"#utility.yul\":4496:4528   */\n      slt\n        /* \"#utility.yul\":4493:4612   */\n      iszero\n      tag_192\n      jumpi\n        /* \"#utility.yul\":4531:4610   */\n      tag_193\n      tag_90\n      jump\t// in\n    tag_193:\n        /* \"#utility.yul\":4493:4612   */\n    tag_192:\n        /* \"#utility.yul\":4679:4680   */\n      0x00\n        /* \"#utility.yul\":4668:4677   */\n      dup6\n        /* \"#utility.yul\":4664:4681   */\n      add\n        /* \"#utility.yul\":4651:4682   */\n      calldataload\n        /* \"#utility.yul\":4709:4727   */\n      0xffffffffffffffff\n        /* \"#utility.yul\":4701:4707   */\n      dup2\n        /* \"#utility.yul\":4698:4728   */\n      gt\n        /* \"#utility.yul\":4695:4812   */\n      iszero\n      tag_194\n      jumpi\n        /* \"#utility.yul\":4731:4810   */\n      tag_195\n      tag_91\n      jump\t// in\n    tag_195:\n        /* \"#utility.yul\":4695:4812   */\n    tag_194:\n        /* \"#utility.yul\":4844:4909   */\n      tag_196\n        /* \"#utility.yul\":4901:4908   */\n      dup8\n        /* \"#utility.yul\":4892:4898   */\n      dup3\n        /* \"#utility.yul\":4881:4890   */\n      dup9\n        /* \"#utility.yul\":4877:4899   */\n      add\n        /* \"#utility.yul\":4844:4909   */\n      tag_106\n      jump\t// in\n    tag_196:\n        /* \"#utility.yul\":4826:4909   */\n      swap5\n      pop\n      swap5\n      pop\n        /* \"#utility.yul\":4622:4919   */\n      pop\n        /* \"#utility.yul\":4958:4960   */\n      0x20\n        /* \"#utility.yul\":4984:5037   */\n      tag_197\n        /* \"#utility.yul\":5029:5036   */\n      dup8\n        /* \"#utility.yul\":5020:5026   */\n      dup3\n        /* \"#utility.yul\":5009:5018   */\n      dup9\n        /* \"#utility.yul\":5005:5027   */\n      add\n        /* \"#utility.yul\":4984:5037   */\n      tag_94\n      jump\t// in\n    tag_197:\n        /* \"#utility.yul\":4974:5037   */\n      swap3\n      pop\n        /* \"#utility.yul\":4929:5047   */\n      pop\n        /* \"#utility.yul\":5086:5088   */\n      0x40\n        /* \"#utility.yul\":5112:5173   */\n      tag_198\n        /* \"#utility.yul\":5165:5172   */\n      dup8\n        /* \"#utility.yul\":5156:5162   */\n      dup3\n        /* \"#utility.yul\":5145:5154   */\n      dup9\n        /* \"#utility.yul\":5141:5163   */\n      add\n        /* \"#utility.yul\":5112:5173   */\n      tag_109\n      jump\t// in\n    tag_198:\n        /* \"#utility.yul\":5102:5173   */\n      swap2\n      pop\n        /* \"#utility.yul\":5057:5183   */\n      pop\n        /* \"#utility.yul\":4355:5190   */\n      swap3\n      swap6\n      swap2\n      swap5\n      pop\n      swap3\n      pop\n      jump\t// out\n        /* \"#utility.yul\":5196:5295   */\n    tag_110:\n        /* \"#utility.yul\":5248:5254   */\n      0x00\n        /* \"#utility.yul\":5282:5287   */\n      dup2\n        /* \"#utility.yul\":5276:5288   */\n      mload\n        /* \"#utility.yul\":5266:5288   */\n      swap1\n      pop\n        /* \"#utility.yul\":5196:5295   */\n      swap2\n      swap1\n      pop\n      jump\t// out\n        /* \"#utility.yul\":5301:5470   */\n    tag_111:\n        /* \"#utility.yul\":5385:5396   */\n      0x00\n        /* \"#utility.yul\":5419:5425   */\n      dup3\n        /* \"#utility.yul\":5414:5417   */\n      dup3\n        /* \"#utility.yul\":5407:5426   */\n      mstore\n        /* \"#utility.yul\":5459:5463   */\n      0x20\n        /* \"#utility.yul\":5454:5457   */\n      dup3\n        /* \"#utility.yul\":5450:5464   */\n      add\n        /* \"#utility.yul\":5435:5464   */\n      swap1\n      pop\n        /* \"#utility.yul\":5301:5470   */\n      swap3\n      swap2\n      pop\n      pop\n      jump\t// out\n        /* \"#utility.yul\":5476:5722   */\n    tag_112:\n        /* \"#utility.yul\":5557:5558   */\n      0x00\n        /* \"#utility.yul\":5567:5680   */\n    tag_202:\n        /* \"#utility.yul\":5581:5587   */\n      dup4\n        /* \"#utility.yul\":5578:5579   */\n      dup2\n        /* \"#utility.yul\":5575:5588   */\n      lt\n        /* \"#utility.yul\":5567:5680   */\n      iszero\n      tag_204\n      jumpi\n        /* \"#utility.yul\":5666:5667   */\n      dup1\n        /* \"#utility.yul\":5661:5664   */\n      dup3\n        /* \"#utility.yul\":5657:5668   */\n      add\n        /* \"#utility.yul\":5651:5669   */\n      mload\n        /* \"#utility.yul\":5647:5648   */\n      dup2\n        /* \"#utility.yul\":5642:5645   */\n      dup5\n        /* \"#utility.yul\":5638:5649   */\n      add\n        /* \"#utility.yul\":5631:5670   */\n      mstore\n        /* \"#utility.yul\":5603:5605   */\n      0x20\n        /* \"#utility.yul\":5600:5601   */\n      dup2\n        /* \"#utility.yul\":5596:5606   */\n      add\n        /* \"#utility.yul\":5591:5606   */\n      swap1\n      pop\n        /* \"#utility.yul\":5567:5680   */\n      jump(tag_202)\n    tag_204:\n        /* \"#utility.yul\":5714:5715   */\n      0x00\n        /* \"#utility.yul\":5705:5711   */\n      dup5\n        /* \"#utility.yul\":5700:5703   */\n      dup5\n        /* \"#utility.yul\":5696:5712   */\n      add\n        /* \"#utility.yul\":5689:5716   */\n      mstore\n        /* \"#utility.yul\":5538:5722   */\n      pop\n        /* \"#utility.yul\":5476:5722   */\n      pop\n      pop\n      pop\n      jump\t// out\n        /* \"#utility.yul\":5728:5830   */\n    tag_113:\n        /* \"#utility.yul\":5769:5775   */\n      0x00\n        /* \"#utility.yul\":5820:5822   */\n      0x1f\n        /* \"#utility.yul\":5816:5823   */\n      not\n        /* \"#utility.yul\":5811:5813   */\n      0x1f\n        /* \"#utility.yul\":5804:5809   */\n      dup4\n        /* \"#utility.yul\":5800:5814   */\n      add\n        /* \"#utility.yul\":5796:5824   */\n      and\n        /* \"#utility.yul\":5786:5824   */\n      swap1\n      pop\n        /* \"#utility.yul\":5728:5830   */\n      swap2\n      swap1\n      pop\n      jump\t// out\n        /* \"#utility.yul\":5836:6213   */\n    tag_114:\n        /* \"#utility.yul\":5924:5927   */\n      0x00\n        /* \"#utility.yul\":5952:5991   */\n      tag_207\n        /* \"#utility.yul\":5985:5990   */\n      dup3\n        /* \"#utility.yul\":5952:5991   */\n      tag_110\n      jump\t// in\n    tag_207:\n        /* \"#utility.yul\":6007:6078   */\n      tag_208\n        /* \"#utility.yul\":6071:6077   */\n      dup2\n        /* \"#utility.yul\":6066:6069   */\n      dup6\n        /* \"#utility.yul\":6007:6078   */\n      tag_111\n      jump\t// in\n    tag_208:\n        /* \"#utility.yul\":6000:6078   */\n      swap4\n      pop\n        /* \"#utility.yul\":6087:6152   */\n      tag_209\n        /* \"#utility.yul\":6145:6151   */\n      dup2\n        /* \"#utility.yul\":6140:6143   */\n      dup6\n        /* \"#utility.yul\":6133:6137   */\n      0x20\n        /* \"#utility.yul\":6126:6131   */\n      dup7\n        /* \"#utility.yul\":6122:6138   */\n      add\n        /* \"#utility.yul\":6087:6152   */\n      tag_112\n      jump\t// in\n    tag_209:\n        /* \"#utility.yul\":6177:6206   */\n      tag_210\n        /* \"#utility.yul\":6199:6205   */\n      dup2\n        /* \"#utility.yul\":6177:6206   */\n      tag_113\n      jump\t// in\n    tag_210:\n        /* \"#utility.yul\":6172:6175   */\n      dup5\n        /* \"#utility.yul\":6168:6207   */\n      add\n        /* \"#utility.yul\":6161:6207   */\n      swap2\n      pop\n        /* \"#utility.yul\":5928:6213   */\n      pop\n        /* \"#utility.yul\":5836:6213   */\n      swap3\n      swap2\n      pop\n      pop\n      jump\t// out\n        /* \"#utility.yul\":6219:6962   */\n    tag_48:\n        /* \"#utility.yul\":6438:6442   */\n      0x00\n        /* \"#utility.yul\":6476:6479   */\n      0xa0\n        /* \"#utility.yul\":6465:6474   */\n      dup3\n        /* \"#utility.yul\":6461:6480   */\n      add\n        /* \"#utility.yul\":6453:6480   */\n      swap1\n      pop\n        /* \"#utility.yul\":6526:6535   */\n      dup2\n        /* \"#utility.yul\":6520:6524   */\n      dup2\n        /* \"#utility.yul\":6516:6536   */\n      sub\n        /* \"#utility.yul\":6512:6513   */\n      0x00\n        /* \"#utility.yul\":6501:6510   */\n      dup4\n        /* \"#utility.yul\":6497:6514   */\n      add\n        /* \"#utility.yul\":6490:6537   */\n      mstore\n        /* \"#utility.yul\":6554:6632   */\n      tag_212\n        /* \"#utility.yul\":6627:6631   */\n      dup2\n        /* \"#utility.yul\":6618:6624   */\n      dup9\n        /* \"#utility.yul\":6554:6632   */\n      tag_114\n      jump\t// in\n    tag_212:\n        /* \"#utility.yul\":6546:6632   */\n      swap1\n      pop\n        /* \"#utility.yul\":6642:6714   */\n      tag_213\n        /* \"#utility.yul\":6710:6712   */\n      0x20\n        /* \"#utility.yul\":6699:6708   */\n      dup4\n        /* \"#utility.yul\":6695:6713   */\n      add\n        /* \"#utility.yul\":6686:6692   */\n      dup8\n        /* \"#utility.yul\":6642:6714   */\n      tag_102\n      jump\t// in\n    tag_213:\n        /* \"#utility.yul\":6724:6796   */\n      tag_214\n        /* \"#utility.yul\":6792:6794   */\n      0x40\n        /* \"#utility.yul\":6781:6790   */\n      dup4\n        /* \"#utility.yul\":6777:6795   */\n      add\n        /* \"#utility.yul\":6768:6774   */\n      dup7\n        /* \"#utility.yul\":6724:6796   */\n      tag_101\n      jump\t// in\n    tag_214:\n        /* \"#utility.yul\":6806:6872   */\n      tag_215\n        /* \"#utility.yul\":6868:6870   */\n      0x60\n        /* \"#utility.yul\":6857:6866   */\n      dup4\n        /* \"#utility.yul\":6853:6871   */\n      add\n        /* \"#utility.yul\":6844:6850   */\n      dup6\n        /* \"#utility.yul\":6806:6872   */\n      tag_100\n      jump\t// in\n    tag_215:\n        /* \"#utility.yul\":6882:6955   */\n      tag_216\n        /* \"#utility.yul\":6950:6953   */\n      0x80\n        /* \"#utility.yul\":6939:6948   */\n      dup4\n        /* \"#utility.yul\":6935:6954   */\n      add\n        /* \"#utility.yul\":6926:6932   */\n      dup5\n        /* \"#utility.yul\":6882:6955   */\n      tag_102\n      jump\t// in\n    tag_216:\n        /* \"#utility.yul\":6219:6962   */\n      swap7\n      swap6\n      pop\n      pop\n      pop\n      pop\n      pop\n      pop\n      jump\t// out\n        /* \"#utility.yul\":6968:7148   */\n    tag_115:\n        /* \"#utility.yul\":7016:7093   */\n      0x4e487b7100000000000000000000000000000000000000000000000000000000\n        /* \"#utility.yul\":7013:7014   */\n      0x00\n        /* \"#utility.yul\":7006:7094   */\n      mstore\n        /* \"#utility.yul\":7113:7117   */\n      0x12\n        /* \"#utility.yul\":7110:7111   */\n      0x04\n        /* \"#utility.yul\":7103:7118   */\n      mstore\n        /* \"#utility.yul\":7137:7141   */\n      0x24\n        /* \"#utility.yul\":7134:7135   */\n      0x00\n        /* \"#utility.yul\":7127:7142   */\n      revert\n        /* \"#utility.yul\":7154:7334   */\n    tag_116:\n        /* \"#utility.yul\":7202:7279   */\n      0x4e487b7100000000000000000000000000000000000000000000000000000000\n        /* \"#utility.yul\":7199:7200   */\n      0x00\n        /* \"#utility.yul\":7192:7280   */\n      mstore\n        /* \"#utility.yul\":7299:7303   */\n      0x11\n        /* \"#utility.yul\":7296:7297   */\n      0x04\n        /* \"#utility.yul\":7289:7304   */\n      mstore\n        /* \"#utility.yul\":7323:7327   */\n      0x24\n        /* \"#utility.yul\":7320:7321   */\n      0x00\n        /* \"#utility.yul\":7313:7328   */\n      revert\n        /* \"#utility.yul\":7340:7525   */\n    tag_61:\n        /* \"#utility.yul\":7380:7381   */\n      0x00\n        /* \"#utility.yul\":7397:7417   */\n      tag_220\n        /* \"#utility.yul\":7415:7416   */\n      dup3\n        /* \"#utility.yul\":7397:7417   */\n      tag_92\n      jump\t// in\n    tag_220:\n        /* \"#utility.yul\":7392:7417   */\n      swap2\n      pop\n        /* \"#utility.yul\":7431:7451   */\n      tag_221\n        /* \"#utility.yul\":7449:7450   */\n      dup4\n        /* \"#utility.yul\":7431:7451   */\n      tag_92\n      jump\t// in\n    tag_221:\n        /* \"#utility.yul\":7426:7451   */\n      swap3\n      pop\n        /* \"#utility.yul\":7470:7471   */\n      dup3\n        /* \"#utility.yul\":7460:7495   */\n      tag_222\n      jumpi\n        /* \"#utility.yul\":7475:7493   */\n      tag_223\n      tag_115\n      jump\t// in\n    tag_223:\n        /* \"#utility.yul\":7460:7495   */\n    tag_222:\n        /* \"#utility.yul\":7517:7518   */\n      dup3\n        /* \"#utility.yul\":7514:7515   */\n      dup3\n        /* \"#utility.yul\":7510:7519   */\n      div\n        /* \"#utility.yul\":7505:7519   */\n      swap1\n      pop\n        /* \"#utility.yul\":7340:7525   */\n      swap3\n      swap2\n      pop\n      pop\n      jump\t// out\n        /* \"#utility.yul\":7531:7764   */\n    tag_69:\n        /* \"#utility.yul\":7570:7573   */\n      0x00\n        /* \"#utility.yul\":7593:7617   */\n      tag_225\n        /* \"#utility.yul\":7611:7616   */\n      dup3\n        /* \"#utility.yul\":7593:7617   */\n      tag_92\n      jump\t// in\n    tag_225:\n        /* \"#utility.yul\":7584:7617   */\n      swap2\n      pop\n        /* \"#utility.yul\":7639:7705   */\n      0xffffffffffffffffffffffffffffffffffffffffffffffffffffffffffffffff\n        /* \"#utility.yul\":7632:7637   */\n      dup3\n        /* \"#utility.yul\":7629:7706   */\n      sub\n        /* \"#utility.yul\":7626:7729   */\n      tag_226\n      jumpi\n        /* \"#utility.yul\":7709:7727   */\n      tag_227\n      tag_116\n      jump\t// in\n    tag_227:\n        /* \"#utility.yul\":7626:7729   */\n    tag_226:\n        /* \"#utility.yul\":7756:7757   */\n      0x01\n        /* \"#utility.yul\":7749:7754   */\n      dup3\n        /* \"#utility.yul\":7745:7758   */\n      add\n        /* \"#utility.yul\":7738:7758   */\n      swap1\n      pop\n        /* \"#utility.yul\":7531:7764   */\n      swap2\n      swap1\n      pop\n      jump\t// out\n        /* \"#utility.yul\":7770:7867   */\n    tag_117:\n        /* \"#utility.yul\":7829:7835   */\n      0x00\n        /* \"#utility.yul\":7857:7860   */\n      dup3\n        /* \"#utility.yul\":7847:7860   */\n      swap1\n      pop\n        /* \"#utility.yul\":7770:7867   */\n      swap3\n      swap2\n      pop\n      pop\n      jump\t// out\n        /* \"#utility.yul\":7873:8053   */\n    tag_118:\n        /* \"#utility.yul\":7921:7998   */\n      0x4e487b7100000000000000000000000000000000000000000000000000000000\n        /* \"#utility.yul\":7918:7919   */\n      0x00\n        /* \"#utility.yul\":7911:7999   */\n      mstore\n        /* \"#utility.yul\":8018:8022   */\n      0x41\n        /* \"#utility.yul\":8015:8016   */\n      0x04\n        /* \"#utility.yul\":8008:8023   */\n      mstore\n        /* \"#utility.yul\":8042:8046   */\n      0x24\n        /* \"#utility.yul\":8039:8040   */\n      0x00\n        /* \"#utility.yul\":8032:8047   */\n      revert\n        /* \"#utility.yul\":8059:8239   */\n    tag_119:\n        /* \"#utility.yul\":8107:8184   */\n      0x4e487b7100000000000000000000000000000000000000000000000000000000\n        /* \"#utility.yul\":8104:8105   */\n      0x00\n        /* \"#utility.yul\":8097:8185   */\n      mstore\n        /* \"#utility.yul\":8204:8208   */\n      0x22\n        /* \"#utility.yul\":8201:8202   */\n      0x04\n        /* \"#utility.yul\":8194:8209   */\n      mstore\n        /* \"#utility.yul\":8228:8232   */\n      0x24\n        /* \"#utility.yul\":8225:8226   */\n      0x00\n        /* \"#utility.yul\":8218:8233   */\n      revert\n        /* \"#utility.yul\":8245:8565   */\n    tag_75:\n        /* \"#utility.yul\":8289:8295   */\n      0x00\n        /* \"#utility.yul\":8326:8327   */\n      0x02\n        /* \"#utility.yul\":8320:8324   */\n      dup3\n        /* \"#utility.yul\":8316:8328   */\n      div\n        /* \"#utility.yul\":8306:8328   */\n      swap1\n      pop\n        /* \"#utility.yul\":8373:8374   */\n      0x01\n        /* \"#utility.yul\":8367:8371   */\n      dup3\n        /* \"#utility.yul\":8363:8375   */\n      and\n        /* \"#utility.yul\":8394:8412   */\n      dup1\n        /* \"#utility.yul\":8384:8465   */\n      tag_232\n      jumpi\n        /* \"#utility.yul\":8450:8454   */\n      0x7f\n        /* \"#utility.yul\":8442:8448   */\n      dup3\n        /* \"#utility.yul\":8438:8455   */\n      and\n        /* \"#utility.yul\":8428:8455   */\n      swap2\n      pop\n        /* \"#utility.yul\":8384:8465   */\n    tag_232:\n        /* \"#utility.yul\":8512:8514   */\n      0x20\n        /* \"#utility.yul\":8504:8510   */\n      dup3\n        /* \"#utility.yul\":8501:8515   */\n      lt\n        /* \"#utility.yul\":8481:8499   */\n      dup2\n        /* \"#utility.yul\":8478:8516   */\n      sub\n        /* \"#utility.yul\":8475:8559   */\n      tag_233\n      jumpi\n        /* \"#utility.yul\":8531:8549   */\n      tag_234\n      tag_119\n      jump\t// in\n    tag_234:\n        /* \"#utility.yul\":8475:8559   */\n    tag_233:\n        /* \"#utility.yul\":8296:8565   */\n      pop\n        /* \"#utility.yul\":8245:8565   */\n      swap2\n      swap1\n      pop\n      jump\t// out\n        /* \"#utility.yul\":8571:8712   */\n    tag_120:\n        /* \"#utility.yul\":8620:8624   */\n      0x00\n        /* \"#utility.yul\":8643:8646   */\n      dup2\n        /* \"#utility.yul\":8635:8646   */\n      swap1\n      pop\n        /* \"#utility.yul\":8666:8669   */\n      dup2\n        /* \"#utility.yul\":8663:8664   */\n      0x00\n        /* \"#utility.yul\":8656:8670   */\n      mstore\n        /* \"#utility.yul\":8700:8704   */\n      0x20\n        /* \"#utility.yul\":8697:8698   */\n      0x00\n        /* \"#utility.yul\":8687:8705   */\n      keccak256\n        /* \"#utility.yul\":8679:8705   */\n      swap1\n      pop\n        /* \"#utility.yul\":8571:8712   */\n      swap2\n      swap1\n      pop\n      jump\t// out\n        /* \"#utility.yul\":8718:8811   */\n    tag_121:\n        /* \"#utility.yul\":8755:8761   */\n      0x00\n        /* \"#utility.yul\":8802:8804   */\n      0x20\n        /* \"#utility.yul\":8797:8799   */\n      0x1f\n        /* \"#utility.yul\":8790:8795   */\n      dup4\n        /* \"#utility.yul\":8786:8800   */\n      add\n        /* \"#utility.yul\":8782:8805   */\n      div\n        /* \"#utility.yul\":8772:8805   */\n      swap1\n      pop\n        /* \"#utility.yul\":8718:8811   */\n      swap2\n      swap1\n      pop\n      jump\t// out\n        /* \"#utility.yul\":8817:8924   */\n    tag_122:\n        /* \"#utility.yul\":8861:8869   */\n      0x00\n        /* \"#utility.yul\":8911:8916   */\n      dup3\n        /* \"#utility.yul\":8905:8909   */\n      dup3\n        /* \"#utility.yul\":8901:8917   */\n      shl\n        /* \"#utility.yul\":8880:8917   */\n      swap1\n      pop\n        /* \"#utility.yul\":8817:8924   */\n      swap3\n      swap2\n      pop\n      pop\n      jump\t// out\n        /* \"#utility.yul\":8930:9323   */\n    tag_123:\n        /* \"#utility.yul\":8999:9005   */\n      0x00\n        /* \"#utility.yul\":9049:9050   */\n      0x08\n        /* \"#utility.yul\":9037:9047   */\n      dup4\n        /* \"#utility.yul\":9033:9051   */\n      mul\n        /* \"#utility.yul\":9072:9169   */\n      tag_239\n        /* \"#utility.yul\":9102:9168   */\n      0xffffffffffffffffffffffffffffffffffffffffffffffffffffffffffffffff\n        /* \"#utility.yul\":9091:9100   */\n      dup3\n        /* \"#utility.yul\":9072:9169   */\n      tag_122\n      jump\t// in\n    tag_239:\n        /* \"#utility.yul\":9190:9229   */\n      tag_240\n        /* \"#utility.yul\":9220:9228   */\n      dup7\n        /* \"#utility.yul\":9209:9218   */\n      dup4\n        /* \"#utility.yul\":9190:9229   */\n      tag_122\n      jump\t// in\n    tag_240:\n        /* \"#utility.yul\":9178:9229   */\n      swap6\n      pop\n        /* \"#utility.yul\":9262:9266   */\n      dup1\n        /* \"#utility.yul\":9258:9267   */\n      not\n        /* \"#utility.yul\":9251:9256   */\n      dup5\n        /* \"#utility.yul\":9247:9268   */\n      and\n        /* \"#utility.yul\":9238:9268   */\n      swap4\n      pop\n        /* \"#utility.yul\":9311:9315   */\n      dup1\n        /* \"#utility.yul\":9301:9309   */\n      dup7\n        /* \"#utility.yul\":9297:9316   */\n      and\n        /* \"#utility.yul\":9290:9295   */\n      dup5\n        /* \"#utility.yul\":9287:9317   */\n      or\n        /* \"#utility.yul\":9277:9317   */\n      swap3\n      pop\n        /* \"#utility.yul\":9006:9323   */\n      pop\n      pop\n        /* \"#utility.yul\":8930:9323   */\n      swap4\n      swap3\n      pop\n      pop\n      pop\n      jump\t// out\n        /* \"#utility.yul\":9329:9389   */\n    tag_124:\n        /* \"#utility.yul\":9357:9360   */\n      0x00\n        /* \"#utility.yul\":9378:9383   */\n      dup2\n        /* \"#utility.yul\":9371:9383   */\n      swap1\n      pop\n        /* \"#utility.yul\":9329:9389   */\n      swap2\n      swap1\n      pop\n      jump\t// out\n        /* \"#utility.yul\":9395:9537   */\n    tag_125:\n        /* \"#utility.yul\":9445:9454   */\n      0x00\n        /* \"#utility.yul\":9478:9531   */\n      tag_243\n        /* \"#utility.yul\":9496:9530   */\n      tag_244\n        /* \"#utility.yul\":9505:9529   */\n      tag_245\n        /* \"#utility.yul\":9523:9528   */\n      dup5\n        /* \"#utility.yul\":9505:9529   */\n      tag_92\n      jump\t// in\n    tag_245:\n        /* \"#utility.yul\":9496:9530   */\n      tag_124\n      jump\t// in\n    tag_244:\n        /* \"#utility.yul\":9478:9531   */\n      tag_92\n      jump\t// in\n    tag_243:\n        /* \"#utility.yul\":9465:9531   */\n      swap1\n      pop\n        /* \"#utility.yul\":9395:9537   */\n      swap2\n      swap1\n      pop\n      jump\t// out\n        /* \"#utility.yul\":9543:9618   */\n    tag_126:\n        /* \"#utility.yul\":9586:9589   */\n      0x00\n        /* \"#utility.yul\":9607:9612   */\n      dup2\n        /* \"#utility.yul\":9600:9612   */\n      swap1\n      pop\n        /* \"#utility.yul\":9543:9618   */\n      swap2\n      swap1\n      pop\n      jump\t// out\n        /* \"#utility.yul\":9624:9893   */\n    tag_127:\n        /* \"#utility.yul\":9734:9773   */\n      tag_248\n        /* \"#utility.yul\":9765:9772   */\n      dup4\n        /* \"#utility.yul\":9734:9773   */\n      tag_125\n      jump\t// in\n    tag_248:\n        /* \"#utility.yul\":9795:9886   */\n      tag_249\n        /* \"#utility.yul\":9844:9885   */\n      tag_250\n        /* \"#utility.yul\":9868:9884   */\n      dup3\n        /* \"#utility.yul\":9844:9885   */\n      tag_126\n      jump\t// in\n    tag_250:\n        /* \"#utility.yul\":9836:9842   */\n      dup5\n        /* \"#utility.yul\":9829:9833   */\n      dup5\n        /* \"#utility.yul\":9823:9834   */\n      sload\n        /* \"#utility.yul\":9795:9886   */\n      tag_123\n      jump\t// in\n    tag_249:\n        /* \"#utility.yul\":9789:9793   */\n      dup3\n        /* \"#utility.yul\":9782:9887   */\n      sstore\n        /* \"#utility.yul\":9700:9893   */\n      pop\n        /* \"#utility.yul\":9624:9893   */\n      pop\n      pop\n      pop\n      jump\t// out\n        /* \"#utility.yul\":9899:9972   */\n    tag_128:\n        /* \"#utility.yul\":9944:9947   */\n      0x00\n        /* \"#utility.yul\":9899:9972   */\n      swap1\n      jump\t// out\n        /* \"#utility.yul\":9978:10167   */\n    tag_129:\n        /* \"#utility.yul\":10055:10087   */\n      tag_253\n      tag_128\n      jump\t// in\n    tag_253:\n        /* \"#utility.yul\":10096:10161   */\n      tag_254\n        /* \"#utility.yul\":10154:10160   */\n      dup2\n        /* \"#utility.yul\":10146:10152   */\n      dup5\n        /* \"#utility.yul\":10140:10144   */\n      dup5\n        /* \"#utility.yul\":10096:10161   */\n      tag_127\n      jump\t// in\n    tag_254:\n        /* \"#utility.yul\":10031:10167   */\n      pop\n        /* \"#utility.yul\":9978:10167   */\n      pop\n      pop\n      jump\t// out\n        /* \"#utility.yul\":10173:10359   */\n    tag_130:\n        /* \"#utility.yul\":10233:10353   */\n    tag_256:\n        /* \"#utility.yul\":10250:10253   */\n      dup2\n        /* \"#utility.yul\":10243:10248   */\n      dup2\n        /* \"#utility.yul\":10240:10254   */\n      lt\n        /* \"#utility.yul\":10233:10353   */\n      iszero\n      tag_258\n      jumpi\n        /* \"#utility.yul\":10304:10343   */\n      tag_259\n        /* \"#utility.yul\":10341:10342   */\n      0x00\n        /* \"#utility.yul\":10334:10339   */\n      dup3\n        /* \"#utility.yul\":10304:10343   */\n      tag_129\n      jump\t// in\n    tag_259:\n        /* \"#utility.yul\":10277:10278   */\n      0x01\n        /* \"#utility.yul\":10270:10275   */\n      dup2\n        /* \"#utility.yul\":10266:10279   */\n      add\n        /* \"#utility.yul\":10257:10279   */\n      swap1\n      pop\n        /* \"#utility.yul\":10233:10353   */\n      jump(tag_256)\n    tag_258:\n        /* \"#utility.yul\":10173:10359   */\n      pop\n      pop\n      jump\t// out\n        /* \"#utility.yul\":10365:10908   */\n    tag_131:\n        /* \"#utility.yul\":10466:10468   */\n      0x1f\n        /* \"#utility.yul\":10461:10464   */\n      dup3\n        /* \"#utility.yul\":10458:10469   */\n      gt\n        /* \"#utility.yul\":10455:10901   */\n      iszero\n      tag_261\n      jumpi\n        /* \"#utility.yul\":10500:10538   */\n      tag_262\n        /* \"#utility.yul\":10532:10537   */\n      dup2\n        /* \"#utility.yul\":10500:10538   */\n      tag_120\n      jump\t// in\n    tag_262:\n        /* \"#utility.yul\":10584:10613   */\n      tag_263\n        /* \"#utility.yul\":10602:10612   */\n      dup5\n        /* \"#utility.yul\":10584:10613   */\n      tag_121\n      jump\t// in\n    tag_263:\n        /* \"#utility.yul\":10574:10582   */\n      dup2\n        /* \"#utility.yul\":10570:10614   */\n      add\n        /* \"#utility.yul\":10767:10769   */\n      0x20\n        /* \"#utility.yul\":10755:10765   */\n      dup6\n        /* \"#utility.yul\":10752:10770   */\n      lt\n        /* \"#utility.yul\":10749:10798   */\n      iszero\n      tag_264\n      jumpi\n        /* \"#utility.yul\":10788:10796   */\n      dup2\n        /* \"#utility.yul\":10773:10796   */\n      swap1\n      pop\n        /* \"#utility.yul\":10749:10798   */\n    tag_264:\n        /* \"#utility.yul\":10811:10891   */\n      tag_265\n        /* \"#utility.yul\":10867:10889   */\n      tag_266\n        /* \"#utility.yul\":10885:10888   */\n      dup6\n        /* \"#utility.yul\":10867:10889   */\n      tag_121\n      jump\t// in\n    tag_266:\n        /* \"#utility.yul\":10857:10865   */\n      dup4\n        /* \"#utility.yul\":10853:10890   */\n      add\n        /* \"#utility.yul\":10840:10851   */\n      dup3\n        /* \"#utility.yul\":10811:10891   */\n      tag_130\n      jump\t// in\n    tag_265:\n        /* \"#utility.yul\":10470:10901   */\n      pop\n      pop\n        /* \"#utility.yul\":10455:10901   */\n    tag_261:\n        /* \"#utility.yul\":10365:10908   */\n      pop\n      pop\n      pop\n      jump\t// out\n        /* \"#utility.yul\":10914:11031   */\n    tag_132:\n        /* \"#utility.yul\":10968:10976   */\n      0x00\n        /* \"#utility.yul\":11018:11023   */\n      dup3\n        /* \"#utility.yul\":11012:11016   */\n      dup3\n        /* \"#utility.yul\":11008:11024   */\n      shr\n        /* \"#utility.yul\":10987:11024   */\n      swap1\n      pop\n        /* \"#utility.yul\":10914:11031   */\n      swap3\n      swap2\n      pop\n      pop\n      jump\t// out\n        /* \"#utility.yul\":11037:11206   */\n    tag_133:\n        /* \"#utility.yul\":11081:11087   */\n      0x00\n        /* \"#utility.yul\":11114:11165   */\n      tag_269\n        /* \"#utility.yul\":11162:11163   */\n      0x00\n        /* \"#utility.yul\":11158:11164   */\n      not\n        /* \"#utility.yul\":11150:11155   */\n      dup5\n        /* \"#utility.yul\":11147:11148   */\n      0x08\n        /* \"#utility.yul\":11143:11156   */\n      mul\n        /* \"#utility.yul\":11114:11165   */\n      tag_132\n      jump\t// in\n    tag_269:\n        /* \"#utility.yul\":11110:11166   */\n      not\n        /* \"#utility.yul\":11195:11199   */\n      dup1\n        /* \"#utility.yul\":11189:11193   */\n      dup4\n        /* \"#utility.yul\":11185:11200   */\n      and\n        /* \"#utility.yul\":11175:11200   */\n      swap2\n      pop\n        /* \"#utility.yul\":11088:11206   */\n      pop\n        /* \"#utility.yul\":11037:11206   */\n      swap3\n      swap2\n      pop\n      pop\n      jump\t// out\n        /* \"#utility.yul\":11211:11506   */\n    tag_134:\n        /* \"#utility.yul\":11287:11291   */\n      0x00\n        /* \"#utility.yul\":11433:11462   */\n      tag_271\n        /* \"#utility.yul\":11458:11461   */\n      dup4\n        /* \"#utility.yul\":11452:11456   */\n      dup4\n        /* \"#utility.yul\":11433:11462   */\n      tag_133\n      jump\t// in\n    tag_271:\n        /* \"#utility.yul\":11425:11462   */\n      swap2\n      pop\n        /* \"#utility.yul\":11495:11498   */\n      dup3\n        /* \"#utility.yul\":11492:11493   */\n      0x02\n        /* \"#utility.yul\":11488:11499   */\n      mul\n        /* \"#utility.yul\":11482:11486   */\n      dup3\n        /* \"#utility.yul\":11479:11500   */\n      or\n        /* \"#utility.yul\":11471:11500   */\n      swap1\n      pop\n        /* \"#utility.yul\":11211:11506   */\n      swap3\n      swap2\n      pop\n      pop\n      jump\t// out\n        /* \"#utility.yul\":11511:12914   */\n    tag_71:\n        /* \"#utility.yul\":11635:11679   */\n      tag_273\n        /* \"#utility.yul\":11675:11678   */\n      dup4\n        /* \"#utility.yul\":11670:11673   */\n      dup4\n        /* \"#utility.yul\":11635:11679   */\n      tag_117\n      jump\t// in\n    tag_273:\n        /* \"#utility.yul\":11744:11762   */\n      0xffffffffffffffff\n        /* \"#utility.yul\":11736:11742   */\n      dup2\n        /* \"#utility.yul\":11733:11763   */\n      gt\n        /* \"#utility.yul\":11730:11786   */\n      iszero\n      tag_274\n      jumpi\n        /* \"#utility.yul\":11766:11784   */\n      tag_275\n      tag_118\n      jump\t// in\n    tag_275:\n        /* \"#utility.yul\":11730:11786   */\n    tag_274:\n        /* \"#utility.yul\":11810:11848   */\n      tag_276\n        /* \"#utility.yul\":11842:11846   */\n      dup3\n        /* \"#utility.yul\":11836:11847   */\n      sload\n        /* \"#utility.yul\":11810:11848   */\n      tag_75\n      jump\t// in\n    tag_276:\n        /* \"#utility.yul\":11895:11962   */\n      tag_277\n        /* \"#utility.yul\":11955:11961   */\n      dup3\n        /* \"#utility.yul\":11947:11953   */\n      dup3\n        /* \"#utility.yul\":11941:11945   */\n      dup6\n        /* \"#utility.yul\":11895:11962   */\n      tag_131\n      jump\t// in\n    tag_277:\n        /* \"#utility.yul\":11989:11990   */\n      0x00\n        /* \"#utility.yul\":12018:12020   */\n      0x1f\n        /* \"#utility.yul\":12010:12016   */\n      dup4\n        /* \"#utility.yul\":12007:12021   */\n      gt\n        /* \"#utility.yul\":12035:12036   */\n      0x01\n        /* \"#utility.yul\":12030:12662   */\n      dup2\n      eq\n      tag_279\n      jumpi\n        /* \"#utility.yul\":12706:12707   */\n      0x00\n        /* \"#utility.yul\":12723:12729   */\n      dup5\n        /* \"#utility.yul\":12720:12804   */\n      iszero\n      tag_280\n      jumpi\n        /* \"#utility.yul\":12779:12788   */\n      dup3\n        /* \"#utility.yul\":12774:12777   */\n      dup8\n        /* \"#utility.yul\":12770:12789   */\n      add\n        /* \"#utility.yul\":12757:12790   */\n      calldataload\n        /* \"#utility.yul\":12748:12790   */\n      swap1\n      pop\n        /* \"#utility.yul\":12720:12804   */\n    tag_280:\n        /* \"#utility.yul\":12830:12897   */\n      tag_281\n        /* \"#utility.yul\":12890:12896   */\n      dup6\n        /* \"#utility.yul\":12883:12888   */\n      dup3\n        /* \"#utility.yul\":12830:12897   */\n      tag_134\n      jump\t// in\n    tag_281:\n        /* \"#utility.yul\":12824:12828   */\n      dup7\n        /* \"#utility.yul\":12817:12898   */\n      sstore\n        /* \"#utility.yul\":12679:12908   */\n      pop\n        /* \"#utility.yul\":12000:12908   */\n      jump(tag_278)\n        /* \"#utility.yul\":12030:12662   */\n    tag_279:\n        /* \"#utility.yul\":12082:12086   */\n      0x1f\n        /* \"#utility.yul\":12078:12087   */\n      not\n        /* \"#utility.yul\":12070:12076   */\n      dup5\n        /* \"#utility.yul\":12066:12088   */\n      and\n        /* \"#utility.yul\":12116:12153   */\n      tag_282\n        /* \"#utility.yul\":12148:12152   */\n      dup7\n        /* \"#utility.yul\":12116:12153   */\n      tag_120\n      jump\t// in\n    tag_282:\n        /* \"#utility.yul\":12175:12176   */\n      0x00\n        /* \"#utility.yul\":12189:12404   */\n    tag_283:\n        /* \"#utility.yul\":12203:12210   */\n      dup3\n        /* \"#utility.yul\":12200:12201   */\n      dup2\n        /* \"#utility.yul\":12197:12211   */\n      lt\n        /* \"#utility.yul\":12189:12404   */\n      iszero\n      tag_285\n      jumpi\n        /* \"#utility.yul\":12289:12298   */\n      dup5\n        /* \"#utility.yul\":12284:12287   */\n      dup10\n        /* \"#utility.yul\":12280:12299   */\n      add\n        /* \"#utility.yul\":12267:12300   */\n      calldataload\n        /* \"#utility.yul\":12259:12265   */\n      dup3\n        /* \"#utility.yul\":12252:12301   */\n      sstore\n        /* \"#utility.yul\":12340:12341   */\n      0x01\n        /* \"#utility.yul\":12332:12338   */\n      dup3\n        /* \"#utility.yul\":12328:12342   */\n      add\n        /* \"#utility.yul\":12318:12342   */\n      swap2\n      pop\n        /* \"#utility.yul\":12387:12389   */\n      0x20\n        /* \"#utility.yul\":12376:12385   */\n      dup6\n        /* \"#utility.yul\":12372:12390   */\n      add\n        /* \"#utility.yul\":12359:12390   */\n      swap5\n      pop\n        /* \"#utility.yul\":12226:12230   */\n      0x20\n        /* \"#utility.yul\":12223:12224   */\n      dup2\n        /* \"#utility.yul\":12219:12231   */\n      add\n        /* \"#utility.yul\":12214:12231   */\n      swap1\n      pop\n        /* \"#utility.yul\":12189:12404   */\n      jump(tag_283)\n    tag_285:\n        /* \"#utility.yul\":12432:12438   */\n      dup7\n        /* \"#utility.yul\":12423:12430   */\n      dup4\n        /* \"#utility.yul\":12420:12439   */\n      lt\n        /* \"#utility.yul\":12417:12603   */\n      iszero\n      tag_286\n      jumpi\n        /* \"#utility.yul\":12497:12506   */\n      dup5\n        /* \"#utility.yul\":12492:12495   */\n      dup10\n        /* \"#utility.yul\":12488:12507   */\n      add\n        /* \"#utility.yul\":12475:12508   */\n      calldataload\n        /* \"#utility.yul\":12540:12588   */\n      tag_287\n        /* \"#utility.yul\":12582:12586   */\n      0x1f\n        /* \"#utility.yul\":12574:12580   */\n      dup10\n        /* \"#utility.yul\":12570:12587   */\n      and\n        /* \"#utility.yul\":12559:12568   */\n      dup3\n        /* \"#utility.yul\":12540:12588   */\n      tag_133\n      jump\t// in\n    tag_287:\n        /* \"#utility.yul\":12532:12538   */\n      dup4\n        /* \"#utility.yul\":12525:12589   */\n      sstore\n        /* \"#utility.yul\":12440:12603   */\n      pop\n        /* \"#utility.yul\":12417:12603   */\n    tag_286:\n        /* \"#utility.yul\":12649:12650   */\n      0x01\n        /* \"#utility.yul\":12645:12646   */\n      0x02\n        /* \"#utility.yul\":12637:12643   */\n      dup9\n        /* \"#utility.yul\":12633:12647   */\n      mul\n        /* \"#utility.yul\":12629:12651   */\n      add\n        /* \"#utility.yul\":12623:12627   */\n      dup9\n        /* \"#utility.yul\":12616:12652   */\n      sstore\n        /* \"#utility.yul\":12037:12662   */\n      pop\n      pop\n      pop\n        /* \"#utility.yul\":12000:12908   */\n    tag_278:\n      pop\n        /* \"#utility.yul\":11610:12914   */\n      pop\n      pop\n      pop\n        /* \"#utility.yul\":11511:12914   */\n      pop\n      pop\n      pop\n      jump\t// out\n\n    auxdata: 0xa264697066735822122096b2e2461c5f84f372ce8c81fc53dee9c6686824c81657749e0cd6091e42e71564736f6c63430008130033\n}\n","bytecode":{"linkReferences":{},"object":"60806040523480156200001157600080fd5b506040516200111f3803806200111f83398181016040528101906200003791906200012c565b80600260006101000a81548173ffffffffffffffffffffffffffffffffffffffff021916908373ffffffffffffffffffffffffffffffffffffffff16021790555081600381905550505062000173565b600080fd5b6000819050919050565b620000a1816200008c565b8114620000ad57600080fd5b50565b600081519050620000c18162000096565b92915050565b600073ffffffffffffffffffffffffffffffffffffffff82169050919050565b6000620000f482620000c7565b9050919050565b6200010681620000e7565b81146200011257600080fd5b50565b6000815190506200012681620000fb565b92915050565b6000806040838503121562000146576200014562000087565b5b60006200015685828601620000b0565b9250506020620001698582860162000115565b9150509250929050565b610f9c80620001836000396000f3fe6080604052600436106100865760003560e01c80638a9cfd55116100595780638a9cfd5514610147578063937e09b114610170578063c58343ef1461019b578063d7bb99ba146101dc578063d7d1bbdb146101e657610086565b8063034410061461008b5780630a144391146100b4578063481c6a75146100f157806382fde0931461011c575b600080fd5b34801561009757600080fd5b506100b260048036038101906100ad9190610836565b61020f565b005b3480156100c057600080fd5b506100db60048036038101906100d691906108c1565b610358565b6040516100e89190610909565b60405180910390f35b3480156100fd57600080fd5b50610106610378565b6040516101139190610933565b60405180910390f35b34801561012857600080fd5b5061013161039e565b60405161013e919061095d565b60405180910390f35b34801561015357600080fd5b5061016e60048036038101906101699190610a1b565b6103a4565b005b34801561017c57600080fd5b506101856104b8565b604051610192919061095d565b60405180910390f35b3480156101a757600080fd5b506101c260048036038101906101bd9190610836565b6104be565b6040516101d3959493929190610b1f565b60405180910390f35b6101e46105d0565b005b3480156101f257600080fd5b5061020d60048036038101906102089190610836565b6106aa565b005b600260009054906101000a900473ffffffffffffffffffffffffffffffffffffffff1673ffffffffffffffffffffffffffffffffffffffff163373ffffffffffffffffffffffffffffffffffffffff161461026957600080fd5b600054811061027757600080fd5b60006001600083815260200190815260200160002090508060020160149054906101000a900460ff16156102aa57600080fd5b60026005546102b99190610bd7565b8160030154116102c857600080fd5b8060020160009054906101000a900473ffffffffffffffffffffffffffffffffffffffff1673ffffffffffffffffffffffffffffffffffffffff166108fc82600101549081150290604051600060405180830381858888f19350505050158015610336573d6000803e3d6000fd5b5060018160020160146101000a81548160ff0219169083151502179055505050565b60046020528060005260406000206000915054906101000a900460ff1681565b600260009054906101000a900473ffffffffffffffffffffffffffffffffffffffff1681565b60055481565b600260009054906101000a900473ffffffffffffffffffffffffffffffffffffffff1673ffffffffffffffffffffffffffffffffffffffff163373ffffffffffffffffffffffffffffffffffffffff16146103fe57600080fd5b60006001600080600081548092919061041690610c08565b9190505581526020019081526020016000209050848482600001918261043d929190610e96565b50828160010181905550818160020160006101000a81548173ffffffffffffffffffffffffffffffffffffffff021916908373ffffffffffffffffffffffffffffffffffffffff16021790555060008160020160146101000a81548160ff021916908315150217905550600081600301819055505050505050565b60035481565b606060008060008060005486106104d457600080fd5b60006001600088815260200190815260200160002090508060000181600101548260020160009054906101000a900473ffffffffffffffffffffffffffffffffffffffff168360020160149054906101000a900460ff16846003015484805461053c90610cb9565b80601f016020809104026020016040519081016040528092919081815260200182805461056890610cb9565b80156105b55780601f1061058a576101008083540402835291602001916105b5565b820191906000526020600020905b81548152906001019060200180831161059857829003601f168201915b50505050509450955095509550955095505091939590929450565b600260009054906101000a900473ffffffffffffffffffffffffffffffffffffffff1673ffffffffffffffffffffffffffffffffffffffff163373ffffffffffffffffffffffffffffffffffffffff160361062a57600080fd5b600354341161063857600080fd5b6001600460003373ffffffffffffffffffffffffffffffffffffffff1673ffffffffffffffffffffffffffffffffffffffff16815260200190815260200160002060006101000a81548160ff021916908315150217905550600560008154809291906106a390610c08565b9190505550565b60005481106106b857600080fd5b6000600160008381526020019081526020016000209050600460003373ffffffffffffffffffffffffffffffffffffffff1673ffffffffffffffffffffffffffffffffffffffff16815260200190815260200160002060009054906101000a900460ff1661072557600080fd5b8060040160003373ffffffffffffffffffffffffffffffffffffffff1673ffffffffffffffffffffffffffffffffffffffff16815260200190815260200160002060009054906101000a900460ff161561077e57600080fd5b60018160040160003373ffffffffffffffffffffffffffffffffffffffff1673ffffffffffffffffffffffffffffffffffffffff16815260200190815260200160002060006101000a81548160ff0219169083151502179055508060030160008154809291906107ed90610c08565b91905055505050565b600080fd5b600080fd5b6000819050919050565b61081381610800565b811461081e57600080fd5b50565b6000813590506108308161080a565b92915050565b60006020828403121561084c5761084b6107f6565b5b600061085a84828501610821565b91505092915050565b600073ffffffffffffffffffffffffffffffffffffffff82169050919050565b600061088e82610863565b9050919050565b61089e81610883565b81146108a957600080fd5b50565b6000813590506108bb81610895565b92915050565b6000602082840312156108d7576108d66107f6565b5b60006108e5848285016108ac565b91505092915050565b60008115159050919050565b610903816108ee565b82525050565b600060208201905061091e60008301846108fa565b92915050565b61092d81610883565b82525050565b60006020820190506109486000830184610924565b92915050565b61095781610800565b82525050565b6000602082019050610972600083018461094e565b92915050565b600080fd5b600080fd5b600080fd5b60008083601f84011261099d5761099c610978565b5b8235905067ffffffffffffffff8111156109ba576109b961097d565b5b6020830191508360018202830111156109d6576109d5610982565b5b9250929050565b60006109e882610863565b9050919050565b6109f8816109dd565b8114610a0357600080fd5b50565b600081359050610a15816109ef565b92915050565b60008060008060608587031215610a3557610a346107f6565b5b600085013567ffffffffffffffff811115610a5357610a526107fb565b5b610a5f87828801610987565b94509450506020610a7287828801610821565b9250506040610a8387828801610a06565b91505092959194509250565b600081519050919050565b600082825260208201905092915050565b60005b83811015610ac9578082015181840152602081019050610aae565b60008484015250505050565b6000601f19601f8301169050919050565b6000610af182610a8f565b610afb8185610a9a565b9350610b0b818560208601610aab565b610b1481610ad5565b840191505092915050565b600060a0820190508181036000830152610b398188610ae6565b9050610b48602083018761094e565b610b556040830186610924565b610b6260608301856108fa565b610b6f608083018461094e565b9695505050505050565b7f4e487b7100000000000000000000000000000000000000000000000000000000600052601260045260246000fd5b7f4e487b7100000000000000000000000000000000000000000000000000000000600052601160045260246000fd5b6000610be282610800565b9150610bed83610800565b925082610bfd57610bfc610b79565b5b828204905092915050565b6000610c1382610800565b91507fffffffffffffffffffffffffffffffffffffffffffffffffffffffffffffffff8203610c4557610c44610ba8565b5b600182019050919050565b600082905092915050565b7f4e487b7100000000000000000000000000000000000000000000000000000000600052604160045260246000fd5b7f4e487b7100000000000000000000000000000000000000000000000000000000600052602260045260246000fd5b60006002820490506001821680610cd157607f821691505b602082108103610ce457610ce3610c8a565b5b50919050565b60008190508160005260206000209050919050565b60006020601f8301049050919050565b600082821b905092915050565b600060088302610d4c7fffffffffffffffffffffffffffffffffffffffffffffffffffffffffffffffff82610d0f565b610d568683610d0f565b95508019841693508086168417925050509392505050565b6000819050919050565b6000610d93610d8e610d8984610800565b610d6e565b610800565b9050919050565b6000819050919050565b610dad83610d78565b610dc1610db982610d9a565b848454610d1c565b825550505050565b600090565b610dd6610dc9565b610de1818484610da4565b505050565b5b81811015610e0557610dfa600082610dce565b600181019050610de7565b5050565b601f821115610e4a57610e1b81610cea565b610e2484610cff565b81016020851015610e33578190505b610e47610e3f85610cff565b830182610de6565b50505b505050565b600082821c905092915050565b6000610e6d60001984600802610e4f565b1980831691505092915050565b6000610e868383610e5c565b9150826002028217905092915050565b610ea08383610c50565b67ffffffffffffffff811115610eb957610eb8610c5b565b5b610ec38254610cb9565b610ece828285610e09565b6000601f831160018114610efd5760008415610eeb578287013590505b610ef58582610e7a565b865550610f5d565b601f198416610f0b86610cea565b60005b82811015610f3357848901358255600182019150602085019450602081019050610f0e565b86831015610f505784890135610f4c601f891682610e5c565b8355505b6001600288020188555050505b5050505050505056fea264697066735822122096b2e2461c5f84f372ce8c81fc53dee9c6686824c81657749e0cd6091e42e71564736f6c63430008130033","opcodes":"PUSH1 0x80 PUSH1 0x40 MSTORE CALLVALUE DUP1 ISZERO PUSH3 0x11 JUMPI PUSH1 0x0 DUP1 REVERT JUMPDEST POP PUSH1 0x40 MLOAD PUSH3 0x111F CODESIZE SUB DUP1 PUSH3 0x111F DUP4 CODECOPY DUP2 DUP2 ADD PUSH1 0x40 MSTORE DUP2 ADD SWAP1 PUSH3 0x37 SWAP2 SWAP1 PUSH3 0x12C JUMP JUMPDEST DUP1 PUSH1 0x2 PUSH1 0x0 PUSH2 0x100 EXP DUP2 SLOAD DUP2 PUSH20 0xFFFFFFFFFFFFFFFFFFFFFFFFFFFFFFFFFFFFFFFF MUL NOT AND SWAP1 DUP4 PUSH20 0xFFFFFFFFFFFFFFFFFFFFFFFFFFFFFFFFFFFFFFFF AND MUL OR SWAP1 SSTORE POP DUP2 PUSH1 0x3 DUP2 SWAP1 SSTORE POP POP POP PUSH3 0x173 JUMP JUMPDEST PUSH1 0x0 DUP1 REVERT JUMPDEST PUSH1 0x0 DUP2 SWAP1 POP SWAP2 SWAP1 POP JUMP JUMPDEST PUSH3 0xA1 DUP2 PUSH3 0x8C JUMP JUMPDEST DUP2 EQ PUSH3 0xAD JUMPI PUSH1 0x0 DUP1 REVERT JUMPDEST POP JUMP JUMPDEST PUSH1 0x0 DUP2 MLOAD SWAP1 POP PUSH3 0xC1 DUP2 PUSH3 0x96 JUMP JUMPDEST SWAP3 SWAP2 POP POP JUMP JUMPDEST PUSH1 0x0 PUSH20 0xFFFFFFFFFFFFFFFFFFFFFFFFFFFFFFFFFFFFFFFF DUP3 AND SWAP1 POP SWAP2 SWAP1 POP JUMP JUMPDEST PUSH1 0x0 PUSH3 0xF4 DUP3 PUSH3 0xC7 JUMP JUMPDEST SWAP1 POP SWAP2 SWAP1 POP JUMP JUMPDEST PUSH3 0x106 DUP2 PUSH3 0xE7 JUMP JUMPDEST DUP2 EQ PUSH3 0x112 JUMPI PUSH1 0x0 DUP1 REVERT JUMPDEST POP JUMP JUMPDEST PUSH1 0x0 DUP2 MLOAD SWAP1 POP PUSH3 0x126 DUP2 PUSH3 0xFB JUMP JUMPDEST SWAP3 SWAP2 POP POP JUMP JUMPDEST PUSH1 0x0 DUP1 PUSH1 0x40 DUP4 DUP6 SUB SLT ISZERO PUSH3 0x146 JUMPI PUSH3 0x145 PUSH3 0x87 JUMP JUMPDEST JUMPDEST PUSH1 0x0 PUSH3 0x156 DUP6 DUP3 DUP7 ADD PUSH3 0xB0 JUMP JUMPDEST SWAP3 POP POP PUSH1 0x20 PUSH3 0x169 DUP6 DUP3 DUP7 ADD PUSH3 0x115 JUMP JUMPDEST SWAP2 POP POP SWAP3 POP SWAP3 SWAP1 POP JUMP JUMPDEST PUSH2 0xF9C DUP1 PUSH3 0x183 PUSH1 0x0 CODECOPY PUSH1 0x0 RETURN INVALID PUSH1 0x80 PUSH1 0x40 MSTORE PUSH1 0x4 CALLDATASIZE LT PUSH2 0x86 JUMPI PUSH1 0x0 CALLDATALOAD PUSH1 0xE0 SHR DUP1 PUSH4 0x8A9CFD55 GT PUSH2 0x59 JUMPI DUP1 PUSH4 0x8A9CFD55 EQ PUSH2 0x147 JUMPI DUP1 PUSH4 0x937E09B1 EQ PUSH2 0x170 JUMPI DUP1 PUSH4 0xC58343EF EQ PUSH2 0x19B JUMPI DUP1 PUSH4 0xD7BB99BA EQ PUSH2 0x1DC JUMPI DUP1 PUSH4 0xD7D1BBDB EQ PUSH2 0x1E6 JUMPI PUSH2 0x86 JUMP JUMPDEST DUP1 PUSH4 0x3441006 EQ PUSH2 0x8B JUMPI DUP1 PUSH4 0xA144391 EQ PUSH2 0xB4 JUMPI DUP1 PUSH4 0x481C6A75 EQ PUSH2 0xF1 JUMPI DUP1 PUSH4 0x82FDE093 EQ PUSH2 0x11C JUMPI JUMPDEST PUSH1 0x0 DUP1 REVERT JUMPDEST CALLVALUE DUP1 ISZERO PUSH2 0x97 JUMPI PUSH1 0x0 DUP1 REVERT JUMPDEST POP PUSH2 0xB2 PUSH1 0x4 DUP1 CALLDATASIZE SUB DUP2 ADD SWAP1 PUSH2 0xAD SWAP2 SWAP1 PUSH2 0x836 JUMP JUMPDEST PUSH2 0x20F JUMP JUMPDEST STOP JUMPDEST CALLVALUE DUP1 ISZERO PUSH2 0xC0 JUMPI PUSH1 0x0 DUP1 REVERT JUMPDEST POP PUSH2 0xDB PUSH1 0x4 DUP1 CALLDATASIZE SUB DUP2 ADD SWAP1 PUSH2 0xD6 SWAP2 SWAP1 PUSH2 0x8C1 JUMP JUMPDEST PUSH2 0x358 JUMP JUMPDEST PUSH1 0x40 MLOAD PUSH2 0xE8 SWAP2 SWAP1 PUSH2 0x909 JUMP JUMPDEST PUSH1 0x40 MLOAD DUP1 SWAP2 SUB SWAP1 RETURN JUMPDEST CALLVALUE DUP1 ISZERO PUSH2 0xFD JUMPI PUSH1 0x0 DUP1 REVERT JUMPDEST POP PUSH2 0x106 PUSH2 0x378 JUMP JUMPDEST PUSH1 0x40 MLOAD PUSH2 0x113 SWAP2 SWAP1 PUSH2 0x933 JUMP JUMPDEST PUSH1 0x40 MLOAD DUP1 SWAP2 SUB SWAP1 RETURN JUMPDEST CALLVALUE DUP1 ISZERO PUSH2 0x128 JUMPI PUSH1 0x0 DUP1 REVERT JUMPDEST POP PUSH2 0x131 PUSH2 0x39E JUMP JUMPDEST PUSH1 0x40 MLOAD PUSH2 0x13E SWAP2 SWAP1 PUSH2 0x95D JUMP JUMPDEST PUSH1 0x40 MLOAD DUP1 SWAP2 SUB SWAP1 RETURN JUMPDEST CALLVALUE DUP1 ISZERO PUSH2 0x153 JUMPI PUSH1 0x0 DUP1 REVERT JUMPDEST POP PUSH2 0x16E PUSH1 0x4 DUP1 CALLDATASIZE SUB DUP2 ADD SWAP1 PUSH2 0x169 SWAP2 SWAP1 PUSH2 0xA1B JUMP JUMPDEST PUSH2 0x3A4 JUMP JUMPDEST STOP JUMPDEST CALLVALUE DUP1 ISZERO PUSH2 0x17C JUMPI PUSH1 0x0 DUP1 REVERT JUMPDEST POP PUSH2 0x185 PUSH2 0x4B8 JUMP JUMPDEST PUSH1 0x40 MLOAD PUSH2 0x192 SWAP2 SWAP1 PUSH2 0x95D JUMP JUMPDEST PUSH1 0x40 MLOAD DUP1 SWAP2 SUB SWAP1 RETURN JUMPDEST CALLVALUE DUP1 ISZERO PUSH2 0x1A7 JUMPI PUSH1 0x0 DUP1 REVERT JUMPDEST POP PUSH2 0x1C2 PUSH1 0x4 DUP1 CALLDATASIZE SUB DUP2 ADD SWAP1 PUSH2 0x1BD SWAP2 SWAP1 PUSH2 0x836 JUMP JUMPDEST PUSH2 0x4BE JUMP JUMPDEST PUSH1 0x40 MLOAD PUSH2 0x1D3 SWAP6 SWAP5 SWAP4 SWAP3 SWAP2 SWAP1 PUSH2 0xB1F JUMP JUMPDEST PUSH1 0x40 MLOAD DUP1 SWAP2 SUB SWAP1 RETURN JUMPDEST PUSH2 0x1E4 PUSH2 0x5D0 JUMP JUMPDEST STOP JUMPDEST CALLVALUE DUP1 ISZERO PUSH2 0x1F2 JUMPI PUSH1 0x0 DUP1 REVERT JUMPDEST POP PUSH2 0x20D PUSH1 0x4 DUP1 CALLDATASIZE SUB DUP2 ADD SWAP1 PUSH2 0x208 SWAP2 SWAP1 PUSH2 0x836 JUMP JUMPDEST PUSH2 0x6AA JUMP JUMPDEST STOP JUMPDEST PUSH1 0x2 PUSH1 0x0 SWAP1 SLOAD SWAP1 PUSH2 0x100 EXP SWAP1 DIV PUSH20 0xFFFFFFFFFFFFFFFFFFFFFFFFFFFFFFFFFFFFFFFF AND PUSH20 0xFFFFFFFFFFFFFFFFFFFFFFFFFFFFFFFFFFFFFFFF AND CALLER PUSH20 0xFFFFFFFFFFFFFFFFFFFFFFFFFFFFFFFFFFFFFFFF AND EQ PUSH2 0x269 JUMPI PUSH1 0x0 DUP1 REVERT JUMPDEST PUSH1 0x0 SLOAD DUP2 LT PUSH2 0x277 JUMPI PUSH1 0x0 DUP1 REVERT JUMPDEST PUSH1 0x0 PUSH1 0x1 PUSH1 0x0 DUP4 DUP2 MSTORE PUSH1 0x20 ADD SWAP1 DUP2 MSTORE PUSH1 0x20 ADD PUSH1 0x0 KECCAK256 SWAP1 POP DUP1 PUSH1 0x2 ADD PUSH1 0x14 SWAP1 SLOAD SWAP1 PUSH2 0x100 EXP SWAP1 DIV PUSH1 0xFF AND ISZERO PUSH2 0x2AA JUMPI PUSH1 0x0 DUP1 REVERT JUMPDEST PUSH1 0x2 PUSH1 0x5 SLOAD PUSH2 0x2B9 SWAP2 SWAP1 PUSH2 0xBD7 JUMP JUMPDEST DUP2 PUSH1 0x3 ADD SLOAD GT PUSH2 0x2C8 JUMPI PUSH1 0x0 DUP1 REVERT JUMPDEST DUP1 PUSH1 0x2 ADD PUSH1 0x0 SWAP1 SLOAD SWAP1 PUSH2 0x100 EXP SWAP1 DIV PUSH20 0xFFFFFFFFFFFFFFFFFFFFFFFFFFFFFFFFFFFFFFFF AND PUSH20 0xFFFFFFFFFFFFFFFFFFFFFFFFFFFFFFFFFFFFFFFF AND PUSH2 0x8FC DUP3 PUSH1 0x1 ADD SLOAD SWAP1 DUP2 ISZERO MUL SWAP1 PUSH1 0x40 MLOAD PUSH1 0x0 PUSH1 0x40 MLOAD DUP1 DUP4 SUB DUP2 DUP6 DUP9 DUP9 CALL SWAP4 POP POP POP POP ISZERO DUP1 ISZERO PUSH2 0x336 JUMPI RETURNDATASIZE PUSH1 0x0 DUP1 RETURNDATACOPY RETURNDATASIZE PUSH1 0x0 REVERT JUMPDEST POP PUSH1 0x1 DUP2 PUSH1 0x2 ADD PUSH1 0x14 PUSH2 0x100 EXP DUP2 SLOAD DUP2 PUSH1 0xFF MUL NOT AND SWAP1 DUP4 ISZERO ISZERO MUL OR SWAP1 SSTORE POP POP POP JUMP JUMPDEST PUSH1 0x4 PUSH1 0x20 MSTORE DUP1 PUSH1 0x0 MSTORE PUSH1 0x40 PUSH1 0x0 KECCAK256 PUSH1 0x0 SWAP2 POP SLOAD SWAP1 PUSH2 0x100 EXP SWAP1 DIV PUSH1 0xFF AND DUP2 JUMP JUMPDEST PUSH1 0x2 PUSH1 0x0 SWAP1 SLOAD SWAP1 PUSH2 0x100 EXP SWAP1 DIV PUSH20 0xFFFFFFFFFFFFFFFFFFFFFFFFFFFFFFFFFFFFFFFF AND DUP2 JUMP JUMPDEST PUSH1 0x5 SLOAD DUP2 JUMP JUMPDEST PUSH1 0x2 PUSH1 0x0 SWAP1 SLOAD SWAP1 PUSH2 0x100 EXP SWAP1 DIV PUSH20 0xFFFFFFFFFFFFFFFFFFFFFFFFFFFFFFFFFFFFFFFF AND PUSH20 0xFFFFFFFFFFFFFFFFFFFFFFFFFFFFFFFFFFFFFFFF AND CALLER PUSH20 0xFFFFFFFFFFFFFFFFFFFFFFFFFFFFFFFFFFFFFFFF AND EQ PUSH2 0x3FE JUMPI PUSH1 0x0 DUP1 REVERT JUMPDEST PUSH1 0x0 PUSH1 0x1 PUSH1 0x0 DUP1 PUSH1 0x0 DUP2 SLOAD DUP1 SWAP3 SWAP2 SWAP1 PUSH2 0x416 SWAP1 PUSH2 0xC08 JUMP JUMPDEST SWAP2 SWAP1 POP SSTORE DUP2 MSTORE PUSH1 0x20 ADD SWAP1 DUP2 MSTORE PUSH1 0x20 ADD PUSH1 0x0 KECCAK256 SWAP1 POP DUP5 DUP5 DUP3 PUSH1 0x0 ADD SWAP2 DUP3 PUSH2 0x43D SWAP3 SWAP2 SWAP1 PUSH2 0xE96 JUMP JUMPDEST POP DUP3 DUP2 PUSH1 0x1 ADD DUP2 SWAP1 SSTORE POP DUP2 DUP2 PUSH1 0x2 ADD PUSH1 0x0 PUSH2 0x100 EXP DUP2 SLOAD DUP2 PUSH20 0xFFFFFFFFFFFFFFFFFFFFFFFFFFFFFFFFFFFFFFFF MUL NOT AND SWAP1 DUP4 PUSH20 0xFFFFFFFFFFFFFFFFFFFFFFFFFFFFFFFFFFFFFFFF AND MUL OR SWAP1 SSTORE POP PUSH1 0x0 DUP2 PUSH1 0x2 ADD PUSH1 0x14 PUSH2 0x100 EXP DUP2 SLOAD DUP2 PUSH1 0xFF MUL NOT AND SWAP1 DUP4 ISZERO ISZERO MUL OR SWAP1 SSTORE POP PUSH1 0x0 DUP2 PUSH1 0x3 ADD DUP2 SWAP1 SSTORE POP POP POP POP POP POP JUMP JUMPDEST PUSH1 0x3 SLOAD DUP2 JUMP JUMPDEST PUSH1 0x60 PUSH1 0x0 DUP1 PUSH1 0x0 DUP1 PUSH1 0x0 SLOAD DUP7 LT PUSH2 0x4D4 JUMPI PUSH1 0x0 DUP1 REVERT JUMPDEST PUSH1 0x0 PUSH1 0x1 PUSH1 0x0 DUP9 DUP2 MSTORE PUSH1 0x20 ADD SWAP1 DUP2 MSTORE PUSH1 0x20 ADD PUSH1 0x0 KECCAK256 SWAP1 POP DUP1 PUSH1 0x0 ADD DUP2 PUSH1 0x1 ADD SLOAD DUP3 PUSH1 0x2 ADD PUSH1 0x0 SWAP1 SLOAD SWAP1 PUSH2 0x100 EXP SWAP1 DIV PUSH20 0xFFFFFFFFFFFFFFFFFFFFFFFFFFFFFFFFFFFFFFFF AND DUP4 PUSH1 0x2 ADD PUSH1 0x14 SWAP1 SLOAD SWAP1 PUSH2 0x100 EXP SWAP1 DIV PUSH1 0xFF AND DUP5 PUSH1 0x3 ADD SLOAD DUP5 DUP1 SLOAD PUSH2 0x53C SWAP1 PUSH2 0xCB9 JUMP JUMPDEST DUP1 PUSH1 0x1F ADD PUSH1 0x20 DUP1 SWAP2 DIV MUL PUSH1 0x20 ADD PUSH1 0x40 MLOAD SWAP1 DUP2 ADD PUSH1 0x40 MSTORE DUP1 SWAP3 SWAP2 SWAP1 DUP2 DUP2 MSTORE PUSH1 0x20 ADD DUP3 DUP1 SLOAD PUSH2 0x568 SWAP1 PUSH2 0xCB9 JUMP JUMPDEST DUP1 ISZERO PUSH2 0x5B5 JUMPI DUP1 PUSH1 0x1F LT PUSH2 0x58A JUMPI PUSH2 0x100 DUP1 DUP4 SLOAD DIV MUL DUP4 MSTORE SWAP2 PUSH1 0x20 ADD SWAP2 PUSH2 0x5B5 JUMP JUMPDEST DUP3 ADD SWAP2 SWAP1 PUSH1 0x0 MSTORE PUSH1 0x20 PUSH1 0x0 KECCAK256 SWAP1 JUMPDEST DUP2 SLOAD DUP2 MSTORE SWAP1 PUSH1 0x1 ADD SWAP1 PUSH1 0x20 ADD DUP1 DUP4 GT PUSH2 0x598 JUMPI DUP3 SWAP1 SUB PUSH1 0x1F AND DUP3 ADD SWAP2 JUMPDEST POP POP POP POP POP SWAP5 POP SWAP6 POP SWAP6 POP SWAP6 POP SWAP6 POP SWAP6 POP POP SWAP2 SWAP4 SWAP6 SWAP1 SWAP3 SWAP5 POP JUMP JUMPDEST PUSH1 0x2 PUSH1 0x0 SWAP1 SLOAD SWAP1 PUSH2 0x100 EXP SWAP1 DIV PUSH20 0xFFFFFFFFFFFFFFFFFFFFFFFFFFFFFFFFFFFFFFFF AND PUSH20 0xFFFFFFFFFFFFFFFFFFFFFFFFFFFFFFFFFFFFFFFF AND CALLER PUSH20 0xFFFFFFFFFFFFFFFFFFFFFFFFFFFFFFFFFFFFFFFF AND SUB PUSH2 0x62A JUMPI PUSH1 0x0 DUP1 REVERT JUMPDEST PUSH1 0x3 SLOAD CALLVALUE GT PUSH2 0x638 JUMPI PUSH1 0x0 DUP1 REVERT JUMPDEST PUSH1 0x1 PUSH1 0x4 PUSH1 0x0 CALLER PUSH20 0xFFFFFFFFFFFFFFFFFFFFFFFFFFFFFFFFFFFFFFFF AND PUSH20 0xFFFFFFFFFFFFFFFFFFFFFFFFFFFFFFFFFFFFFFFF AND DUP2 MSTORE PUSH1 0x20 ADD SWAP1 DUP2 MSTORE PUSH1 0x20 ADD PUSH1 0x0 KECCAK256 PUSH1 0x0 PUSH2 0x100 EXP DUP2 SLOAD DUP2 PUSH1 0xFF MUL NOT AND SWAP1 DUP4 ISZERO ISZERO MUL OR SWAP1 SSTORE POP PUSH1 0x5 PUSH1 0x0 DUP2 SLOAD DUP1 SWAP3 SWAP2 SWAP1 PUSH2 0x6A3 SWAP1 PUSH2 0xC08 JUMP JUMPDEST SWAP2 SWAP1 POP SSTORE POP JUMP JUMPDEST PUSH1 0x0 SLOAD DUP2 LT PUSH2 0x6B8 JUMPI PUSH1 0x0 DUP1 REVERT JUMPDEST PUSH1 0x0 PUSH1 0x1 PUSH1 0x0 DUP4 DUP2 MSTORE PUSH1 0x20 ADD SWAP1 DUP2 MSTORE PUSH1 0x20 ADD PUSH1 0x0 KECCAK256 SWAP1 POP PUSH1 0x4 PUSH1 0x0 CALLER PUSH20 0xFFFFFFFFFFFFFFFFFFFFFFFFFFFFFFFFFFFFFFFF AND PUSH20 0xFFFFFFFFFFFFFFFFFFFFFFFFFFFFFFFFFFFFFFFF AND DUP2 MSTORE PUSH1 0x20 ADD SWAP1 DUP2 MSTORE PUSH1 0x20 ADD PUSH1 0x0 KECCAK256 PUSH1 0x0 SWAP1 SLOAD SWAP1 PUSH2 0x100 EXP SWAP1 DIV PUSH1 0xFF AND PUSH2 0x725 JUMPI PUSH1 0x0 DUP1 REVERT JUMPDEST DUP1 PUSH1 0x4 ADD PUSH1 0x0 CALLER PUSH20 0xFFFFFFFFFFFFFFFFFFFFFFFFFFFFFFFFFFFFFFFF AND PUSH20 0xFFFFFFFFFFFFFFFFFFFFFFFFFFFFFFFFFFFFFFFF AND DUP2 MSTORE PUSH1 0x20 ADD SWAP1 DUP2 MSTORE PUSH1 0x20 ADD PUSH1 0x0 KECCAK256 PUSH1 0x0 SWAP1 SLOAD SWAP1 PUSH2 0x100 EXP SWAP1 DIV PUSH1 0xFF AND ISZERO PUSH2 0x77E JUMPI PUSH1 0x0 DUP1 REVERT JUMPDEST PUSH1 0x1 DUP2 PUSH1 0x4 ADD PUSH1 0x0 CALLER PUSH20 0xFFFFFFFFFFFFFFFFFFFFFFFFFFFFFFFFFFFFFFFF AND PUSH20 0xFFFFFFFFFFFFFFFFFFFFFFFFFFFFFFFFFFFFFFFF AND DUP2 MSTORE PUSH1 0x20 ADD SWAP1 DUP2 MSTORE PUSH1 0x20 ADD PUSH1 0x0 KECCAK256 PUSH1 0x0 PUSH2 0x100 EXP DUP2 SLOAD DUP2 PUSH1 0xFF MUL NOT AND SWAP1 DUP4 ISZERO ISZERO MUL OR SWAP1 SSTORE POP DUP1 PUSH1 0x3 ADD PUSH1 0x0 DUP2 SLOAD DUP1 SWAP3 SWAP2 SWAP1 PUSH2 0x7ED SWAP1 PUSH2 0xC08 JUMP JUMPDEST SWAP2 SWAP1 POP SSTORE POP POP POP JUMP JUMPDEST PUSH1 0x0 DUP1 REVERT JUMPDEST PUSH1 0x0 DUP1 REVERT JUMPDEST PUSH1 0x0 DUP2 SWAP1 POP SWAP2 SWAP1 POP JUMP JUMPDEST PUSH2 0x813 DUP2 PUSH2 0x800 JUMP JUMPDEST DUP2 EQ PUSH2 0x81E JUMPI PUSH1 0x0 DUP1 REVERT JUMPDEST POP JUMP JUMPDEST PUSH1 0x0 DUP2 CALLDATALOAD SWAP1 POP PUSH2 0x830 DUP2 PUSH2 0x80A JUMP JUMPDEST SWAP3 SWAP2 POP POP JUMP JUMPDEST PUSH1 0x0 PUSH1 0x20 DUP3 DUP5 SUB SLT ISZERO PUSH2 0x84C JUMPI PUSH2 0x84B PUSH2 0x7F6 JUMP JUMPDEST JUMPDEST PUSH1 0x0 PUSH2 0x85A DUP5 DUP3 DUP6 ADD PUSH2 0x821 JUMP JUMPDEST SWAP2 POP POP SWAP3 SWAP2 POP POP JUMP JUMPDEST PUSH1 0x0 PUSH20 0xFFFFFFFFFFFFFFFFFFFFFFFFFFFFFFFFFFFFFFFF DUP3 AND SWAP1 POP SWAP2 SWAP1 POP JUMP JUMPDEST PUSH1 0x0 PUSH2 0x88E DUP3 PUSH2 0x863 JUMP JUMPDEST SWAP1 POP SWAP2 SWAP1 POP JUMP JUMPDEST PUSH2 0x89E DUP2 PUSH2 0x883 JUMP JUMPDEST DUP2 EQ PUSH2 0x8A9 JUMPI PUSH1 0x0 DUP1 REVERT JUMPDEST POP JUMP JUMPDEST PUSH1 0x0 DUP2 CALLDATALOAD SWAP1 POP PUSH2 0x8BB DUP2 PUSH2 0x895 JUMP JUMPDEST SWAP3 SWAP2 POP POP JUMP JUMPDEST PUSH1 0x0 PUSH1 0x20 DUP3 DUP5 SUB SLT ISZERO PUSH2 0x8D7 JUMPI PUSH2 0x8D6 PUSH2 0x7F6 JUMP JUMPDEST JUMPDEST PUSH1 0x0 PUSH2 0x8E5 DUP5 DUP3 DUP6 ADD PUSH2 0x8AC JUMP JUMPDEST SWAP2 POP POP SWAP3 SWAP2 POP POP JUMP JUMPDEST PUSH1 0x0 DUP2 ISZERO ISZERO SWAP1 POP SWAP2 SWAP1 POP JUMP JUMPDEST PUSH2 0x903 DUP2 PUSH2 0x8EE JUMP JUMPDEST DUP3 MSTORE POP POP JUMP JUMPDEST PUSH1 0x0 PUSH1 0x20 DUP3 ADD SWAP1 POP PUSH2 0x91E PUSH1 0x0 DUP4 ADD DUP5 PUSH2 0x8FA JUMP JUMPDEST SWAP3 SWAP2 POP POP JUMP JUMPDEST PUSH2 0x92D DUP2 PUSH2 0x883 JUMP JUMPDEST DUP3 MSTORE POP POP JUMP JUMPDEST PUSH1 0x0 PUSH1 0x20 DUP3 ADD SWAP1 POP PUSH2 0x948 PUSH1 0x0 DUP4 ADD DUP5 PUSH2 0x924 JUMP JUMPDEST SWAP3 SWAP2 POP POP JUMP JUMPDEST PUSH2 0x957 DUP2 PUSH2 0x800 JUMP JUMPDEST DUP3 MSTORE POP POP JUMP JUMPDEST PUSH1 0x0 PUSH1 0x20 DUP3 ADD SWAP1 POP PUSH2 0x972 PUSH1 0x0 DUP4 ADD DUP5 PUSH2 0x94E JUMP JUMPDEST SWAP3 SWAP2 POP POP JUMP JUMPDEST PUSH1 0x0 DUP1 REVERT JUMPDEST PUSH1 0x0 DUP1 REVERT JUMPDEST PUSH1 0x0 DUP1 REVERT JUMPDEST PUSH1 0x0 DUP1 DUP4 PUSH1 0x1F DUP5 ADD SLT PUSH2 0x99D JUMPI PUSH2 0x99C PUSH2 0x978 JUMP JUMPDEST JUMPDEST DUP3 CALLDATALOAD SWAP1 POP PUSH8 0xFFFFFFFFFFFFFFFF DUP2 GT ISZERO PUSH2 0x9BA JUMPI PUSH2 0x9B9 PUSH2 0x97D JUMP JUMPDEST JUMPDEST PUSH1 0x20 DUP4 ADD SWAP2 POP DUP4 PUSH1 0x1 DUP3 MUL DUP4 ADD GT ISZERO PUSH2 0x9D6 JUMPI PUSH2 0x9D5 PUSH2 0x982 JUMP JUMPDEST JUMPDEST SWAP3 POP SWAP3 SWAP1 POP JUMP JUMPDEST PUSH1 0x0 PUSH2 0x9E8 DUP3 PUSH2 0x863 JUMP JUMPDEST SWAP1 POP SWAP2 SWAP1 POP JUMP JUMPDEST PUSH2 0x9F8 DUP2 PUSH2 0x9DD JUMP JUMPDEST DUP2 EQ PUSH2 0xA03 JUMPI PUSH1 0x0 DUP1 REVERT JUMPDEST POP JUMP JUMPDEST PUSH1 0x0 DUP2 CALLDATALOAD SWAP1 POP PUSH2 0xA15 DUP2 PUSH2 0x9EF JUMP JUMPDEST SWAP3 SWAP2 POP POP JUMP JUMPDEST PUSH1 0x0 DUP1 PUSH1 0x0 DUP1 PUSH1 0x60 DUP6 DUP8 SUB SLT ISZERO PUSH2 0xA35 JUMPI PUSH2 0xA34 PUSH2 0x7F6 JUMP JUMPDEST JUMPDEST PUSH1 0x0 DUP6 ADD CALLDATALOAD PUSH8 0xFFFFFFFFFFFFFFFF DUP2 GT ISZERO PUSH2 0xA53 JUMPI PUSH2 0xA52 PUSH2 0x7FB JUMP JUMPDEST JUMPDEST PUSH2 0xA5F DUP8 DUP3 DUP9 ADD PUSH2 0x987 JUMP JUMPDEST SWAP5 POP SWAP5 POP POP PUSH1 0x20 PUSH2 0xA72 DUP8 DUP3 DUP9 ADD PUSH2 0x821 JUMP JUMPDEST SWAP3 POP POP PUSH1 0x40 PUSH2 0xA83 DUP8 DUP3 DUP9 ADD PUSH2 0xA06 JUMP JUMPDEST SWAP2 POP POP SWAP3 SWAP6 SWAP2 SWAP5 POP SWAP3 POP JUMP JUMPDEST PUSH1 0x0 DUP2 MLOAD SWAP1 POP SWAP2 SWAP1 POP JUMP JUMPDEST PUSH1 0x0 DUP3 DUP3 MSTORE PUSH1 0x20 DUP3 ADD SWAP1 POP SWAP3 SWAP2 POP POP JUMP JUMPDEST PUSH1 0x0 JUMPDEST DUP4 DUP2 LT ISZERO PUSH2 0xAC9 JUMPI DUP1 DUP3 ADD MLOAD DUP2 DUP5 ADD MSTORE PUSH1 0x20 DUP2 ADD SWAP1 POP PUSH2 0xAAE JUMP JUMPDEST PUSH1 0x0 DUP5 DUP5 ADD MSTORE POP POP POP POP JUMP JUMPDEST PUSH1 0x0 PUSH1 0x1F NOT PUSH1 0x1F DUP4 ADD AND SWAP1 POP SWAP2 SWAP1 POP JUMP JUMPDEST PUSH1 0x0 PUSH2 0xAF1 DUP3 PUSH2 0xA8F JUMP JUMPDEST PUSH2 0xAFB DUP2 DUP6 PUSH2 0xA9A JUMP JUMPDEST SWAP4 POP PUSH2 0xB0B DUP2 DUP6 PUSH1 0x20 DUP7 ADD PUSH2 0xAAB JUMP JUMPDEST PUSH2 0xB14 DUP2 PUSH2 0xAD5 JUMP JUMPDEST DUP5 ADD SWAP2 POP POP SWAP3 SWAP2 POP POP JUMP JUMPDEST PUSH1 0x0 PUSH1 0xA0 DUP3 ADD SWAP1 POP DUP2 DUP2 SUB PUSH1 0x0 DUP4 ADD MSTORE PUSH2 0xB39 DUP2 DUP9 PUSH2 0xAE6 JUMP JUMPDEST SWAP1 POP PUSH2 0xB48 PUSH1 0x20 DUP4 ADD DUP8 PUSH2 0x94E JUMP JUMPDEST PUSH2 0xB55 PUSH1 0x40 DUP4 ADD DUP7 PUSH2 0x924 JUMP JUMPDEST PUSH2 0xB62 PUSH1 0x60 DUP4 ADD DUP6 PUSH2 0x8FA JUMP JUMPDEST PUSH2 0xB6F PUSH1 0x80 DUP4 ADD DUP5 PUSH2 0x94E JUMP JUMPDEST SWAP7 SWAP6 POP POP POP POP POP POP JUMP JUMPDEST PUSH32 0x4E487B7100000000000000000000000000000000000000000000000000000000 PUSH1 0x0 MSTORE PUSH1 0x12 PUSH1 0x4 MSTORE PUSH1 0x24 PUSH1 0x0 REVERT JUMPDEST PUSH32 0x4E487B7100000000000000000000000000000000000000000000000000000000 PUSH1 0x0 MSTORE PUSH1 0x11 PUSH1 0x4 MSTORE PUSH1 0x24 PUSH1 0x0 REVERT JUMPDEST PUSH1 0x0 PUSH2 0xBE2 DUP3 PUSH2 0x800 JUMP JUMPDEST SWAP2 POP PUSH2 0xBED DUP4 PUSH2 0x800 JUMP JUMPDEST SWAP3 POP DUP3 PUSH2 0xBFD JUMPI PUSH2 0xBFC PUSH2 0xB79 JUMP JUMPDEST JUMPDEST DUP3 DUP3 DIV SWAP1 POP SWAP3 SWAP2 POP POP JUMP JUMPDEST PUSH1 0x0 PUSH2 0xC13 DUP3 PUSH2 0x800 JUMP JUMPDEST SWAP2 POP PUSH32 0xFFFFFFFFFFFFFFFFFFFFFFFFFFFFFFFFFFFFFFFFFFFFFFFFFFFFFFFFFFFFFFFF DUP3 SUB PUSH2 0xC45 JUMPI PUSH2 0xC44 PUSH2 0xBA8 JUMP JUMPDEST JUMPDEST PUSH1 0x1 DUP3 ADD SWAP1 POP SWAP2 SWAP1 POP JUMP JUMPDEST PUSH1 0x0 DUP3 SWAP1 POP SWAP3 SWAP2 POP POP JUMP JUMPDEST PUSH32 0x4E487B7100000000000000000000000000000000000000000000000000000000 PUSH1 0x0 MSTORE PUSH1 0x41 PUSH1 0x4 MSTORE PUSH1 0x24 PUSH1 0x0 REVERT JUMPDEST PUSH32 0x4E487B7100000000000000000000000000000000000000000000000000000000 PUSH1 0x0 MSTORE PUSH1 0x22 PUSH1 0x4 MSTORE PUSH1 0x24 PUSH1 0x0 REVERT JUMPDEST PUSH1 0x0 PUSH1 0x2 DUP3 DIV SWAP1 POP PUSH1 0x1 DUP3 AND DUP1 PUSH2 0xCD1 JUMPI PUSH1 0x7F DUP3 AND SWAP2 POP JUMPDEST PUSH1 0x20 DUP3 LT DUP2 SUB PUSH2 0xCE4 JUMPI PUSH2 0xCE3 PUSH2 0xC8A JUMP JUMPDEST JUMPDEST POP SWAP2 SWAP1 POP JUMP JUMPDEST PUSH1 0x0 DUP2 SWAP1 POP DUP2 PUSH1 0x0 MSTORE PUSH1 0x20 PUSH1 0x0 KECCAK256 SWAP1 POP SWAP2 SWAP1 POP JUMP JUMPDEST PUSH1 0x0 PUSH1 0x20 PUSH1 0x1F DUP4 ADD DIV SWAP1 POP SWAP2 SWAP1 POP JUMP JUMPDEST PUSH1 0x0 DUP3 DUP3 SHL SWAP1 POP SWAP3 SWAP2 POP POP JUMP JUMPDEST PUSH1 0x0 PUSH1 0x8 DUP4 MUL PUSH2 0xD4C PUSH32 0xFFFFFFFFFFFFFFFFFFFFFFFFFFFFFFFFFFFFFFFFFFFFFFFFFFFFFFFFFFFFFFFF DUP3 PUSH2 0xD0F JUMP JUMPDEST PUSH2 0xD56 DUP7 DUP4 PUSH2 0xD0F JUMP JUMPDEST SWAP6 POP DUP1 NOT DUP5 AND SWAP4 POP DUP1 DUP7 AND DUP5 OR SWAP3 POP POP POP SWAP4 SWAP3 POP POP POP JUMP JUMPDEST PUSH1 0x0 DUP2 SWAP1 POP SWAP2 SWAP1 POP JUMP JUMPDEST PUSH1 0x0 PUSH2 0xD93 PUSH2 0xD8E PUSH2 0xD89 DUP5 PUSH2 0x800 JUMP JUMPDEST PUSH2 0xD6E JUMP JUMPDEST PUSH2 0x800 JUMP JUMPDEST SWAP1 POP SWAP2 SWAP1 POP JUMP JUMPDEST PUSH1 0x0 DUP2 SWAP1 POP SWAP2 SWAP1 POP JUMP JUMPDEST PUSH2 0xDAD DUP4 PUSH2 0xD78 JUMP JUMPDEST PUSH2 0xDC1 PUSH2 0xDB9 DUP3 PUSH2 0xD9A JUMP JUMPDEST DUP5 DUP5 SLOAD PUSH2 0xD1C JUMP JUMPDEST DUP3 SSTORE POP POP POP POP JUMP JUMPDEST PUSH1 0x0 SWAP1 JUMP JUMPDEST PUSH2 0xDD6 PUSH2 0xDC9 JUMP JUMPDEST PUSH2 0xDE1 DUP2 DUP5 DUP5 PUSH2 0xDA4 JUMP JUMPDEST POP POP POP JUMP JUMPDEST JUMPDEST DUP2 DUP2 LT ISZERO PUSH2 0xE05 JUMPI PUSH2 0xDFA PUSH1 0x0 DUP3 PUSH2 0xDCE JUMP JUMPDEST PUSH1 0x1 DUP2 ADD SWAP1 POP PUSH2 0xDE7 JUMP JUMPDEST POP POP JUMP JUMPDEST PUSH1 0x1F DUP3 GT ISZERO PUSH2 0xE4A JUMPI PUSH2 0xE1B DUP2 PUSH2 0xCEA JUMP JUMPDEST PUSH2 0xE24 DUP5 PUSH2 0xCFF JUMP JUMPDEST DUP2 ADD PUSH1 0x20 DUP6 LT ISZERO PUSH2 0xE33 JUMPI DUP2 SWAP1 POP JUMPDEST PUSH2 0xE47 PUSH2 0xE3F DUP6 PUSH2 0xCFF JUMP JUMPDEST DUP4 ADD DUP3 PUSH2 0xDE6 JUMP JUMPDEST POP POP JUMPDEST POP POP POP JUMP JUMPDEST PUSH1 0x0 DUP3 DUP3 SHR SWAP1 POP SWAP3 SWAP2 POP POP JUMP JUMPDEST PUSH1 0x0 PUSH2 0xE6D PUSH1 0x0 NOT DUP5 PUSH1 0x8 MUL PUSH2 0xE4F JUMP JUMPDEST NOT DUP1 DUP4 AND SWAP2 POP POP SWAP3 SWAP2 POP POP JUMP JUMPDEST PUSH1 0x0 PUSH2 0xE86 DUP4 DUP4 PUSH2 0xE5C JUMP JUMPDEST SWAP2 POP DUP3 PUSH1 0x2 MUL DUP3 OR SWAP1 POP SWAP3 SWAP2 POP POP JUMP JUMPDEST PUSH2 0xEA0 DUP4 DUP4 PUSH2 0xC50 JUMP JUMPDEST PUSH8 0xFFFFFFFFFFFFFFFF DUP2 GT ISZERO PUSH2 0xEB9 JUMPI PUSH2 0xEB8 PUSH2 0xC5B JUMP JUMPDEST JUMPDEST PUSH2 0xEC3 DUP3 SLOAD PUSH2 0xCB9 JUMP JUMPDEST PUSH2 0xECE DUP3 DUP3 DUP6 PUSH2 0xE09 JUMP JUMPDEST PUSH1 0x0 PUSH1 0x1F DUP4 GT PUSH1 0x1 DUP2 EQ PUSH2 0xEFD JUMPI PUSH1 0x0 DUP5 ISZERO PUSH2 0xEEB JUMPI DUP3 DUP8 ADD CALLDATALOAD SWAP1 POP JUMPDEST PUSH2 0xEF5 DUP6 DUP3 PUSH2 0xE7A JUMP JUMPDEST DUP7 SSTORE POP PUSH2 0xF5D JUMP JUMPDEST PUSH1 0x1F NOT DUP5 AND PUSH2 0xF0B DUP7 PUSH2 0xCEA JUMP JUMPDEST PUSH1 0x0 JUMPDEST DUP3 DUP2 LT ISZERO PUSH2 0xF33 JUMPI DUP5 DUP10 ADD CALLDATALOAD DUP3 SSTORE PUSH1 0x1 DUP3 ADD SWAP2 POP PUSH1 0x20 DUP6 ADD SWAP5 POP PUSH1 0x20 DUP2 ADD SWAP1 POP PUSH2 0xF0E JUMP JUMPDEST DUP7 DUP4 LT ISZERO PUSH2 0xF50 JUMPI DUP5 DUP10 ADD CALLDATALOAD PUSH2 0xF4C PUSH1 0x1F DUP10 AND DUP3 PUSH2 0xE5C JUMP JUMPDEST DUP4 SSTORE POP JUMPDEST PUSH1 0x1 PUSH1 0x2 DUP9 MUL ADD DUP9 SSTORE POP POP POP JUMPDEST POP POP POP POP POP POP POP JUMP INVALID LOG2 PUSH5 0x6970667358 0x22 SLT KECCAK256 SWAP7 0xB2 0xE2 CHAINID SHR 0x5F DUP5 RETURN PUSH19 0xCE8C81FC53DEE9C6686824C81657749E0CD609 0x1E TIMESTAMP 0xE7 ISZERO PUSH5 0x736F6C6343 STOP ADDMOD SGT STOP CALLER "},"gasEstimates":{"creation":{"codeDepositCost":"799200","executionCost":"infinite","totalCost":"infinite"},"external":{"approveRequest(uint256)":"infinite","approvers(address)":"2868","approversCount()":"2496","contribute()":"53191","createRequest(string,uint256,address)":"infinite","finalizeRequest(uint256)":"infinite","getRequest(uint256)":"infinite","manager()":"2559","minimumContribution()":"2451"}},"methodIdentifiers":{"approveRequest(uint256)":"d7d1bbdb","approvers(address)":"0a144391","approversCount()":"82fde093","contribute()":"d7bb99ba","createRequest(string,uint256,address)":"8a9cfd55","finalizeRequest(uint256)":"03441006","getRequest(uint256)":"c58343ef","manager()":"481c6a75","minimumContribution()":"937e09b1"}},"storageLayout":{"storage":[{"astId":56,"contract":"Campaign.sol:Campaign","label":"numRequests","offset":0,"slot":"0","type":"t_uint256"},{"astId":61,"contract":"Campaign.sol:Campaign","label":"requests","offset":0,"slot":"1","type":"t_mapping(t_uint256,t_struct(Request)54_storage)"},{"astId":63,"contract":"Campaign.sol:Campaign","label":"manager","offset":0,"slot":"2","type":"t_address"},{"astId":65,"contract":"Campaign.sol:Campaign","label":"minimumContribution","offset":0,"slot":"3","type":"t_uint256"},{"astId":69,"contract":"Campaign.sol:Campaign","label":"approvers","offset":0,"slot":"4","type":"t_mapping(t_address,t_bool)"},{"astId":71,"contract":"Campaign.sol:Campaign","label":"approversCount","offset":0,"slot":"5","type":"t_uint256"}],"types":{"t_address":{"encoding":"inplace","label":"address","numberOfBytes":"20"},"t_address_payable":{"encoding":"inplace","label":"address payable","numberOfBytes":"20"},"t_bool":{"encoding":"inplace","label":"bool","numberOfBytes":"1"},"t_mapping(t_address,t_bool)":{"encoding":"mapping","key":"t_address","label":"mapping(address => bool)","numberOfBytes":"32","value":"t_bool"},"t_mapping(t_uint256,t_struct(Request)54_storage)":{"encoding":"mapping","key":"t_uint256","label":"mapping(uint256 => struct Campaign.Request)","numberOfBytes":"32","value":"t_struct(Request)54_storage"},"t_string_storage":{"encoding":"bytes","label":"string","numberOfBytes":"32"},"t_struct(Request)54_storage":{"encoding":"inplace","label":"struct Campaign.Request","members":[{"astId":41,"contract":"Campaign.sol:Campaign","label":"description","offset":0,"slot":"0","type":"t_string_storage"},{"astId":43,"contract":"Campaign.sol:Campaign","label":"value","offset":0,"slot":"1","type":"t_uint256"},{"astId":45,"contract":"Campaign.sol:Campaign","label":"recipient","offset":0,"slot":"2","type":"t_address_payable"},{"astId":47,"contract":"Campaign.sol:Campaign","label":"complete","offset":20,"slot":"2","type":"t_bool"},{"astId":49,"contract":"Campaign.sol:Campaign","label":"approvalCount","offset":0,"slot":"3","type":"t_uint256"},{"astId":53,"contract":"Campaign.sol:Campaign","label":"approvals","offset":0,"slot":"4","type":"t_mapping(t_address,t_bool)"}],"numberOfBytes":"160"},"t_uint256":{"encoding":"inplace","label":"uint256","numberOfBytes":"32"}}},"userdoc":{"kind":"user","methods":{},"version":1}}