{"abi":[{"inputs":[{"internalType":"uint256","name":"minimum","type":"uint256"},{"internalType":"address","name":"managerAddress","type":"address"}],"stateMutability":"nonpayable","type":"constructor"},{"inputs":[{"internalType":"uint256","name":"","type":"uint256"},{"internalType":"address","name":"","type":"address"}],"name":"approvals","outputs":[{"internalType":"bool","name":"","type":"bool"}],"stateMutability":"view","type":"function"},{"inputs":[{"internalType":"uint256","name":"index","type":"uint256"}],"name":"approveRequest","outputs":[],"stateMutability":"nonpayable","type":"function"},{"inputs":[{"internalType":"address","name":"","type":"address"}],"name":"approvers","outputs":[{"internalType":"bool","name":"","type":"bool"}],"stateMutability":"view","type":"function"},{"inputs":[],"name":"approversCount","outputs":[{"internalType":"uint256","name":"","type":"uint256"}],"stateMutability":"view","type":"function"},{"inputs":[],"name":"contribute","outputs":[],"stateMutability":"payable","type":"function"},{"inputs":[{"internalType":"string","name":"description","type":"string"},{"internalType":"uint256","name":"value","type":"uint256"},{"internalType":"address payable","name":"recipient","type":"address"}],"name":"createRequest","outputs":[],"stateMutability":"nonpayable","type":"function"},{"inputs":[{"internalType":"uint256","name":"index","type":"uint256"}],"name":"finalizeRequest","outputs":[],"stateMutability":"nonpayable","type":"function"},{"inputs":[{"internalType":"uint256","name":"index","type":"uint256"}],"name":"getRequestDescription","outputs":[{"internalType":"string","name":"description","type":"string"}],"stateMutability":"view","type":"function"},{"inputs":[],"name":"getRequestsCount","outputs":[{"internalType":"uint256","name":"","type":"uint256"}],"stateMutability":"view","type":"function"},{"inputs":[],"name":"getSummary","outputs":[{"internalType":"uint256","name":"","type":"uint256"},{"internalType":"uint256","name":"","type":"uint256"},{"internalType":"uint256","name":"","type":"uint256"},{"internalType":"uint256","name":"","type":"uint256"},{"internalType":"address","name":"","type":"address"}],"stateMutability":"view","type":"function"},{"inputs":[],"name":"manager","outputs":[{"internalType":"address","name":"","type":"address"}],"stateMutability":"view","type":"function"},{"inputs":[],"name":"minimumContribution","outputs":[{"internalType":"uint256","name":"","type":"uint256"}],"stateMutability":"view","type":"function"},{"inputs":[{"internalType":"uint256","name":"","type":"uint256"}],"name":"requests","outputs":[{"internalType":"string","name":"description","type":"string"},{"internalType":"uint256","name":"value","type":"uint256"},{"internalType":"address payable","name":"recipient","type":"address"},{"internalType":"bool","name":"complete","type":"bool"},{"internalType":"uint256","name":"approvalCount","type":"uint256"}],"stateMutability":"view","type":"function"}],"devdoc":{"kind":"dev","methods":{},"version":1},"evm":{"assembly":"    /* \"Campaign.sol\":423:3290  contract Campaign {... */\n  mstore(0x40, 0x80)\n    /* \"Campaign.sol\":1072:1202  constructor(uint minimum, address managerAddress) {... */\n  callvalue\n  dup1\n  iszero\n  tag_1\n  jumpi\n  revert(0x00, 0x00)\ntag_1:\n  pop\n  mload(0x40)\n  sub(codesize, bytecodeSize)\n  dup1\n  bytecodeSize\n  dup4\n  codecopy\n  dup2\n  dup2\n  add\n  0x40\n  mstore\n  dup2\n  add\n  swap1\n  tag_2\n  swap2\n  swap1\n  tag_3\n  jump\t// in\ntag_2:\n    /* \"Campaign.sol\":1142:1156  managerAddress */\n  dup1\n    /* \"Campaign.sol\":1132:1139  manager */\n  0x02\n  0x00\n    /* \"Campaign.sol\":1132:1156  manager = managerAddress */\n  0x0100\n  exp\n  dup2\n  sload\n  dup2\n  0xffffffffffffffffffffffffffffffffffffffff\n  mul\n  not\n  and\n  swap1\n  dup4\n  0xffffffffffffffffffffffffffffffffffffffff\n  and\n  mul\n  or\n  swap1\n  sstore\n  pop\n    /* \"Campaign.sol\":1188:1195  minimum */\n  dup2\n    /* \"Campaign.sol\":1166:1185  minimumContribution */\n  0x03\n    /* \"Campaign.sol\":1166:1195  minimumContribution = minimum */\n  dup2\n  swap1\n  sstore\n  pop\n    /* \"Campaign.sol\":1072:1202  constructor(uint minimum, address managerAddress) {... */\n  pop\n  pop\n    /* \"Campaign.sol\":423:3290  contract Campaign {... */\n  jump(tag_6)\n    /* \"#utility.yul\":88:205   */\ntag_8:\n    /* \"#utility.yul\":197:198   */\n  0x00\n    /* \"#utility.yul\":194:195   */\n  0x00\n    /* \"#utility.yul\":187:199   */\n  revert\n    /* \"#utility.yul\":334:411   */\ntag_10:\n    /* \"#utility.yul\":371:378   */\n  0x00\n    /* \"#utility.yul\":400:405   */\n  dup2\n    /* \"#utility.yul\":389:405   */\n  swap1\n  pop\n    /* \"#utility.yul\":334:411   */\n  swap2\n  swap1\n  pop\n  jump\t// out\n    /* \"#utility.yul\":417:539   */\ntag_11:\n    /* \"#utility.yul\":490:514   */\n  tag_23\n    /* \"#utility.yul\":508:513   */\n  dup2\n    /* \"#utility.yul\":490:514   */\n  tag_10\n  jump\t// in\ntag_23:\n    /* \"#utility.yul\":483:488   */\n  dup2\n    /* \"#utility.yul\":480:515   */\n  eq\n    /* \"#utility.yul\":470:533   */\n  tag_24\n  jumpi\n    /* \"#utility.yul\":529:530   */\n  0x00\n    /* \"#utility.yul\":526:527   */\n  0x00\n    /* \"#utility.yul\":519:531   */\n  revert\n    /* \"#utility.yul\":470:533   */\ntag_24:\n    /* \"#utility.yul\":417:539   */\n  pop\n  jump\t// out\n    /* \"#utility.yul\":545:688   */\ntag_12:\n    /* \"#utility.yul\":602:607   */\n  0x00\n    /* \"#utility.yul\":633:639   */\n  dup2\n    /* \"#utility.yul\":627:640   */\n  mload\n    /* \"#utility.yul\":618:640   */\n  swap1\n  pop\n    /* \"#utility.yul\":649:682   */\n  tag_26\n    /* \"#utility.yul\":676:681   */\n  dup2\n    /* \"#utility.yul\":649:682   */\n  tag_11\n  jump\t// in\ntag_26:\n    /* \"#utility.yul\":545:688   */\n  swap3\n  swap2\n  pop\n  pop\n  jump\t// out\n    /* \"#utility.yul\":694:820   */\ntag_13:\n    /* \"#utility.yul\":731:738   */\n  0x00\n    /* \"#utility.yul\":771:813   */\n  0xffffffffffffffffffffffffffffffffffffffff\n    /* \"#utility.yul\":764:769   */\n  dup3\n    /* \"#utility.yul\":760:814   */\n  and\n    /* \"#utility.yul\":749:814   */\n  swap1\n  pop\n    /* \"#utility.yul\":694:820   */\n  swap2\n  swap1\n  pop\n  jump\t// out\n    /* \"#utility.yul\":826:922   */\ntag_14:\n    /* \"#utility.yul\":863:870   */\n  0x00\n    /* \"#utility.yul\":892:916   */\n  tag_29\n    /* \"#utility.yul\":910:915   */\n  dup3\n    /* \"#utility.yul\":892:916   */\n  tag_13\n  jump\t// in\ntag_29:\n    /* \"#utility.yul\":881:916   */\n  swap1\n  pop\n    /* \"#utility.yul\":826:922   */\n  swap2\n  swap1\n  pop\n  jump\t// out\n    /* \"#utility.yul\":928:1050   */\ntag_15:\n    /* \"#utility.yul\":1001:1025   */\n  tag_31\n    /* \"#utility.yul\":1019:1024   */\n  dup2\n    /* \"#utility.yul\":1001:1025   */\n  tag_14\n  jump\t// in\ntag_31:\n    /* \"#utility.yul\":994:999   */\n  dup2\n    /* \"#utility.yul\":991:1026   */\n  eq\n    /* \"#utility.yul\":981:1044   */\n  tag_32\n  jumpi\n    /* \"#utility.yul\":1040:1041   */\n  0x00\n    /* \"#utility.yul\":1037:1038   */\n  0x00\n    /* \"#utility.yul\":1030:1042   */\n  revert\n    /* \"#utility.yul\":981:1044   */\ntag_32:\n    /* \"#utility.yul\":928:1050   */\n  pop\n  jump\t// out\n    /* \"#utility.yul\":1056:1199   */\ntag_16:\n    /* \"#utility.yul\":1113:1118   */\n  0x00\n    /* \"#utility.yul\":1144:1150   */\n  dup2\n    /* \"#utility.yul\":1138:1151   */\n  mload\n    /* \"#utility.yul\":1129:1151   */\n  swap1\n  pop\n    /* \"#utility.yul\":1160:1193   */\n  tag_34\n    /* \"#utility.yul\":1187:1192   */\n  dup2\n    /* \"#utility.yul\":1160:1193   */\n  tag_15\n  jump\t// in\ntag_34:\n    /* \"#utility.yul\":1056:1199   */\n  swap3\n  swap2\n  pop\n  pop\n  jump\t// out\n    /* \"#utility.yul\":1205:1712   */\ntag_3:\n    /* \"#utility.yul\":1284:1290   */\n  0x00\n    /* \"#utility.yul\":1292:1298   */\n  0x00\n    /* \"#utility.yul\":1341:1343   */\n  0x40\n    /* \"#utility.yul\":1329:1338   */\n  dup4\n    /* \"#utility.yul\":1320:1327   */\n  dup6\n    /* \"#utility.yul\":1316:1339   */\n  sub\n    /* \"#utility.yul\":1312:1344   */\n  slt\n    /* \"#utility.yul\":1309:1428   */\n  iszero\n  tag_36\n  jumpi\n    /* \"#utility.yul\":1347:1426   */\n  tag_37\n  tag_8\n  jump\t// in\ntag_37:\n    /* \"#utility.yul\":1309:1428   */\ntag_36:\n    /* \"#utility.yul\":1467:1468   */\n  0x00\n    /* \"#utility.yul\":1492:1556   */\n  tag_38\n    /* \"#utility.yul\":1548:1555   */\n  dup6\n    /* \"#utility.yul\":1539:1545   */\n  dup3\n    /* \"#utility.yul\":1528:1537   */\n  dup7\n    /* \"#utility.yul\":1524:1546   */\n  add\n    /* \"#utility.yul\":1492:1556   */\n  tag_12\n  jump\t// in\ntag_38:\n    /* \"#utility.yul\":1482:1556   */\n  swap3\n  pop\n    /* \"#utility.yul\":1438:1566   */\n  pop\n    /* \"#utility.yul\":1605:1607   */\n  0x20\n    /* \"#utility.yul\":1631:1695   */\n  tag_39\n    /* \"#utility.yul\":1687:1694   */\n  dup6\n    /* \"#utility.yul\":1678:1684   */\n  dup3\n    /* \"#utility.yul\":1667:1676   */\n  dup7\n    /* \"#utility.yul\":1663:1685   */\n  add\n    /* \"#utility.yul\":1631:1695   */\n  tag_16\n  jump\t// in\ntag_39:\n    /* \"#utility.yul\":1621:1695   */\n  swap2\n  pop\n    /* \"#utility.yul\":1576:1705   */\n  pop\n    /* \"#utility.yul\":1205:1712   */\n  swap3\n  pop\n  swap3\n  swap1\n  pop\n  jump\t// out\n    /* \"Campaign.sol\":423:3290  contract Campaign {... */\ntag_6:\n  dataSize(sub_0)\n  dup1\n  dataOffset(sub_0)\n  0x00\n  codecopy\n  0x00\n  return\nstop\n\nsub_0: assembly {\n        /* \"Campaign.sol\":423:3290  contract Campaign {... */\n      mstore(0x40, 0x80)\n      jumpi(tag_1, lt(calldatasize, 0x04))\n      shr(0xe0, calldataload(0x00))\n      dup1\n      0x81d12c58\n      gt\n      tag_15\n      jumpi\n      dup1\n      0x937e09b1\n      gt\n      tag_16\n      jumpi\n      dup1\n      0x937e09b1\n      eq\n      tag_11\n      jumpi\n      dup1\n      0xab2850da\n      eq\n      tag_12\n      jumpi\n      dup1\n      0xd7bb99ba\n      eq\n      tag_13\n      jumpi\n      dup1\n      0xd7d1bbdb\n      eq\n      tag_14\n      jumpi\n      jump(tag_1)\n    tag_16:\n      dup1\n      0x81d12c58\n      eq\n      tag_8\n      jumpi\n      dup1\n      0x82fde093\n      eq\n      tag_9\n      jumpi\n      dup1\n      0x8a9cfd55\n      eq\n      tag_10\n      jumpi\n      jump(tag_1)\n    tag_15:\n      dup1\n      0x03441006\n      eq\n      tag_2\n      jumpi\n      dup1\n      0x0a144391\n      eq\n      tag_3\n      jumpi\n      dup1\n      0x3410452a\n      eq\n      tag_4\n      jumpi\n      dup1\n      0x4051ddac\n      eq\n      tag_5\n      jumpi\n      dup1\n      0x481c6a75\n      eq\n      tag_6\n      jumpi\n      dup1\n      0x6ddfaed1\n      eq\n      tag_7\n      jumpi\n    tag_1:\n      revert(0x00, 0x00)\n        /* \"Campaign.sol\":2452:2898  function finalizeRequest(... */\n    tag_2:\n      callvalue\n      dup1\n      iszero\n      tag_17\n      jumpi\n      revert(0x00, 0x00)\n    tag_17:\n      pop\n      tag_18\n      0x04\n      dup1\n      calldatasize\n      sub\n      dup2\n      add\n      swap1\n      tag_19\n      swap2\n      swap1\n      tag_20\n      jump\t// in\n    tag_19:\n      tag_21\n      jump\t// in\n    tag_18:\n      stop\n        /* \"Campaign.sol\":769:810  mapping(address => bool) public approvers */\n    tag_3:\n      callvalue\n      dup1\n      iszero\n      tag_22\n      jumpi\n      revert(0x00, 0x00)\n    tag_22:\n      pop\n      tag_23\n      0x04\n      dup1\n      calldatasize\n      sub\n      dup2\n      add\n      swap1\n      tag_24\n      swap2\n      swap1\n      tag_25\n      jump\t// in\n    tag_24:\n      tag_26\n      jump\t// in\n    tag_23:\n      mload(0x40)\n      tag_27\n      swap2\n      swap1\n      tag_28\n      jump\t// in\n    tag_27:\n      mload(0x40)\n      dup1\n      swap2\n      sub\n      swap1\n      return\n        /* \"Campaign.sol\":3194:3288  function getRequestsCount() public view returns (uint) {... */\n    tag_4:\n      callvalue\n      dup1\n      iszero\n      tag_29\n      jumpi\n      revert(0x00, 0x00)\n    tag_29:\n      pop\n      tag_30\n      tag_31\n      jump\t// in\n    tag_30:\n      mload(0x40)\n      tag_32\n      swap2\n      swap1\n      tag_33\n      jump\t// in\n    tag_32:\n      mload(0x40)\n      dup1\n      swap2\n      sub\n      swap1\n      return\n        /* \"Campaign.sol\":2904:3188  function getSummary()... */\n    tag_5:\n      callvalue\n      dup1\n      iszero\n      tag_34\n      jumpi\n      revert(0x00, 0x00)\n    tag_34:\n      pop\n      tag_35\n      tag_36\n      jump\t// in\n    tag_35:\n      mload(0x40)\n      tag_37\n      swap6\n      swap5\n      swap4\n      swap3\n      swap2\n      swap1\n      tag_38\n      jump\t// in\n    tag_37:\n      mload(0x40)\n      dup1\n      swap2\n      sub\n      swap1\n      return\n        /* \"Campaign.sol\":704:726  address public manager */\n    tag_6:\n      callvalue\n      dup1\n      iszero\n      tag_39\n      jumpi\n      revert(0x00, 0x00)\n    tag_39:\n      pop\n      tag_40\n      tag_41\n      jump\t// in\n    tag_40:\n      mload(0x40)\n      tag_42\n      swap2\n      swap1\n      tag_43\n      jump\t// in\n    tag_42:\n      mload(0x40)\n      dup1\n      swap2\n      sub\n      swap1\n      return\n        /* \"Campaign.sol\":1412:1679  function getRequestDescription(... */\n    tag_7:\n      callvalue\n      dup1\n      iszero\n      tag_44\n      jumpi\n      revert(0x00, 0x00)\n    tag_44:\n      pop\n      tag_45\n      0x04\n      dup1\n      calldatasize\n      sub\n      dup2\n      add\n      swap1\n      tag_46\n      swap2\n      swap1\n      tag_20\n      jump\t// in\n    tag_46:\n      tag_47\n      jump\t// in\n    tag_45:\n      mload(0x40)\n      tag_48\n      swap2\n      swap1\n      tag_49\n      jump\t// in\n    tag_48:\n      mload(0x40)\n      dup1\n      swap2\n      sub\n      swap1\n      return\n        /* \"Campaign.sol\":673:698  Request[] public requests */\n    tag_8:\n      callvalue\n      dup1\n      iszero\n      tag_50\n      jumpi\n      revert(0x00, 0x00)\n    tag_50:\n      pop\n      tag_51\n      0x04\n      dup1\n      calldatasize\n      sub\n      dup2\n      add\n      swap1\n      tag_52\n      swap2\n      swap1\n      tag_20\n      jump\t// in\n    tag_52:\n      tag_53\n      jump\t// in\n    tag_51:\n      mload(0x40)\n      tag_54\n      swap6\n      swap5\n      swap4\n      swap3\n      swap2\n      swap1\n      tag_55\n      jump\t// in\n    tag_54:\n      mload(0x40)\n      dup1\n      swap2\n      sub\n      swap1\n      return\n        /* \"Campaign.sol\":816:842  uint public approversCount */\n    tag_9:\n      callvalue\n      dup1\n      iszero\n      tag_56\n      jumpi\n      revert(0x00, 0x00)\n    tag_56:\n      pop\n      tag_57\n      tag_58\n      jump\t// in\n    tag_57:\n      mload(0x40)\n      tag_59\n      swap2\n      swap1\n      tag_33\n      jump\t// in\n    tag_59:\n      mload(0x40)\n      dup1\n      swap2\n      sub\n      swap1\n      return\n        /* \"Campaign.sol\":1685:2078  function createRequest(... */\n    tag_10:\n      callvalue\n      dup1\n      iszero\n      tag_60\n      jumpi\n      revert(0x00, 0x00)\n    tag_60:\n      pop\n      tag_61\n      0x04\n      dup1\n      calldatasize\n      sub\n      dup2\n      add\n      swap1\n      tag_62\n      swap2\n      swap1\n      tag_63\n      jump\t// in\n    tag_62:\n      tag_64\n      jump\t// in\n    tag_61:\n      stop\n        /* \"Campaign.sol\":732:763  uint public minimumContribution */\n    tag_11:\n      callvalue\n      dup1\n      iszero\n      tag_65\n      jumpi\n      revert(0x00, 0x00)\n    tag_65:\n      pop\n      tag_66\n      tag_67\n      jump\t// in\n    tag_66:\n      mload(0x40)\n      tag_68\n      swap2\n      swap1\n      tag_33\n      jump\t// in\n    tag_68:\n      mload(0x40)\n      dup1\n      swap2\n      sub\n      swap1\n      return\n        /* \"Campaign.sol\":608:666  mapping(uint => mapping(address => bool)) public approvals */\n    tag_12:\n      callvalue\n      dup1\n      iszero\n      tag_69\n      jumpi\n      revert(0x00, 0x00)\n    tag_69:\n      pop\n      tag_70\n      0x04\n      dup1\n      calldatasize\n      sub\n      dup2\n      add\n      swap1\n      tag_71\n      swap2\n      swap1\n      tag_72\n      jump\t// in\n    tag_71:\n      tag_73\n      jump\t// in\n    tag_70:\n      mload(0x40)\n      tag_74\n      swap2\n      swap1\n      tag_28\n      jump\t// in\n    tag_74:\n      mload(0x40)\n      dup1\n      swap2\n      sub\n      swap1\n      return\n        /* \"Campaign.sol\":1208:1406  function contribute() public payable {... */\n    tag_13:\n      tag_75\n      tag_76\n      jump\t// in\n    tag_75:\n      stop\n        /* \"Campaign.sol\":2084:2446  function approveRequest(uint index) public requireValidRequestIndex(index) {... */\n    tag_14:\n      callvalue\n      dup1\n      iszero\n      tag_77\n      jumpi\n      revert(0x00, 0x00)\n    tag_77:\n      pop\n      tag_78\n      0x04\n      dup1\n      calldatasize\n      sub\n      dup2\n      add\n      swap1\n      tag_79\n      swap2\n      swap1\n      tag_20\n      jump\t// in\n    tag_79:\n      tag_80\n      jump\t// in\n    tag_78:\n      stop\n        /* \"Campaign.sol\":2452:2898  function finalizeRequest(... */\n    tag_21:\n        /* \"Campaign.sol\":903:910  manager */\n      0x02\n      0x00\n      swap1\n      sload\n      swap1\n      0x0100\n      exp\n      swap1\n      div\n      0xffffffffffffffffffffffffffffffffffffffff\n      and\n        /* \"Campaign.sol\":889:910  msg.sender == manager */\n      0xffffffffffffffffffffffffffffffffffffffff\n      and\n        /* \"Campaign.sol\":889:899  msg.sender */\n      caller\n        /* \"Campaign.sol\":889:910  msg.sender == manager */\n      0xffffffffffffffffffffffffffffffffffffffff\n      and\n      eq\n        /* \"Campaign.sol\":881:911  require(msg.sender == manager) */\n      tag_82\n      jumpi\n      revert(0x00, 0x00)\n    tag_82:\n        /* \"Campaign.sol\":2546:2551  index */\n      dup1\n        /* \"Campaign.sol\":1007:1015  requests */\n      0x01\n        /* \"Campaign.sol\":1007:1022  requests.length */\n      dup1\n      sload\n      swap1\n      pop\n        /* \"Campaign.sol\":999:1004  index */\n      dup2\n        /* \"Campaign.sol\":999:1022  index < requests.length */\n      lt\n        /* \"Campaign.sol\":991:1048  require(index < requests.length, \"Invalid request index\") */\n      tag_84\n      jumpi\n      mload(0x40)\n      0x08c379a000000000000000000000000000000000000000000000000000000000\n      dup2\n      mstore\n      0x04\n      add\n      tag_85\n      swap1\n      tag_86\n      jump\t// in\n    tag_85:\n      mload(0x40)\n      dup1\n      swap2\n      sub\n      swap1\n      revert\n    tag_84:\n        /* \"Campaign.sol\":2563:2586  Request storage request */\n      0x00\n        /* \"Campaign.sol\":2589:2597  requests */\n      0x01\n        /* \"Campaign.sol\":2598:2603  index */\n      dup4\n        /* \"Campaign.sol\":2589:2604  requests[index] */\n      dup2\n      sload\n      dup2\n      lt\n      tag_88\n      jumpi\n      tag_89\n      tag_90\n      jump\t// in\n    tag_89:\n    tag_88:\n      swap1\n      0x00\n      mstore\n      keccak256(0x00, 0x20)\n      swap1\n      0x04\n      mul\n      add\n        /* \"Campaign.sol\":2563:2604  Request storage request = requests[index] */\n      swap1\n      pop\n        /* \"Campaign.sol\":2623:2630  request */\n      dup1\n        /* \"Campaign.sol\":2623:2639  request.complete */\n      0x02\n      add\n      0x14\n      swap1\n      sload\n      swap1\n      0x0100\n      exp\n      swap1\n      div\n      0xff\n      and\n        /* \"Campaign.sol\":2622:2639  !request.complete */\n      iszero\n        /* \"Campaign.sol\":2614:2672  require(!request.complete, \"Request is already complete!\") */\n      tag_92\n      jumpi\n      mload(0x40)\n      0x08c379a000000000000000000000000000000000000000000000000000000000\n      dup2\n      mstore\n      0x04\n      add\n      tag_93\n      swap1\n      tag_94\n      jump\t// in\n    tag_93:\n      mload(0x40)\n      dup1\n      swap2\n      sub\n      swap1\n      revert\n    tag_92:\n        /* \"Campaign.sol\":2745:2746  2 */\n      0x02\n        /* \"Campaign.sol\":2728:2742  approversCount */\n      sload(0x05)\n        /* \"Campaign.sol\":2728:2746  approversCount / 2 */\n      tag_95\n      swap2\n      swap1\n      tag_96\n      jump\t// in\n    tag_95:\n        /* \"Campaign.sol\":2703:2710  request */\n      dup2\n        /* \"Campaign.sol\":2703:2724  request.approvalCount */\n      0x03\n      add\n      sload\n        /* \"Campaign.sol\":2703:2747  request.approvalCount > (approversCount / 2) */\n      gt\n        /* \"Campaign.sol\":2682:2805  require(... */\n      tag_97\n      jumpi\n      mload(0x40)\n      0x08c379a000000000000000000000000000000000000000000000000000000000\n      dup2\n      mstore\n      0x04\n      add\n      tag_98\n      swap1\n      tag_99\n      jump\t// in\n    tag_98:\n      mload(0x40)\n      dup1\n      swap2\n      sub\n      swap1\n      revert\n    tag_97:\n        /* \"Campaign.sol\":2816:2823  request */\n      dup1\n        /* \"Campaign.sol\":2816:2833  request.recipient */\n      0x02\n      add\n      0x00\n      swap1\n      sload\n      swap1\n      0x0100\n      exp\n      swap1\n      div\n      0xffffffffffffffffffffffffffffffffffffffff\n      and\n        /* \"Campaign.sol\":2816:2842  request.recipient.transfer */\n      0xffffffffffffffffffffffffffffffffffffffff\n      and\n        /* \"Campaign.sol\":2816:2857  request.recipient.transfer(request.value) */\n      0x08fc\n        /* \"Campaign.sol\":2843:2850  request */\n      dup3\n        /* \"Campaign.sol\":2843:2856  request.value */\n      0x01\n      add\n      sload\n        /* \"Campaign.sol\":2816:2857  request.recipient.transfer(request.value) */\n      swap1\n      dup2\n      iszero\n      mul\n      swap1\n      mload(0x40)\n      0x00\n      mload(0x40)\n      dup1\n      dup4\n      sub\n      dup2\n      dup6\n      dup9\n      dup9\n      call\n      swap4\n      pop\n      pop\n      pop\n      pop\n      iszero\n      dup1\n      iszero\n      tag_101\n      jumpi\n      returndatacopy(0x00, 0x00, returndatasize)\n      revert(0x00, returndatasize)\n    tag_101:\n      pop\n        /* \"Campaign.sol\":2887:2891  true */\n      0x01\n        /* \"Campaign.sol\":2868:2875  request */\n      dup2\n        /* \"Campaign.sol\":2868:2884  request.complete */\n      0x02\n      add\n      0x14\n        /* \"Campaign.sol\":2868:2891  request.complete = true */\n      0x0100\n      exp\n      dup2\n      sload\n      dup2\n      0xff\n      mul\n      not\n      and\n      swap1\n      dup4\n      iszero\n      iszero\n      mul\n      or\n      swap1\n      sstore\n      pop\n        /* \"Campaign.sol\":2553:2898  {... */\n      pop\n        /* \"Campaign.sol\":921:922  _ */\n      pop\n        /* \"Campaign.sol\":2452:2898  function finalizeRequest(... */\n      pop\n      jump\t// out\n        /* \"Campaign.sol\":769:810  mapping(address => bool) public approvers */\n    tag_26:\n      mstore(0x20, 0x04)\n      dup1\n      0x00\n      mstore\n      keccak256(0x00, 0x40)\n      0x00\n      swap2\n      pop\n      sload\n      swap1\n      0x0100\n      exp\n      swap1\n      div\n      0xff\n      and\n      dup2\n      jump\t// out\n        /* \"Campaign.sol\":3194:3288  function getRequestsCount() public view returns (uint) {... */\n    tag_31:\n        /* \"Campaign.sol\":3243:3247  uint */\n      0x00\n        /* \"Campaign.sol\":3266:3274  requests */\n      0x01\n        /* \"Campaign.sol\":3266:3281  requests.length */\n      dup1\n      sload\n      swap1\n      pop\n        /* \"Campaign.sol\":3259:3281  return requests.length */\n      swap1\n      pop\n        /* \"Campaign.sol\":3194:3288  function getRequestsCount() public view returns (uint) {... */\n      swap1\n      jump\t// out\n        /* \"Campaign.sol\":2904:3188  function getSummary()... */\n    tag_36:\n        /* \"Campaign.sol\":2971:2975  uint */\n      0x00\n        /* \"Campaign.sol\":2977:2981  uint */\n      0x00\n        /* \"Campaign.sol\":2983:2987  uint */\n      0x00\n        /* \"Campaign.sol\":2989:2993  uint */\n      0x00\n        /* \"Campaign.sol\":2995:3002  address */\n      0x00\n        /* \"Campaign.sol\":3039:3058  minimumContribution */\n      sload(0x03)\n        /* \"Campaign.sol\":3072:3093  address(this).balance */\n      selfbalance\n        /* \"Campaign.sol\":3107:3115  requests */\n      0x01\n        /* \"Campaign.sol\":3107:3122  requests.length */\n      dup1\n      sload\n      swap1\n      pop\n        /* \"Campaign.sol\":3136:3150  approversCount */\n      sload(0x05)\n        /* \"Campaign.sol\":3164:3171  manager */\n      0x02\n      0x00\n      swap1\n      sload\n      swap1\n      0x0100\n      exp\n      swap1\n      div\n      0xffffffffffffffffffffffffffffffffffffffff\n      and\n        /* \"Campaign.sol\":3018:3181  return (... */\n      swap5\n      pop\n      swap5\n      pop\n      swap5\n      pop\n      swap5\n      pop\n      swap5\n      pop\n        /* \"Campaign.sol\":2904:3188  function getSummary()... */\n      swap1\n      swap2\n      swap3\n      swap4\n      swap5\n      jump\t// out\n        /* \"Campaign.sol\":704:726  address public manager */\n    tag_41:\n      0x02\n      0x00\n      swap1\n      sload\n      swap1\n      0x0100\n      exp\n      swap1\n      div\n      0xffffffffffffffffffffffffffffffffffffffff\n      and\n      dup2\n      jump\t// out\n        /* \"Campaign.sol\":1412:1679  function getRequestDescription(... */\n    tag_47:\n        /* \"Campaign.sol\":1554:1579  string memory description */\n      0x60\n        /* \"Campaign.sol\":1530:1535  index */\n      dup2\n        /* \"Campaign.sol\":1007:1015  requests */\n      0x01\n        /* \"Campaign.sol\":1007:1022  requests.length */\n      dup1\n      sload\n      swap1\n      pop\n        /* \"Campaign.sol\":999:1004  index */\n      dup2\n        /* \"Campaign.sol\":999:1022  index < requests.length */\n      lt\n        /* \"Campaign.sol\":991:1048  require(index < requests.length, \"Invalid request index\") */\n      tag_105\n      jumpi\n      mload(0x40)\n      0x08c379a000000000000000000000000000000000000000000000000000000000\n      dup2\n      mstore\n      0x04\n      add\n      tag_106\n      swap1\n      tag_86\n      jump\t// in\n    tag_106:\n      mload(0x40)\n      dup1\n      swap2\n      sub\n      swap1\n      revert\n    tag_105:\n        /* \"Campaign.sol\":1595:1618  Request storage request */\n      0x00\n        /* \"Campaign.sol\":1621:1629  requests */\n      0x01\n        /* \"Campaign.sol\":1630:1635  index */\n      dup5\n        /* \"Campaign.sol\":1621:1636  requests[index] */\n      dup2\n      sload\n      dup2\n      lt\n      tag_108\n      jumpi\n      tag_109\n      tag_90\n      jump\t// in\n    tag_109:\n    tag_108:\n      swap1\n      0x00\n      mstore\n      keccak256(0x00, 0x20)\n      swap1\n      0x04\n      mul\n      add\n        /* \"Campaign.sol\":1595:1636  Request storage request = requests[index] */\n      swap1\n      pop\n        /* \"Campaign.sol\":1653:1660  request */\n      dup1\n        /* \"Campaign.sol\":1653:1672  request.description */\n      0x00\n      add\n        /* \"Campaign.sol\":1646:1672  return request.description */\n      dup1\n      sload\n      tag_111\n      swap1\n      tag_112\n      jump\t// in\n    tag_111:\n      dup1\n      0x1f\n      add\n      0x20\n      dup1\n      swap2\n      div\n      mul\n      0x20\n      add\n      mload(0x40)\n      swap1\n      dup2\n      add\n      0x40\n      mstore\n      dup1\n      swap3\n      swap2\n      swap1\n      dup2\n      dup2\n      mstore\n      0x20\n      add\n      dup3\n      dup1\n      sload\n      tag_113\n      swap1\n      tag_112\n      jump\t// in\n    tag_113:\n      dup1\n      iszero\n      tag_114\n      jumpi\n      dup1\n      0x1f\n      lt\n      tag_115\n      jumpi\n      0x0100\n      dup1\n      dup4\n      sload\n      div\n      mul\n      dup4\n      mstore\n      swap2\n      0x20\n      add\n      swap2\n      jump(tag_114)\n    tag_115:\n      dup3\n      add\n      swap2\n      swap1\n      0x00\n      mstore\n      keccak256(0x00, 0x20)\n      swap1\n    tag_116:\n      dup2\n      sload\n      dup2\n      mstore\n      swap1\n      0x01\n      add\n      swap1\n      0x20\n      add\n      dup1\n      dup4\n      gt\n      tag_116\n      jumpi\n      dup3\n      swap1\n      sub\n      0x1f\n      and\n      dup3\n      add\n      swap2\n    tag_114:\n      pop\n      pop\n      pop\n      pop\n      pop\n      swap3\n      pop\n      pop\n        /* \"Campaign.sol\":1412:1679  function getRequestDescription(... */\n      pop\n      swap2\n      swap1\n      pop\n      jump\t// out\n        /* \"Campaign.sol\":673:698  Request[] public requests */\n    tag_53:\n      0x01\n      dup2\n      dup2\n      sload\n      dup2\n      lt\n      tag_117\n      jumpi\n      0x00\n      dup1\n      revert\n    tag_117:\n      swap1\n      0x00\n      mstore\n      keccak256(0x00, 0x20)\n      swap1\n      0x04\n      mul\n      add\n      0x00\n      swap2\n      pop\n      swap1\n      pop\n      dup1\n      0x00\n      add\n      dup1\n      sload\n      tag_119\n      swap1\n      tag_112\n      jump\t// in\n    tag_119:\n      dup1\n      0x1f\n      add\n      0x20\n      dup1\n      swap2\n      div\n      mul\n      0x20\n      add\n      mload(0x40)\n      swap1\n      dup2\n      add\n      0x40\n      mstore\n      dup1\n      swap3\n      swap2\n      swap1\n      dup2\n      dup2\n      mstore\n      0x20\n      add\n      dup3\n      dup1\n      sload\n      tag_120\n      swap1\n      tag_112\n      jump\t// in\n    tag_120:\n      dup1\n      iszero\n      tag_121\n      jumpi\n      dup1\n      0x1f\n      lt\n      tag_122\n      jumpi\n      0x0100\n      dup1\n      dup4\n      sload\n      div\n      mul\n      dup4\n      mstore\n      swap2\n      0x20\n      add\n      swap2\n      jump(tag_121)\n    tag_122:\n      dup3\n      add\n      swap2\n      swap1\n      0x00\n      mstore\n      keccak256(0x00, 0x20)\n      swap1\n    tag_123:\n      dup2\n      sload\n      dup2\n      mstore\n      swap1\n      0x01\n      add\n      swap1\n      0x20\n      add\n      dup1\n      dup4\n      gt\n      tag_123\n      jumpi\n      dup3\n      swap1\n      sub\n      0x1f\n      and\n      dup3\n      add\n      swap2\n    tag_121:\n      pop\n      pop\n      pop\n      pop\n      pop\n      swap1\n      dup1\n      0x01\n      add\n      sload\n      swap1\n      dup1\n      0x02\n      add\n      0x00\n      swap1\n      sload\n      swap1\n      0x0100\n      exp\n      swap1\n      div\n      0xffffffffffffffffffffffffffffffffffffffff\n      and\n      swap1\n      dup1\n      0x02\n      add\n      0x14\n      swap1\n      sload\n      swap1\n      0x0100\n      exp\n      swap1\n      div\n      0xff\n      and\n      swap1\n      dup1\n      0x03\n      add\n      sload\n      swap1\n      pop\n      dup6\n      jump\t// out\n        /* \"Campaign.sol\":816:842  uint public approversCount */\n    tag_58:\n      sload(0x05)\n      dup2\n      jump\t// out\n        /* \"Campaign.sol\":1685:2078  function createRequest(... */\n    tag_64:\n        /* \"Campaign.sol\":903:910  manager */\n      0x02\n      0x00\n      swap1\n      sload\n      swap1\n      0x0100\n      exp\n      swap1\n      div\n      0xffffffffffffffffffffffffffffffffffffffff\n      and\n        /* \"Campaign.sol\":889:910  msg.sender == manager */\n      0xffffffffffffffffffffffffffffffffffffffff\n      and\n        /* \"Campaign.sol\":889:899  msg.sender */\n      caller\n        /* \"Campaign.sol\":889:910  msg.sender == manager */\n      0xffffffffffffffffffffffffffffffffffffffff\n      and\n      eq\n        /* \"Campaign.sol\":881:911  require(msg.sender == manager) */\n      tag_125\n      jumpi\n      revert(0x00, 0x00)\n    tag_125:\n        /* \"Campaign.sol\":1834:1842  requests */\n      0x01\n        /* \"Campaign.sol\":1861:2061  Request({... */\n      mload(0x40)\n      dup1\n      0xa0\n      add\n      0x40\n      mstore\n      dup1\n        /* \"Campaign.sol\":1900:1911  description */\n      dup7\n      dup7\n        /* \"Campaign.sol\":1861:2061  Request({... */\n      dup1\n      dup1\n      0x1f\n      add\n      0x20\n      dup1\n      swap2\n      div\n      mul\n      0x20\n      add\n      mload(0x40)\n      swap1\n      dup2\n      add\n      0x40\n      mstore\n      dup1\n      swap4\n      swap3\n      swap2\n      swap1\n      dup2\n      dup2\n      mstore\n      0x20\n      add\n      dup4\n      dup4\n      dup1\n      dup3\n      dup5\n      calldatacopy\n      0x00\n      dup2\n      dup5\n      add\n      mstore\n      not(0x1f)\n      0x1f\n      dup3\n      add\n      and\n      swap1\n      pop\n      dup1\n      dup4\n      add\n      swap3\n      pop\n      pop\n      pop\n      pop\n      pop\n      pop\n      pop\n      dup2\n      mstore\n      0x20\n      add\n        /* \"Campaign.sol\":1936:1941  value */\n      dup5\n        /* \"Campaign.sol\":1861:2061  Request({... */\n      dup2\n      mstore\n      0x20\n      add\n        /* \"Campaign.sol\":1970:1979  recipient */\n      dup4\n        /* \"Campaign.sol\":1861:2061  Request({... */\n      0xffffffffffffffffffffffffffffffffffffffff\n      and\n      dup2\n      mstore\n      0x20\n      add\n        /* \"Campaign.sol\":2007:2012  false */\n      0x00\n        /* \"Campaign.sol\":1861:2061  Request({... */\n      iszero\n      iszero\n      dup2\n      mstore\n      0x20\n      add\n        /* \"Campaign.sol\":2045:2046  0 */\n      0x00\n        /* \"Campaign.sol\":1861:2061  Request({... */\n      dup2\n      mstore\n      pop\n        /* \"Campaign.sol\":1834:2071  requests.push(... */\n      swap1\n      dup1\n      0x01\n      dup2\n      sload\n      add\n      dup1\n      dup3\n      sstore\n      dup1\n      swap2\n      pop\n      pop\n      0x01\n      swap1\n      sub\n      swap1\n      0x00\n      mstore\n      keccak256(0x00, 0x20)\n      swap1\n      0x04\n      mul\n      add\n      0x00\n      swap1\n      swap2\n      swap1\n      swap2\n      swap1\n      swap2\n      pop\n      0x00\n      dup3\n      add\n      mload\n      dup2\n      0x00\n      add\n      swap1\n      dup2\n      tag_128\n      swap2\n      swap1\n      tag_129\n      jump\t// in\n    tag_128:\n      pop\n      0x20\n      dup3\n      add\n      mload\n      dup2\n      0x01\n      add\n      sstore\n      0x40\n      dup3\n      add\n      mload\n      dup2\n      0x02\n      add\n      exp(0x0100, 0x00)\n      dup2\n      sload\n      dup2\n      0xffffffffffffffffffffffffffffffffffffffff\n      mul\n      not\n      and\n      swap1\n      dup4\n      0xffffffffffffffffffffffffffffffffffffffff\n      and\n      mul\n      or\n      swap1\n      sstore\n      pop\n      0x60\n      dup3\n      add\n      mload\n      dup2\n      0x02\n      add\n      exp(0x0100, 0x14)\n      dup2\n      sload\n      dup2\n      0xff\n      mul\n      not\n      and\n      swap1\n      dup4\n      iszero\n      iszero\n      mul\n      or\n      swap1\n      sstore\n      pop\n      0x80\n      dup3\n      add\n      mload\n      dup2\n      0x03\n      add\n      sstore\n      pop\n      pop\n        /* \"Campaign.sol\":1685:2078  function createRequest(... */\n      pop\n      pop\n      pop\n      pop\n      jump\t// out\n        /* \"Campaign.sol\":732:763  uint public minimumContribution */\n    tag_67:\n      sload(0x03)\n      dup2\n      jump\t// out\n        /* \"Campaign.sol\":608:666  mapping(uint => mapping(address => bool)) public approvals */\n    tag_73:\n      mstore(0x20, 0x00)\n      dup2\n      0x00\n      mstore\n      mstore(0x20, keccak256(0x00, 0x40))\n      dup1\n      0x00\n      mstore\n      keccak256(0x00, 0x40)\n      0x00\n      swap2\n      pop\n      swap2\n      pop\n      swap1\n      sload\n      swap1\n      0x0100\n      exp\n      swap1\n      div\n      0xff\n      and\n      dup2\n      jump\t// out\n        /* \"Campaign.sol\":1208:1406  function contribute() public payable {... */\n    tag_76:\n        /* \"Campaign.sol\":1277:1284  manager */\n      0x02\n      0x00\n      swap1\n      sload\n      swap1\n      0x0100\n      exp\n      swap1\n      div\n      0xffffffffffffffffffffffffffffffffffffffff\n      and\n        /* \"Campaign.sol\":1263:1284  msg.sender != manager */\n      0xffffffffffffffffffffffffffffffffffffffff\n      and\n        /* \"Campaign.sol\":1263:1273  msg.sender */\n      caller\n        /* \"Campaign.sol\":1263:1284  msg.sender != manager */\n      0xffffffffffffffffffffffffffffffffffffffff\n      and\n      sub\n        /* \"Campaign.sol\":1255:1285  require(msg.sender != manager) */\n      tag_131\n      jumpi\n      revert(0x00, 0x00)\n    tag_131:\n        /* \"Campaign.sol\":1315:1334  minimumContribution */\n      sload(0x03)\n        /* \"Campaign.sol\":1303:1312  msg.value */\n      callvalue\n        /* \"Campaign.sol\":1303:1334  msg.value > minimumContribution */\n      gt\n        /* \"Campaign.sol\":1295:1335  require(msg.value > minimumContribution) */\n      tag_132\n      jumpi\n      revert(0x00, 0x00)\n    tag_132:\n        /* \"Campaign.sol\":1369:1373  true */\n      0x01\n        /* \"Campaign.sol\":1345:1354  approvers */\n      0x04\n        /* \"Campaign.sol\":1345:1366  approvers[msg.sender] */\n      0x00\n        /* \"Campaign.sol\":1355:1365  msg.sender */\n      caller\n        /* \"Campaign.sol\":1345:1366  approvers[msg.sender] */\n      0xffffffffffffffffffffffffffffffffffffffff\n      and\n      0xffffffffffffffffffffffffffffffffffffffff\n      and\n      dup2\n      mstore\n      0x20\n      add\n      swap1\n      dup2\n      mstore\n      0x20\n      add\n      0x00\n      keccak256\n      0x00\n        /* \"Campaign.sol\":1345:1373  approvers[msg.sender] = true */\n      0x0100\n      exp\n      dup2\n      sload\n      dup2\n      0xff\n      mul\n      not\n      and\n      swap1\n      dup4\n      iszero\n      iszero\n      mul\n      or\n      swap1\n      sstore\n      pop\n        /* \"Campaign.sol\":1383:1397  approversCount */\n      0x05\n      0x00\n        /* \"Campaign.sol\":1383:1399  approversCount++ */\n      dup2\n      sload\n      dup1\n      swap3\n      swap2\n      swap1\n      tag_133\n      swap1\n      tag_134\n      jump\t// in\n    tag_133:\n      swap2\n      swap1\n      pop\n      sstore\n      pop\n        /* \"Campaign.sol\":1208:1406  function contribute() public payable {... */\n      jump\t// out\n        /* \"Campaign.sol\":2084:2446  function approveRequest(uint index) public requireValidRequestIndex(index) {... */\n    tag_80:\n        /* \"Campaign.sol\":2152:2157  index */\n      dup1\n        /* \"Campaign.sol\":1007:1015  requests */\n      0x01\n        /* \"Campaign.sol\":1007:1022  requests.length */\n      dup1\n      sload\n      swap1\n      pop\n        /* \"Campaign.sol\":999:1004  index */\n      dup2\n        /* \"Campaign.sol\":999:1022  index < requests.length */\n      lt\n        /* \"Campaign.sol\":991:1048  require(index < requests.length, \"Invalid request index\") */\n      tag_136\n      jumpi\n      mload(0x40)\n      0x08c379a000000000000000000000000000000000000000000000000000000000\n      dup2\n      mstore\n      0x04\n      add\n      tag_137\n      swap1\n      tag_86\n      jump\t// in\n    tag_137:\n      mload(0x40)\n      dup1\n      swap2\n      sub\n      swap1\n      revert\n    tag_136:\n        /* \"Campaign.sol\":2177:2186  approvers */\n      0x04\n        /* \"Campaign.sol\":2177:2198  approvers[msg.sender] */\n      0x00\n        /* \"Campaign.sol\":2187:2197  msg.sender */\n      caller\n        /* \"Campaign.sol\":2177:2198  approvers[msg.sender] */\n      0xffffffffffffffffffffffffffffffffffffffff\n      and\n      0xffffffffffffffffffffffffffffffffffffffff\n      and\n      dup2\n      mstore\n      0x20\n      add\n      swap1\n      dup2\n      mstore\n      0x20\n      add\n      0x00\n      keccak256\n      0x00\n      swap1\n      sload\n      swap1\n      0x0100\n      exp\n      swap1\n      div\n      0xff\n      and\n        /* \"Campaign.sol\":2169:2228  require(approvers[msg.sender], \"You are not a contributor\") */\n      tag_139\n      jumpi\n      mload(0x40)\n      0x08c379a000000000000000000000000000000000000000000000000000000000\n      dup2\n      mstore\n      0x04\n      add\n      tag_140\n      swap1\n      tag_141\n      jump\t// in\n    tag_140:\n      mload(0x40)\n      dup1\n      swap2\n      sub\n      swap1\n      revert\n    tag_139:\n        /* \"Campaign.sol\":2260:2269  approvals */\n      0x00\n        /* \"Campaign.sol\":2260:2276  approvals[index] */\n      0x00\n        /* \"Campaign.sol\":2270:2275  index */\n      dup4\n        /* \"Campaign.sol\":2260:2276  approvals[index] */\n      dup2\n      mstore\n      0x20\n      add\n      swap1\n      dup2\n      mstore\n      0x20\n      add\n      0x00\n      keccak256\n        /* \"Campaign.sol\":2260:2288  approvals[index][msg.sender] */\n      0x00\n        /* \"Campaign.sol\":2277:2287  msg.sender */\n      caller\n        /* \"Campaign.sol\":2260:2288  approvals[index][msg.sender] */\n      0xffffffffffffffffffffffffffffffffffffffff\n      and\n      0xffffffffffffffffffffffffffffffffffffffff\n      and\n      dup2\n      mstore\n      0x20\n      add\n      swap1\n      dup2\n      mstore\n      0x20\n      add\n      0x00\n      keccak256\n      0x00\n      swap1\n      sload\n      swap1\n      0x0100\n      exp\n      swap1\n      div\n      0xff\n      and\n        /* \"Campaign.sol\":2259:2288  !approvals[index][msg.sender] */\n      iszero\n        /* \"Campaign.sol\":2238:2352  require(... */\n      tag_142\n      jumpi\n      mload(0x40)\n      0x08c379a000000000000000000000000000000000000000000000000000000000\n      dup2\n      mstore\n      0x04\n      add\n      tag_143\n      swap1\n      tag_144\n      jump\t// in\n    tag_143:\n      mload(0x40)\n      dup1\n      swap2\n      sub\n      swap1\n      revert\n    tag_142:\n        /* \"Campaign.sol\":2394:2398  true */\n      0x01\n        /* \"Campaign.sol\":2363:2372  approvals */\n      0x00\n        /* \"Campaign.sol\":2363:2379  approvals[index] */\n      0x00\n        /* \"Campaign.sol\":2373:2378  index */\n      dup5\n        /* \"Campaign.sol\":2363:2379  approvals[index] */\n      dup2\n      mstore\n      0x20\n      add\n      swap1\n      dup2\n      mstore\n      0x20\n      add\n      0x00\n      keccak256\n        /* \"Campaign.sol\":2363:2391  approvals[index][msg.sender] */\n      0x00\n        /* \"Campaign.sol\":2380:2390  msg.sender */\n      caller\n        /* \"Campaign.sol\":2363:2391  approvals[index][msg.sender] */\n      0xffffffffffffffffffffffffffffffffffffffff\n      and\n      0xffffffffffffffffffffffffffffffffffffffff\n      and\n      dup2\n      mstore\n      0x20\n      add\n      swap1\n      dup2\n      mstore\n      0x20\n      add\n      0x00\n      keccak256\n      0x00\n        /* \"Campaign.sol\":2363:2398  approvals[index][msg.sender] = true */\n      0x0100\n      exp\n      dup2\n      sload\n      dup2\n      0xff\n      mul\n      not\n      and\n      swap1\n      dup4\n      iszero\n      iszero\n      mul\n      or\n      swap1\n      sstore\n      pop\n        /* \"Campaign.sol\":2408:2416  requests */\n      0x01\n        /* \"Campaign.sol\":2417:2422  index */\n      dup3\n        /* \"Campaign.sol\":2408:2423  requests[index] */\n      dup2\n      sload\n      dup2\n      lt\n      tag_145\n      jumpi\n      tag_146\n      tag_90\n      jump\t// in\n    tag_146:\n    tag_145:\n      swap1\n      0x00\n      mstore\n      keccak256(0x00, 0x20)\n      swap1\n      0x04\n      mul\n      add\n        /* \"Campaign.sol\":2408:2437  requests[index].approvalCount */\n      0x03\n      add\n      0x00\n        /* \"Campaign.sol\":2408:2439  requests[index].approvalCount++ */\n      dup2\n      sload\n      dup1\n      swap3\n      swap2\n      swap1\n      tag_148\n      swap1\n      tag_134\n      jump\t// in\n    tag_148:\n      swap2\n      swap1\n      pop\n      sstore\n      pop\n        /* \"Campaign.sol\":2084:2446  function approveRequest(uint index) public requireValidRequestIndex(index) {... */\n      pop\n      pop\n      jump\t// out\n        /* \"#utility.yul\":88:205   */\n    tag_150:\n        /* \"#utility.yul\":197:198   */\n      0x00\n        /* \"#utility.yul\":194:195   */\n      0x00\n        /* \"#utility.yul\":187:199   */\n      revert\n        /* \"#utility.yul\":211:328   */\n    tag_151:\n        /* \"#utility.yul\":320:321   */\n      0x00\n        /* \"#utility.yul\":317:318   */\n      0x00\n        /* \"#utility.yul\":310:322   */\n      revert\n        /* \"#utility.yul\":334:411   */\n    tag_152:\n        /* \"#utility.yul\":371:378   */\n      0x00\n        /* \"#utility.yul\":400:405   */\n      dup2\n        /* \"#utility.yul\":389:405   */\n      swap1\n      pop\n        /* \"#utility.yul\":334:411   */\n      swap2\n      swap1\n      pop\n      jump\t// out\n        /* \"#utility.yul\":417:539   */\n    tag_153:\n        /* \"#utility.yul\":490:514   */\n      tag_211\n        /* \"#utility.yul\":508:513   */\n      dup2\n        /* \"#utility.yul\":490:514   */\n      tag_152\n      jump\t// in\n    tag_211:\n        /* \"#utility.yul\":483:488   */\n      dup2\n        /* \"#utility.yul\":480:515   */\n      eq\n        /* \"#utility.yul\":470:533   */\n      tag_212\n      jumpi\n        /* \"#utility.yul\":529:530   */\n      0x00\n        /* \"#utility.yul\":526:527   */\n      0x00\n        /* \"#utility.yul\":519:531   */\n      revert\n        /* \"#utility.yul\":470:533   */\n    tag_212:\n        /* \"#utility.yul\":417:539   */\n      pop\n      jump\t// out\n        /* \"#utility.yul\":545:684   */\n    tag_154:\n        /* \"#utility.yul\":591:596   */\n      0x00\n        /* \"#utility.yul\":629:635   */\n      dup2\n        /* \"#utility.yul\":616:636   */\n      calldataload\n        /* \"#utility.yul\":607:636   */\n      swap1\n      pop\n        /* \"#utility.yul\":645:678   */\n      tag_214\n        /* \"#utility.yul\":672:677   */\n      dup2\n        /* \"#utility.yul\":645:678   */\n      tag_153\n      jump\t// in\n    tag_214:\n        /* \"#utility.yul\":545:684   */\n      swap3\n      swap2\n      pop\n      pop\n      jump\t// out\n        /* \"#utility.yul\":690:1019   */\n    tag_20:\n        /* \"#utility.yul\":749:755   */\n      0x00\n        /* \"#utility.yul\":798:800   */\n      0x20\n        /* \"#utility.yul\":786:795   */\n      dup3\n        /* \"#utility.yul\":777:784   */\n      dup5\n        /* \"#utility.yul\":773:796   */\n      sub\n        /* \"#utility.yul\":769:801   */\n      slt\n        /* \"#utility.yul\":766:885   */\n      iszero\n      tag_216\n      jumpi\n        /* \"#utility.yul\":804:883   */\n      tag_217\n      tag_150\n      jump\t// in\n    tag_217:\n        /* \"#utility.yul\":766:885   */\n    tag_216:\n        /* \"#utility.yul\":924:925   */\n      0x00\n        /* \"#utility.yul\":949:1002   */\n      tag_218\n        /* \"#utility.yul\":994:1001   */\n      dup5\n        /* \"#utility.yul\":985:991   */\n      dup3\n        /* \"#utility.yul\":974:983   */\n      dup6\n        /* \"#utility.yul\":970:992   */\n      add\n        /* \"#utility.yul\":949:1002   */\n      tag_154\n      jump\t// in\n    tag_218:\n        /* \"#utility.yul\":939:1002   */\n      swap2\n      pop\n        /* \"#utility.yul\":895:1012   */\n      pop\n        /* \"#utility.yul\":690:1019   */\n      swap3\n      swap2\n      pop\n      pop\n      jump\t// out\n        /* \"#utility.yul\":1025:1151   */\n    tag_155:\n        /* \"#utility.yul\":1062:1069   */\n      0x00\n        /* \"#utility.yul\":1102:1144   */\n      0xffffffffffffffffffffffffffffffffffffffff\n        /* \"#utility.yul\":1095:1100   */\n      dup3\n        /* \"#utility.yul\":1091:1145   */\n      and\n        /* \"#utility.yul\":1080:1145   */\n      swap1\n      pop\n        /* \"#utility.yul\":1025:1151   */\n      swap2\n      swap1\n      pop\n      jump\t// out\n        /* \"#utility.yul\":1157:1253   */\n    tag_156:\n        /* \"#utility.yul\":1194:1201   */\n      0x00\n        /* \"#utility.yul\":1223:1247   */\n      tag_221\n        /* \"#utility.yul\":1241:1246   */\n      dup3\n        /* \"#utility.yul\":1223:1247   */\n      tag_155\n      jump\t// in\n    tag_221:\n        /* \"#utility.yul\":1212:1247   */\n      swap1\n      pop\n        /* \"#utility.yul\":1157:1253   */\n      swap2\n      swap1\n      pop\n      jump\t// out\n        /* \"#utility.yul\":1259:1381   */\n    tag_157:\n        /* \"#utility.yul\":1332:1356   */\n      tag_223\n        /* \"#utility.yul\":1350:1355   */\n      dup2\n        /* \"#utility.yul\":1332:1356   */\n      tag_156\n      jump\t// in\n    tag_223:\n        /* \"#utility.yul\":1325:1330   */\n      dup2\n        /* \"#utility.yul\":1322:1357   */\n      eq\n        /* \"#utility.yul\":1312:1375   */\n      tag_224\n      jumpi\n        /* \"#utility.yul\":1371:1372   */\n      0x00\n        /* \"#utility.yul\":1368:1369   */\n      0x00\n        /* \"#utility.yul\":1361:1373   */\n      revert\n        /* \"#utility.yul\":1312:1375   */\n    tag_224:\n        /* \"#utility.yul\":1259:1381   */\n      pop\n      jump\t// out\n        /* \"#utility.yul\":1387:1526   */\n    tag_158:\n        /* \"#utility.yul\":1433:1438   */\n      0x00\n        /* \"#utility.yul\":1471:1477   */\n      dup2\n        /* \"#utility.yul\":1458:1478   */\n      calldataload\n        /* \"#utility.yul\":1449:1478   */\n      swap1\n      pop\n        /* \"#utility.yul\":1487:1520   */\n      tag_226\n        /* \"#utility.yul\":1514:1519   */\n      dup2\n        /* \"#utility.yul\":1487:1520   */\n      tag_157\n      jump\t// in\n    tag_226:\n        /* \"#utility.yul\":1387:1526   */\n      swap3\n      swap2\n      pop\n      pop\n      jump\t// out\n        /* \"#utility.yul\":1532:1861   */\n    tag_25:\n        /* \"#utility.yul\":1591:1597   */\n      0x00\n        /* \"#utility.yul\":1640:1642   */\n      0x20\n        /* \"#utility.yul\":1628:1637   */\n      dup3\n        /* \"#utility.yul\":1619:1626   */\n      dup5\n        /* \"#utility.yul\":1615:1638   */\n      sub\n        /* \"#utility.yul\":1611:1643   */\n      slt\n        /* \"#utility.yul\":1608:1727   */\n      iszero\n      tag_228\n      jumpi\n        /* \"#utility.yul\":1646:1725   */\n      tag_229\n      tag_150\n      jump\t// in\n    tag_229:\n        /* \"#utility.yul\":1608:1727   */\n    tag_228:\n        /* \"#utility.yul\":1766:1767   */\n      0x00\n        /* \"#utility.yul\":1791:1844   */\n      tag_230\n        /* \"#utility.yul\":1836:1843   */\n      dup5\n        /* \"#utility.yul\":1827:1833   */\n      dup3\n        /* \"#utility.yul\":1816:1825   */\n      dup6\n        /* \"#utility.yul\":1812:1834   */\n      add\n        /* \"#utility.yul\":1791:1844   */\n      tag_158\n      jump\t// in\n    tag_230:\n        /* \"#utility.yul\":1781:1844   */\n      swap2\n      pop\n        /* \"#utility.yul\":1737:1854   */\n      pop\n        /* \"#utility.yul\":1532:1861   */\n      swap3\n      swap2\n      pop\n      pop\n      jump\t// out\n        /* \"#utility.yul\":1867:1957   */\n    tag_159:\n        /* \"#utility.yul\":1901:1908   */\n      0x00\n        /* \"#utility.yul\":1944:1949   */\n      dup2\n        /* \"#utility.yul\":1937:1950   */\n      iszero\n        /* \"#utility.yul\":1930:1951   */\n      iszero\n        /* \"#utility.yul\":1919:1951   */\n      swap1\n      pop\n        /* \"#utility.yul\":1867:1957   */\n      swap2\n      swap1\n      pop\n      jump\t// out\n        /* \"#utility.yul\":1963:2072   */\n    tag_160:\n        /* \"#utility.yul\":2044:2065   */\n      tag_233\n        /* \"#utility.yul\":2059:2064   */\n      dup2\n        /* \"#utility.yul\":2044:2065   */\n      tag_159\n      jump\t// in\n    tag_233:\n        /* \"#utility.yul\":2039:2042   */\n      dup3\n        /* \"#utility.yul\":2032:2066   */\n      mstore\n        /* \"#utility.yul\":1963:2072   */\n      pop\n      pop\n      jump\t// out\n        /* \"#utility.yul\":2078:2288   */\n    tag_28:\n        /* \"#utility.yul\":2165:2169   */\n      0x00\n        /* \"#utility.yul\":2203:2205   */\n      0x20\n        /* \"#utility.yul\":2192:2201   */\n      dup3\n        /* \"#utility.yul\":2188:2206   */\n      add\n        /* \"#utility.yul\":2180:2206   */\n      swap1\n      pop\n        /* \"#utility.yul\":2216:2281   */\n      tag_235\n        /* \"#utility.yul\":2278:2279   */\n      0x00\n        /* \"#utility.yul\":2267:2276   */\n      dup4\n        /* \"#utility.yul\":2263:2280   */\n      add\n        /* \"#utility.yul\":2254:2260   */\n      dup5\n        /* \"#utility.yul\":2216:2281   */\n      tag_160\n      jump\t// in\n    tag_235:\n        /* \"#utility.yul\":2078:2288   */\n      swap3\n      swap2\n      pop\n      pop\n      jump\t// out\n        /* \"#utility.yul\":2294:2412   */\n    tag_161:\n        /* \"#utility.yul\":2381:2405   */\n      tag_237\n        /* \"#utility.yul\":2399:2404   */\n      dup2\n        /* \"#utility.yul\":2381:2405   */\n      tag_152\n      jump\t// in\n    tag_237:\n        /* \"#utility.yul\":2376:2379   */\n      dup3\n        /* \"#utility.yul\":2369:2406   */\n      mstore\n        /* \"#utility.yul\":2294:2412   */\n      pop\n      pop\n      jump\t// out\n        /* \"#utility.yul\":2418:2640   */\n    tag_33:\n        /* \"#utility.yul\":2511:2515   */\n      0x00\n        /* \"#utility.yul\":2549:2551   */\n      0x20\n        /* \"#utility.yul\":2538:2547   */\n      dup3\n        /* \"#utility.yul\":2534:2552   */\n      add\n        /* \"#utility.yul\":2526:2552   */\n      swap1\n      pop\n        /* \"#utility.yul\":2562:2633   */\n      tag_239\n        /* \"#utility.yul\":2630:2631   */\n      0x00\n        /* \"#utility.yul\":2619:2628   */\n      dup4\n        /* \"#utility.yul\":2615:2632   */\n      add\n        /* \"#utility.yul\":2606:2612   */\n      dup5\n        /* \"#utility.yul\":2562:2633   */\n      tag_161\n      jump\t// in\n    tag_239:\n        /* \"#utility.yul\":2418:2640   */\n      swap3\n      swap2\n      pop\n      pop\n      jump\t// out\n        /* \"#utility.yul\":2646:2764   */\n    tag_162:\n        /* \"#utility.yul\":2733:2757   */\n      tag_241\n        /* \"#utility.yul\":2751:2756   */\n      dup2\n        /* \"#utility.yul\":2733:2757   */\n      tag_156\n      jump\t// in\n    tag_241:\n        /* \"#utility.yul\":2728:2731   */\n      dup3\n        /* \"#utility.yul\":2721:2758   */\n      mstore\n        /* \"#utility.yul\":2646:2764   */\n      pop\n      pop\n      jump\t// out\n        /* \"#utility.yul\":2770:3434   */\n    tag_38:\n        /* \"#utility.yul\":2975:2979   */\n      0x00\n        /* \"#utility.yul\":3013:3016   */\n      0xa0\n        /* \"#utility.yul\":3002:3011   */\n      dup3\n        /* \"#utility.yul\":2998:3017   */\n      add\n        /* \"#utility.yul\":2990:3017   */\n      swap1\n      pop\n        /* \"#utility.yul\":3027:3098   */\n      tag_243\n        /* \"#utility.yul\":3095:3096   */\n      0x00\n        /* \"#utility.yul\":3084:3093   */\n      dup4\n        /* \"#utility.yul\":3080:3097   */\n      add\n        /* \"#utility.yul\":3071:3077   */\n      dup9\n        /* \"#utility.yul\":3027:3098   */\n      tag_161\n      jump\t// in\n    tag_243:\n        /* \"#utility.yul\":3108:3180   */\n      tag_244\n        /* \"#utility.yul\":3176:3178   */\n      0x20\n        /* \"#utility.yul\":3165:3174   */\n      dup4\n        /* \"#utility.yul\":3161:3179   */\n      add\n        /* \"#utility.yul\":3152:3158   */\n      dup8\n        /* \"#utility.yul\":3108:3180   */\n      tag_161\n      jump\t// in\n    tag_244:\n        /* \"#utility.yul\":3190:3262   */\n      tag_245\n        /* \"#utility.yul\":3258:3260   */\n      0x40\n        /* \"#utility.yul\":3247:3256   */\n      dup4\n        /* \"#utility.yul\":3243:3261   */\n      add\n        /* \"#utility.yul\":3234:3240   */\n      dup7\n        /* \"#utility.yul\":3190:3262   */\n      tag_161\n      jump\t// in\n    tag_245:\n        /* \"#utility.yul\":3272:3344   */\n      tag_246\n        /* \"#utility.yul\":3340:3342   */\n      0x60\n        /* \"#utility.yul\":3329:3338   */\n      dup4\n        /* \"#utility.yul\":3325:3343   */\n      add\n        /* \"#utility.yul\":3316:3322   */\n      dup6\n        /* \"#utility.yul\":3272:3344   */\n      tag_161\n      jump\t// in\n    tag_246:\n        /* \"#utility.yul\":3354:3427   */\n      tag_247\n        /* \"#utility.yul\":3422:3425   */\n      0x80\n        /* \"#utility.yul\":3411:3420   */\n      dup4\n        /* \"#utility.yul\":3407:3426   */\n      add\n        /* \"#utility.yul\":3398:3404   */\n      dup5\n        /* \"#utility.yul\":3354:3427   */\n      tag_162\n      jump\t// in\n    tag_247:\n        /* \"#utility.yul\":2770:3434   */\n      swap7\n      swap6\n      pop\n      pop\n      pop\n      pop\n      pop\n      pop\n      jump\t// out\n        /* \"#utility.yul\":3440:3662   */\n    tag_43:\n        /* \"#utility.yul\":3533:3537   */\n      0x00\n        /* \"#utility.yul\":3571:3573   */\n      0x20\n        /* \"#utility.yul\":3560:3569   */\n      dup3\n        /* \"#utility.yul\":3556:3574   */\n      add\n        /* \"#utility.yul\":3548:3574   */\n      swap1\n      pop\n        /* \"#utility.yul\":3584:3655   */\n      tag_249\n        /* \"#utility.yul\":3652:3653   */\n      0x00\n        /* \"#utility.yul\":3641:3650   */\n      dup4\n        /* \"#utility.yul\":3637:3654   */\n      add\n        /* \"#utility.yul\":3628:3634   */\n      dup5\n        /* \"#utility.yul\":3584:3655   */\n      tag_162\n      jump\t// in\n    tag_249:\n        /* \"#utility.yul\":3440:3662   */\n      swap3\n      swap2\n      pop\n      pop\n      jump\t// out\n        /* \"#utility.yul\":3668:3767   */\n    tag_163:\n        /* \"#utility.yul\":3720:3726   */\n      0x00\n        /* \"#utility.yul\":3754:3759   */\n      dup2\n        /* \"#utility.yul\":3748:3760   */\n      mload\n        /* \"#utility.yul\":3738:3760   */\n      swap1\n      pop\n        /* \"#utility.yul\":3668:3767   */\n      swap2\n      swap1\n      pop\n      jump\t// out\n        /* \"#utility.yul\":3773:3942   */\n    tag_164:\n        /* \"#utility.yul\":3857:3868   */\n      0x00\n        /* \"#utility.yul\":3891:3897   */\n      dup3\n        /* \"#utility.yul\":3886:3889   */\n      dup3\n        /* \"#utility.yul\":3879:3898   */\n      mstore\n        /* \"#utility.yul\":3931:3935   */\n      0x20\n        /* \"#utility.yul\":3926:3929   */\n      dup3\n        /* \"#utility.yul\":3922:3936   */\n      add\n        /* \"#utility.yul\":3907:3936   */\n      swap1\n      pop\n        /* \"#utility.yul\":3773:3942   */\n      swap3\n      swap2\n      pop\n      pop\n      jump\t// out\n        /* \"#utility.yul\":3948:4087   */\n    tag_165:\n        /* \"#utility.yul\":4037:4043   */\n      dup3\n        /* \"#utility.yul\":4032:4035   */\n      dup2\n        /* \"#utility.yul\":4027:4030   */\n      dup4\n        /* \"#utility.yul\":4021:4044   */\n      mcopy\n        /* \"#utility.yul\":4078:4079   */\n      0x00\n        /* \"#utility.yul\":4069:4075   */\n      dup4\n        /* \"#utility.yul\":4064:4067   */\n      dup4\n        /* \"#utility.yul\":4060:4076   */\n      add\n        /* \"#utility.yul\":4053:4080   */\n      mstore\n        /* \"#utility.yul\":3948:4087   */\n      pop\n      pop\n      pop\n      jump\t// out\n        /* \"#utility.yul\":4093:4195   */\n    tag_166:\n        /* \"#utility.yul\":4134:4140   */\n      0x00\n        /* \"#utility.yul\":4185:4187   */\n      0x1f\n        /* \"#utility.yul\":4181:4188   */\n      not\n        /* \"#utility.yul\":4176:4178   */\n      0x1f\n        /* \"#utility.yul\":4169:4174   */\n      dup4\n        /* \"#utility.yul\":4165:4179   */\n      add\n        /* \"#utility.yul\":4161:4189   */\n      and\n        /* \"#utility.yul\":4151:4189   */\n      swap1\n      pop\n        /* \"#utility.yul\":4093:4195   */\n      swap2\n      swap1\n      pop\n      jump\t// out\n        /* \"#utility.yul\":4201:4578   */\n    tag_167:\n        /* \"#utility.yul\":4289:4292   */\n      0x00\n        /* \"#utility.yul\":4317:4356   */\n      tag_255\n        /* \"#utility.yul\":4350:4355   */\n      dup3\n        /* \"#utility.yul\":4317:4356   */\n      tag_163\n      jump\t// in\n    tag_255:\n        /* \"#utility.yul\":4372:4443   */\n      tag_256\n        /* \"#utility.yul\":4436:4442   */\n      dup2\n        /* \"#utility.yul\":4431:4434   */\n      dup6\n        /* \"#utility.yul\":4372:4443   */\n      tag_164\n      jump\t// in\n    tag_256:\n        /* \"#utility.yul\":4365:4443   */\n      swap4\n      pop\n        /* \"#utility.yul\":4452:4517   */\n      tag_257\n        /* \"#utility.yul\":4510:4516   */\n      dup2\n        /* \"#utility.yul\":4505:4508   */\n      dup6\n        /* \"#utility.yul\":4498:4502   */\n      0x20\n        /* \"#utility.yul\":4491:4496   */\n      dup7\n        /* \"#utility.yul\":4487:4503   */\n      add\n        /* \"#utility.yul\":4452:4517   */\n      tag_165\n      jump\t// in\n    tag_257:\n        /* \"#utility.yul\":4542:4571   */\n      tag_258\n        /* \"#utility.yul\":4564:4570   */\n      dup2\n        /* \"#utility.yul\":4542:4571   */\n      tag_166\n      jump\t// in\n    tag_258:\n        /* \"#utility.yul\":4537:4540   */\n      dup5\n        /* \"#utility.yul\":4533:4572   */\n      add\n        /* \"#utility.yul\":4526:4572   */\n      swap2\n      pop\n        /* \"#utility.yul\":4293:4578   */\n      pop\n        /* \"#utility.yul\":4201:4578   */\n      swap3\n      swap2\n      pop\n      pop\n      jump\t// out\n        /* \"#utility.yul\":4584:4897   */\n    tag_49:\n        /* \"#utility.yul\":4697:4701   */\n      0x00\n        /* \"#utility.yul\":4735:4737   */\n      0x20\n        /* \"#utility.yul\":4724:4733   */\n      dup3\n        /* \"#utility.yul\":4720:4738   */\n      add\n        /* \"#utility.yul\":4712:4738   */\n      swap1\n      pop\n        /* \"#utility.yul\":4784:4793   */\n      dup2\n        /* \"#utility.yul\":4778:4782   */\n      dup2\n        /* \"#utility.yul\":4774:4794   */\n      sub\n        /* \"#utility.yul\":4770:4771   */\n      0x00\n        /* \"#utility.yul\":4759:4768   */\n      dup4\n        /* \"#utility.yul\":4755:4772   */\n      add\n        /* \"#utility.yul\":4748:4795   */\n      mstore\n        /* \"#utility.yul\":4812:4890   */\n      tag_260\n        /* \"#utility.yul\":4885:4889   */\n      dup2\n        /* \"#utility.yul\":4876:4882   */\n      dup5\n        /* \"#utility.yul\":4812:4890   */\n      tag_167\n      jump\t// in\n    tag_260:\n        /* \"#utility.yul\":4804:4890   */\n      swap1\n      pop\n        /* \"#utility.yul\":4584:4897   */\n      swap3\n      swap2\n      pop\n      pop\n      jump\t// out\n        /* \"#utility.yul\":4903:5007   */\n    tag_168:\n        /* \"#utility.yul\":4948:4955   */\n      0x00\n        /* \"#utility.yul\":4977:5001   */\n      tag_262\n        /* \"#utility.yul\":4995:5000   */\n      dup3\n        /* \"#utility.yul\":4977:5001   */\n      tag_155\n      jump\t// in\n    tag_262:\n        /* \"#utility.yul\":4966:5001   */\n      swap1\n      pop\n        /* \"#utility.yul\":4903:5007   */\n      swap2\n      swap1\n      pop\n      jump\t// out\n        /* \"#utility.yul\":5013:5155   */\n    tag_169:\n        /* \"#utility.yul\":5116:5148   */\n      tag_264\n        /* \"#utility.yul\":5142:5147   */\n      dup2\n        /* \"#utility.yul\":5116:5148   */\n      tag_168\n      jump\t// in\n    tag_264:\n        /* \"#utility.yul\":5111:5114   */\n      dup3\n        /* \"#utility.yul\":5104:5149   */\n      mstore\n        /* \"#utility.yul\":5013:5155   */\n      pop\n      pop\n      jump\t// out\n        /* \"#utility.yul\":5161:5936   */\n    tag_55:\n        /* \"#utility.yul\":5396:5400   */\n      0x00\n        /* \"#utility.yul\":5434:5437   */\n      0xa0\n        /* \"#utility.yul\":5423:5432   */\n      dup3\n        /* \"#utility.yul\":5419:5438   */\n      add\n        /* \"#utility.yul\":5411:5438   */\n      swap1\n      pop\n        /* \"#utility.yul\":5484:5493   */\n      dup2\n        /* \"#utility.yul\":5478:5482   */\n      dup2\n        /* \"#utility.yul\":5474:5494   */\n      sub\n        /* \"#utility.yul\":5470:5471   */\n      0x00\n        /* \"#utility.yul\":5459:5468   */\n      dup4\n        /* \"#utility.yul\":5455:5472   */\n      add\n        /* \"#utility.yul\":5448:5495   */\n      mstore\n        /* \"#utility.yul\":5512:5590   */\n      tag_266\n        /* \"#utility.yul\":5585:5589   */\n      dup2\n        /* \"#utility.yul\":5576:5582   */\n      dup9\n        /* \"#utility.yul\":5512:5590   */\n      tag_167\n      jump\t// in\n    tag_266:\n        /* \"#utility.yul\":5504:5590   */\n      swap1\n      pop\n        /* \"#utility.yul\":5600:5672   */\n      tag_267\n        /* \"#utility.yul\":5668:5670   */\n      0x20\n        /* \"#utility.yul\":5657:5666   */\n      dup4\n        /* \"#utility.yul\":5653:5671   */\n      add\n        /* \"#utility.yul\":5644:5650   */\n      dup8\n        /* \"#utility.yul\":5600:5672   */\n      tag_161\n      jump\t// in\n    tag_267:\n        /* \"#utility.yul\":5682:5770   */\n      tag_268\n        /* \"#utility.yul\":5766:5768   */\n      0x40\n        /* \"#utility.yul\":5755:5764   */\n      dup4\n        /* \"#utility.yul\":5751:5769   */\n      add\n        /* \"#utility.yul\":5742:5748   */\n      dup7\n        /* \"#utility.yul\":5682:5770   */\n      tag_169\n      jump\t// in\n    tag_268:\n        /* \"#utility.yul\":5780:5846   */\n      tag_269\n        /* \"#utility.yul\":5842:5844   */\n      0x60\n        /* \"#utility.yul\":5831:5840   */\n      dup4\n        /* \"#utility.yul\":5827:5845   */\n      add\n        /* \"#utility.yul\":5818:5824   */\n      dup6\n        /* \"#utility.yul\":5780:5846   */\n      tag_160\n      jump\t// in\n    tag_269:\n        /* \"#utility.yul\":5856:5929   */\n      tag_270\n        /* \"#utility.yul\":5924:5927   */\n      0x80\n        /* \"#utility.yul\":5913:5922   */\n      dup4\n        /* \"#utility.yul\":5909:5928   */\n      add\n        /* \"#utility.yul\":5900:5906   */\n      dup5\n        /* \"#utility.yul\":5856:5929   */\n      tag_161\n      jump\t// in\n    tag_270:\n        /* \"#utility.yul\":5161:5936   */\n      swap7\n      swap6\n      pop\n      pop\n      pop\n      pop\n      pop\n      pop\n      jump\t// out\n        /* \"#utility.yul\":5942:6059   */\n    tag_170:\n        /* \"#utility.yul\":6051:6052   */\n      0x00\n        /* \"#utility.yul\":6048:6049   */\n      0x00\n        /* \"#utility.yul\":6041:6053   */\n      revert\n        /* \"#utility.yul\":6065:6182   */\n    tag_171:\n        /* \"#utility.yul\":6174:6175   */\n      0x00\n        /* \"#utility.yul\":6171:6172   */\n      0x00\n        /* \"#utility.yul\":6164:6176   */\n      revert\n        /* \"#utility.yul\":6188:6305   */\n    tag_172:\n        /* \"#utility.yul\":6297:6298   */\n      0x00\n        /* \"#utility.yul\":6294:6295   */\n      0x00\n        /* \"#utility.yul\":6287:6299   */\n      revert\n        /* \"#utility.yul\":6325:6878   */\n    tag_173:\n        /* \"#utility.yul\":6383:6391   */\n      0x00\n        /* \"#utility.yul\":6393:6399   */\n      0x00\n        /* \"#utility.yul\":6443:6446   */\n      dup4\n        /* \"#utility.yul\":6436:6440   */\n      0x1f\n        /* \"#utility.yul\":6428:6434   */\n      dup5\n        /* \"#utility.yul\":6424:6441   */\n      add\n        /* \"#utility.yul\":6420:6447   */\n      slt\n        /* \"#utility.yul\":6410:6532   */\n      tag_275\n      jumpi\n        /* \"#utility.yul\":6451:6530   */\n      tag_276\n      tag_170\n      jump\t// in\n    tag_276:\n        /* \"#utility.yul\":6410:6532   */\n    tag_275:\n        /* \"#utility.yul\":6564:6570   */\n      dup3\n        /* \"#utility.yul\":6551:6571   */\n      calldataload\n        /* \"#utility.yul\":6541:6571   */\n      swap1\n      pop\n        /* \"#utility.yul\":6594:6612   */\n      0xffffffffffffffff\n        /* \"#utility.yul\":6586:6592   */\n      dup2\n        /* \"#utility.yul\":6583:6613   */\n      gt\n        /* \"#utility.yul\":6580:6697   */\n      iszero\n      tag_277\n      jumpi\n        /* \"#utility.yul\":6616:6695   */\n      tag_278\n      tag_171\n      jump\t// in\n    tag_278:\n        /* \"#utility.yul\":6580:6697   */\n    tag_277:\n        /* \"#utility.yul\":6730:6734   */\n      0x20\n        /* \"#utility.yul\":6722:6728   */\n      dup4\n        /* \"#utility.yul\":6718:6735   */\n      add\n        /* \"#utility.yul\":6706:6735   */\n      swap2\n      pop\n        /* \"#utility.yul\":6784:6787   */\n      dup4\n        /* \"#utility.yul\":6776:6780   */\n      0x01\n        /* \"#utility.yul\":6768:6774   */\n      dup3\n        /* \"#utility.yul\":6764:6781   */\n      mul\n        /* \"#utility.yul\":6754:6762   */\n      dup4\n        /* \"#utility.yul\":6750:6782   */\n      add\n        /* \"#utility.yul\":6747:6788   */\n      gt\n        /* \"#utility.yul\":6744:6872   */\n      iszero\n      tag_279\n      jumpi\n        /* \"#utility.yul\":6791:6870   */\n      tag_280\n      tag_172\n      jump\t// in\n    tag_280:\n        /* \"#utility.yul\":6744:6872   */\n    tag_279:\n        /* \"#utility.yul\":6325:6878   */\n      swap3\n      pop\n      swap3\n      swap1\n      pop\n      jump\t// out\n        /* \"#utility.yul\":6884:7022   */\n    tag_174:\n        /* \"#utility.yul\":6965:6997   */\n      tag_282\n        /* \"#utility.yul\":6991:6996   */\n      dup2\n        /* \"#utility.yul\":6965:6997   */\n      tag_168\n      jump\t// in\n    tag_282:\n        /* \"#utility.yul\":6958:6963   */\n      dup2\n        /* \"#utility.yul\":6955:6998   */\n      eq\n        /* \"#utility.yul\":6945:7016   */\n      tag_283\n      jumpi\n        /* \"#utility.yul\":7012:7013   */\n      0x00\n        /* \"#utility.yul\":7009:7010   */\n      0x00\n        /* \"#utility.yul\":7002:7014   */\n      revert\n        /* \"#utility.yul\":6945:7016   */\n    tag_283:\n        /* \"#utility.yul\":6884:7022   */\n      pop\n      jump\t// out\n        /* \"#utility.yul\":7028:7183   */\n    tag_175:\n        /* \"#utility.yul\":7082:7087   */\n      0x00\n        /* \"#utility.yul\":7120:7126   */\n      dup2\n        /* \"#utility.yul\":7107:7127   */\n      calldataload\n        /* \"#utility.yul\":7098:7127   */\n      swap1\n      pop\n        /* \"#utility.yul\":7136:7177   */\n      tag_285\n        /* \"#utility.yul\":7171:7176   */\n      dup2\n        /* \"#utility.yul\":7136:7177   */\n      tag_174\n      jump\t// in\n    tag_285:\n        /* \"#utility.yul\":7028:7183   */\n      swap3\n      swap2\n      pop\n      pop\n      jump\t// out\n        /* \"#utility.yul\":7189:8024   */\n    tag_63:\n        /* \"#utility.yul\":7286:7292   */\n      0x00\n        /* \"#utility.yul\":7294:7300   */\n      0x00\n        /* \"#utility.yul\":7302:7308   */\n      0x00\n        /* \"#utility.yul\":7310:7316   */\n      0x00\n        /* \"#utility.yul\":7359:7361   */\n      0x60\n        /* \"#utility.yul\":7347:7356   */\n      dup6\n        /* \"#utility.yul\":7338:7345   */\n      dup8\n        /* \"#utility.yul\":7334:7357   */\n      sub\n        /* \"#utility.yul\":7330:7362   */\n      slt\n        /* \"#utility.yul\":7327:7446   */\n      iszero\n      tag_287\n      jumpi\n        /* \"#utility.yul\":7365:7444   */\n      tag_288\n      tag_150\n      jump\t// in\n    tag_288:\n        /* \"#utility.yul\":7327:7446   */\n    tag_287:\n        /* \"#utility.yul\":7513:7514   */\n      0x00\n        /* \"#utility.yul\":7502:7511   */\n      dup6\n        /* \"#utility.yul\":7498:7515   */\n      add\n        /* \"#utility.yul\":7485:7516   */\n      calldataload\n        /* \"#utility.yul\":7543:7561   */\n      0xffffffffffffffff\n        /* \"#utility.yul\":7535:7541   */\n      dup2\n        /* \"#utility.yul\":7532:7562   */\n      gt\n        /* \"#utility.yul\":7529:7646   */\n      iszero\n      tag_289\n      jumpi\n        /* \"#utility.yul\":7565:7644   */\n      tag_290\n      tag_151\n      jump\t// in\n    tag_290:\n        /* \"#utility.yul\":7529:7646   */\n    tag_289:\n        /* \"#utility.yul\":7678:7743   */\n      tag_291\n        /* \"#utility.yul\":7735:7742   */\n      dup8\n        /* \"#utility.yul\":7726:7732   */\n      dup3\n        /* \"#utility.yul\":7715:7724   */\n      dup9\n        /* \"#utility.yul\":7711:7733   */\n      add\n        /* \"#utility.yul\":7678:7743   */\n      tag_173\n      jump\t// in\n    tag_291:\n        /* \"#utility.yul\":7660:7743   */\n      swap5\n      pop\n      swap5\n      pop\n        /* \"#utility.yul\":7456:7753   */\n      pop\n        /* \"#utility.yul\":7792:7794   */\n      0x20\n        /* \"#utility.yul\":7818:7871   */\n      tag_292\n        /* \"#utility.yul\":7863:7870   */\n      dup8\n        /* \"#utility.yul\":7854:7860   */\n      dup3\n        /* \"#utility.yul\":7843:7852   */\n      dup9\n        /* \"#utility.yul\":7839:7861   */\n      add\n        /* \"#utility.yul\":7818:7871   */\n      tag_154\n      jump\t// in\n    tag_292:\n        /* \"#utility.yul\":7808:7871   */\n      swap3\n      pop\n        /* \"#utility.yul\":7763:7881   */\n      pop\n        /* \"#utility.yul\":7920:7922   */\n      0x40\n        /* \"#utility.yul\":7946:8007   */\n      tag_293\n        /* \"#utility.yul\":7999:8006   */\n      dup8\n        /* \"#utility.yul\":7990:7996   */\n      dup3\n        /* \"#utility.yul\":7979:7988   */\n      dup9\n        /* \"#utility.yul\":7975:7997   */\n      add\n        /* \"#utility.yul\":7946:8007   */\n      tag_175\n      jump\t// in\n    tag_293:\n        /* \"#utility.yul\":7936:8007   */\n      swap2\n      pop\n        /* \"#utility.yul\":7891:8017   */\n      pop\n        /* \"#utility.yul\":7189:8024   */\n      swap3\n      swap6\n      swap2\n      swap5\n      pop\n      swap3\n      pop\n      jump\t// out\n        /* \"#utility.yul\":8030:8504   */\n    tag_72:\n        /* \"#utility.yul\":8098:8104   */\n      0x00\n        /* \"#utility.yul\":8106:8112   */\n      0x00\n        /* \"#utility.yul\":8155:8157   */\n      0x40\n        /* \"#utility.yul\":8143:8152   */\n      dup4\n        /* \"#utility.yul\":8134:8141   */\n      dup6\n        /* \"#utility.yul\":8130:8153   */\n      sub\n        /* \"#utility.yul\":8126:8158   */\n      slt\n        /* \"#utility.yul\":8123:8242   */\n      iszero\n      tag_295\n      jumpi\n        /* \"#utility.yul\":8161:8240   */\n      tag_296\n      tag_150\n      jump\t// in\n    tag_296:\n        /* \"#utility.yul\":8123:8242   */\n    tag_295:\n        /* \"#utility.yul\":8281:8282   */\n      0x00\n        /* \"#utility.yul\":8306:8359   */\n      tag_297\n        /* \"#utility.yul\":8351:8358   */\n      dup6\n        /* \"#utility.yul\":8342:8348   */\n      dup3\n        /* \"#utility.yul\":8331:8340   */\n      dup7\n        /* \"#utility.yul\":8327:8349   */\n      add\n        /* \"#utility.yul\":8306:8359   */\n      tag_154\n      jump\t// in\n    tag_297:\n        /* \"#utility.yul\":8296:8359   */\n      swap3\n      pop\n        /* \"#utility.yul\":8252:8369   */\n      pop\n        /* \"#utility.yul\":8408:8410   */\n      0x20\n        /* \"#utility.yul\":8434:8487   */\n      tag_298\n        /* \"#utility.yul\":8479:8486   */\n      dup6\n        /* \"#utility.yul\":8470:8476   */\n      dup3\n        /* \"#utility.yul\":8459:8468   */\n      dup7\n        /* \"#utility.yul\":8455:8477   */\n      add\n        /* \"#utility.yul\":8434:8487   */\n      tag_158\n      jump\t// in\n    tag_298:\n        /* \"#utility.yul\":8424:8487   */\n      swap2\n      pop\n        /* \"#utility.yul\":8379:8497   */\n      pop\n        /* \"#utility.yul\":8030:8504   */\n      swap3\n      pop\n      swap3\n      swap1\n      pop\n      jump\t// out\n        /* \"#utility.yul\":8510:8681   */\n    tag_176:\n        /* \"#utility.yul\":8650:8673   */\n      0x496e76616c6964207265717565737420696e6465780000000000000000000000\n        /* \"#utility.yul\":8646:8647   */\n      0x00\n        /* \"#utility.yul\":8638:8644   */\n      dup3\n        /* \"#utility.yul\":8634:8648   */\n      add\n        /* \"#utility.yul\":8627:8674   */\n      mstore\n        /* \"#utility.yul\":8510:8681   */\n      pop\n      jump\t// out\n        /* \"#utility.yul\":8687:9053   */\n    tag_177:\n        /* \"#utility.yul\":8829:8832   */\n      0x00\n        /* \"#utility.yul\":8850:8917   */\n      tag_301\n        /* \"#utility.yul\":8914:8916   */\n      0x15\n        /* \"#utility.yul\":8909:8912   */\n      dup4\n        /* \"#utility.yul\":8850:8917   */\n      tag_164\n      jump\t// in\n    tag_301:\n        /* \"#utility.yul\":8843:8917   */\n      swap2\n      pop\n        /* \"#utility.yul\":8926:9019   */\n      tag_302\n        /* \"#utility.yul\":9015:9018   */\n      dup3\n        /* \"#utility.yul\":8926:9019   */\n      tag_176\n      jump\t// in\n    tag_302:\n        /* \"#utility.yul\":9044:9046   */\n      0x20\n        /* \"#utility.yul\":9039:9042   */\n      dup3\n        /* \"#utility.yul\":9035:9047   */\n      add\n        /* \"#utility.yul\":9028:9047   */\n      swap1\n      pop\n        /* \"#utility.yul\":8687:9053   */\n      swap2\n      swap1\n      pop\n      jump\t// out\n        /* \"#utility.yul\":9059:9478   */\n    tag_86:\n        /* \"#utility.yul\":9225:9229   */\n      0x00\n        /* \"#utility.yul\":9263:9265   */\n      0x20\n        /* \"#utility.yul\":9252:9261   */\n      dup3\n        /* \"#utility.yul\":9248:9266   */\n      add\n        /* \"#utility.yul\":9240:9266   */\n      swap1\n      pop\n        /* \"#utility.yul\":9312:9321   */\n      dup2\n        /* \"#utility.yul\":9306:9310   */\n      dup2\n        /* \"#utility.yul\":9302:9322   */\n      sub\n        /* \"#utility.yul\":9298:9299   */\n      0x00\n        /* \"#utility.yul\":9287:9296   */\n      dup4\n        /* \"#utility.yul\":9283:9300   */\n      add\n        /* \"#utility.yul\":9276:9323   */\n      mstore\n        /* \"#utility.yul\":9340:9471   */\n      tag_304\n        /* \"#utility.yul\":9466:9470   */\n      dup2\n        /* \"#utility.yul\":9340:9471   */\n      tag_177\n      jump\t// in\n    tag_304:\n        /* \"#utility.yul\":9332:9471   */\n      swap1\n      pop\n        /* \"#utility.yul\":9059:9478   */\n      swap2\n      swap1\n      pop\n      jump\t// out\n        /* \"#utility.yul\":9484:9664   */\n    tag_90:\n        /* \"#utility.yul\":9532:9609   */\n      0x4e487b7100000000000000000000000000000000000000000000000000000000\n        /* \"#utility.yul\":9529:9530   */\n      0x00\n        /* \"#utility.yul\":9522:9610   */\n      mstore\n        /* \"#utility.yul\":9629:9633   */\n      0x32\n        /* \"#utility.yul\":9626:9627   */\n      0x04\n        /* \"#utility.yul\":9619:9634   */\n      mstore\n        /* \"#utility.yul\":9653:9657   */\n      0x24\n        /* \"#utility.yul\":9650:9651   */\n      0x00\n        /* \"#utility.yul\":9643:9658   */\n      revert\n        /* \"#utility.yul\":9670:9848   */\n    tag_178:\n        /* \"#utility.yul\":9810:9840   */\n      0x5265717565737420697320616c726561647920636f6d706c6574652100000000\n        /* \"#utility.yul\":9806:9807   */\n      0x00\n        /* \"#utility.yul\":9798:9804   */\n      dup3\n        /* \"#utility.yul\":9794:9808   */\n      add\n        /* \"#utility.yul\":9787:9841   */\n      mstore\n        /* \"#utility.yul\":9670:9848   */\n      pop\n      jump\t// out\n        /* \"#utility.yul\":9854:10220   */\n    tag_179:\n        /* \"#utility.yul\":9996:9999   */\n      0x00\n        /* \"#utility.yul\":10017:10084   */\n      tag_308\n        /* \"#utility.yul\":10081:10083   */\n      0x1c\n        /* \"#utility.yul\":10076:10079   */\n      dup4\n        /* \"#utility.yul\":10017:10084   */\n      tag_164\n      jump\t// in\n    tag_308:\n        /* \"#utility.yul\":10010:10084   */\n      swap2\n      pop\n        /* \"#utility.yul\":10093:10186   */\n      tag_309\n        /* \"#utility.yul\":10182:10185   */\n      dup3\n        /* \"#utility.yul\":10093:10186   */\n      tag_178\n      jump\t// in\n    tag_309:\n        /* \"#utility.yul\":10211:10213   */\n      0x20\n        /* \"#utility.yul\":10206:10209   */\n      dup3\n        /* \"#utility.yul\":10202:10214   */\n      add\n        /* \"#utility.yul\":10195:10214   */\n      swap1\n      pop\n        /* \"#utility.yul\":9854:10220   */\n      swap2\n      swap1\n      pop\n      jump\t// out\n        /* \"#utility.yul\":10226:10645   */\n    tag_94:\n        /* \"#utility.yul\":10392:10396   */\n      0x00\n        /* \"#utility.yul\":10430:10432   */\n      0x20\n        /* \"#utility.yul\":10419:10428   */\n      dup3\n        /* \"#utility.yul\":10415:10433   */\n      add\n        /* \"#utility.yul\":10407:10433   */\n      swap1\n      pop\n        /* \"#utility.yul\":10479:10488   */\n      dup2\n        /* \"#utility.yul\":10473:10477   */\n      dup2\n        /* \"#utility.yul\":10469:10489   */\n      sub\n        /* \"#utility.yul\":10465:10466   */\n      0x00\n        /* \"#utility.yul\":10454:10463   */\n      dup4\n        /* \"#utility.yul\":10450:10467   */\n      add\n        /* \"#utility.yul\":10443:10490   */\n      mstore\n        /* \"#utility.yul\":10507:10638   */\n      tag_311\n        /* \"#utility.yul\":10633:10637   */\n      dup2\n        /* \"#utility.yul\":10507:10638   */\n      tag_179\n      jump\t// in\n    tag_311:\n        /* \"#utility.yul\":10499:10638   */\n      swap1\n      pop\n        /* \"#utility.yul\":10226:10645   */\n      swap2\n      swap1\n      pop\n      jump\t// out\n        /* \"#utility.yul\":10651:10831   */\n    tag_180:\n        /* \"#utility.yul\":10699:10776   */\n      0x4e487b7100000000000000000000000000000000000000000000000000000000\n        /* \"#utility.yul\":10696:10697   */\n      0x00\n        /* \"#utility.yul\":10689:10777   */\n      mstore\n        /* \"#utility.yul\":10796:10800   */\n      0x12\n        /* \"#utility.yul\":10793:10794   */\n      0x04\n        /* \"#utility.yul\":10786:10801   */\n      mstore\n        /* \"#utility.yul\":10820:10824   */\n      0x24\n        /* \"#utility.yul\":10817:10818   */\n      0x00\n        /* \"#utility.yul\":10810:10825   */\n      revert\n        /* \"#utility.yul\":10837:11017   */\n    tag_181:\n        /* \"#utility.yul\":10885:10962   */\n      0x4e487b7100000000000000000000000000000000000000000000000000000000\n        /* \"#utility.yul\":10882:10883   */\n      0x00\n        /* \"#utility.yul\":10875:10963   */\n      mstore\n        /* \"#utility.yul\":10982:10986   */\n      0x11\n        /* \"#utility.yul\":10979:10980   */\n      0x04\n        /* \"#utility.yul\":10972:10987   */\n      mstore\n        /* \"#utility.yul\":11006:11010   */\n      0x24\n        /* \"#utility.yul\":11003:11004   */\n      0x00\n        /* \"#utility.yul\":10996:11011   */\n      revert\n        /* \"#utility.yul\":11023:11208   */\n    tag_96:\n        /* \"#utility.yul\":11063:11064   */\n      0x00\n        /* \"#utility.yul\":11080:11100   */\n      tag_315\n        /* \"#utility.yul\":11098:11099   */\n      dup3\n        /* \"#utility.yul\":11080:11100   */\n      tag_152\n      jump\t// in\n    tag_315:\n        /* \"#utility.yul\":11075:11100   */\n      swap2\n      pop\n        /* \"#utility.yul\":11114:11134   */\n      tag_316\n        /* \"#utility.yul\":11132:11133   */\n      dup4\n        /* \"#utility.yul\":11114:11134   */\n      tag_152\n      jump\t// in\n    tag_316:\n        /* \"#utility.yul\":11109:11134   */\n      swap3\n      pop\n        /* \"#utility.yul\":11153:11154   */\n      dup3\n        /* \"#utility.yul\":11143:11178   */\n      tag_317\n      jumpi\n        /* \"#utility.yul\":11158:11176   */\n      tag_318\n      tag_180\n      jump\t// in\n    tag_318:\n        /* \"#utility.yul\":11143:11178   */\n    tag_317:\n        /* \"#utility.yul\":11200:11201   */\n      dup3\n        /* \"#utility.yul\":11197:11198   */\n      dup3\n        /* \"#utility.yul\":11193:11202   */\n      div\n        /* \"#utility.yul\":11188:11202   */\n      swap1\n      pop\n        /* \"#utility.yul\":11023:11208   */\n      swap3\n      swap2\n      pop\n      pop\n      jump\t// out\n        /* \"#utility.yul\":11214:11396   */\n    tag_182:\n        /* \"#utility.yul\":11354:11388   */\n      0x4e6f7420656e6f75676820617070726f76616c7320746f2070726f636573732e\n        /* \"#utility.yul\":11350:11351   */\n      0x00\n        /* \"#utility.yul\":11342:11348   */\n      dup3\n        /* \"#utility.yul\":11338:11352   */\n      add\n        /* \"#utility.yul\":11331:11389   */\n      mstore\n        /* \"#utility.yul\":11214:11396   */\n      pop\n      jump\t// out\n        /* \"#utility.yul\":11402:11768   */\n    tag_183:\n        /* \"#utility.yul\":11544:11547   */\n      0x00\n        /* \"#utility.yul\":11565:11632   */\n      tag_321\n        /* \"#utility.yul\":11629:11631   */\n      0x20\n        /* \"#utility.yul\":11624:11627   */\n      dup4\n        /* \"#utility.yul\":11565:11632   */\n      tag_164\n      jump\t// in\n    tag_321:\n        /* \"#utility.yul\":11558:11632   */\n      swap2\n      pop\n        /* \"#utility.yul\":11641:11734   */\n      tag_322\n        /* \"#utility.yul\":11730:11733   */\n      dup3\n        /* \"#utility.yul\":11641:11734   */\n      tag_182\n      jump\t// in\n    tag_322:\n        /* \"#utility.yul\":11759:11761   */\n      0x20\n        /* \"#utility.yul\":11754:11757   */\n      dup3\n        /* \"#utility.yul\":11750:11762   */\n      add\n        /* \"#utility.yul\":11743:11762   */\n      swap1\n      pop\n        /* \"#utility.yul\":11402:11768   */\n      swap2\n      swap1\n      pop\n      jump\t// out\n        /* \"#utility.yul\":11774:12193   */\n    tag_99:\n        /* \"#utility.yul\":11940:11944   */\n      0x00\n        /* \"#utility.yul\":11978:11980   */\n      0x20\n        /* \"#utility.yul\":11967:11976   */\n      dup3\n        /* \"#utility.yul\":11963:11981   */\n      add\n        /* \"#utility.yul\":11955:11981   */\n      swap1\n      pop\n        /* \"#utility.yul\":12027:12036   */\n      dup2\n        /* \"#utility.yul\":12021:12025   */\n      dup2\n        /* \"#utility.yul\":12017:12037   */\n      sub\n        /* \"#utility.yul\":12013:12014   */\n      0x00\n        /* \"#utility.yul\":12002:12011   */\n      dup4\n        /* \"#utility.yul\":11998:12015   */\n      add\n        /* \"#utility.yul\":11991:12038   */\n      mstore\n        /* \"#utility.yul\":12055:12186   */\n      tag_324\n        /* \"#utility.yul\":12181:12185   */\n      dup2\n        /* \"#utility.yul\":12055:12186   */\n      tag_183\n      jump\t// in\n    tag_324:\n        /* \"#utility.yul\":12047:12186   */\n      swap1\n      pop\n        /* \"#utility.yul\":11774:12193   */\n      swap2\n      swap1\n      pop\n      jump\t// out\n        /* \"#utility.yul\":12199:12379   */\n    tag_184:\n        /* \"#utility.yul\":12247:12324   */\n      0x4e487b7100000000000000000000000000000000000000000000000000000000\n        /* \"#utility.yul\":12244:12245   */\n      0x00\n        /* \"#utility.yul\":12237:12325   */\n      mstore\n        /* \"#utility.yul\":12344:12348   */\n      0x22\n        /* \"#utility.yul\":12341:12342   */\n      0x04\n        /* \"#utility.yul\":12334:12349   */\n      mstore\n        /* \"#utility.yul\":12368:12372   */\n      0x24\n        /* \"#utility.yul\":12365:12366   */\n      0x00\n        /* \"#utility.yul\":12358:12373   */\n      revert\n        /* \"#utility.yul\":12385:12705   */\n    tag_112:\n        /* \"#utility.yul\":12429:12435   */\n      0x00\n        /* \"#utility.yul\":12466:12467   */\n      0x02\n        /* \"#utility.yul\":12460:12464   */\n      dup3\n        /* \"#utility.yul\":12456:12468   */\n      div\n        /* \"#utility.yul\":12446:12468   */\n      swap1\n      pop\n        /* \"#utility.yul\":12513:12514   */\n      0x01\n        /* \"#utility.yul\":12507:12511   */\n      dup3\n        /* \"#utility.yul\":12503:12515   */\n      and\n        /* \"#utility.yul\":12534:12552   */\n      dup1\n        /* \"#utility.yul\":12524:12605   */\n      tag_327\n      jumpi\n        /* \"#utility.yul\":12590:12594   */\n      0x7f\n        /* \"#utility.yul\":12582:12588   */\n      dup3\n        /* \"#utility.yul\":12578:12595   */\n      and\n        /* \"#utility.yul\":12568:12595   */\n      swap2\n      pop\n        /* \"#utility.yul\":12524:12605   */\n    tag_327:\n        /* \"#utility.yul\":12652:12654   */\n      0x20\n        /* \"#utility.yul\":12644:12650   */\n      dup3\n        /* \"#utility.yul\":12641:12655   */\n      lt\n        /* \"#utility.yul\":12621:12639   */\n      dup2\n        /* \"#utility.yul\":12618:12656   */\n      sub\n        /* \"#utility.yul\":12615:12699   */\n      tag_328\n      jumpi\n        /* \"#utility.yul\":12671:12689   */\n      tag_329\n      tag_184\n      jump\t// in\n    tag_329:\n        /* \"#utility.yul\":12615:12699   */\n    tag_328:\n        /* \"#utility.yul\":12436:12705   */\n      pop\n        /* \"#utility.yul\":12385:12705   */\n      swap2\n      swap1\n      pop\n      jump\t// out\n        /* \"#utility.yul\":12711:12891   */\n    tag_185:\n        /* \"#utility.yul\":12759:12836   */\n      0x4e487b7100000000000000000000000000000000000000000000000000000000\n        /* \"#utility.yul\":12756:12757   */\n      0x00\n        /* \"#utility.yul\":12749:12837   */\n      mstore\n        /* \"#utility.yul\":12856:12860   */\n      0x41\n        /* \"#utility.yul\":12853:12854   */\n      0x04\n        /* \"#utility.yul\":12846:12861   */\n      mstore\n        /* \"#utility.yul\":12880:12884   */\n      0x24\n        /* \"#utility.yul\":12877:12878   */\n      0x00\n        /* \"#utility.yul\":12870:12885   */\n      revert\n        /* \"#utility.yul\":12897:13038   */\n    tag_186:\n        /* \"#utility.yul\":12946:12950   */\n      0x00\n        /* \"#utility.yul\":12969:12972   */\n      dup2\n        /* \"#utility.yul\":12961:12972   */\n      swap1\n      pop\n        /* \"#utility.yul\":12992:12995   */\n      dup2\n        /* \"#utility.yul\":12989:12990   */\n      0x00\n        /* \"#utility.yul\":12982:12996   */\n      mstore\n        /* \"#utility.yul\":13026:13030   */\n      0x20\n        /* \"#utility.yul\":13023:13024   */\n      0x00\n        /* \"#utility.yul\":13013:13031   */\n      keccak256\n        /* \"#utility.yul\":13005:13031   */\n      swap1\n      pop\n        /* \"#utility.yul\":12897:13038   */\n      swap2\n      swap1\n      pop\n      jump\t// out\n        /* \"#utility.yul\":13044:13137   */\n    tag_187:\n        /* \"#utility.yul\":13081:13087   */\n      0x00\n        /* \"#utility.yul\":13128:13130   */\n      0x20\n        /* \"#utility.yul\":13123:13125   */\n      0x1f\n        /* \"#utility.yul\":13116:13121   */\n      dup4\n        /* \"#utility.yul\":13112:13126   */\n      add\n        /* \"#utility.yul\":13108:13131   */\n      div\n        /* \"#utility.yul\":13098:13131   */\n      swap1\n      pop\n        /* \"#utility.yul\":13044:13137   */\n      swap2\n      swap1\n      pop\n      jump\t// out\n        /* \"#utility.yul\":13143:13250   */\n    tag_188:\n        /* \"#utility.yul\":13187:13195   */\n      0x00\n        /* \"#utility.yul\":13237:13242   */\n      dup3\n        /* \"#utility.yul\":13231:13235   */\n      dup3\n        /* \"#utility.yul\":13227:13243   */\n      shl\n        /* \"#utility.yul\":13206:13243   */\n      swap1\n      pop\n        /* \"#utility.yul\":13143:13250   */\n      swap3\n      swap2\n      pop\n      pop\n      jump\t// out\n        /* \"#utility.yul\":13256:13649   */\n    tag_189:\n        /* \"#utility.yul\":13325:13331   */\n      0x00\n        /* \"#utility.yul\":13375:13376   */\n      0x08\n        /* \"#utility.yul\":13363:13373   */\n      dup4\n        /* \"#utility.yul\":13359:13377   */\n      mul\n        /* \"#utility.yul\":13398:13495   */\n      tag_335\n        /* \"#utility.yul\":13428:13494   */\n      0xffffffffffffffffffffffffffffffffffffffffffffffffffffffffffffffff\n        /* \"#utility.yul\":13417:13426   */\n      dup3\n        /* \"#utility.yul\":13398:13495   */\n      tag_188\n      jump\t// in\n    tag_335:\n        /* \"#utility.yul\":13516:13555   */\n      tag_336\n        /* \"#utility.yul\":13546:13554   */\n      dup7\n        /* \"#utility.yul\":13535:13544   */\n      dup4\n        /* \"#utility.yul\":13516:13555   */\n      tag_188\n      jump\t// in\n    tag_336:\n        /* \"#utility.yul\":13504:13555   */\n      swap6\n      pop\n        /* \"#utility.yul\":13588:13592   */\n      dup1\n        /* \"#utility.yul\":13584:13593   */\n      not\n        /* \"#utility.yul\":13577:13582   */\n      dup5\n        /* \"#utility.yul\":13573:13594   */\n      and\n        /* \"#utility.yul\":13564:13594   */\n      swap4\n      pop\n        /* \"#utility.yul\":13637:13641   */\n      dup1\n        /* \"#utility.yul\":13627:13635   */\n      dup7\n        /* \"#utility.yul\":13623:13642   */\n      and\n        /* \"#utility.yul\":13616:13621   */\n      dup5\n        /* \"#utility.yul\":13613:13643   */\n      or\n        /* \"#utility.yul\":13603:13643   */\n      swap3\n      pop\n        /* \"#utility.yul\":13332:13649   */\n      pop\n      pop\n        /* \"#utility.yul\":13256:13649   */\n      swap4\n      swap3\n      pop\n      pop\n      pop\n      jump\t// out\n        /* \"#utility.yul\":13655:13715   */\n    tag_190:\n        /* \"#utility.yul\":13683:13686   */\n      0x00\n        /* \"#utility.yul\":13704:13709   */\n      dup2\n        /* \"#utility.yul\":13697:13709   */\n      swap1\n      pop\n        /* \"#utility.yul\":13655:13715   */\n      swap2\n      swap1\n      pop\n      jump\t// out\n        /* \"#utility.yul\":13721:13863   */\n    tag_191:\n        /* \"#utility.yul\":13771:13780   */\n      0x00\n        /* \"#utility.yul\":13804:13857   */\n      tag_339\n        /* \"#utility.yul\":13822:13856   */\n      tag_340\n        /* \"#utility.yul\":13831:13855   */\n      tag_341\n        /* \"#utility.yul\":13849:13854   */\n      dup5\n        /* \"#utility.yul\":13831:13855   */\n      tag_152\n      jump\t// in\n    tag_341:\n        /* \"#utility.yul\":13822:13856   */\n      tag_190\n      jump\t// in\n    tag_340:\n        /* \"#utility.yul\":13804:13857   */\n      tag_152\n      jump\t// in\n    tag_339:\n        /* \"#utility.yul\":13791:13857   */\n      swap1\n      pop\n        /* \"#utility.yul\":13721:13863   */\n      swap2\n      swap1\n      pop\n      jump\t// out\n        /* \"#utility.yul\":13869:13944   */\n    tag_192:\n        /* \"#utility.yul\":13912:13915   */\n      0x00\n        /* \"#utility.yul\":13933:13938   */\n      dup2\n        /* \"#utility.yul\":13926:13938   */\n      swap1\n      pop\n        /* \"#utility.yul\":13869:13944   */\n      swap2\n      swap1\n      pop\n      jump\t// out\n        /* \"#utility.yul\":13950:14219   */\n    tag_193:\n        /* \"#utility.yul\":14060:14099   */\n      tag_344\n        /* \"#utility.yul\":14091:14098   */\n      dup4\n        /* \"#utility.yul\":14060:14099   */\n      tag_191\n      jump\t// in\n    tag_344:\n        /* \"#utility.yul\":14121:14212   */\n      tag_345\n        /* \"#utility.yul\":14170:14211   */\n      tag_346\n        /* \"#utility.yul\":14194:14210   */\n      dup3\n        /* \"#utility.yul\":14170:14211   */\n      tag_192\n      jump\t// in\n    tag_346:\n        /* \"#utility.yul\":14162:14168   */\n      dup5\n        /* \"#utility.yul\":14155:14159   */\n      dup5\n        /* \"#utility.yul\":14149:14160   */\n      sload\n        /* \"#utility.yul\":14121:14212   */\n      tag_189\n      jump\t// in\n    tag_345:\n        /* \"#utility.yul\":14115:14119   */\n      dup3\n        /* \"#utility.yul\":14108:14213   */\n      sstore\n        /* \"#utility.yul\":14026:14219   */\n      pop\n        /* \"#utility.yul\":13950:14219   */\n      pop\n      pop\n      pop\n      jump\t// out\n        /* \"#utility.yul\":14225:14298   */\n    tag_194:\n        /* \"#utility.yul\":14270:14273   */\n      0x00\n        /* \"#utility.yul\":14291:14292   */\n      0x00\n        /* \"#utility.yul\":14284:14292   */\n      swap1\n      pop\n        /* \"#utility.yul\":14225:14298   */\n      swap1\n      jump\t// out\n        /* \"#utility.yul\":14304:14493   */\n    tag_195:\n        /* \"#utility.yul\":14381:14413   */\n      tag_349\n      tag_194\n      jump\t// in\n    tag_349:\n        /* \"#utility.yul\":14422:14487   */\n      tag_350\n        /* \"#utility.yul\":14480:14486   */\n      dup2\n        /* \"#utility.yul\":14472:14478   */\n      dup5\n        /* \"#utility.yul\":14466:14470   */\n      dup5\n        /* \"#utility.yul\":14422:14487   */\n      tag_193\n      jump\t// in\n    tag_350:\n        /* \"#utility.yul\":14357:14493   */\n      pop\n        /* \"#utility.yul\":14304:14493   */\n      pop\n      pop\n      jump\t// out\n        /* \"#utility.yul\":14499:14685   */\n    tag_196:\n        /* \"#utility.yul\":14559:14679   */\n    tag_352:\n        /* \"#utility.yul\":14576:14579   */\n      dup2\n        /* \"#utility.yul\":14569:14574   */\n      dup2\n        /* \"#utility.yul\":14566:14580   */\n      lt\n        /* \"#utility.yul\":14559:14679   */\n      iszero\n      tag_354\n      jumpi\n        /* \"#utility.yul\":14630:14669   */\n      tag_355\n        /* \"#utility.yul\":14667:14668   */\n      0x00\n        /* \"#utility.yul\":14660:14665   */\n      dup3\n        /* \"#utility.yul\":14630:14669   */\n      tag_195\n      jump\t// in\n    tag_355:\n        /* \"#utility.yul\":14603:14604   */\n      0x01\n        /* \"#utility.yul\":14596:14601   */\n      dup2\n        /* \"#utility.yul\":14592:14605   */\n      add\n        /* \"#utility.yul\":14583:14605   */\n      swap1\n      pop\n        /* \"#utility.yul\":14559:14679   */\n      jump(tag_352)\n    tag_354:\n        /* \"#utility.yul\":14499:14685   */\n      pop\n      pop\n      jump\t// out\n        /* \"#utility.yul\":14691:15234   */\n    tag_197:\n        /* \"#utility.yul\":14792:14794   */\n      0x1f\n        /* \"#utility.yul\":14787:14790   */\n      dup3\n        /* \"#utility.yul\":14784:14795   */\n      gt\n        /* \"#utility.yul\":14781:15227   */\n      iszero\n      tag_357\n      jumpi\n        /* \"#utility.yul\":14826:14864   */\n      tag_358\n        /* \"#utility.yul\":14858:14863   */\n      dup2\n        /* \"#utility.yul\":14826:14864   */\n      tag_186\n      jump\t// in\n    tag_358:\n        /* \"#utility.yul\":14910:14939   */\n      tag_359\n        /* \"#utility.yul\":14928:14938   */\n      dup5\n        /* \"#utility.yul\":14910:14939   */\n      tag_187\n      jump\t// in\n    tag_359:\n        /* \"#utility.yul\":14900:14908   */\n      dup2\n        /* \"#utility.yul\":14896:14940   */\n      add\n        /* \"#utility.yul\":15093:15095   */\n      0x20\n        /* \"#utility.yul\":15081:15091   */\n      dup6\n        /* \"#utility.yul\":15078:15096   */\n      lt\n        /* \"#utility.yul\":15075:15124   */\n      iszero\n      tag_360\n      jumpi\n        /* \"#utility.yul\":15114:15122   */\n      dup2\n        /* \"#utility.yul\":15099:15122   */\n      swap1\n      pop\n        /* \"#utility.yul\":15075:15124   */\n    tag_360:\n        /* \"#utility.yul\":15137:15217   */\n      tag_361\n        /* \"#utility.yul\":15193:15215   */\n      tag_362\n        /* \"#utility.yul\":15211:15214   */\n      dup6\n        /* \"#utility.yul\":15193:15215   */\n      tag_187\n      jump\t// in\n    tag_362:\n        /* \"#utility.yul\":15183:15191   */\n      dup4\n        /* \"#utility.yul\":15179:15216   */\n      add\n        /* \"#utility.yul\":15166:15177   */\n      dup3\n        /* \"#utility.yul\":15137:15217   */\n      tag_196\n      jump\t// in\n    tag_361:\n        /* \"#utility.yul\":14796:15227   */\n      pop\n      pop\n        /* \"#utility.yul\":14781:15227   */\n    tag_357:\n        /* \"#utility.yul\":14691:15234   */\n      pop\n      pop\n      pop\n      jump\t// out\n        /* \"#utility.yul\":15240:15357   */\n    tag_198:\n        /* \"#utility.yul\":15294:15302   */\n      0x00\n        /* \"#utility.yul\":15344:15349   */\n      dup3\n        /* \"#utility.yul\":15338:15342   */\n      dup3\n        /* \"#utility.yul\":15334:15350   */\n      shr\n        /* \"#utility.yul\":15313:15350   */\n      swap1\n      pop\n        /* \"#utility.yul\":15240:15357   */\n      swap3\n      swap2\n      pop\n      pop\n      jump\t// out\n        /* \"#utility.yul\":15363:15532   */\n    tag_199:\n        /* \"#utility.yul\":15407:15413   */\n      0x00\n        /* \"#utility.yul\":15440:15491   */\n      tag_365\n        /* \"#utility.yul\":15488:15489   */\n      0x00\n        /* \"#utility.yul\":15484:15490   */\n      not\n        /* \"#utility.yul\":15476:15481   */\n      dup5\n        /* \"#utility.yul\":15473:15474   */\n      0x08\n        /* \"#utility.yul\":15469:15482   */\n      mul\n        /* \"#utility.yul\":15440:15491   */\n      tag_198\n      jump\t// in\n    tag_365:\n        /* \"#utility.yul\":15436:15492   */\n      not\n        /* \"#utility.yul\":15521:15525   */\n      dup1\n        /* \"#utility.yul\":15515:15519   */\n      dup4\n        /* \"#utility.yul\":15511:15526   */\n      and\n        /* \"#utility.yul\":15501:15526   */\n      swap2\n      pop\n        /* \"#utility.yul\":15414:15532   */\n      pop\n        /* \"#utility.yul\":15363:15532   */\n      swap3\n      swap2\n      pop\n      pop\n      jump\t// out\n        /* \"#utility.yul\":15537:15832   */\n    tag_200:\n        /* \"#utility.yul\":15613:15617   */\n      0x00\n        /* \"#utility.yul\":15759:15788   */\n      tag_367\n        /* \"#utility.yul\":15784:15787   */\n      dup4\n        /* \"#utility.yul\":15778:15782   */\n      dup4\n        /* \"#utility.yul\":15759:15788   */\n      tag_199\n      jump\t// in\n    tag_367:\n        /* \"#utility.yul\":15751:15788   */\n      swap2\n      pop\n        /* \"#utility.yul\":15821:15824   */\n      dup3\n        /* \"#utility.yul\":15818:15819   */\n      0x02\n        /* \"#utility.yul\":15814:15825   */\n      mul\n        /* \"#utility.yul\":15808:15812   */\n      dup3\n        /* \"#utility.yul\":15805:15826   */\n      or\n        /* \"#utility.yul\":15797:15826   */\n      swap1\n      pop\n        /* \"#utility.yul\":15537:15832   */\n      swap3\n      swap2\n      pop\n      pop\n      jump\t// out\n        /* \"#utility.yul\":15837:17232   */\n    tag_129:\n        /* \"#utility.yul\":15954:15991   */\n      tag_369\n        /* \"#utility.yul\":15987:15990   */\n      dup3\n        /* \"#utility.yul\":15954:15991   */\n      tag_163\n      jump\t// in\n    tag_369:\n        /* \"#utility.yul\":16056:16074   */\n      0xffffffffffffffff\n        /* \"#utility.yul\":16048:16054   */\n      dup2\n        /* \"#utility.yul\":16045:16075   */\n      gt\n        /* \"#utility.yul\":16042:16098   */\n      iszero\n      tag_370\n      jumpi\n        /* \"#utility.yul\":16078:16096   */\n      tag_371\n      tag_185\n      jump\t// in\n    tag_371:\n        /* \"#utility.yul\":16042:16098   */\n    tag_370:\n        /* \"#utility.yul\":16122:16160   */\n      tag_372\n        /* \"#utility.yul\":16154:16158   */\n      dup3\n        /* \"#utility.yul\":16148:16159   */\n      sload\n        /* \"#utility.yul\":16122:16160   */\n      tag_112\n      jump\t// in\n    tag_372:\n        /* \"#utility.yul\":16207:16274   */\n      tag_373\n        /* \"#utility.yul\":16267:16273   */\n      dup3\n        /* \"#utility.yul\":16259:16265   */\n      dup3\n        /* \"#utility.yul\":16253:16257   */\n      dup6\n        /* \"#utility.yul\":16207:16274   */\n      tag_197\n      jump\t// in\n    tag_373:\n        /* \"#utility.yul\":16301:16302   */\n      0x00\n        /* \"#utility.yul\":16325:16329   */\n      0x20\n        /* \"#utility.yul\":16312:16329   */\n      swap1\n      pop\n        /* \"#utility.yul\":16357:16359   */\n      0x1f\n        /* \"#utility.yul\":16349:16355   */\n      dup4\n        /* \"#utility.yul\":16346:16360   */\n      gt\n        /* \"#utility.yul\":16374:16375   */\n      0x01\n        /* \"#utility.yul\":16369:16987   */\n      dup2\n      eq\n      tag_375\n      jumpi\n        /* \"#utility.yul\":17031:17032   */\n      0x00\n        /* \"#utility.yul\":17048:17054   */\n      dup5\n        /* \"#utility.yul\":17045:17122   */\n      iszero\n      tag_376\n      jumpi\n        /* \"#utility.yul\":17097:17106   */\n      dup3\n        /* \"#utility.yul\":17092:17095   */\n      dup8\n        /* \"#utility.yul\":17088:17107   */\n      add\n        /* \"#utility.yul\":17082:17108   */\n      mload\n        /* \"#utility.yul\":17073:17108   */\n      swap1\n      pop\n        /* \"#utility.yul\":17045:17122   */\n    tag_376:\n        /* \"#utility.yul\":17148:17215   */\n      tag_377\n        /* \"#utility.yul\":17208:17214   */\n      dup6\n        /* \"#utility.yul\":17201:17206   */\n      dup3\n        /* \"#utility.yul\":17148:17215   */\n      tag_200\n      jump\t// in\n    tag_377:\n        /* \"#utility.yul\":17142:17146   */\n      dup7\n        /* \"#utility.yul\":17135:17216   */\n      sstore\n        /* \"#utility.yul\":17004:17226   */\n      pop\n        /* \"#utility.yul\":16339:17226   */\n      jump(tag_374)\n        /* \"#utility.yul\":16369:16987   */\n    tag_375:\n        /* \"#utility.yul\":16421:16425   */\n      0x1f\n        /* \"#utility.yul\":16417:16426   */\n      not\n        /* \"#utility.yul\":16409:16415   */\n      dup5\n        /* \"#utility.yul\":16405:16427   */\n      and\n        /* \"#utility.yul\":16455:16492   */\n      tag_378\n        /* \"#utility.yul\":16487:16491   */\n      dup7\n        /* \"#utility.yul\":16455:16492   */\n      tag_186\n      jump\t// in\n    tag_378:\n        /* \"#utility.yul\":16514:16515   */\n      0x00\n        /* \"#utility.yul\":16528:16736   */\n    tag_379:\n        /* \"#utility.yul\":16542:16549   */\n      dup3\n        /* \"#utility.yul\":16539:16540   */\n      dup2\n        /* \"#utility.yul\":16536:16550   */\n      lt\n        /* \"#utility.yul\":16528:16736   */\n      iszero\n      tag_381\n      jumpi\n        /* \"#utility.yul\":16621:16630   */\n      dup5\n        /* \"#utility.yul\":16616:16619   */\n      dup10\n        /* \"#utility.yul\":16612:16631   */\n      add\n        /* \"#utility.yul\":16606:16632   */\n      mload\n        /* \"#utility.yul\":16598:16604   */\n      dup3\n        /* \"#utility.yul\":16591:16633   */\n      sstore\n        /* \"#utility.yul\":16672:16673   */\n      0x01\n        /* \"#utility.yul\":16664:16670   */\n      dup3\n        /* \"#utility.yul\":16660:16674   */\n      add\n        /* \"#utility.yul\":16650:16674   */\n      swap2\n      pop\n        /* \"#utility.yul\":16719:16721   */\n      0x20\n        /* \"#utility.yul\":16708:16717   */\n      dup6\n        /* \"#utility.yul\":16704:16722   */\n      add\n        /* \"#utility.yul\":16691:16722   */\n      swap5\n      pop\n        /* \"#utility.yul\":16565:16569   */\n      0x20\n        /* \"#utility.yul\":16562:16563   */\n      dup2\n        /* \"#utility.yul\":16558:16570   */\n      add\n        /* \"#utility.yul\":16553:16570   */\n      swap1\n      pop\n        /* \"#utility.yul\":16528:16736   */\n      jump(tag_379)\n    tag_381:\n        /* \"#utility.yul\":16764:16770   */\n      dup7\n        /* \"#utility.yul\":16755:16762   */\n      dup4\n        /* \"#utility.yul\":16752:16771   */\n      lt\n        /* \"#utility.yul\":16749:16928   */\n      iszero\n      tag_382\n      jumpi\n        /* \"#utility.yul\":16822:16831   */\n      dup5\n        /* \"#utility.yul\":16817:16820   */\n      dup10\n        /* \"#utility.yul\":16813:16832   */\n      add\n        /* \"#utility.yul\":16807:16833   */\n      mload\n        /* \"#utility.yul\":16865:16913   */\n      tag_383\n        /* \"#utility.yul\":16907:16911   */\n      0x1f\n        /* \"#utility.yul\":16899:16905   */\n      dup10\n        /* \"#utility.yul\":16895:16912   */\n      and\n        /* \"#utility.yul\":16884:16893   */\n      dup3\n        /* \"#utility.yul\":16865:16913   */\n      tag_199\n      jump\t// in\n    tag_383:\n        /* \"#utility.yul\":16857:16863   */\n      dup4\n        /* \"#utility.yul\":16850:16914   */\n      sstore\n        /* \"#utility.yul\":16772:16928   */\n      pop\n        /* \"#utility.yul\":16749:16928   */\n    tag_382:\n        /* \"#utility.yul\":16974:16975   */\n      0x01\n        /* \"#utility.yul\":16970:16971   */\n      0x02\n        /* \"#utility.yul\":16962:16968   */\n      dup9\n        /* \"#utility.yul\":16958:16972   */\n      mul\n        /* \"#utility.yul\":16954:16976   */\n      add\n        /* \"#utility.yul\":16948:16952   */\n      dup9\n        /* \"#utility.yul\":16941:16977   */\n      sstore\n        /* \"#utility.yul\":16376:16987   */\n      pop\n      pop\n      pop\n        /* \"#utility.yul\":16339:17226   */\n    tag_374:\n      pop\n        /* \"#utility.yul\":15929:17232   */\n      pop\n      pop\n      pop\n        /* \"#utility.yul\":15837:17232   */\n      pop\n      pop\n      jump\t// out\n        /* \"#utility.yul\":17238:17471   */\n    tag_134:\n        /* \"#utility.yul\":17277:17280   */\n      0x00\n        /* \"#utility.yul\":17300:17324   */\n      tag_385\n        /* \"#utility.yul\":17318:17323   */\n      dup3\n        /* \"#utility.yul\":17300:17324   */\n      tag_152\n      jump\t// in\n    tag_385:\n        /* \"#utility.yul\":17291:17324   */\n      swap2\n      pop\n        /* \"#utility.yul\":17346:17412   */\n      0xffffffffffffffffffffffffffffffffffffffffffffffffffffffffffffffff\n        /* \"#utility.yul\":17339:17344   */\n      dup3\n        /* \"#utility.yul\":17336:17413   */\n      sub\n        /* \"#utility.yul\":17333:17436   */\n      tag_386\n      jumpi\n        /* \"#utility.yul\":17416:17434   */\n      tag_387\n      tag_181\n      jump\t// in\n    tag_387:\n        /* \"#utility.yul\":17333:17436   */\n    tag_386:\n        /* \"#utility.yul\":17463:17464   */\n      0x01\n        /* \"#utility.yul\":17456:17461   */\n      dup3\n        /* \"#utility.yul\":17452:17465   */\n      add\n        /* \"#utility.yul\":17445:17465   */\n      swap1\n      pop\n        /* \"#utility.yul\":17238:17471   */\n      swap2\n      swap1\n      pop\n      jump\t// out\n        /* \"#utility.yul\":17477:17652   */\n    tag_201:\n        /* \"#utility.yul\":17617:17644   */\n      0x596f7520617265206e6f74206120636f6e7472696275746f7200000000000000\n        /* \"#utility.yul\":17613:17614   */\n      0x00\n        /* \"#utility.yul\":17605:17611   */\n      dup3\n        /* \"#utility.yul\":17601:17615   */\n      add\n        /* \"#utility.yul\":17594:17645   */\n      mstore\n        /* \"#utility.yul\":17477:17652   */\n      pop\n      jump\t// out\n        /* \"#utility.yul\":17658:18024   */\n    tag_202:\n        /* \"#utility.yul\":17800:17803   */\n      0x00\n        /* \"#utility.yul\":17821:17888   */\n      tag_390\n        /* \"#utility.yul\":17885:17887   */\n      0x19\n        /* \"#utility.yul\":17880:17883   */\n      dup4\n        /* \"#utility.yul\":17821:17888   */\n      tag_164\n      jump\t// in\n    tag_390:\n        /* \"#utility.yul\":17814:17888   */\n      swap2\n      pop\n        /* \"#utility.yul\":17897:17990   */\n      tag_391\n        /* \"#utility.yul\":17986:17989   */\n      dup3\n        /* \"#utility.yul\":17897:17990   */\n      tag_201\n      jump\t// in\n    tag_391:\n        /* \"#utility.yul\":18015:18017   */\n      0x20\n        /* \"#utility.yul\":18010:18013   */\n      dup3\n        /* \"#utility.yul\":18006:18018   */\n      add\n        /* \"#utility.yul\":17999:18018   */\n      swap1\n      pop\n        /* \"#utility.yul\":17658:18024   */\n      swap2\n      swap1\n      pop\n      jump\t// out\n        /* \"#utility.yul\":18030:18449   */\n    tag_141:\n        /* \"#utility.yul\":18196:18200   */\n      0x00\n        /* \"#utility.yul\":18234:18236   */\n      0x20\n        /* \"#utility.yul\":18223:18232   */\n      dup3\n        /* \"#utility.yul\":18219:18237   */\n      add\n        /* \"#utility.yul\":18211:18237   */\n      swap1\n      pop\n        /* \"#utility.yul\":18283:18292   */\n      dup2\n        /* \"#utility.yul\":18277:18281   */\n      dup2\n        /* \"#utility.yul\":18273:18293   */\n      sub\n        /* \"#utility.yul\":18269:18270   */\n      0x00\n        /* \"#utility.yul\":18258:18267   */\n      dup4\n        /* \"#utility.yul\":18254:18271   */\n      add\n        /* \"#utility.yul\":18247:18294   */\n      mstore\n        /* \"#utility.yul\":18311:18442   */\n      tag_393\n        /* \"#utility.yul\":18437:18441   */\n      dup2\n        /* \"#utility.yul\":18311:18442   */\n      tag_202\n      jump\t// in\n    tag_393:\n        /* \"#utility.yul\":18303:18442   */\n      swap1\n      pop\n        /* \"#utility.yul\":18030:18449   */\n      swap2\n      swap1\n      pop\n      jump\t// out\n        /* \"#utility.yul\":18455:18680   */\n    tag_203:\n        /* \"#utility.yul\":18595:18629   */\n      0x596f75206861766520616c726561647920617070726f76656420746869732072\n        /* \"#utility.yul\":18591:18592   */\n      0x00\n        /* \"#utility.yul\":18583:18589   */\n      dup3\n        /* \"#utility.yul\":18579:18593   */\n      add\n        /* \"#utility.yul\":18572:18630   */\n      mstore\n        /* \"#utility.yul\":18664:18672   */\n      0x6571756573740000000000000000000000000000000000000000000000000000\n        /* \"#utility.yul\":18659:18661   */\n      0x20\n        /* \"#utility.yul\":18651:18657   */\n      dup3\n        /* \"#utility.yul\":18647:18662   */\n      add\n        /* \"#utility.yul\":18640:18673   */\n      mstore\n        /* \"#utility.yul\":18455:18680   */\n      pop\n      jump\t// out\n        /* \"#utility.yul\":18686:19052   */\n    tag_204:\n        /* \"#utility.yul\":18828:18831   */\n      0x00\n        /* \"#utility.yul\":18849:18916   */\n      tag_396\n        /* \"#utility.yul\":18913:18915   */\n      0x26\n        /* \"#utility.yul\":18908:18911   */\n      dup4\n        /* \"#utility.yul\":18849:18916   */\n      tag_164\n      jump\t// in\n    tag_396:\n        /* \"#utility.yul\":18842:18916   */\n      swap2\n      pop\n        /* \"#utility.yul\":18925:19018   */\n      tag_397\n        /* \"#utility.yul\":19014:19017   */\n      dup3\n        /* \"#utility.yul\":18925:19018   */\n      tag_203\n      jump\t// in\n    tag_397:\n        /* \"#utility.yul\":19043:19045   */\n      0x40\n        /* \"#utility.yul\":19038:19041   */\n      dup3\n        /* \"#utility.yul\":19034:19046   */\n      add\n        /* \"#utility.yul\":19027:19046   */\n      swap1\n      pop\n        /* \"#utility.yul\":18686:19052   */\n      swap2\n      swap1\n      pop\n      jump\t// out\n        /* \"#utility.yul\":19058:19477   */\n    tag_144:\n        /* \"#utility.yul\":19224:19228   */\n      0x00\n        /* \"#utility.yul\":19262:19264   */\n      0x20\n        /* \"#utility.yul\":19251:19260   */\n      dup3\n        /* \"#utility.yul\":19247:19265   */\n      add\n        /* \"#utility.yul\":19239:19265   */\n      swap1\n      pop\n        /* \"#utility.yul\":19311:19320   */\n      dup2\n        /* \"#utility.yul\":19305:19309   */\n      dup2\n        /* \"#utility.yul\":19301:19321   */\n      sub\n        /* \"#utility.yul\":19297:19298   */\n      0x00\n        /* \"#utility.yul\":19286:19295   */\n      dup4\n        /* \"#utility.yul\":19282:19299   */\n      add\n        /* \"#utility.yul\":19275:19322   */\n      mstore\n        /* \"#utility.yul\":19339:19470   */\n      tag_399\n        /* \"#utility.yul\":19465:19469   */\n      dup2\n        /* \"#utility.yul\":19339:19470   */\n      tag_204\n      jump\t// in\n    tag_399:\n        /* \"#utility.yul\":19331:19470   */\n      swap1\n      pop\n        /* \"#utility.yul\":19058:19477   */\n      swap2\n      swap1\n      pop\n      jump\t// out\n\n    auxdata: 0xa26469706673582212203a5c06a7b1517e91bd37c0f77a10811930dc9a3d2d431b44a57b1de1a6b0841364736f6c634300081c0033\n}\n","bytecode":{"linkReferences":{},"object":"608060405234801561000f575f5ffd5b506040516117ec3803806117ec83398181016040528101906100319190610110565b8060025f6101000a81548173ffffffffffffffffffffffffffffffffffffffff021916908373ffffffffffffffffffffffffffffffffffffffff16021790555081600381905550505061014e565b5f5ffd5b5f819050919050565b61009581610083565b811461009f575f5ffd5b50565b5f815190506100b08161008c565b92915050565b5f73ffffffffffffffffffffffffffffffffffffffff82169050919050565b5f6100df826100b6565b9050919050565b6100ef816100d5565b81146100f9575f5ffd5b50565b5f8151905061010a816100e6565b92915050565b5f5f604083850312156101265761012561007f565b5b5f610133858286016100a2565b9250506020610144858286016100fc565b9150509250929050565b6116918061015b5f395ff3fe6080604052600436106100c1575f3560e01c806381d12c581161007e578063937e09b111610058578063937e09b114610279578063ab2850da146102a3578063d7bb99ba146102df578063d7d1bbdb146102e9576100c1565b806381d12c58146101e757806382fde093146102275780638a9cfd5514610251576100c1565b806303441006146100c55780630a144391146100ed5780633410452a146101295780634051ddac14610153578063481c6a75146101815780636ddfaed1146101ab575b5f5ffd5b3480156100d0575f5ffd5b506100eb60048036038101906100e69190610c70565b610311565b005b3480156100f8575f5ffd5b50610113600480360381019061010e9190610cf5565b610507565b6040516101209190610d3a565b60405180910390f35b348015610134575f5ffd5b5061013d610524565b60405161014a9190610d62565b60405180910390f35b34801561015e575f5ffd5b50610167610530565b604051610178959493929190610d8a565b60405180910390f35b34801561018c575f5ffd5b50610195610575565b6040516101a29190610ddb565b60405180910390f35b3480156101b6575f5ffd5b506101d160048036038101906101cc9190610c70565b61059a565b6040516101de9190610e64565b60405180910390f35b3480156101f2575f5ffd5b5061020d60048036038101906102089190610c70565b61069a565b60405161021e959493929190610ea4565b60405180910390f35b348015610232575f5ffd5b5061023b61078d565b6040516102489190610d62565b60405180910390f35b34801561025c575f5ffd5b5061027760048036038101906102729190610f87565b610793565b005b348015610284575f5ffd5b5061028d61092b565b60405161029a9190610d62565b60405180910390f35b3480156102ae575f5ffd5b506102c960048036038101906102c49190610ff8565b610931565b6040516102d69190610d3a565b60405180910390f35b6102e761095a565b005b3480156102f4575f5ffd5b5061030f600480360381019061030a9190610c70565b610a2d565b005b60025f9054906101000a900473ffffffffffffffffffffffffffffffffffffffff1673ffffffffffffffffffffffffffffffffffffffff163373ffffffffffffffffffffffffffffffffffffffff1614610369575f5ffd5b8060018054905081106103b1576040517f08c379a00000000000000000000000000000000000000000000000000000000081526004016103a890611080565b60405180910390fd5b5f600183815481106103c6576103c561109e565b5b905f5260205f20906004020190508060020160149054906101000a900460ff1615610426576040517f08c379a000000000000000000000000000000000000000000000000000000000815260040161041d90611115565b60405180910390fd5b6002600554610435919061118d565b81600301541161047a576040517f08c379a000000000000000000000000000000000000000000000000000000000815260040161047190611207565b60405180910390fd5b806002015f9054906101000a900473ffffffffffffffffffffffffffffffffffffffff1673ffffffffffffffffffffffffffffffffffffffff166108fc826001015490811502906040515f60405180830381858888f193505050501580156104e4573d5f5f3e3d5ffd5b5060018160020160146101000a81548160ff021916908315150217905550505050565b6004602052805f5260405f205f915054906101000a900460ff1681565b5f600180549050905090565b5f5f5f5f5f6003544760018054905060055460025f9054906101000a900473ffffffffffffffffffffffffffffffffffffffff16945094509450945094509091929394565b60025f9054906101000a900473ffffffffffffffffffffffffffffffffffffffff1681565b60608160018054905081106105e4576040517f08c379a00000000000000000000000000000000000000000000000000000000081526004016105db90611080565b60405180910390fd5b5f600184815481106105f9576105f861109e565b5b905f5260205f2090600402019050805f01805461061590611252565b80601f016020809104026020016040519081016040528092919081815260200182805461064190611252565b801561068c5780601f106106635761010080835404028352916020019161068c565b820191905f5260205f20905b81548152906001019060200180831161066f57829003601f168201915b505050505092505050919050565b600181815481106106a9575f80fd5b905f5260205f2090600402015f91509050805f0180546106c890611252565b80601f01602080910402602001604051908101604052809291908181526020018280546106f490611252565b801561073f5780601f106107165761010080835404028352916020019161073f565b820191905f5260205f20905b81548152906001019060200180831161072257829003601f168201915b505050505090806001015490806002015f9054906101000a900473ffffffffffffffffffffffffffffffffffffffff16908060020160149054906101000a900460ff16908060030154905085565b60055481565b60025f9054906101000a900473ffffffffffffffffffffffffffffffffffffffff1673ffffffffffffffffffffffffffffffffffffffff163373ffffffffffffffffffffffffffffffffffffffff16146107eb575f5ffd5b60016040518060a0016040528086868080601f0160208091040260200160405190810160405280939291908181526020018383808284375f81840152601f19601f8201169050808301925050505050505081526020018481526020018373ffffffffffffffffffffffffffffffffffffffff1681526020015f151581526020015f815250908060018154018082558091505060019003905f5260205f2090600402015f909190919091505f820151815f0190816108a8919061144f565b50602082015181600101556040820151816002015f6101000a81548173ffffffffffffffffffffffffffffffffffffffff021916908373ffffffffffffffffffffffffffffffffffffffff16021790555060608201518160020160146101000a81548160ff02191690831515021790555060808201518160030155505050505050565b60035481565b5f602052815f5260405f20602052805f5260405f205f915091509054906101000a900460ff1681565b60025f9054906101000a900473ffffffffffffffffffffffffffffffffffffffff1673ffffffffffffffffffffffffffffffffffffffff163373ffffffffffffffffffffffffffffffffffffffff16036109b2575f5ffd5b60035434116109bf575f5ffd5b600160045f3373ffffffffffffffffffffffffffffffffffffffff1673ffffffffffffffffffffffffffffffffffffffff1681526020019081526020015f205f6101000a81548160ff02191690831515021790555060055f815480929190610a269061151e565b9190505550565b806001805490508110610a75576040517f08c379a0000000000000000000000000000000000000000000000000000000008152600401610a6c90611080565b60405180910390fd5b60045f3373ffffffffffffffffffffffffffffffffffffffff1673ffffffffffffffffffffffffffffffffffffffff1681526020019081526020015f205f9054906101000a900460ff16610afe576040517f08c379a0000000000000000000000000000000000000000000000000000000008152600401610af5906115af565b60405180910390fd5b5f5f8381526020019081526020015f205f3373ffffffffffffffffffffffffffffffffffffffff1673ffffffffffffffffffffffffffffffffffffffff1681526020019081526020015f205f9054906101000a900460ff1615610b96576040517f08c379a0000000000000000000000000000000000000000000000000000000008152600401610b8d9061163d565b60405180910390fd5b60015f5f8481526020019081526020015f205f3373ffffffffffffffffffffffffffffffffffffffff1673ffffffffffffffffffffffffffffffffffffffff1681526020019081526020015f205f6101000a81548160ff02191690831515021790555060018281548110610c0d57610c0c61109e565b5b905f5260205f2090600402016003015f815480929190610c2c9061151e565b91905055505050565b5f5ffd5b5f5ffd5b5f819050919050565b610c4f81610c3d565b8114610c59575f5ffd5b50565b5f81359050610c6a81610c46565b92915050565b5f60208284031215610c8557610c84610c35565b5b5f610c9284828501610c5c565b91505092915050565b5f73ffffffffffffffffffffffffffffffffffffffff82169050919050565b5f610cc482610c9b565b9050919050565b610cd481610cba565b8114610cde575f5ffd5b50565b5f81359050610cef81610ccb565b92915050565b5f60208284031215610d0a57610d09610c35565b5b5f610d1784828501610ce1565b91505092915050565b5f8115159050919050565b610d3481610d20565b82525050565b5f602082019050610d4d5f830184610d2b565b92915050565b610d5c81610c3d565b82525050565b5f602082019050610d755f830184610d53565b92915050565b610d8481610cba565b82525050565b5f60a082019050610d9d5f830188610d53565b610daa6020830187610d53565b610db76040830186610d53565b610dc46060830185610d53565b610dd16080830184610d7b565b9695505050505050565b5f602082019050610dee5f830184610d7b565b92915050565b5f81519050919050565b5f82825260208201905092915050565b8281835e5f83830152505050565b5f601f19601f8301169050919050565b5f610e3682610df4565b610e408185610dfe565b9350610e50818560208601610e0e565b610e5981610e1c565b840191505092915050565b5f6020820190508181035f830152610e7c8184610e2c565b905092915050565b5f610e8e82610c9b565b9050919050565b610e9e81610e84565b82525050565b5f60a0820190508181035f830152610ebc8188610e2c565b9050610ecb6020830187610d53565b610ed86040830186610e95565b610ee56060830185610d2b565b610ef26080830184610d53565b9695505050505050565b5f5ffd5b5f5ffd5b5f5ffd5b5f5f83601f840112610f1d57610f1c610efc565b5b8235905067ffffffffffffffff811115610f3a57610f39610f00565b5b602083019150836001820283011115610f5657610f55610f04565b5b9250929050565b610f6681610e84565b8114610f70575f5ffd5b50565b5f81359050610f8181610f5d565b92915050565b5f5f5f5f60608587031215610f9f57610f9e610c35565b5b5f85013567ffffffffffffffff811115610fbc57610fbb610c39565b5b610fc887828801610f08565b94509450506020610fdb87828801610c5c565b9250506040610fec87828801610f73565b91505092959194509250565b5f5f6040838503121561100e5761100d610c35565b5b5f61101b85828601610c5c565b925050602061102c85828601610ce1565b9150509250929050565b7f496e76616c6964207265717565737420696e64657800000000000000000000005f82015250565b5f61106a601583610dfe565b915061107582611036565b602082019050919050565b5f6020820190508181035f8301526110978161105e565b9050919050565b7f4e487b71000000000000000000000000000000000000000000000000000000005f52603260045260245ffd5b7f5265717565737420697320616c726561647920636f6d706c65746521000000005f82015250565b5f6110ff601c83610dfe565b915061110a826110cb565b602082019050919050565b5f6020820190508181035f83015261112c816110f3565b9050919050565b7f4e487b71000000000000000000000000000000000000000000000000000000005f52601260045260245ffd5b7f4e487b71000000000000000000000000000000000000000000000000000000005f52601160045260245ffd5b5f61119782610c3d565b91506111a283610c3d565b9250826111b2576111b1611133565b5b828204905092915050565b7f4e6f7420656e6f75676820617070726f76616c7320746f2070726f636573732e5f82015250565b5f6111f1602083610dfe565b91506111fc826111bd565b602082019050919050565b5f6020820190508181035f83015261121e816111e5565b9050919050565b7f4e487b71000000000000000000000000000000000000000000000000000000005f52602260045260245ffd5b5f600282049050600182168061126957607f821691505b60208210810361127c5761127b611225565b5b50919050565b7f4e487b71000000000000000000000000000000000000000000000000000000005f52604160045260245ffd5b5f819050815f5260205f209050919050565b5f6020601f8301049050919050565b5f82821b905092915050565b5f6008830261130b7fffffffffffffffffffffffffffffffffffffffffffffffffffffffffffffffff826112d0565b61131586836112d0565b95508019841693508086168417925050509392505050565b5f819050919050565b5f61135061134b61134684610c3d565b61132d565b610c3d565b9050919050565b5f819050919050565b61136983611336565b61137d61137582611357565b8484546112dc565b825550505050565b5f5f905090565b611394611385565b61139f818484611360565b505050565b5b818110156113c2576113b75f8261138c565b6001810190506113a5565b5050565b601f821115611407576113d8816112af565b6113e1846112c1565b810160208510156113f0578190505b6114046113fc856112c1565b8301826113a4565b50505b505050565b5f82821c905092915050565b5f6114275f198460080261140c565b1980831691505092915050565b5f61143f8383611418565b9150826002028217905092915050565b61145882610df4565b67ffffffffffffffff81111561147157611470611282565b5b61147b8254611252565b6114868282856113c6565b5f60209050601f8311600181146114b7575f84156114a5578287015190505b6114af8582611434565b865550611516565b601f1984166114c5866112af565b5f5b828110156114ec578489015182556001820191506020850194506020810190506114c7565b868310156115095784890151611505601f891682611418565b8355505b6001600288020188555050505b505050505050565b5f61152882610c3d565b91507fffffffffffffffffffffffffffffffffffffffffffffffffffffffffffffffff820361155a57611559611160565b5b600182019050919050565b7f596f7520617265206e6f74206120636f6e7472696275746f72000000000000005f82015250565b5f611599601983610dfe565b91506115a482611565565b602082019050919050565b5f6020820190508181035f8301526115c68161158d565b9050919050565b7f596f75206861766520616c726561647920617070726f766564207468697320725f8201527f6571756573740000000000000000000000000000000000000000000000000000602082015250565b5f611627602683610dfe565b9150611632826115cd565b604082019050919050565b5f6020820190508181035f8301526116548161161b565b905091905056fea26469706673582212203a5c06a7b1517e91bd37c0f77a10811930dc9a3d2d431b44a57b1de1a6b0841364736f6c634300081c0033","opcodes":"PUSH1 0x80 PUSH1 0x40 MSTORE CALLVALUE DUP1 ISZERO PUSH2 0xF JUMPI PUSH0 PUSH0 REVERT JUMPDEST POP PUSH1 0x40 MLOAD PUSH2 0x17EC CODESIZE SUB DUP1 PUSH2 0x17EC DUP4 CODECOPY DUP2 DUP2 ADD PUSH1 0x40 MSTORE DUP2 ADD SWAP1 PUSH2 0x31 SWAP2 SWAP1 PUSH2 0x110 JUMP JUMPDEST DUP1 PUSH1 0x2 PUSH0 PUSH2 0x100 EXP DUP2 SLOAD DUP2 PUSH20 0xFFFFFFFFFFFFFFFFFFFFFFFFFFFFFFFFFFFFFFFF MUL NOT AND SWAP1 DUP4 PUSH20 0xFFFFFFFFFFFFFFFFFFFFFFFFFFFFFFFFFFFFFFFF AND MUL OR SWAP1 SSTORE POP DUP2 PUSH1 0x3 DUP2 SWAP1 SSTORE POP POP POP PUSH2 0x14E JUMP JUMPDEST PUSH0 PUSH0 REVERT JUMPDEST PUSH0 DUP2 SWAP1 POP SWAP2 SWAP1 POP JUMP JUMPDEST PUSH2 0x95 DUP2 PUSH2 0x83 JUMP JUMPDEST DUP2 EQ PUSH2 0x9F JUMPI PUSH0 PUSH0 REVERT JUMPDEST POP JUMP JUMPDEST PUSH0 DUP2 MLOAD SWAP1 POP PUSH2 0xB0 DUP2 PUSH2 0x8C JUMP JUMPDEST SWAP3 SWAP2 POP POP JUMP JUMPDEST PUSH0 PUSH20 0xFFFFFFFFFFFFFFFFFFFFFFFFFFFFFFFFFFFFFFFF DUP3 AND SWAP1 POP SWAP2 SWAP1 POP JUMP JUMPDEST PUSH0 PUSH2 0xDF DUP3 PUSH2 0xB6 JUMP JUMPDEST SWAP1 POP SWAP2 SWAP1 POP JUMP JUMPDEST PUSH2 0xEF DUP2 PUSH2 0xD5 JUMP JUMPDEST DUP2 EQ PUSH2 0xF9 JUMPI PUSH0 PUSH0 REVERT JUMPDEST POP JUMP JUMPDEST PUSH0 DUP2 MLOAD SWAP1 POP PUSH2 0x10A DUP2 PUSH2 0xE6 JUMP JUMPDEST SWAP3 SWAP2 POP POP JUMP JUMPDEST PUSH0 PUSH0 PUSH1 0x40 DUP4 DUP6 SUB SLT ISZERO PUSH2 0x126 JUMPI PUSH2 0x125 PUSH2 0x7F JUMP JUMPDEST JUMPDEST PUSH0 PUSH2 0x133 DUP6 DUP3 DUP7 ADD PUSH2 0xA2 JUMP JUMPDEST SWAP3 POP POP PUSH1 0x20 PUSH2 0x144 DUP6 DUP3 DUP7 ADD PUSH2 0xFC JUMP JUMPDEST SWAP2 POP POP SWAP3 POP SWAP3 SWAP1 POP JUMP JUMPDEST PUSH2 0x1691 DUP1 PUSH2 0x15B PUSH0 CODECOPY PUSH0 RETURN INVALID PUSH1 0x80 PUSH1 0x40 MSTORE PUSH1 0x4 CALLDATASIZE LT PUSH2 0xC1 JUMPI PUSH0 CALLDATALOAD PUSH1 0xE0 SHR DUP1 PUSH4 0x81D12C58 GT PUSH2 0x7E JUMPI DUP1 PUSH4 0x937E09B1 GT PUSH2 0x58 JUMPI DUP1 PUSH4 0x937E09B1 EQ PUSH2 0x279 JUMPI DUP1 PUSH4 0xAB2850DA EQ PUSH2 0x2A3 JUMPI DUP1 PUSH4 0xD7BB99BA EQ PUSH2 0x2DF JUMPI DUP1 PUSH4 0xD7D1BBDB EQ PUSH2 0x2E9 JUMPI PUSH2 0xC1 JUMP JUMPDEST DUP1 PUSH4 0x81D12C58 EQ PUSH2 0x1E7 JUMPI DUP1 PUSH4 0x82FDE093 EQ PUSH2 0x227 JUMPI DUP1 PUSH4 0x8A9CFD55 EQ PUSH2 0x251 JUMPI PUSH2 0xC1 JUMP JUMPDEST DUP1 PUSH4 0x3441006 EQ PUSH2 0xC5 JUMPI DUP1 PUSH4 0xA144391 EQ PUSH2 0xED JUMPI DUP1 PUSH4 0x3410452A EQ PUSH2 0x129 JUMPI DUP1 PUSH4 0x4051DDAC EQ PUSH2 0x153 JUMPI DUP1 PUSH4 0x481C6A75 EQ PUSH2 0x181 JUMPI DUP1 PUSH4 0x6DDFAED1 EQ PUSH2 0x1AB JUMPI JUMPDEST PUSH0 PUSH0 REVERT JUMPDEST CALLVALUE DUP1 ISZERO PUSH2 0xD0 JUMPI PUSH0 PUSH0 REVERT JUMPDEST POP PUSH2 0xEB PUSH1 0x4 DUP1 CALLDATASIZE SUB DUP2 ADD SWAP1 PUSH2 0xE6 SWAP2 SWAP1 PUSH2 0xC70 JUMP JUMPDEST PUSH2 0x311 JUMP JUMPDEST STOP JUMPDEST CALLVALUE DUP1 ISZERO PUSH2 0xF8 JUMPI PUSH0 PUSH0 REVERT JUMPDEST POP PUSH2 0x113 PUSH1 0x4 DUP1 CALLDATASIZE SUB DUP2 ADD SWAP1 PUSH2 0x10E SWAP2 SWAP1 PUSH2 0xCF5 JUMP JUMPDEST PUSH2 0x507 JUMP JUMPDEST PUSH1 0x40 MLOAD PUSH2 0x120 SWAP2 SWAP1 PUSH2 0xD3A JUMP JUMPDEST PUSH1 0x40 MLOAD DUP1 SWAP2 SUB SWAP1 RETURN JUMPDEST CALLVALUE DUP1 ISZERO PUSH2 0x134 JUMPI PUSH0 PUSH0 REVERT JUMPDEST POP PUSH2 0x13D PUSH2 0x524 JUMP JUMPDEST PUSH1 0x40 MLOAD PUSH2 0x14A SWAP2 SWAP1 PUSH2 0xD62 JUMP JUMPDEST PUSH1 0x40 MLOAD DUP1 SWAP2 SUB SWAP1 RETURN JUMPDEST CALLVALUE DUP1 ISZERO PUSH2 0x15E JUMPI PUSH0 PUSH0 REVERT JUMPDEST POP PUSH2 0x167 PUSH2 0x530 JUMP JUMPDEST PUSH1 0x40 MLOAD PUSH2 0x178 SWAP6 SWAP5 SWAP4 SWAP3 SWAP2 SWAP1 PUSH2 0xD8A JUMP JUMPDEST PUSH1 0x40 MLOAD DUP1 SWAP2 SUB SWAP1 RETURN JUMPDEST CALLVALUE DUP1 ISZERO PUSH2 0x18C JUMPI PUSH0 PUSH0 REVERT JUMPDEST POP PUSH2 0x195 PUSH2 0x575 JUMP JUMPDEST PUSH1 0x40 MLOAD PUSH2 0x1A2 SWAP2 SWAP1 PUSH2 0xDDB JUMP JUMPDEST PUSH1 0x40 MLOAD DUP1 SWAP2 SUB SWAP1 RETURN JUMPDEST CALLVALUE DUP1 ISZERO PUSH2 0x1B6 JUMPI PUSH0 PUSH0 REVERT JUMPDEST POP PUSH2 0x1D1 PUSH1 0x4 DUP1 CALLDATASIZE SUB DUP2 ADD SWAP1 PUSH2 0x1CC SWAP2 SWAP1 PUSH2 0xC70 JUMP JUMPDEST PUSH2 0x59A JUMP JUMPDEST PUSH1 0x40 MLOAD PUSH2 0x1DE SWAP2 SWAP1 PUSH2 0xE64 JUMP JUMPDEST PUSH1 0x40 MLOAD DUP1 SWAP2 SUB SWAP1 RETURN JUMPDEST CALLVALUE DUP1 ISZERO PUSH2 0x1F2 JUMPI PUSH0 PUSH0 REVERT JUMPDEST POP PUSH2 0x20D PUSH1 0x4 DUP1 CALLDATASIZE SUB DUP2 ADD SWAP1 PUSH2 0x208 SWAP2 SWAP1 PUSH2 0xC70 JUMP JUMPDEST PUSH2 0x69A JUMP JUMPDEST PUSH1 0x40 MLOAD PUSH2 0x21E SWAP6 SWAP5 SWAP4 SWAP3 SWAP2 SWAP1 PUSH2 0xEA4 JUMP JUMPDEST PUSH1 0x40 MLOAD DUP1 SWAP2 SUB SWAP1 RETURN JUMPDEST CALLVALUE DUP1 ISZERO PUSH2 0x232 JUMPI PUSH0 PUSH0 REVERT JUMPDEST POP PUSH2 0x23B PUSH2 0x78D JUMP JUMPDEST PUSH1 0x40 MLOAD PUSH2 0x248 SWAP2 SWAP1 PUSH2 0xD62 JUMP JUMPDEST PUSH1 0x40 MLOAD DUP1 SWAP2 SUB SWAP1 RETURN JUMPDEST CALLVALUE DUP1 ISZERO PUSH2 0x25C JUMPI PUSH0 PUSH0 REVERT JUMPDEST POP PUSH2 0x277 PUSH1 0x4 DUP1 CALLDATASIZE SUB DUP2 ADD SWAP1 PUSH2 0x272 SWAP2 SWAP1 PUSH2 0xF87 JUMP JUMPDEST PUSH2 0x793 JUMP JUMPDEST STOP JUMPDEST CALLVALUE DUP1 ISZERO PUSH2 0x284 JUMPI PUSH0 PUSH0 REVERT JUMPDEST POP PUSH2 0x28D PUSH2 0x92B JUMP JUMPDEST PUSH1 0x40 MLOAD PUSH2 0x29A SWAP2 SWAP1 PUSH2 0xD62 JUMP JUMPDEST PUSH1 0x40 MLOAD DUP1 SWAP2 SUB SWAP1 RETURN JUMPDEST CALLVALUE DUP1 ISZERO PUSH2 0x2AE JUMPI PUSH0 PUSH0 REVERT JUMPDEST POP PUSH2 0x2C9 PUSH1 0x4 DUP1 CALLDATASIZE SUB DUP2 ADD SWAP1 PUSH2 0x2C4 SWAP2 SWAP1 PUSH2 0xFF8 JUMP JUMPDEST PUSH2 0x931 JUMP JUMPDEST PUSH1 0x40 MLOAD PUSH2 0x2D6 SWAP2 SWAP1 PUSH2 0xD3A JUMP JUMPDEST PUSH1 0x40 MLOAD DUP1 SWAP2 SUB SWAP1 RETURN JUMPDEST PUSH2 0x2E7 PUSH2 0x95A JUMP JUMPDEST STOP JUMPDEST CALLVALUE DUP1 ISZERO PUSH2 0x2F4 JUMPI PUSH0 PUSH0 REVERT JUMPDEST POP PUSH2 0x30F PUSH1 0x4 DUP1 CALLDATASIZE SUB DUP2 ADD SWAP1 PUSH2 0x30A SWAP2 SWAP1 PUSH2 0xC70 JUMP JUMPDEST PUSH2 0xA2D JUMP JUMPDEST STOP JUMPDEST PUSH1 0x2 PUSH0 SWAP1 SLOAD SWAP1 PUSH2 0x100 EXP SWAP1 DIV PUSH20 0xFFFFFFFFFFFFFFFFFFFFFFFFFFFFFFFFFFFFFFFF AND PUSH20 0xFFFFFFFFFFFFFFFFFFFFFFFFFFFFFFFFFFFFFFFF AND CALLER PUSH20 0xFFFFFFFFFFFFFFFFFFFFFFFFFFFFFFFFFFFFFFFF AND EQ PUSH2 0x369 JUMPI PUSH0 PUSH0 REVERT JUMPDEST DUP1 PUSH1 0x1 DUP1 SLOAD SWAP1 POP DUP2 LT PUSH2 0x3B1 JUMPI PUSH1 0x40 MLOAD PUSH32 0x8C379A000000000000000000000000000000000000000000000000000000000 DUP2 MSTORE PUSH1 0x4 ADD PUSH2 0x3A8 SWAP1 PUSH2 0x1080 JUMP JUMPDEST PUSH1 0x40 MLOAD DUP1 SWAP2 SUB SWAP1 REVERT JUMPDEST PUSH0 PUSH1 0x1 DUP4 DUP2 SLOAD DUP2 LT PUSH2 0x3C6 JUMPI PUSH2 0x3C5 PUSH2 0x109E JUMP JUMPDEST JUMPDEST SWAP1 PUSH0 MSTORE PUSH1 0x20 PUSH0 KECCAK256 SWAP1 PUSH1 0x4 MUL ADD SWAP1 POP DUP1 PUSH1 0x2 ADD PUSH1 0x14 SWAP1 SLOAD SWAP1 PUSH2 0x100 EXP SWAP1 DIV PUSH1 0xFF AND ISZERO PUSH2 0x426 JUMPI PUSH1 0x40 MLOAD PUSH32 0x8C379A000000000000000000000000000000000000000000000000000000000 DUP2 MSTORE PUSH1 0x4 ADD PUSH2 0x41D SWAP1 PUSH2 0x1115 JUMP JUMPDEST PUSH1 0x40 MLOAD DUP1 SWAP2 SUB SWAP1 REVERT JUMPDEST PUSH1 0x2 PUSH1 0x5 SLOAD PUSH2 0x435 SWAP2 SWAP1 PUSH2 0x118D JUMP JUMPDEST DUP2 PUSH1 0x3 ADD SLOAD GT PUSH2 0x47A JUMPI PUSH1 0x40 MLOAD PUSH32 0x8C379A000000000000000000000000000000000000000000000000000000000 DUP2 MSTORE PUSH1 0x4 ADD PUSH2 0x471 SWAP1 PUSH2 0x1207 JUMP JUMPDEST PUSH1 0x40 MLOAD DUP1 SWAP2 SUB SWAP1 REVERT JUMPDEST DUP1 PUSH1 0x2 ADD PUSH0 SWAP1 SLOAD SWAP1 PUSH2 0x100 EXP SWAP1 DIV PUSH20 0xFFFFFFFFFFFFFFFFFFFFFFFFFFFFFFFFFFFFFFFF AND PUSH20 0xFFFFFFFFFFFFFFFFFFFFFFFFFFFFFFFFFFFFFFFF AND PUSH2 0x8FC DUP3 PUSH1 0x1 ADD SLOAD SWAP1 DUP2 ISZERO MUL SWAP1 PUSH1 0x40 MLOAD PUSH0 PUSH1 0x40 MLOAD DUP1 DUP4 SUB DUP2 DUP6 DUP9 DUP9 CALL SWAP4 POP POP POP POP ISZERO DUP1 ISZERO PUSH2 0x4E4 JUMPI RETURNDATASIZE PUSH0 PUSH0 RETURNDATACOPY RETURNDATASIZE PUSH0 REVERT JUMPDEST POP PUSH1 0x1 DUP2 PUSH1 0x2 ADD PUSH1 0x14 PUSH2 0x100 EXP DUP2 SLOAD DUP2 PUSH1 0xFF MUL NOT AND SWAP1 DUP4 ISZERO ISZERO MUL OR SWAP1 SSTORE POP POP POP POP JUMP JUMPDEST PUSH1 0x4 PUSH1 0x20 MSTORE DUP1 PUSH0 MSTORE PUSH1 0x40 PUSH0 KECCAK256 PUSH0 SWAP2 POP SLOAD SWAP1 PUSH2 0x100 EXP SWAP1 DIV PUSH1 0xFF AND DUP2 JUMP JUMPDEST PUSH0 PUSH1 0x1 DUP1 SLOAD SWAP1 POP SWAP1 POP SWAP1 JUMP JUMPDEST PUSH0 PUSH0 PUSH0 PUSH0 PUSH0 PUSH1 0x3 SLOAD SELFBALANCE PUSH1 0x1 DUP1 SLOAD SWAP1 POP PUSH1 0x5 SLOAD PUSH1 0x2 PUSH0 SWAP1 SLOAD SWAP1 PUSH2 0x100 EXP SWAP1 DIV PUSH20 0xFFFFFFFFFFFFFFFFFFFFFFFFFFFFFFFFFFFFFFFF AND SWAP5 POP SWAP5 POP SWAP5 POP SWAP5 POP SWAP5 POP SWAP1 SWAP2 SWAP3 SWAP4 SWAP5 JUMP JUMPDEST PUSH1 0x2 PUSH0 SWAP1 SLOAD SWAP1 PUSH2 0x100 EXP SWAP1 DIV PUSH20 0xFFFFFFFFFFFFFFFFFFFFFFFFFFFFFFFFFFFFFFFF AND DUP2 JUMP JUMPDEST PUSH1 0x60 DUP2 PUSH1 0x1 DUP1 SLOAD SWAP1 POP DUP2 LT PUSH2 0x5E4 JUMPI PUSH1 0x40 MLOAD PUSH32 0x8C379A000000000000000000000000000000000000000000000000000000000 DUP2 MSTORE PUSH1 0x4 ADD PUSH2 0x5DB SWAP1 PUSH2 0x1080 JUMP JUMPDEST PUSH1 0x40 MLOAD DUP1 SWAP2 SUB SWAP1 REVERT JUMPDEST PUSH0 PUSH1 0x1 DUP5 DUP2 SLOAD DUP2 LT PUSH2 0x5F9 JUMPI PUSH2 0x5F8 PUSH2 0x109E JUMP JUMPDEST JUMPDEST SWAP1 PUSH0 MSTORE PUSH1 0x20 PUSH0 KECCAK256 SWAP1 PUSH1 0x4 MUL ADD SWAP1 POP DUP1 PUSH0 ADD DUP1 SLOAD PUSH2 0x615 SWAP1 PUSH2 0x1252 JUMP JUMPDEST DUP1 PUSH1 0x1F ADD PUSH1 0x20 DUP1 SWAP2 DIV MUL PUSH1 0x20 ADD PUSH1 0x40 MLOAD SWAP1 DUP2 ADD PUSH1 0x40 MSTORE DUP1 SWAP3 SWAP2 SWAP1 DUP2 DUP2 MSTORE PUSH1 0x20 ADD DUP3 DUP1 SLOAD PUSH2 0x641 SWAP1 PUSH2 0x1252 JUMP JUMPDEST DUP1 ISZERO PUSH2 0x68C JUMPI DUP1 PUSH1 0x1F LT PUSH2 0x663 JUMPI PUSH2 0x100 DUP1 DUP4 SLOAD DIV MUL DUP4 MSTORE SWAP2 PUSH1 0x20 ADD SWAP2 PUSH2 0x68C JUMP JUMPDEST DUP3 ADD SWAP2 SWAP1 PUSH0 MSTORE PUSH1 0x20 PUSH0 KECCAK256 SWAP1 JUMPDEST DUP2 SLOAD DUP2 MSTORE SWAP1 PUSH1 0x1 ADD SWAP1 PUSH1 0x20 ADD DUP1 DUP4 GT PUSH2 0x66F JUMPI DUP3 SWAP1 SUB PUSH1 0x1F AND DUP3 ADD SWAP2 JUMPDEST POP POP POP POP POP SWAP3 POP POP POP SWAP2 SWAP1 POP JUMP JUMPDEST PUSH1 0x1 DUP2 DUP2 SLOAD DUP2 LT PUSH2 0x6A9 JUMPI PUSH0 DUP1 REVERT JUMPDEST SWAP1 PUSH0 MSTORE PUSH1 0x20 PUSH0 KECCAK256 SWAP1 PUSH1 0x4 MUL ADD PUSH0 SWAP2 POP SWAP1 POP DUP1 PUSH0 ADD DUP1 SLOAD PUSH2 0x6C8 SWAP1 PUSH2 0x1252 JUMP JUMPDEST DUP1 PUSH1 0x1F ADD PUSH1 0x20 DUP1 SWAP2 DIV MUL PUSH1 0x20 ADD PUSH1 0x40 MLOAD SWAP1 DUP2 ADD PUSH1 0x40 MSTORE DUP1 SWAP3 SWAP2 SWAP1 DUP2 DUP2 MSTORE PUSH1 0x20 ADD DUP3 DUP1 SLOAD PUSH2 0x6F4 SWAP1 PUSH2 0x1252 JUMP JUMPDEST DUP1 ISZERO PUSH2 0x73F JUMPI DUP1 PUSH1 0x1F LT PUSH2 0x716 JUMPI PUSH2 0x100 DUP1 DUP4 SLOAD DIV MUL DUP4 MSTORE SWAP2 PUSH1 0x20 ADD SWAP2 PUSH2 0x73F JUMP JUMPDEST DUP3 ADD SWAP2 SWAP1 PUSH0 MSTORE PUSH1 0x20 PUSH0 KECCAK256 SWAP1 JUMPDEST DUP2 SLOAD DUP2 MSTORE SWAP1 PUSH1 0x1 ADD SWAP1 PUSH1 0x20 ADD DUP1 DUP4 GT PUSH2 0x722 JUMPI DUP3 SWAP1 SUB PUSH1 0x1F AND DUP3 ADD SWAP2 JUMPDEST POP POP POP POP POP SWAP1 DUP1 PUSH1 0x1 ADD SLOAD SWAP1 DUP1 PUSH1 0x2 ADD PUSH0 SWAP1 SLOAD SWAP1 PUSH2 0x100 EXP SWAP1 DIV PUSH20 0xFFFFFFFFFFFFFFFFFFFFFFFFFFFFFFFFFFFFFFFF AND SWAP1 DUP1 PUSH1 0x2 ADD PUSH1 0x14 SWAP1 SLOAD SWAP1 PUSH2 0x100 EXP SWAP1 DIV PUSH1 0xFF AND SWAP1 DUP1 PUSH1 0x3 ADD SLOAD SWAP1 POP DUP6 JUMP JUMPDEST PUSH1 0x5 SLOAD DUP2 JUMP JUMPDEST PUSH1 0x2 PUSH0 SWAP1 SLOAD SWAP1 PUSH2 0x100 EXP SWAP1 DIV PUSH20 0xFFFFFFFFFFFFFFFFFFFFFFFFFFFFFFFFFFFFFFFF AND PUSH20 0xFFFFFFFFFFFFFFFFFFFFFFFFFFFFFFFFFFFFFFFF AND CALLER PUSH20 0xFFFFFFFFFFFFFFFFFFFFFFFFFFFFFFFFFFFFFFFF AND EQ PUSH2 0x7EB JUMPI PUSH0 PUSH0 REVERT JUMPDEST PUSH1 0x1 PUSH1 0x40 MLOAD DUP1 PUSH1 0xA0 ADD PUSH1 0x40 MSTORE DUP1 DUP7 DUP7 DUP1 DUP1 PUSH1 0x1F ADD PUSH1 0x20 DUP1 SWAP2 DIV MUL PUSH1 0x20 ADD PUSH1 0x40 MLOAD SWAP1 DUP2 ADD PUSH1 0x40 MSTORE DUP1 SWAP4 SWAP3 SWAP2 SWAP1 DUP2 DUP2 MSTORE PUSH1 0x20 ADD DUP4 DUP4 DUP1 DUP3 DUP5 CALLDATACOPY PUSH0 DUP2 DUP5 ADD MSTORE PUSH1 0x1F NOT PUSH1 0x1F DUP3 ADD AND SWAP1 POP DUP1 DUP4 ADD SWAP3 POP POP POP POP POP POP POP DUP2 MSTORE PUSH1 0x20 ADD DUP5 DUP2 MSTORE PUSH1 0x20 ADD DUP4 PUSH20 0xFFFFFFFFFFFFFFFFFFFFFFFFFFFFFFFFFFFFFFFF AND DUP2 MSTORE PUSH1 0x20 ADD PUSH0 ISZERO ISZERO DUP2 MSTORE PUSH1 0x20 ADD PUSH0 DUP2 MSTORE POP SWAP1 DUP1 PUSH1 0x1 DUP2 SLOAD ADD DUP1 DUP3 SSTORE DUP1 SWAP2 POP POP PUSH1 0x1 SWAP1 SUB SWAP1 PUSH0 MSTORE PUSH1 0x20 PUSH0 KECCAK256 SWAP1 PUSH1 0x4 MUL ADD PUSH0 SWAP1 SWAP2 SWAP1 SWAP2 SWAP1 SWAP2 POP PUSH0 DUP3 ADD MLOAD DUP2 PUSH0 ADD SWAP1 DUP2 PUSH2 0x8A8 SWAP2 SWAP1 PUSH2 0x144F JUMP JUMPDEST POP PUSH1 0x20 DUP3 ADD MLOAD DUP2 PUSH1 0x1 ADD SSTORE PUSH1 0x40 DUP3 ADD MLOAD DUP2 PUSH1 0x2 ADD PUSH0 PUSH2 0x100 EXP DUP2 SLOAD DUP2 PUSH20 0xFFFFFFFFFFFFFFFFFFFFFFFFFFFFFFFFFFFFFFFF MUL NOT AND SWAP1 DUP4 PUSH20 0xFFFFFFFFFFFFFFFFFFFFFFFFFFFFFFFFFFFFFFFF AND MUL OR SWAP1 SSTORE POP PUSH1 0x60 DUP3 ADD MLOAD DUP2 PUSH1 0x2 ADD PUSH1 0x14 PUSH2 0x100 EXP DUP2 SLOAD DUP2 PUSH1 0xFF MUL NOT AND SWAP1 DUP4 ISZERO ISZERO MUL OR SWAP1 SSTORE POP PUSH1 0x80 DUP3 ADD MLOAD DUP2 PUSH1 0x3 ADD SSTORE POP POP POP POP POP POP JUMP JUMPDEST PUSH1 0x3 SLOAD DUP2 JUMP JUMPDEST PUSH0 PUSH1 0x20 MSTORE DUP2 PUSH0 MSTORE PUSH1 0x40 PUSH0 KECCAK256 PUSH1 0x20 MSTORE DUP1 PUSH0 MSTORE PUSH1 0x40 PUSH0 KECCAK256 PUSH0 SWAP2 POP SWAP2 POP SWAP1 SLOAD SWAP1 PUSH2 0x100 EXP SWAP1 DIV PUSH1 0xFF AND DUP2 JUMP JUMPDEST PUSH1 0x2 PUSH0 SWAP1 SLOAD SWAP1 PUSH2 0x100 EXP SWAP1 DIV PUSH20 0xFFFFFFFFFFFFFFFFFFFFFFFFFFFFFFFFFFFFFFFF AND PUSH20 0xFFFFFFFFFFFFFFFFFFFFFFFFFFFFFFFFFFFFFFFF AND CALLER PUSH20 0xFFFFFFFFFFFFFFFFFFFFFFFFFFFFFFFFFFFFFFFF AND SUB PUSH2 0x9B2 JUMPI PUSH0 PUSH0 REVERT JUMPDEST PUSH1 0x3 SLOAD CALLVALUE GT PUSH2 0x9BF JUMPI PUSH0 PUSH0 REVERT JUMPDEST PUSH1 0x1 PUSH1 0x4 PUSH0 CALLER PUSH20 0xFFFFFFFFFFFFFFFFFFFFFFFFFFFFFFFFFFFFFFFF AND PUSH20 0xFFFFFFFFFFFFFFFFFFFFFFFFFFFFFFFFFFFFFFFF AND DUP2 MSTORE PUSH1 0x20 ADD SWAP1 DUP2 MSTORE PUSH1 0x20 ADD PUSH0 KECCAK256 PUSH0 PUSH2 0x100 EXP DUP2 SLOAD DUP2 PUSH1 0xFF MUL NOT AND SWAP1 DUP4 ISZERO ISZERO MUL OR SWAP1 SSTORE POP PUSH1 0x5 PUSH0 DUP2 SLOAD DUP1 SWAP3 SWAP2 SWAP1 PUSH2 0xA26 SWAP1 PUSH2 0x151E JUMP JUMPDEST SWAP2 SWAP1 POP SSTORE POP JUMP JUMPDEST DUP1 PUSH1 0x1 DUP1 SLOAD SWAP1 POP DUP2 LT PUSH2 0xA75 JUMPI PUSH1 0x40 MLOAD PUSH32 0x8C379A000000000000000000000000000000000000000000000000000000000 DUP2 MSTORE PUSH1 0x4 ADD PUSH2 0xA6C SWAP1 PUSH2 0x1080 JUMP JUMPDEST PUSH1 0x40 MLOAD DUP1 SWAP2 SUB SWAP1 REVERT JUMPDEST PUSH1 0x4 PUSH0 CALLER PUSH20 0xFFFFFFFFFFFFFFFFFFFFFFFFFFFFFFFFFFFFFFFF AND PUSH20 0xFFFFFFFFFFFFFFFFFFFFFFFFFFFFFFFFFFFFFFFF AND DUP2 MSTORE PUSH1 0x20 ADD SWAP1 DUP2 MSTORE PUSH1 0x20 ADD PUSH0 KECCAK256 PUSH0 SWAP1 SLOAD SWAP1 PUSH2 0x100 EXP SWAP1 DIV PUSH1 0xFF AND PUSH2 0xAFE JUMPI PUSH1 0x40 MLOAD PUSH32 0x8C379A000000000000000000000000000000000000000000000000000000000 DUP2 MSTORE PUSH1 0x4 ADD PUSH2 0xAF5 SWAP1 PUSH2 0x15AF JUMP JUMPDEST PUSH1 0x40 MLOAD DUP1 SWAP2 SUB SWAP1 REVERT JUMPDEST PUSH0 PUSH0 DUP4 DUP2 MSTORE PUSH1 0x20 ADD SWAP1 DUP2 MSTORE PUSH1 0x20 ADD PUSH0 KECCAK256 PUSH0 CALLER PUSH20 0xFFFFFFFFFFFFFFFFFFFFFFFFFFFFFFFFFFFFFFFF AND PUSH20 0xFFFFFFFFFFFFFFFFFFFFFFFFFFFFFFFFFFFFFFFF AND DUP2 MSTORE PUSH1 0x20 ADD SWAP1 DUP2 MSTORE PUSH1 0x20 ADD PUSH0 KECCAK256 PUSH0 SWAP1 SLOAD SWAP1 PUSH2 0x100 EXP SWAP1 DIV PUSH1 0xFF AND ISZERO PUSH2 0xB96 JUMPI PUSH1 0x40 MLOAD PUSH32 0x8C379A000000000000000000000000000000000000000000000000000000000 DUP2 MSTORE PUSH1 0x4 ADD PUSH2 0xB8D SWAP1 PUSH2 0x163D JUMP JUMPDEST PUSH1 0x40 MLOAD DUP1 SWAP2 SUB SWAP1 REVERT JUMPDEST PUSH1 0x1 PUSH0 PUSH0 DUP5 DUP2 MSTORE PUSH1 0x20 ADD SWAP1 DUP2 MSTORE PUSH1 0x20 ADD PUSH0 KECCAK256 PUSH0 CALLER PUSH20 0xFFFFFFFFFFFFFFFFFFFFFFFFFFFFFFFFFFFFFFFF AND PUSH20 0xFFFFFFFFFFFFFFFFFFFFFFFFFFFFFFFFFFFFFFFF AND DUP2 MSTORE PUSH1 0x20 ADD SWAP1 DUP2 MSTORE PUSH1 0x20 ADD PUSH0 KECCAK256 PUSH0 PUSH2 0x100 EXP DUP2 SLOAD DUP2 PUSH1 0xFF MUL NOT AND SWAP1 DUP4 ISZERO ISZERO MUL OR SWAP1 SSTORE POP PUSH1 0x1 DUP3 DUP2 SLOAD DUP2 LT PUSH2 0xC0D JUMPI PUSH2 0xC0C PUSH2 0x109E JUMP JUMPDEST JUMPDEST SWAP1 PUSH0 MSTORE PUSH1 0x20 PUSH0 KECCAK256 SWAP1 PUSH1 0x4 MUL ADD PUSH1 0x3 ADD PUSH0 DUP2 SLOAD DUP1 SWAP3 SWAP2 SWAP1 PUSH2 0xC2C SWAP1 PUSH2 0x151E JUMP JUMPDEST SWAP2 SWAP1 POP SSTORE POP POP POP JUMP JUMPDEST PUSH0 PUSH0 REVERT JUMPDEST PUSH0 PUSH0 REVERT JUMPDEST PUSH0 DUP2 SWAP1 POP SWAP2 SWAP1 POP JUMP JUMPDEST PUSH2 0xC4F DUP2 PUSH2 0xC3D JUMP JUMPDEST DUP2 EQ PUSH2 0xC59 JUMPI PUSH0 PUSH0 REVERT JUMPDEST POP JUMP JUMPDEST PUSH0 DUP2 CALLDATALOAD SWAP1 POP PUSH2 0xC6A DUP2 PUSH2 0xC46 JUMP JUMPDEST SWAP3 SWAP2 POP POP JUMP JUMPDEST PUSH0 PUSH1 0x20 DUP3 DUP5 SUB SLT ISZERO PUSH2 0xC85 JUMPI PUSH2 0xC84 PUSH2 0xC35 JUMP JUMPDEST JUMPDEST PUSH0 PUSH2 0xC92 DUP5 DUP3 DUP6 ADD PUSH2 0xC5C JUMP JUMPDEST SWAP2 POP POP SWAP3 SWAP2 POP POP JUMP JUMPDEST PUSH0 PUSH20 0xFFFFFFFFFFFFFFFFFFFFFFFFFFFFFFFFFFFFFFFF DUP3 AND SWAP1 POP SWAP2 SWAP1 POP JUMP JUMPDEST PUSH0 PUSH2 0xCC4 DUP3 PUSH2 0xC9B JUMP JUMPDEST SWAP1 POP SWAP2 SWAP1 POP JUMP JUMPDEST PUSH2 0xCD4 DUP2 PUSH2 0xCBA JUMP JUMPDEST DUP2 EQ PUSH2 0xCDE JUMPI PUSH0 PUSH0 REVERT JUMPDEST POP JUMP JUMPDEST PUSH0 DUP2 CALLDATALOAD SWAP1 POP PUSH2 0xCEF DUP2 PUSH2 0xCCB JUMP JUMPDEST SWAP3 SWAP2 POP POP JUMP JUMPDEST PUSH0 PUSH1 0x20 DUP3 DUP5 SUB SLT ISZERO PUSH2 0xD0A JUMPI PUSH2 0xD09 PUSH2 0xC35 JUMP JUMPDEST JUMPDEST PUSH0 PUSH2 0xD17 DUP5 DUP3 DUP6 ADD PUSH2 0xCE1 JUMP JUMPDEST SWAP2 POP POP SWAP3 SWAP2 POP POP JUMP JUMPDEST PUSH0 DUP2 ISZERO ISZERO SWAP1 POP SWAP2 SWAP1 POP JUMP JUMPDEST PUSH2 0xD34 DUP2 PUSH2 0xD20 JUMP JUMPDEST DUP3 MSTORE POP POP JUMP JUMPDEST PUSH0 PUSH1 0x20 DUP3 ADD SWAP1 POP PUSH2 0xD4D PUSH0 DUP4 ADD DUP5 PUSH2 0xD2B JUMP JUMPDEST SWAP3 SWAP2 POP POP JUMP JUMPDEST PUSH2 0xD5C DUP2 PUSH2 0xC3D JUMP JUMPDEST DUP3 MSTORE POP POP JUMP JUMPDEST PUSH0 PUSH1 0x20 DUP3 ADD SWAP1 POP PUSH2 0xD75 PUSH0 DUP4 ADD DUP5 PUSH2 0xD53 JUMP JUMPDEST SWAP3 SWAP2 POP POP JUMP JUMPDEST PUSH2 0xD84 DUP2 PUSH2 0xCBA JUMP JUMPDEST DUP3 MSTORE POP POP JUMP JUMPDEST PUSH0 PUSH1 0xA0 DUP3 ADD SWAP1 POP PUSH2 0xD9D PUSH0 DUP4 ADD DUP9 PUSH2 0xD53 JUMP JUMPDEST PUSH2 0xDAA PUSH1 0x20 DUP4 ADD DUP8 PUSH2 0xD53 JUMP JUMPDEST PUSH2 0xDB7 PUSH1 0x40 DUP4 ADD DUP7 PUSH2 0xD53 JUMP JUMPDEST PUSH2 0xDC4 PUSH1 0x60 DUP4 ADD DUP6 PUSH2 0xD53 JUMP JUMPDEST PUSH2 0xDD1 PUSH1 0x80 DUP4 ADD DUP5 PUSH2 0xD7B JUMP JUMPDEST SWAP7 SWAP6 POP POP POP POP POP POP JUMP JUMPDEST PUSH0 PUSH1 0x20 DUP3 ADD SWAP1 POP PUSH2 0xDEE PUSH0 DUP4 ADD DUP5 PUSH2 0xD7B JUMP JUMPDEST SWAP3 SWAP2 POP POP JUMP JUMPDEST PUSH0 DUP2 MLOAD SWAP1 POP SWAP2 SWAP1 POP JUMP JUMPDEST PUSH0 DUP3 DUP3 MSTORE PUSH1 0x20 DUP3 ADD SWAP1 POP SWAP3 SWAP2 POP POP JUMP JUMPDEST DUP3 DUP2 DUP4 MCOPY PUSH0 DUP4 DUP4 ADD MSTORE POP POP POP JUMP JUMPDEST PUSH0 PUSH1 0x1F NOT PUSH1 0x1F DUP4 ADD AND SWAP1 POP SWAP2 SWAP1 POP JUMP JUMPDEST PUSH0 PUSH2 0xE36 DUP3 PUSH2 0xDF4 JUMP JUMPDEST PUSH2 0xE40 DUP2 DUP6 PUSH2 0xDFE JUMP JUMPDEST SWAP4 POP PUSH2 0xE50 DUP2 DUP6 PUSH1 0x20 DUP7 ADD PUSH2 0xE0E JUMP JUMPDEST PUSH2 0xE59 DUP2 PUSH2 0xE1C JUMP JUMPDEST DUP5 ADD SWAP2 POP POP SWAP3 SWAP2 POP POP JUMP JUMPDEST PUSH0 PUSH1 0x20 DUP3 ADD SWAP1 POP DUP2 DUP2 SUB PUSH0 DUP4 ADD MSTORE PUSH2 0xE7C DUP2 DUP5 PUSH2 0xE2C JUMP JUMPDEST SWAP1 POP SWAP3 SWAP2 POP POP JUMP JUMPDEST PUSH0 PUSH2 0xE8E DUP3 PUSH2 0xC9B JUMP JUMPDEST SWAP1 POP SWAP2 SWAP1 POP JUMP JUMPDEST PUSH2 0xE9E DUP2 PUSH2 0xE84 JUMP JUMPDEST DUP3 MSTORE POP POP JUMP JUMPDEST PUSH0 PUSH1 0xA0 DUP3 ADD SWAP1 POP DUP2 DUP2 SUB PUSH0 DUP4 ADD MSTORE PUSH2 0xEBC DUP2 DUP9 PUSH2 0xE2C JUMP JUMPDEST SWAP1 POP PUSH2 0xECB PUSH1 0x20 DUP4 ADD DUP8 PUSH2 0xD53 JUMP JUMPDEST PUSH2 0xED8 PUSH1 0x40 DUP4 ADD DUP7 PUSH2 0xE95 JUMP JUMPDEST PUSH2 0xEE5 PUSH1 0x60 DUP4 ADD DUP6 PUSH2 0xD2B JUMP JUMPDEST PUSH2 0xEF2 PUSH1 0x80 DUP4 ADD DUP5 PUSH2 0xD53 JUMP JUMPDEST SWAP7 SWAP6 POP POP POP POP POP POP JUMP JUMPDEST PUSH0 PUSH0 REVERT JUMPDEST PUSH0 PUSH0 REVERT JUMPDEST PUSH0 PUSH0 REVERT JUMPDEST PUSH0 PUSH0 DUP4 PUSH1 0x1F DUP5 ADD SLT PUSH2 0xF1D JUMPI PUSH2 0xF1C PUSH2 0xEFC JUMP JUMPDEST JUMPDEST DUP3 CALLDATALOAD SWAP1 POP PUSH8 0xFFFFFFFFFFFFFFFF DUP2 GT ISZERO PUSH2 0xF3A JUMPI PUSH2 0xF39 PUSH2 0xF00 JUMP JUMPDEST JUMPDEST PUSH1 0x20 DUP4 ADD SWAP2 POP DUP4 PUSH1 0x1 DUP3 MUL DUP4 ADD GT ISZERO PUSH2 0xF56 JUMPI PUSH2 0xF55 PUSH2 0xF04 JUMP JUMPDEST JUMPDEST SWAP3 POP SWAP3 SWAP1 POP JUMP JUMPDEST PUSH2 0xF66 DUP2 PUSH2 0xE84 JUMP JUMPDEST DUP2 EQ PUSH2 0xF70 JUMPI PUSH0 PUSH0 REVERT JUMPDEST POP JUMP JUMPDEST PUSH0 DUP2 CALLDATALOAD SWAP1 POP PUSH2 0xF81 DUP2 PUSH2 0xF5D JUMP JUMPDEST SWAP3 SWAP2 POP POP JUMP JUMPDEST PUSH0 PUSH0 PUSH0 PUSH0 PUSH1 0x60 DUP6 DUP8 SUB SLT ISZERO PUSH2 0xF9F JUMPI PUSH2 0xF9E PUSH2 0xC35 JUMP JUMPDEST JUMPDEST PUSH0 DUP6 ADD CALLDATALOAD PUSH8 0xFFFFFFFFFFFFFFFF DUP2 GT ISZERO PUSH2 0xFBC JUMPI PUSH2 0xFBB PUSH2 0xC39 JUMP JUMPDEST JUMPDEST PUSH2 0xFC8 DUP8 DUP3 DUP9 ADD PUSH2 0xF08 JUMP JUMPDEST SWAP5 POP SWAP5 POP POP PUSH1 0x20 PUSH2 0xFDB DUP8 DUP3 DUP9 ADD PUSH2 0xC5C JUMP JUMPDEST SWAP3 POP POP PUSH1 0x40 PUSH2 0xFEC DUP8 DUP3 DUP9 ADD PUSH2 0xF73 JUMP JUMPDEST SWAP2 POP POP SWAP3 SWAP6 SWAP2 SWAP5 POP SWAP3 POP JUMP JUMPDEST PUSH0 PUSH0 PUSH1 0x40 DUP4 DUP6 SUB SLT ISZERO PUSH2 0x100E JUMPI PUSH2 0x100D PUSH2 0xC35 JUMP JUMPDEST JUMPDEST PUSH0 PUSH2 0x101B DUP6 DUP3 DUP7 ADD PUSH2 0xC5C JUMP JUMPDEST SWAP3 POP POP PUSH1 0x20 PUSH2 0x102C DUP6 DUP3 DUP7 ADD PUSH2 0xCE1 JUMP JUMPDEST SWAP2 POP POP SWAP3 POP SWAP3 SWAP1 POP JUMP JUMPDEST PUSH32 0x496E76616C6964207265717565737420696E6465780000000000000000000000 PUSH0 DUP3 ADD MSTORE POP JUMP JUMPDEST PUSH0 PUSH2 0x106A PUSH1 0x15 DUP4 PUSH2 0xDFE JUMP JUMPDEST SWAP2 POP PUSH2 0x1075 DUP3 PUSH2 0x1036 JUMP JUMPDEST PUSH1 0x20 DUP3 ADD SWAP1 POP SWAP2 SWAP1 POP JUMP JUMPDEST PUSH0 PUSH1 0x20 DUP3 ADD SWAP1 POP DUP2 DUP2 SUB PUSH0 DUP4 ADD MSTORE PUSH2 0x1097 DUP2 PUSH2 0x105E JUMP JUMPDEST SWAP1 POP SWAP2 SWAP1 POP JUMP JUMPDEST PUSH32 0x4E487B7100000000000000000000000000000000000000000000000000000000 PUSH0 MSTORE PUSH1 0x32 PUSH1 0x4 MSTORE PUSH1 0x24 PUSH0 REVERT JUMPDEST PUSH32 0x5265717565737420697320616C726561647920636F6D706C6574652100000000 PUSH0 DUP3 ADD MSTORE POP JUMP JUMPDEST PUSH0 PUSH2 0x10FF PUSH1 0x1C DUP4 PUSH2 0xDFE JUMP JUMPDEST SWAP2 POP PUSH2 0x110A DUP3 PUSH2 0x10CB JUMP JUMPDEST PUSH1 0x20 DUP3 ADD SWAP1 POP SWAP2 SWAP1 POP JUMP JUMPDEST PUSH0 PUSH1 0x20 DUP3 ADD SWAP1 POP DUP2 DUP2 SUB PUSH0 DUP4 ADD MSTORE PUSH2 0x112C DUP2 PUSH2 0x10F3 JUMP JUMPDEST SWAP1 POP SWAP2 SWAP1 POP JUMP JUMPDEST PUSH32 0x4E487B7100000000000000000000000000000000000000000000000000000000 PUSH0 MSTORE PUSH1 0x12 PUSH1 0x4 MSTORE PUSH1 0x24 PUSH0 REVERT JUMPDEST PUSH32 0x4E487B7100000000000000000000000000000000000000000000000000000000 PUSH0 MSTORE PUSH1 0x11 PUSH1 0x4 MSTORE PUSH1 0x24 PUSH0 REVERT JUMPDEST PUSH0 PUSH2 0x1197 DUP3 PUSH2 0xC3D JUMP JUMPDEST SWAP2 POP PUSH2 0x11A2 DUP4 PUSH2 0xC3D JUMP JUMPDEST SWAP3 POP DUP3 PUSH2 0x11B2 JUMPI PUSH2 0x11B1 PUSH2 0x1133 JUMP JUMPDEST JUMPDEST DUP3 DUP3 DIV SWAP1 POP SWAP3 SWAP2 POP POP JUMP JUMPDEST PUSH32 0x4E6F7420656E6F75676820617070726F76616C7320746F2070726F636573732E PUSH0 DUP3 ADD MSTORE POP JUMP JUMPDEST PUSH0 PUSH2 0x11F1 PUSH1 0x20 DUP4 PUSH2 0xDFE JUMP JUMPDEST SWAP2 POP PUSH2 0x11FC DUP3 PUSH2 0x11BD JUMP JUMPDEST PUSH1 0x20 DUP3 ADD SWAP1 POP SWAP2 SWAP1 POP JUMP JUMPDEST PUSH0 PUSH1 0x20 DUP3 ADD SWAP1 POP DUP2 DUP2 SUB PUSH0 DUP4 ADD MSTORE PUSH2 0x121E DUP2 PUSH2 0x11E5 JUMP JUMPDEST SWAP1 POP SWAP2 SWAP1 POP JUMP JUMPDEST PUSH32 0x4E487B7100000000000000000000000000000000000000000000000000000000 PUSH0 MSTORE PUSH1 0x22 PUSH1 0x4 MSTORE PUSH1 0x24 PUSH0 REVERT JUMPDEST PUSH0 PUSH1 0x2 DUP3 DIV SWAP1 POP PUSH1 0x1 DUP3 AND DUP1 PUSH2 0x1269 JUMPI PUSH1 0x7F DUP3 AND SWAP2 POP JUMPDEST PUSH1 0x20 DUP3 LT DUP2 SUB PUSH2 0x127C JUMPI PUSH2 0x127B PUSH2 0x1225 JUMP JUMPDEST JUMPDEST POP SWAP2 SWAP1 POP JUMP JUMPDEST PUSH32 0x4E487B7100000000000000000000000000000000000000000000000000000000 PUSH0 MSTORE PUSH1 0x41 PUSH1 0x4 MSTORE PUSH1 0x24 PUSH0 REVERT JUMPDEST PUSH0 DUP2 SWAP1 POP DUP2 PUSH0 MSTORE PUSH1 0x20 PUSH0 KECCAK256 SWAP1 POP SWAP2 SWAP1 POP JUMP JUMPDEST PUSH0 PUSH1 0x20 PUSH1 0x1F DUP4 ADD DIV SWAP1 POP SWAP2 SWAP1 POP JUMP JUMPDEST PUSH0 DUP3 DUP3 SHL SWAP1 POP SWAP3 SWAP2 POP POP JUMP JUMPDEST PUSH0 PUSH1 0x8 DUP4 MUL PUSH2 0x130B PUSH32 0xFFFFFFFFFFFFFFFFFFFFFFFFFFFFFFFFFFFFFFFFFFFFFFFFFFFFFFFFFFFFFFFF DUP3 PUSH2 0x12D0 JUMP JUMPDEST PUSH2 0x1315 DUP7 DUP4 PUSH2 0x12D0 JUMP JUMPDEST SWAP6 POP DUP1 NOT DUP5 AND SWAP4 POP DUP1 DUP7 AND DUP5 OR SWAP3 POP POP POP SWAP4 SWAP3 POP POP POP JUMP JUMPDEST PUSH0 DUP2 SWAP1 POP SWAP2 SWAP1 POP JUMP JUMPDEST PUSH0 PUSH2 0x1350 PUSH2 0x134B PUSH2 0x1346 DUP5 PUSH2 0xC3D JUMP JUMPDEST PUSH2 0x132D JUMP JUMPDEST PUSH2 0xC3D JUMP JUMPDEST SWAP1 POP SWAP2 SWAP1 POP JUMP JUMPDEST PUSH0 DUP2 SWAP1 POP SWAP2 SWAP1 POP JUMP JUMPDEST PUSH2 0x1369 DUP4 PUSH2 0x1336 JUMP JUMPDEST PUSH2 0x137D PUSH2 0x1375 DUP3 PUSH2 0x1357 JUMP JUMPDEST DUP5 DUP5 SLOAD PUSH2 0x12DC JUMP JUMPDEST DUP3 SSTORE POP POP POP POP JUMP JUMPDEST PUSH0 PUSH0 SWAP1 POP SWAP1 JUMP JUMPDEST PUSH2 0x1394 PUSH2 0x1385 JUMP JUMPDEST PUSH2 0x139F DUP2 DUP5 DUP5 PUSH2 0x1360 JUMP JUMPDEST POP POP POP JUMP JUMPDEST JUMPDEST DUP2 DUP2 LT ISZERO PUSH2 0x13C2 JUMPI PUSH2 0x13B7 PUSH0 DUP3 PUSH2 0x138C JUMP JUMPDEST PUSH1 0x1 DUP2 ADD SWAP1 POP PUSH2 0x13A5 JUMP JUMPDEST POP POP JUMP JUMPDEST PUSH1 0x1F DUP3 GT ISZERO PUSH2 0x1407 JUMPI PUSH2 0x13D8 DUP2 PUSH2 0x12AF JUMP JUMPDEST PUSH2 0x13E1 DUP5 PUSH2 0x12C1 JUMP JUMPDEST DUP2 ADD PUSH1 0x20 DUP6 LT ISZERO PUSH2 0x13F0 JUMPI DUP2 SWAP1 POP JUMPDEST PUSH2 0x1404 PUSH2 0x13FC DUP6 PUSH2 0x12C1 JUMP JUMPDEST DUP4 ADD DUP3 PUSH2 0x13A4 JUMP JUMPDEST POP POP JUMPDEST POP POP POP JUMP JUMPDEST PUSH0 DUP3 DUP3 SHR SWAP1 POP SWAP3 SWAP2 POP POP JUMP JUMPDEST PUSH0 PUSH2 0x1427 PUSH0 NOT DUP5 PUSH1 0x8 MUL PUSH2 0x140C JUMP JUMPDEST NOT DUP1 DUP4 AND SWAP2 POP POP SWAP3 SWAP2 POP POP JUMP JUMPDEST PUSH0 PUSH2 0x143F DUP4 DUP4 PUSH2 0x1418 JUMP JUMPDEST SWAP2 POP DUP3 PUSH1 0x2 MUL DUP3 OR SWAP1 POP SWAP3 SWAP2 POP POP JUMP JUMPDEST PUSH2 0x1458 DUP3 PUSH2 0xDF4 JUMP JUMPDEST PUSH8 0xFFFFFFFFFFFFFFFF DUP2 GT ISZERO PUSH2 0x1471 JUMPI PUSH2 0x1470 PUSH2 0x1282 JUMP JUMPDEST JUMPDEST PUSH2 0x147B DUP3 SLOAD PUSH2 0x1252 JUMP JUMPDEST PUSH2 0x1486 DUP3 DUP3 DUP6 PUSH2 0x13C6 JUMP JUMPDEST PUSH0 PUSH1 0x20 SWAP1 POP PUSH1 0x1F DUP4 GT PUSH1 0x1 DUP2 EQ PUSH2 0x14B7 JUMPI PUSH0 DUP5 ISZERO PUSH2 0x14A5 JUMPI DUP3 DUP8 ADD MLOAD SWAP1 POP JUMPDEST PUSH2 0x14AF DUP6 DUP3 PUSH2 0x1434 JUMP JUMPDEST DUP7 SSTORE POP PUSH2 0x1516 JUMP JUMPDEST PUSH1 0x1F NOT DUP5 AND PUSH2 0x14C5 DUP7 PUSH2 0x12AF JUMP JUMPDEST PUSH0 JUMPDEST DUP3 DUP2 LT ISZERO PUSH2 0x14EC JUMPI DUP5 DUP10 ADD MLOAD DUP3 SSTORE PUSH1 0x1 DUP3 ADD SWAP2 POP PUSH1 0x20 DUP6 ADD SWAP5 POP PUSH1 0x20 DUP2 ADD SWAP1 POP PUSH2 0x14C7 JUMP JUMPDEST DUP7 DUP4 LT ISZERO PUSH2 0x1509 JUMPI DUP5 DUP10 ADD MLOAD PUSH2 0x1505 PUSH1 0x1F DUP10 AND DUP3 PUSH2 0x1418 JUMP JUMPDEST DUP4 SSTORE POP JUMPDEST PUSH1 0x1 PUSH1 0x2 DUP9 MUL ADD DUP9 SSTORE POP POP POP JUMPDEST POP POP POP POP POP POP JUMP JUMPDEST PUSH0 PUSH2 0x1528 DUP3 PUSH2 0xC3D JUMP JUMPDEST SWAP2 POP PUSH32 0xFFFFFFFFFFFFFFFFFFFFFFFFFFFFFFFFFFFFFFFFFFFFFFFFFFFFFFFFFFFFFFFF DUP3 SUB PUSH2 0x155A JUMPI PUSH2 0x1559 PUSH2 0x1160 JUMP JUMPDEST JUMPDEST PUSH1 0x1 DUP3 ADD SWAP1 POP SWAP2 SWAP1 POP JUMP JUMPDEST PUSH32 0x596F7520617265206E6F74206120636F6E7472696275746F7200000000000000 PUSH0 DUP3 ADD MSTORE POP JUMP JUMPDEST PUSH0 PUSH2 0x1599 PUSH1 0x19 DUP4 PUSH2 0xDFE JUMP JUMPDEST SWAP2 POP PUSH2 0x15A4 DUP3 PUSH2 0x1565 JUMP JUMPDEST PUSH1 0x20 DUP3 ADD SWAP1 POP SWAP2 SWAP1 POP JUMP JUMPDEST PUSH0 PUSH1 0x20 DUP3 ADD SWAP1 POP DUP2 DUP2 SUB PUSH0 DUP4 ADD MSTORE PUSH2 0x15C6 DUP2 PUSH2 0x158D JUMP JUMPDEST SWAP1 POP SWAP2 SWAP1 POP JUMP JUMPDEST PUSH32 0x596F75206861766520616C726561647920617070726F76656420746869732072 PUSH0 DUP3 ADD MSTORE PUSH32 0x6571756573740000000000000000000000000000000000000000000000000000 PUSH1 0x20 DUP3 ADD MSTORE POP JUMP JUMPDEST PUSH0 PUSH2 0x1627 PUSH1 0x26 DUP4 PUSH2 0xDFE JUMP JUMPDEST SWAP2 POP PUSH2 0x1632 DUP3 PUSH2 0x15CD JUMP JUMPDEST PUSH1 0x40 DUP3 ADD SWAP1 POP SWAP2 SWAP1 POP JUMP JUMPDEST PUSH0 PUSH1 0x20 DUP3 ADD SWAP1 POP DUP2 DUP2 SUB PUSH0 DUP4 ADD MSTORE PUSH2 0x1654 DUP2 PUSH2 0x161B JUMP JUMPDEST SWAP1 POP SWAP2 SWAP1 POP JUMP INVALID LOG2 PUSH5 0x6970667358 0x22 SLT KECCAK256 GASPRICE TLOAD MOD 0xA7 0xB1 MLOAD PUSH31 0x91BD37C0F77A10811930DC9A3D2D431B44A57B1DE1A6B0841364736F6C6343 STOP ADDMOD SHR STOP CALLER "},"gasEstimates":{"creation":{"codeDepositCost":"1155400","executionCost":"infinite","totalCost":"infinite"},"external":{"approvals(uint256,address)":"3113","approveRequest(uint256)":"infinite","approvers(address)":"2856","approversCount()":"2470","contribute()":"53183","createRequest(string,uint256,address)":"infinite","finalizeRequest(uint256)":"infinite","getRequestDescription(uint256)":"infinite","getRequestsCount()":"2485","getSummary()":"infinite","manager()":"2597","minimumContribution()":"2447","requests(uint256)":"infinite"}},"methodIdentifiers":{"approvals(uint256,address)":"ab2850da","approveRequest(uint256)":"d7d1bbdb","approvers(address)":"0a144391","approversCount()":"82fde093","contribute()":"d7bb99ba","createRequest(string,uint256,address)":"8a9cfd55","finalizeRequest(uint256)":"03441006","getRequestDescription(uint256)":"6ddfaed1","getRequestsCount()":"3410452a","getSummary()":"4051ddac","manager()":"481c6a75","minimumContribution()":"937e09b1","requests(uint256)":"81d12c58"}},"storageLayout":{"storage":[{"astId":56,"contract":"Campaign.sol:Campaign","label":"approvals","offset":0,"slot":"0","type":"t_mapping(t_uint256,t_mapping(t_address,t_bool))"},{"astId":60,"contract":"Campaign.sol:Campaign","label":"requests","offset":0,"slot":"1","type":"t_array(t_struct(Request)50_storage)dyn_storage"},{"astId":62,"contract":"Campaign.sol:Campaign","label":"manager","offset":0,"slot":"2","type":"t_address"},{"astId":64,"contract":"Campaign.sol:Campaign","label":"minimumContribution","offset":0,"slot":"3","type":"t_uint256"},{"astId":68,"contract":"Campaign.sol:Campaign","label":"approvers","offset":0,"slot":"4","type":"t_mapping(t_address,t_bool)"},{"astId":70,"contract":"Campaign.sol:Campaign","label":"approversCount","offset":0,"slot":"5","type":"t_uint256"}],"types":{"t_address":{"encoding":"inplace","label":"address","numberOfBytes":"20"},"t_address_payable":{"encoding":"inplace","label":"address payable","numberOfBytes":"20"},"t_array(t_struct(Request)50_storage)dyn_storage":{"base":"t_struct(Request)50_storage","encoding":"dynamic_array","label":"struct Campaign.Request[]","numberOfBytes":"32"},"t_bool":{"encoding":"inplace","label":"bool","numberOfBytes":"1"},"t_mapping(t_address,t_bool)":{"encoding":"mapping","key":"t_address","label":"mapping(address => bool)","numberOfBytes":"32","value":"t_bool"},"t_mapping(t_uint256,t_mapping(t_address,t_bool))":{"encoding":"mapping","key":"t_uint256","label":"mapping(uint256 => mapping(address => bool))","numberOfBytes":"32","value":"t_mapping(t_address,t_bool)"},"t_string_storage":{"encoding":"bytes","label":"string","numberOfBytes":"32"},"t_struct(Request)50_storage":{"encoding":"inplace","label":"struct Campaign.Request","members":[{"astId":41,"contract":"Campaign.sol:Campaign","label":"description","offset":0,"slot":"0","type":"t_string_storage"},{"astId":43,"contract":"Campaign.sol:Campaign","label":"value","offset":0,"slot":"1","type":"t_uint256"},{"astId":45,"contract":"Campaign.sol:Campaign","label":"recipient","offset":0,"slot":"2","type":"t_address_payable"},{"astId":47,"contract":"Campaign.sol:Campaign","label":"complete","offset":20,"slot":"2","type":"t_bool"},{"astId":49,"contract":"Campaign.sol:Campaign","label":"approvalCount","offset":0,"slot":"3","type":"t_uint256"}],"numberOfBytes":"128"},"t_uint256":{"encoding":"inplace","label":"uint256","numberOfBytes":"32"}}},"transientStorageLayout":{"storage":[],"types":null},"userdoc":{"kind":"user","methods":{},"version":1}}