{"abi":[{"inputs":[{"internalType":"uint256","name":"minimum","type":"uint256"},{"internalType":"address","name":"managerAddress","type":"address"}],"stateMutability":"nonpayable","type":"constructor"},{"inputs":[{"internalType":"uint256","name":"","type":"uint256"},{"internalType":"address","name":"","type":"address"}],"name":"approvals","outputs":[{"internalType":"bool","name":"","type":"bool"}],"stateMutability":"view","type":"function"},{"inputs":[{"internalType":"uint256","name":"index","type":"uint256"}],"name":"approveRequest","outputs":[],"stateMutability":"nonpayable","type":"function"},{"inputs":[{"internalType":"address","name":"","type":"address"}],"name":"approvers","outputs":[{"internalType":"bool","name":"","type":"bool"}],"stateMutability":"view","type":"function"},{"inputs":[],"name":"approversCount","outputs":[{"internalType":"uint256","name":"","type":"uint256"}],"stateMutability":"view","type":"function"},{"inputs":[],"name":"contribute","outputs":[],"stateMutability":"payable","type":"function"},{"inputs":[{"internalType":"string","name":"description","type":"string"},{"internalType":"uint256","name":"value","type":"uint256"},{"internalType":"address payable","name":"recipient","type":"address"}],"name":"createRequest","outputs":[],"stateMutability":"nonpayable","type":"function"},{"inputs":[{"internalType":"uint256","name":"index","type":"uint256"}],"name":"finalizeRequest","outputs":[],"stateMutability":"nonpayable","type":"function"},{"inputs":[{"internalType":"uint256","name":"index","type":"uint256"}],"name":"getRequestDescription","outputs":[{"internalType":"string","name":"description","type":"string"}],"stateMutability":"view","type":"function"},{"inputs":[],"name":"manager","outputs":[{"internalType":"address","name":"","type":"address"}],"stateMutability":"view","type":"function"},{"inputs":[],"name":"minimumContribution","outputs":[{"internalType":"uint256","name":"","type":"uint256"}],"stateMutability":"view","type":"function"},{"inputs":[{"internalType":"uint256","name":"","type":"uint256"}],"name":"requests","outputs":[{"internalType":"string","name":"description","type":"string"},{"internalType":"uint256","name":"value","type":"uint256"},{"internalType":"address payable","name":"recipient","type":"address"},{"internalType":"bool","name":"complete","type":"bool"},{"internalType":"uint256","name":"approvalCount","type":"uint256"}],"stateMutability":"view","type":"function"}],"devdoc":{"kind":"dev","methods":{},"version":1},"evm":{"assembly":"    /* \"Campaign.sol\":423:2900  contract Campaign {... */\n  mstore(0x40, 0x80)\n    /* \"Campaign.sol\":1072:1202  constructor(uint minimum, address managerAddress) {... */\n  callvalue\n  dup1\n  iszero\n  tag_1\n  jumpi\n  0x00\n  dup1\n  revert\ntag_1:\n  pop\n  mload(0x40)\n  sub(codesize, bytecodeSize)\n  dup1\n  bytecodeSize\n  dup4\n  codecopy\n  dup2\n  dup2\n  add\n  0x40\n  mstore\n  dup2\n  add\n  swap1\n  tag_2\n  swap2\n  swap1\n  tag_3\n  jump\t// in\ntag_2:\n    /* \"Campaign.sol\":1142:1156  managerAddress */\n  dup1\n    /* \"Campaign.sol\":1132:1139  manager */\n  0x02\n  0x00\n    /* \"Campaign.sol\":1132:1156  manager = managerAddress */\n  0x0100\n  exp\n  dup2\n  sload\n  dup2\n  0xffffffffffffffffffffffffffffffffffffffff\n  mul\n  not\n  and\n  swap1\n  dup4\n  0xffffffffffffffffffffffffffffffffffffffff\n  and\n  mul\n  or\n  swap1\n  sstore\n  pop\n    /* \"Campaign.sol\":1188:1195  minimum */\n  dup2\n    /* \"Campaign.sol\":1166:1185  minimumContribution */\n  0x03\n    /* \"Campaign.sol\":1166:1195  minimumContribution = minimum */\n  dup2\n  swap1\n  sstore\n  pop\n    /* \"Campaign.sol\":1072:1202  constructor(uint minimum, address managerAddress) {... */\n  pop\n  pop\n    /* \"Campaign.sol\":423:2900  contract Campaign {... */\n  jump(tag_6)\n    /* \"#utility.yul\":88:205   */\ntag_8:\n    /* \"#utility.yul\":197:198   */\n  0x00\n    /* \"#utility.yul\":194:195   */\n  dup1\n    /* \"#utility.yul\":187:199   */\n  revert\n    /* \"#utility.yul\":334:411   */\ntag_10:\n    /* \"#utility.yul\":371:378   */\n  0x00\n    /* \"#utility.yul\":400:405   */\n  dup2\n    /* \"#utility.yul\":389:405   */\n  swap1\n  pop\n    /* \"#utility.yul\":334:411   */\n  swap2\n  swap1\n  pop\n  jump\t// out\n    /* \"#utility.yul\":417:539   */\ntag_11:\n    /* \"#utility.yul\":490:514   */\n  tag_23\n    /* \"#utility.yul\":508:513   */\n  dup2\n    /* \"#utility.yul\":490:514   */\n  tag_10\n  jump\t// in\ntag_23:\n    /* \"#utility.yul\":483:488   */\n  dup2\n    /* \"#utility.yul\":480:515   */\n  eq\n    /* \"#utility.yul\":470:533   */\n  tag_24\n  jumpi\n    /* \"#utility.yul\":529:530   */\n  0x00\n    /* \"#utility.yul\":526:527   */\n  dup1\n    /* \"#utility.yul\":519:531   */\n  revert\n    /* \"#utility.yul\":470:533   */\ntag_24:\n    /* \"#utility.yul\":417:539   */\n  pop\n  jump\t// out\n    /* \"#utility.yul\":545:688   */\ntag_12:\n    /* \"#utility.yul\":602:607   */\n  0x00\n    /* \"#utility.yul\":633:639   */\n  dup2\n    /* \"#utility.yul\":627:640   */\n  mload\n    /* \"#utility.yul\":618:640   */\n  swap1\n  pop\n    /* \"#utility.yul\":649:682   */\n  tag_26\n    /* \"#utility.yul\":676:681   */\n  dup2\n    /* \"#utility.yul\":649:682   */\n  tag_11\n  jump\t// in\ntag_26:\n    /* \"#utility.yul\":545:688   */\n  swap3\n  swap2\n  pop\n  pop\n  jump\t// out\n    /* \"#utility.yul\":694:820   */\ntag_13:\n    /* \"#utility.yul\":731:738   */\n  0x00\n    /* \"#utility.yul\":771:813   */\n  0xffffffffffffffffffffffffffffffffffffffff\n    /* \"#utility.yul\":764:769   */\n  dup3\n    /* \"#utility.yul\":760:814   */\n  and\n    /* \"#utility.yul\":749:814   */\n  swap1\n  pop\n    /* \"#utility.yul\":694:820   */\n  swap2\n  swap1\n  pop\n  jump\t// out\n    /* \"#utility.yul\":826:922   */\ntag_14:\n    /* \"#utility.yul\":863:870   */\n  0x00\n    /* \"#utility.yul\":892:916   */\n  tag_29\n    /* \"#utility.yul\":910:915   */\n  dup3\n    /* \"#utility.yul\":892:916   */\n  tag_13\n  jump\t// in\ntag_29:\n    /* \"#utility.yul\":881:916   */\n  swap1\n  pop\n    /* \"#utility.yul\":826:922   */\n  swap2\n  swap1\n  pop\n  jump\t// out\n    /* \"#utility.yul\":928:1050   */\ntag_15:\n    /* \"#utility.yul\":1001:1025   */\n  tag_31\n    /* \"#utility.yul\":1019:1024   */\n  dup2\n    /* \"#utility.yul\":1001:1025   */\n  tag_14\n  jump\t// in\ntag_31:\n    /* \"#utility.yul\":994:999   */\n  dup2\n    /* \"#utility.yul\":991:1026   */\n  eq\n    /* \"#utility.yul\":981:1044   */\n  tag_32\n  jumpi\n    /* \"#utility.yul\":1040:1041   */\n  0x00\n    /* \"#utility.yul\":1037:1038   */\n  dup1\n    /* \"#utility.yul\":1030:1042   */\n  revert\n    /* \"#utility.yul\":981:1044   */\ntag_32:\n    /* \"#utility.yul\":928:1050   */\n  pop\n  jump\t// out\n    /* \"#utility.yul\":1056:1199   */\ntag_16:\n    /* \"#utility.yul\":1113:1118   */\n  0x00\n    /* \"#utility.yul\":1144:1150   */\n  dup2\n    /* \"#utility.yul\":1138:1151   */\n  mload\n    /* \"#utility.yul\":1129:1151   */\n  swap1\n  pop\n    /* \"#utility.yul\":1160:1193   */\n  tag_34\n    /* \"#utility.yul\":1187:1192   */\n  dup2\n    /* \"#utility.yul\":1160:1193   */\n  tag_15\n  jump\t// in\ntag_34:\n    /* \"#utility.yul\":1056:1199   */\n  swap3\n  swap2\n  pop\n  pop\n  jump\t// out\n    /* \"#utility.yul\":1205:1712   */\ntag_3:\n    /* \"#utility.yul\":1284:1290   */\n  0x00\n    /* \"#utility.yul\":1292:1298   */\n  dup1\n    /* \"#utility.yul\":1341:1343   */\n  0x40\n    /* \"#utility.yul\":1329:1338   */\n  dup4\n    /* \"#utility.yul\":1320:1327   */\n  dup6\n    /* \"#utility.yul\":1316:1339   */\n  sub\n    /* \"#utility.yul\":1312:1344   */\n  slt\n    /* \"#utility.yul\":1309:1428   */\n  iszero\n  tag_36\n  jumpi\n    /* \"#utility.yul\":1347:1426   */\n  tag_37\n  tag_8\n  jump\t// in\ntag_37:\n    /* \"#utility.yul\":1309:1428   */\ntag_36:\n    /* \"#utility.yul\":1467:1468   */\n  0x00\n    /* \"#utility.yul\":1492:1556   */\n  tag_38\n    /* \"#utility.yul\":1548:1555   */\n  dup6\n    /* \"#utility.yul\":1539:1545   */\n  dup3\n    /* \"#utility.yul\":1528:1537   */\n  dup7\n    /* \"#utility.yul\":1524:1546   */\n  add\n    /* \"#utility.yul\":1492:1556   */\n  tag_12\n  jump\t// in\ntag_38:\n    /* \"#utility.yul\":1482:1556   */\n  swap3\n  pop\n    /* \"#utility.yul\":1438:1566   */\n  pop\n    /* \"#utility.yul\":1605:1607   */\n  0x20\n    /* \"#utility.yul\":1631:1695   */\n  tag_39\n    /* \"#utility.yul\":1687:1694   */\n  dup6\n    /* \"#utility.yul\":1678:1684   */\n  dup3\n    /* \"#utility.yul\":1667:1676   */\n  dup7\n    /* \"#utility.yul\":1663:1685   */\n  add\n    /* \"#utility.yul\":1631:1695   */\n  tag_16\n  jump\t// in\ntag_39:\n    /* \"#utility.yul\":1621:1695   */\n  swap2\n  pop\n    /* \"#utility.yul\":1576:1705   */\n  pop\n    /* \"#utility.yul\":1205:1712   */\n  swap3\n  pop\n  swap3\n  swap1\n  pop\n  jump\t// out\n    /* \"Campaign.sol\":423:2900  contract Campaign {... */\ntag_6:\n  dataSize(sub_0)\n  dup1\n  dataOffset(sub_0)\n  0x00\n  codecopy\n  0x00\n  return\nstop\n\nsub_0: assembly {\n        /* \"Campaign.sol\":423:2900  contract Campaign {... */\n      mstore(0x40, 0x80)\n      jumpi(tag_1, lt(calldatasize, 0x04))\n      shr(0xe0, calldataload(0x00))\n      dup1\n      0x82fde093\n      gt\n      tag_13\n      jumpi\n      dup1\n      0x82fde093\n      eq\n      tag_7\n      jumpi\n      dup1\n      0x8a9cfd55\n      eq\n      tag_8\n      jumpi\n      dup1\n      0x937e09b1\n      eq\n      tag_9\n      jumpi\n      dup1\n      0xab2850da\n      eq\n      tag_10\n      jumpi\n      dup1\n      0xd7bb99ba\n      eq\n      tag_11\n      jumpi\n      dup1\n      0xd7d1bbdb\n      eq\n      tag_12\n      jumpi\n      jump(tag_1)\n    tag_13:\n      dup1\n      0x03441006\n      eq\n      tag_2\n      jumpi\n      dup1\n      0x0a144391\n      eq\n      tag_3\n      jumpi\n      dup1\n      0x481c6a75\n      eq\n      tag_4\n      jumpi\n      dup1\n      0x6ddfaed1\n      eq\n      tag_5\n      jumpi\n      dup1\n      0x81d12c58\n      eq\n      tag_6\n      jumpi\n    tag_1:\n      0x00\n      dup1\n      revert\n        /* \"Campaign.sol\":2452:2898  function finalizeRequest(... */\n    tag_2:\n      callvalue\n      dup1\n      iszero\n      tag_14\n      jumpi\n      0x00\n      dup1\n      revert\n    tag_14:\n      pop\n      tag_15\n      0x04\n      dup1\n      calldatasize\n      sub\n      dup2\n      add\n      swap1\n      tag_16\n      swap2\n      swap1\n      tag_17\n      jump\t// in\n    tag_16:\n      tag_18\n      jump\t// in\n    tag_15:\n      stop\n        /* \"Campaign.sol\":769:810  mapping(address => bool) public approvers */\n    tag_3:\n      callvalue\n      dup1\n      iszero\n      tag_19\n      jumpi\n      0x00\n      dup1\n      revert\n    tag_19:\n      pop\n      tag_20\n      0x04\n      dup1\n      calldatasize\n      sub\n      dup2\n      add\n      swap1\n      tag_21\n      swap2\n      swap1\n      tag_22\n      jump\t// in\n    tag_21:\n      tag_23\n      jump\t// in\n    tag_20:\n      mload(0x40)\n      tag_24\n      swap2\n      swap1\n      tag_25\n      jump\t// in\n    tag_24:\n      mload(0x40)\n      dup1\n      swap2\n      sub\n      swap1\n      return\n        /* \"Campaign.sol\":704:726  address public manager */\n    tag_4:\n      callvalue\n      dup1\n      iszero\n      tag_26\n      jumpi\n      0x00\n      dup1\n      revert\n    tag_26:\n      pop\n      tag_27\n      tag_28\n      jump\t// in\n    tag_27:\n      mload(0x40)\n      tag_29\n      swap2\n      swap1\n      tag_30\n      jump\t// in\n    tag_29:\n      mload(0x40)\n      dup1\n      swap2\n      sub\n      swap1\n      return\n        /* \"Campaign.sol\":1412:1679  function getRequestDescription(... */\n    tag_5:\n      callvalue\n      dup1\n      iszero\n      tag_31\n      jumpi\n      0x00\n      dup1\n      revert\n    tag_31:\n      pop\n      tag_32\n      0x04\n      dup1\n      calldatasize\n      sub\n      dup2\n      add\n      swap1\n      tag_33\n      swap2\n      swap1\n      tag_17\n      jump\t// in\n    tag_33:\n      tag_34\n      jump\t// in\n    tag_32:\n      mload(0x40)\n      tag_35\n      swap2\n      swap1\n      tag_36\n      jump\t// in\n    tag_35:\n      mload(0x40)\n      dup1\n      swap2\n      sub\n      swap1\n      return\n        /* \"Campaign.sol\":673:698  Request[] public requests */\n    tag_6:\n      callvalue\n      dup1\n      iszero\n      tag_37\n      jumpi\n      0x00\n      dup1\n      revert\n    tag_37:\n      pop\n      tag_38\n      0x04\n      dup1\n      calldatasize\n      sub\n      dup2\n      add\n      swap1\n      tag_39\n      swap2\n      swap1\n      tag_17\n      jump\t// in\n    tag_39:\n      tag_40\n      jump\t// in\n    tag_38:\n      mload(0x40)\n      tag_41\n      swap6\n      swap5\n      swap4\n      swap3\n      swap2\n      swap1\n      tag_42\n      jump\t// in\n    tag_41:\n      mload(0x40)\n      dup1\n      swap2\n      sub\n      swap1\n      return\n        /* \"Campaign.sol\":816:842  uint public approversCount */\n    tag_7:\n      callvalue\n      dup1\n      iszero\n      tag_43\n      jumpi\n      0x00\n      dup1\n      revert\n    tag_43:\n      pop\n      tag_44\n      tag_45\n      jump\t// in\n    tag_44:\n      mload(0x40)\n      tag_46\n      swap2\n      swap1\n      tag_47\n      jump\t// in\n    tag_46:\n      mload(0x40)\n      dup1\n      swap2\n      sub\n      swap1\n      return\n        /* \"Campaign.sol\":1685:2078  function createRequest(... */\n    tag_8:\n      callvalue\n      dup1\n      iszero\n      tag_48\n      jumpi\n      0x00\n      dup1\n      revert\n    tag_48:\n      pop\n      tag_49\n      0x04\n      dup1\n      calldatasize\n      sub\n      dup2\n      add\n      swap1\n      tag_50\n      swap2\n      swap1\n      tag_51\n      jump\t// in\n    tag_50:\n      tag_52\n      jump\t// in\n    tag_49:\n      stop\n        /* \"Campaign.sol\":732:763  uint public minimumContribution */\n    tag_9:\n      callvalue\n      dup1\n      iszero\n      tag_53\n      jumpi\n      0x00\n      dup1\n      revert\n    tag_53:\n      pop\n      tag_54\n      tag_55\n      jump\t// in\n    tag_54:\n      mload(0x40)\n      tag_56\n      swap2\n      swap1\n      tag_47\n      jump\t// in\n    tag_56:\n      mload(0x40)\n      dup1\n      swap2\n      sub\n      swap1\n      return\n        /* \"Campaign.sol\":608:666  mapping(uint => mapping(address => bool)) public approvals */\n    tag_10:\n      callvalue\n      dup1\n      iszero\n      tag_57\n      jumpi\n      0x00\n      dup1\n      revert\n    tag_57:\n      pop\n      tag_58\n      0x04\n      dup1\n      calldatasize\n      sub\n      dup2\n      add\n      swap1\n      tag_59\n      swap2\n      swap1\n      tag_60\n      jump\t// in\n    tag_59:\n      tag_61\n      jump\t// in\n    tag_58:\n      mload(0x40)\n      tag_62\n      swap2\n      swap1\n      tag_25\n      jump\t// in\n    tag_62:\n      mload(0x40)\n      dup1\n      swap2\n      sub\n      swap1\n      return\n        /* \"Campaign.sol\":1208:1406  function contribute() public payable {... */\n    tag_11:\n      tag_63\n      tag_64\n      jump\t// in\n    tag_63:\n      stop\n        /* \"Campaign.sol\":2084:2446  function approveRequest(uint index) public requireValidRequestIndex(index) {... */\n    tag_12:\n      callvalue\n      dup1\n      iszero\n      tag_65\n      jumpi\n      0x00\n      dup1\n      revert\n    tag_65:\n      pop\n      tag_66\n      0x04\n      dup1\n      calldatasize\n      sub\n      dup2\n      add\n      swap1\n      tag_67\n      swap2\n      swap1\n      tag_17\n      jump\t// in\n    tag_67:\n      tag_68\n      jump\t// in\n    tag_66:\n      stop\n        /* \"Campaign.sol\":2452:2898  function finalizeRequest(... */\n    tag_18:\n        /* \"Campaign.sol\":903:910  manager */\n      0x02\n      0x00\n      swap1\n      sload\n      swap1\n      0x0100\n      exp\n      swap1\n      div\n      0xffffffffffffffffffffffffffffffffffffffff\n      and\n        /* \"Campaign.sol\":889:910  msg.sender == manager */\n      0xffffffffffffffffffffffffffffffffffffffff\n      and\n        /* \"Campaign.sol\":889:899  msg.sender */\n      caller\n        /* \"Campaign.sol\":889:910  msg.sender == manager */\n      0xffffffffffffffffffffffffffffffffffffffff\n      and\n      eq\n        /* \"Campaign.sol\":881:911  require(msg.sender == manager) */\n      tag_70\n      jumpi\n      0x00\n      dup1\n      revert\n    tag_70:\n        /* \"Campaign.sol\":2546:2551  index */\n      dup1\n        /* \"Campaign.sol\":1007:1015  requests */\n      0x01\n        /* \"Campaign.sol\":1007:1022  requests.length */\n      dup1\n      sload\n      swap1\n      pop\n        /* \"Campaign.sol\":999:1004  index */\n      dup2\n        /* \"Campaign.sol\":999:1022  index < requests.length */\n      lt\n        /* \"Campaign.sol\":991:1048  require(index < requests.length, \"Invalid request index\") */\n      tag_72\n      jumpi\n      mload(0x40)\n      0x08c379a000000000000000000000000000000000000000000000000000000000\n      dup2\n      mstore\n      0x04\n      add\n      tag_73\n      swap1\n      tag_74\n      jump\t// in\n    tag_73:\n      mload(0x40)\n      dup1\n      swap2\n      sub\n      swap1\n      revert\n    tag_72:\n        /* \"Campaign.sol\":2563:2586  Request storage request */\n      0x00\n        /* \"Campaign.sol\":2589:2597  requests */\n      0x01\n        /* \"Campaign.sol\":2598:2603  index */\n      dup4\n        /* \"Campaign.sol\":2589:2604  requests[index] */\n      dup2\n      sload\n      dup2\n      lt\n      tag_76\n      jumpi\n      tag_77\n      tag_78\n      jump\t// in\n    tag_77:\n    tag_76:\n      swap1\n      0x00\n      mstore\n      keccak256(0x00, 0x20)\n      swap1\n      0x04\n      mul\n      add\n        /* \"Campaign.sol\":2563:2604  Request storage request = requests[index] */\n      swap1\n      pop\n        /* \"Campaign.sol\":2623:2630  request */\n      dup1\n        /* \"Campaign.sol\":2623:2639  request.complete */\n      0x02\n      add\n      0x14\n      swap1\n      sload\n      swap1\n      0x0100\n      exp\n      swap1\n      div\n      0xff\n      and\n        /* \"Campaign.sol\":2622:2639  !request.complete */\n      iszero\n        /* \"Campaign.sol\":2614:2672  require(!request.complete, \"Request is already complete!\") */\n      tag_80\n      jumpi\n      mload(0x40)\n      0x08c379a000000000000000000000000000000000000000000000000000000000\n      dup2\n      mstore\n      0x04\n      add\n      tag_81\n      swap1\n      tag_82\n      jump\t// in\n    tag_81:\n      mload(0x40)\n      dup1\n      swap2\n      sub\n      swap1\n      revert\n    tag_80:\n        /* \"Campaign.sol\":2745:2746  2 */\n      0x02\n        /* \"Campaign.sol\":2728:2742  approversCount */\n      sload(0x05)\n        /* \"Campaign.sol\":2728:2746  approversCount / 2 */\n      tag_83\n      swap2\n      swap1\n      tag_84\n      jump\t// in\n    tag_83:\n        /* \"Campaign.sol\":2703:2710  request */\n      dup2\n        /* \"Campaign.sol\":2703:2724  request.approvalCount */\n      0x03\n      add\n      sload\n        /* \"Campaign.sol\":2703:2747  request.approvalCount > (approversCount / 2) */\n      gt\n        /* \"Campaign.sol\":2682:2805  require(... */\n      tag_85\n      jumpi\n      mload(0x40)\n      0x08c379a000000000000000000000000000000000000000000000000000000000\n      dup2\n      mstore\n      0x04\n      add\n      tag_86\n      swap1\n      tag_87\n      jump\t// in\n    tag_86:\n      mload(0x40)\n      dup1\n      swap2\n      sub\n      swap1\n      revert\n    tag_85:\n        /* \"Campaign.sol\":2816:2823  request */\n      dup1\n        /* \"Campaign.sol\":2816:2833  request.recipient */\n      0x02\n      add\n      0x00\n      swap1\n      sload\n      swap1\n      0x0100\n      exp\n      swap1\n      div\n      0xffffffffffffffffffffffffffffffffffffffff\n      and\n        /* \"Campaign.sol\":2816:2842  request.recipient.transfer */\n      0xffffffffffffffffffffffffffffffffffffffff\n      and\n        /* \"Campaign.sol\":2816:2857  request.recipient.transfer(request.value) */\n      0x08fc\n        /* \"Campaign.sol\":2843:2850  request */\n      dup3\n        /* \"Campaign.sol\":2843:2856  request.value */\n      0x01\n      add\n      sload\n        /* \"Campaign.sol\":2816:2857  request.recipient.transfer(request.value) */\n      swap1\n      dup2\n      iszero\n      mul\n      swap1\n      mload(0x40)\n      0x00\n      mload(0x40)\n      dup1\n      dup4\n      sub\n      dup2\n      dup6\n      dup9\n      dup9\n      call\n      swap4\n      pop\n      pop\n      pop\n      pop\n      iszero\n      dup1\n      iszero\n      tag_89\n      jumpi\n      returndatasize\n      0x00\n      dup1\n      returndatacopy\n      revert(0x00, returndatasize)\n    tag_89:\n      pop\n        /* \"Campaign.sol\":2887:2891  true */\n      0x01\n        /* \"Campaign.sol\":2868:2875  request */\n      dup2\n        /* \"Campaign.sol\":2868:2884  request.complete */\n      0x02\n      add\n      0x14\n        /* \"Campaign.sol\":2868:2891  request.complete = true */\n      0x0100\n      exp\n      dup2\n      sload\n      dup2\n      0xff\n      mul\n      not\n      and\n      swap1\n      dup4\n      iszero\n      iszero\n      mul\n      or\n      swap1\n      sstore\n      pop\n        /* \"Campaign.sol\":2553:2898  {... */\n      pop\n        /* \"Campaign.sol\":921:922  _ */\n      pop\n        /* \"Campaign.sol\":2452:2898  function finalizeRequest(... */\n      pop\n      jump\t// out\n        /* \"Campaign.sol\":769:810  mapping(address => bool) public approvers */\n    tag_23:\n      mstore(0x20, 0x04)\n      dup1\n      0x00\n      mstore\n      keccak256(0x00, 0x40)\n      0x00\n      swap2\n      pop\n      sload\n      swap1\n      0x0100\n      exp\n      swap1\n      div\n      0xff\n      and\n      dup2\n      jump\t// out\n        /* \"Campaign.sol\":704:726  address public manager */\n    tag_28:\n      0x02\n      0x00\n      swap1\n      sload\n      swap1\n      0x0100\n      exp\n      swap1\n      div\n      0xffffffffffffffffffffffffffffffffffffffff\n      and\n      dup2\n      jump\t// out\n        /* \"Campaign.sol\":1412:1679  function getRequestDescription(... */\n    tag_34:\n        /* \"Campaign.sol\":1554:1579  string memory description */\n      0x60\n        /* \"Campaign.sol\":1530:1535  index */\n      dup2\n        /* \"Campaign.sol\":1007:1015  requests */\n      0x01\n        /* \"Campaign.sol\":1007:1022  requests.length */\n      dup1\n      sload\n      swap1\n      pop\n        /* \"Campaign.sol\":999:1004  index */\n      dup2\n        /* \"Campaign.sol\":999:1022  index < requests.length */\n      lt\n        /* \"Campaign.sol\":991:1048  require(index < requests.length, \"Invalid request index\") */\n      tag_91\n      jumpi\n      mload(0x40)\n      0x08c379a000000000000000000000000000000000000000000000000000000000\n      dup2\n      mstore\n      0x04\n      add\n      tag_92\n      swap1\n      tag_74\n      jump\t// in\n    tag_92:\n      mload(0x40)\n      dup1\n      swap2\n      sub\n      swap1\n      revert\n    tag_91:\n        /* \"Campaign.sol\":1595:1618  Request storage request */\n      0x00\n        /* \"Campaign.sol\":1621:1629  requests */\n      0x01\n        /* \"Campaign.sol\":1630:1635  index */\n      dup5\n        /* \"Campaign.sol\":1621:1636  requests[index] */\n      dup2\n      sload\n      dup2\n      lt\n      tag_94\n      jumpi\n      tag_95\n      tag_78\n      jump\t// in\n    tag_95:\n    tag_94:\n      swap1\n      0x00\n      mstore\n      keccak256(0x00, 0x20)\n      swap1\n      0x04\n      mul\n      add\n        /* \"Campaign.sol\":1595:1636  Request storage request = requests[index] */\n      swap1\n      pop\n        /* \"Campaign.sol\":1653:1660  request */\n      dup1\n        /* \"Campaign.sol\":1653:1672  request.description */\n      0x00\n      add\n        /* \"Campaign.sol\":1646:1672  return request.description */\n      dup1\n      sload\n      tag_97\n      swap1\n      tag_98\n      jump\t// in\n    tag_97:\n      dup1\n      0x1f\n      add\n      0x20\n      dup1\n      swap2\n      div\n      mul\n      0x20\n      add\n      mload(0x40)\n      swap1\n      dup2\n      add\n      0x40\n      mstore\n      dup1\n      swap3\n      swap2\n      swap1\n      dup2\n      dup2\n      mstore\n      0x20\n      add\n      dup3\n      dup1\n      sload\n      tag_99\n      swap1\n      tag_98\n      jump\t// in\n    tag_99:\n      dup1\n      iszero\n      tag_100\n      jumpi\n      dup1\n      0x1f\n      lt\n      tag_101\n      jumpi\n      0x0100\n      dup1\n      dup4\n      sload\n      div\n      mul\n      dup4\n      mstore\n      swap2\n      0x20\n      add\n      swap2\n      jump(tag_100)\n    tag_101:\n      dup3\n      add\n      swap2\n      swap1\n      0x00\n      mstore\n      keccak256(0x00, 0x20)\n      swap1\n    tag_102:\n      dup2\n      sload\n      dup2\n      mstore\n      swap1\n      0x01\n      add\n      swap1\n      0x20\n      add\n      dup1\n      dup4\n      gt\n      tag_102\n      jumpi\n      dup3\n      swap1\n      sub\n      0x1f\n      and\n      dup3\n      add\n      swap2\n    tag_100:\n      pop\n      pop\n      pop\n      pop\n      pop\n      swap3\n      pop\n      pop\n        /* \"Campaign.sol\":1412:1679  function getRequestDescription(... */\n      pop\n      swap2\n      swap1\n      pop\n      jump\t// out\n        /* \"Campaign.sol\":673:698  Request[] public requests */\n    tag_40:\n      0x01\n      dup2\n      dup2\n      sload\n      dup2\n      lt\n      tag_103\n      jumpi\n      0x00\n      dup1\n      revert\n    tag_103:\n      swap1\n      0x00\n      mstore\n      keccak256(0x00, 0x20)\n      swap1\n      0x04\n      mul\n      add\n      0x00\n      swap2\n      pop\n      swap1\n      pop\n      dup1\n      0x00\n      add\n      dup1\n      sload\n      tag_105\n      swap1\n      tag_98\n      jump\t// in\n    tag_105:\n      dup1\n      0x1f\n      add\n      0x20\n      dup1\n      swap2\n      div\n      mul\n      0x20\n      add\n      mload(0x40)\n      swap1\n      dup2\n      add\n      0x40\n      mstore\n      dup1\n      swap3\n      swap2\n      swap1\n      dup2\n      dup2\n      mstore\n      0x20\n      add\n      dup3\n      dup1\n      sload\n      tag_106\n      swap1\n      tag_98\n      jump\t// in\n    tag_106:\n      dup1\n      iszero\n      tag_107\n      jumpi\n      dup1\n      0x1f\n      lt\n      tag_108\n      jumpi\n      0x0100\n      dup1\n      dup4\n      sload\n      div\n      mul\n      dup4\n      mstore\n      swap2\n      0x20\n      add\n      swap2\n      jump(tag_107)\n    tag_108:\n      dup3\n      add\n      swap2\n      swap1\n      0x00\n      mstore\n      keccak256(0x00, 0x20)\n      swap1\n    tag_109:\n      dup2\n      sload\n      dup2\n      mstore\n      swap1\n      0x01\n      add\n      swap1\n      0x20\n      add\n      dup1\n      dup4\n      gt\n      tag_109\n      jumpi\n      dup3\n      swap1\n      sub\n      0x1f\n      and\n      dup3\n      add\n      swap2\n    tag_107:\n      pop\n      pop\n      pop\n      pop\n      pop\n      swap1\n      dup1\n      0x01\n      add\n      sload\n      swap1\n      dup1\n      0x02\n      add\n      0x00\n      swap1\n      sload\n      swap1\n      0x0100\n      exp\n      swap1\n      div\n      0xffffffffffffffffffffffffffffffffffffffff\n      and\n      swap1\n      dup1\n      0x02\n      add\n      0x14\n      swap1\n      sload\n      swap1\n      0x0100\n      exp\n      swap1\n      div\n      0xff\n      and\n      swap1\n      dup1\n      0x03\n      add\n      sload\n      swap1\n      pop\n      dup6\n      jump\t// out\n        /* \"Campaign.sol\":816:842  uint public approversCount */\n    tag_45:\n      sload(0x05)\n      dup2\n      jump\t// out\n        /* \"Campaign.sol\":1685:2078  function createRequest(... */\n    tag_52:\n        /* \"Campaign.sol\":903:910  manager */\n      0x02\n      0x00\n      swap1\n      sload\n      swap1\n      0x0100\n      exp\n      swap1\n      div\n      0xffffffffffffffffffffffffffffffffffffffff\n      and\n        /* \"Campaign.sol\":889:910  msg.sender == manager */\n      0xffffffffffffffffffffffffffffffffffffffff\n      and\n        /* \"Campaign.sol\":889:899  msg.sender */\n      caller\n        /* \"Campaign.sol\":889:910  msg.sender == manager */\n      0xffffffffffffffffffffffffffffffffffffffff\n      and\n      eq\n        /* \"Campaign.sol\":881:911  require(msg.sender == manager) */\n      tag_111\n      jumpi\n      0x00\n      dup1\n      revert\n    tag_111:\n        /* \"Campaign.sol\":1834:1842  requests */\n      0x01\n        /* \"Campaign.sol\":1861:2061  Request({... */\n      mload(0x40)\n      dup1\n      0xa0\n      add\n      0x40\n      mstore\n      dup1\n        /* \"Campaign.sol\":1900:1911  description */\n      dup7\n      dup7\n        /* \"Campaign.sol\":1861:2061  Request({... */\n      dup1\n      dup1\n      0x1f\n      add\n      0x20\n      dup1\n      swap2\n      div\n      mul\n      0x20\n      add\n      mload(0x40)\n      swap1\n      dup2\n      add\n      0x40\n      mstore\n      dup1\n      swap4\n      swap3\n      swap2\n      swap1\n      dup2\n      dup2\n      mstore\n      0x20\n      add\n      dup4\n      dup4\n      dup1\n      dup3\n      dup5\n      calldatacopy\n      0x00\n      dup2\n      dup5\n      add\n      mstore\n      not(0x1f)\n      0x1f\n      dup3\n      add\n      and\n      swap1\n      pop\n      dup1\n      dup4\n      add\n      swap3\n      pop\n      pop\n      pop\n      pop\n      pop\n      pop\n      pop\n      dup2\n      mstore\n      0x20\n      add\n        /* \"Campaign.sol\":1936:1941  value */\n      dup5\n        /* \"Campaign.sol\":1861:2061  Request({... */\n      dup2\n      mstore\n      0x20\n      add\n        /* \"Campaign.sol\":1970:1979  recipient */\n      dup4\n        /* \"Campaign.sol\":1861:2061  Request({... */\n      0xffffffffffffffffffffffffffffffffffffffff\n      and\n      dup2\n      mstore\n      0x20\n      add\n        /* \"Campaign.sol\":2007:2012  false */\n      0x00\n        /* \"Campaign.sol\":1861:2061  Request({... */\n      iszero\n      iszero\n      dup2\n      mstore\n      0x20\n      add\n        /* \"Campaign.sol\":2045:2046  0 */\n      0x00\n        /* \"Campaign.sol\":1861:2061  Request({... */\n      dup2\n      mstore\n      pop\n        /* \"Campaign.sol\":1834:2071  requests.push(... */\n      swap1\n      dup1\n      0x01\n      dup2\n      sload\n      add\n      dup1\n      dup3\n      sstore\n      dup1\n      swap2\n      pop\n      pop\n      0x01\n      swap1\n      sub\n      swap1\n      0x00\n      mstore\n      keccak256(0x00, 0x20)\n      swap1\n      0x04\n      mul\n      add\n      0x00\n      swap1\n      swap2\n      swap1\n      swap2\n      swap1\n      swap2\n      pop\n      0x00\n      dup3\n      add\n      mload\n      dup2\n      0x00\n      add\n      swap1\n      dup2\n      tag_114\n      swap2\n      swap1\n      tag_115\n      jump\t// in\n    tag_114:\n      pop\n      0x20\n      dup3\n      add\n      mload\n      dup2\n      0x01\n      add\n      sstore\n      0x40\n      dup3\n      add\n      mload\n      dup2\n      0x02\n      add\n      exp(0x0100, 0x00)\n      dup2\n      sload\n      dup2\n      0xffffffffffffffffffffffffffffffffffffffff\n      mul\n      not\n      and\n      swap1\n      dup4\n      0xffffffffffffffffffffffffffffffffffffffff\n      and\n      mul\n      or\n      swap1\n      sstore\n      pop\n      0x60\n      dup3\n      add\n      mload\n      dup2\n      0x02\n      add\n      exp(0x0100, 0x14)\n      dup2\n      sload\n      dup2\n      0xff\n      mul\n      not\n      and\n      swap1\n      dup4\n      iszero\n      iszero\n      mul\n      or\n      swap1\n      sstore\n      pop\n      0x80\n      dup3\n      add\n      mload\n      dup2\n      0x03\n      add\n      sstore\n      pop\n      pop\n        /* \"Campaign.sol\":1685:2078  function createRequest(... */\n      pop\n      pop\n      pop\n      pop\n      jump\t// out\n        /* \"Campaign.sol\":732:763  uint public minimumContribution */\n    tag_55:\n      sload(0x03)\n      dup2\n      jump\t// out\n        /* \"Campaign.sol\":608:666  mapping(uint => mapping(address => bool)) public approvals */\n    tag_61:\n      mstore(0x20, 0x00)\n      dup2\n      0x00\n      mstore\n      mstore(0x20, keccak256(0x00, 0x40))\n      dup1\n      0x00\n      mstore\n      keccak256(0x00, 0x40)\n      0x00\n      swap2\n      pop\n      swap2\n      pop\n      swap1\n      sload\n      swap1\n      0x0100\n      exp\n      swap1\n      div\n      0xff\n      and\n      dup2\n      jump\t// out\n        /* \"Campaign.sol\":1208:1406  function contribute() public payable {... */\n    tag_64:\n        /* \"Campaign.sol\":1277:1284  manager */\n      0x02\n      0x00\n      swap1\n      sload\n      swap1\n      0x0100\n      exp\n      swap1\n      div\n      0xffffffffffffffffffffffffffffffffffffffff\n      and\n        /* \"Campaign.sol\":1263:1284  msg.sender != manager */\n      0xffffffffffffffffffffffffffffffffffffffff\n      and\n        /* \"Campaign.sol\":1263:1273  msg.sender */\n      caller\n        /* \"Campaign.sol\":1263:1284  msg.sender != manager */\n      0xffffffffffffffffffffffffffffffffffffffff\n      and\n      sub\n        /* \"Campaign.sol\":1255:1285  require(msg.sender != manager) */\n      tag_117\n      jumpi\n      0x00\n      dup1\n      revert\n    tag_117:\n        /* \"Campaign.sol\":1315:1334  minimumContribution */\n      sload(0x03)\n        /* \"Campaign.sol\":1303:1312  msg.value */\n      callvalue\n        /* \"Campaign.sol\":1303:1334  msg.value > minimumContribution */\n      gt\n        /* \"Campaign.sol\":1295:1335  require(msg.value > minimumContribution) */\n      tag_118\n      jumpi\n      0x00\n      dup1\n      revert\n    tag_118:\n        /* \"Campaign.sol\":1369:1373  true */\n      0x01\n        /* \"Campaign.sol\":1345:1354  approvers */\n      0x04\n        /* \"Campaign.sol\":1345:1366  approvers[msg.sender] */\n      0x00\n        /* \"Campaign.sol\":1355:1365  msg.sender */\n      caller\n        /* \"Campaign.sol\":1345:1366  approvers[msg.sender] */\n      0xffffffffffffffffffffffffffffffffffffffff\n      and\n      0xffffffffffffffffffffffffffffffffffffffff\n      and\n      dup2\n      mstore\n      0x20\n      add\n      swap1\n      dup2\n      mstore\n      0x20\n      add\n      0x00\n      keccak256\n      0x00\n        /* \"Campaign.sol\":1345:1373  approvers[msg.sender] = true */\n      0x0100\n      exp\n      dup2\n      sload\n      dup2\n      0xff\n      mul\n      not\n      and\n      swap1\n      dup4\n      iszero\n      iszero\n      mul\n      or\n      swap1\n      sstore\n      pop\n        /* \"Campaign.sol\":1383:1397  approversCount */\n      0x05\n      0x00\n        /* \"Campaign.sol\":1383:1399  approversCount++ */\n      dup2\n      sload\n      dup1\n      swap3\n      swap2\n      swap1\n      tag_119\n      swap1\n      tag_120\n      jump\t// in\n    tag_119:\n      swap2\n      swap1\n      pop\n      sstore\n      pop\n        /* \"Campaign.sol\":1208:1406  function contribute() public payable {... */\n      jump\t// out\n        /* \"Campaign.sol\":2084:2446  function approveRequest(uint index) public requireValidRequestIndex(index) {... */\n    tag_68:\n        /* \"Campaign.sol\":2152:2157  index */\n      dup1\n        /* \"Campaign.sol\":1007:1015  requests */\n      0x01\n        /* \"Campaign.sol\":1007:1022  requests.length */\n      dup1\n      sload\n      swap1\n      pop\n        /* \"Campaign.sol\":999:1004  index */\n      dup2\n        /* \"Campaign.sol\":999:1022  index < requests.length */\n      lt\n        /* \"Campaign.sol\":991:1048  require(index < requests.length, \"Invalid request index\") */\n      tag_122\n      jumpi\n      mload(0x40)\n      0x08c379a000000000000000000000000000000000000000000000000000000000\n      dup2\n      mstore\n      0x04\n      add\n      tag_123\n      swap1\n      tag_74\n      jump\t// in\n    tag_123:\n      mload(0x40)\n      dup1\n      swap2\n      sub\n      swap1\n      revert\n    tag_122:\n        /* \"Campaign.sol\":2177:2186  approvers */\n      0x04\n        /* \"Campaign.sol\":2177:2198  approvers[msg.sender] */\n      0x00\n        /* \"Campaign.sol\":2187:2197  msg.sender */\n      caller\n        /* \"Campaign.sol\":2177:2198  approvers[msg.sender] */\n      0xffffffffffffffffffffffffffffffffffffffff\n      and\n      0xffffffffffffffffffffffffffffffffffffffff\n      and\n      dup2\n      mstore\n      0x20\n      add\n      swap1\n      dup2\n      mstore\n      0x20\n      add\n      0x00\n      keccak256\n      0x00\n      swap1\n      sload\n      swap1\n      0x0100\n      exp\n      swap1\n      div\n      0xff\n      and\n        /* \"Campaign.sol\":2169:2228  require(approvers[msg.sender], \"You are not a contributor\") */\n      tag_125\n      jumpi\n      mload(0x40)\n      0x08c379a000000000000000000000000000000000000000000000000000000000\n      dup2\n      mstore\n      0x04\n      add\n      tag_126\n      swap1\n      tag_127\n      jump\t// in\n    tag_126:\n      mload(0x40)\n      dup1\n      swap2\n      sub\n      swap1\n      revert\n    tag_125:\n        /* \"Campaign.sol\":2260:2269  approvals */\n      0x00\n        /* \"Campaign.sol\":2260:2276  approvals[index] */\n      dup1\n        /* \"Campaign.sol\":2270:2275  index */\n      dup4\n        /* \"Campaign.sol\":2260:2276  approvals[index] */\n      dup2\n      mstore\n      0x20\n      add\n      swap1\n      dup2\n      mstore\n      0x20\n      add\n      0x00\n      keccak256\n        /* \"Campaign.sol\":2260:2288  approvals[index][msg.sender] */\n      0x00\n        /* \"Campaign.sol\":2277:2287  msg.sender */\n      caller\n        /* \"Campaign.sol\":2260:2288  approvals[index][msg.sender] */\n      0xffffffffffffffffffffffffffffffffffffffff\n      and\n      0xffffffffffffffffffffffffffffffffffffffff\n      and\n      dup2\n      mstore\n      0x20\n      add\n      swap1\n      dup2\n      mstore\n      0x20\n      add\n      0x00\n      keccak256\n      0x00\n      swap1\n      sload\n      swap1\n      0x0100\n      exp\n      swap1\n      div\n      0xff\n      and\n        /* \"Campaign.sol\":2259:2288  !approvals[index][msg.sender] */\n      iszero\n        /* \"Campaign.sol\":2238:2352  require(... */\n      tag_128\n      jumpi\n      mload(0x40)\n      0x08c379a000000000000000000000000000000000000000000000000000000000\n      dup2\n      mstore\n      0x04\n      add\n      tag_129\n      swap1\n      tag_130\n      jump\t// in\n    tag_129:\n      mload(0x40)\n      dup1\n      swap2\n      sub\n      swap1\n      revert\n    tag_128:\n        /* \"Campaign.sol\":2394:2398  true */\n      0x01\n        /* \"Campaign.sol\":2363:2372  approvals */\n      0x00\n        /* \"Campaign.sol\":2363:2379  approvals[index] */\n      dup1\n        /* \"Campaign.sol\":2373:2378  index */\n      dup5\n        /* \"Campaign.sol\":2363:2379  approvals[index] */\n      dup2\n      mstore\n      0x20\n      add\n      swap1\n      dup2\n      mstore\n      0x20\n      add\n      0x00\n      keccak256\n        /* \"Campaign.sol\":2363:2391  approvals[index][msg.sender] */\n      0x00\n        /* \"Campaign.sol\":2380:2390  msg.sender */\n      caller\n        /* \"Campaign.sol\":2363:2391  approvals[index][msg.sender] */\n      0xffffffffffffffffffffffffffffffffffffffff\n      and\n      0xffffffffffffffffffffffffffffffffffffffff\n      and\n      dup2\n      mstore\n      0x20\n      add\n      swap1\n      dup2\n      mstore\n      0x20\n      add\n      0x00\n      keccak256\n      0x00\n        /* \"Campaign.sol\":2363:2398  approvals[index][msg.sender] = true */\n      0x0100\n      exp\n      dup2\n      sload\n      dup2\n      0xff\n      mul\n      not\n      and\n      swap1\n      dup4\n      iszero\n      iszero\n      mul\n      or\n      swap1\n      sstore\n      pop\n        /* \"Campaign.sol\":2408:2416  requests */\n      0x01\n        /* \"Campaign.sol\":2417:2422  index */\n      dup3\n        /* \"Campaign.sol\":2408:2423  requests[index] */\n      dup2\n      sload\n      dup2\n      lt\n      tag_131\n      jumpi\n      tag_132\n      tag_78\n      jump\t// in\n    tag_132:\n    tag_131:\n      swap1\n      0x00\n      mstore\n      keccak256(0x00, 0x20)\n      swap1\n      0x04\n      mul\n      add\n        /* \"Campaign.sol\":2408:2437  requests[index].approvalCount */\n      0x03\n      add\n      0x00\n        /* \"Campaign.sol\":2408:2439  requests[index].approvalCount++ */\n      dup2\n      sload\n      dup1\n      swap3\n      swap2\n      swap1\n      tag_134\n      swap1\n      tag_120\n      jump\t// in\n    tag_134:\n      swap2\n      swap1\n      pop\n      sstore\n      pop\n        /* \"Campaign.sol\":2084:2446  function approveRequest(uint index) public requireValidRequestIndex(index) {... */\n      pop\n      pop\n      jump\t// out\n        /* \"#utility.yul\":88:205   */\n    tag_136:\n        /* \"#utility.yul\":197:198   */\n      0x00\n        /* \"#utility.yul\":194:195   */\n      dup1\n        /* \"#utility.yul\":187:199   */\n      revert\n        /* \"#utility.yul\":211:328   */\n    tag_137:\n        /* \"#utility.yul\":320:321   */\n      0x00\n        /* \"#utility.yul\":317:318   */\n      dup1\n        /* \"#utility.yul\":310:322   */\n      revert\n        /* \"#utility.yul\":334:411   */\n    tag_138:\n        /* \"#utility.yul\":371:378   */\n      0x00\n        /* \"#utility.yul\":400:405   */\n      dup2\n        /* \"#utility.yul\":389:405   */\n      swap1\n      pop\n        /* \"#utility.yul\":334:411   */\n      swap2\n      swap1\n      pop\n      jump\t// out\n        /* \"#utility.yul\":417:539   */\n    tag_139:\n        /* \"#utility.yul\":490:514   */\n      tag_197\n        /* \"#utility.yul\":508:513   */\n      dup2\n        /* \"#utility.yul\":490:514   */\n      tag_138\n      jump\t// in\n    tag_197:\n        /* \"#utility.yul\":483:488   */\n      dup2\n        /* \"#utility.yul\":480:515   */\n      eq\n        /* \"#utility.yul\":470:533   */\n      tag_198\n      jumpi\n        /* \"#utility.yul\":529:530   */\n      0x00\n        /* \"#utility.yul\":526:527   */\n      dup1\n        /* \"#utility.yul\":519:531   */\n      revert\n        /* \"#utility.yul\":470:533   */\n    tag_198:\n        /* \"#utility.yul\":417:539   */\n      pop\n      jump\t// out\n        /* \"#utility.yul\":545:684   */\n    tag_140:\n        /* \"#utility.yul\":591:596   */\n      0x00\n        /* \"#utility.yul\":629:635   */\n      dup2\n        /* \"#utility.yul\":616:636   */\n      calldataload\n        /* \"#utility.yul\":607:636   */\n      swap1\n      pop\n        /* \"#utility.yul\":645:678   */\n      tag_200\n        /* \"#utility.yul\":672:677   */\n      dup2\n        /* \"#utility.yul\":645:678   */\n      tag_139\n      jump\t// in\n    tag_200:\n        /* \"#utility.yul\":545:684   */\n      swap3\n      swap2\n      pop\n      pop\n      jump\t// out\n        /* \"#utility.yul\":690:1019   */\n    tag_17:\n        /* \"#utility.yul\":749:755   */\n      0x00\n        /* \"#utility.yul\":798:800   */\n      0x20\n        /* \"#utility.yul\":786:795   */\n      dup3\n        /* \"#utility.yul\":777:784   */\n      dup5\n        /* \"#utility.yul\":773:796   */\n      sub\n        /* \"#utility.yul\":769:801   */\n      slt\n        /* \"#utility.yul\":766:885   */\n      iszero\n      tag_202\n      jumpi\n        /* \"#utility.yul\":804:883   */\n      tag_203\n      tag_136\n      jump\t// in\n    tag_203:\n        /* \"#utility.yul\":766:885   */\n    tag_202:\n        /* \"#utility.yul\":924:925   */\n      0x00\n        /* \"#utility.yul\":949:1002   */\n      tag_204\n        /* \"#utility.yul\":994:1001   */\n      dup5\n        /* \"#utility.yul\":985:991   */\n      dup3\n        /* \"#utility.yul\":974:983   */\n      dup6\n        /* \"#utility.yul\":970:992   */\n      add\n        /* \"#utility.yul\":949:1002   */\n      tag_140\n      jump\t// in\n    tag_204:\n        /* \"#utility.yul\":939:1002   */\n      swap2\n      pop\n        /* \"#utility.yul\":895:1012   */\n      pop\n        /* \"#utility.yul\":690:1019   */\n      swap3\n      swap2\n      pop\n      pop\n      jump\t// out\n        /* \"#utility.yul\":1025:1151   */\n    tag_141:\n        /* \"#utility.yul\":1062:1069   */\n      0x00\n        /* \"#utility.yul\":1102:1144   */\n      0xffffffffffffffffffffffffffffffffffffffff\n        /* \"#utility.yul\":1095:1100   */\n      dup3\n        /* \"#utility.yul\":1091:1145   */\n      and\n        /* \"#utility.yul\":1080:1145   */\n      swap1\n      pop\n        /* \"#utility.yul\":1025:1151   */\n      swap2\n      swap1\n      pop\n      jump\t// out\n        /* \"#utility.yul\":1157:1253   */\n    tag_142:\n        /* \"#utility.yul\":1194:1201   */\n      0x00\n        /* \"#utility.yul\":1223:1247   */\n      tag_207\n        /* \"#utility.yul\":1241:1246   */\n      dup3\n        /* \"#utility.yul\":1223:1247   */\n      tag_141\n      jump\t// in\n    tag_207:\n        /* \"#utility.yul\":1212:1247   */\n      swap1\n      pop\n        /* \"#utility.yul\":1157:1253   */\n      swap2\n      swap1\n      pop\n      jump\t// out\n        /* \"#utility.yul\":1259:1381   */\n    tag_143:\n        /* \"#utility.yul\":1332:1356   */\n      tag_209\n        /* \"#utility.yul\":1350:1355   */\n      dup2\n        /* \"#utility.yul\":1332:1356   */\n      tag_142\n      jump\t// in\n    tag_209:\n        /* \"#utility.yul\":1325:1330   */\n      dup2\n        /* \"#utility.yul\":1322:1357   */\n      eq\n        /* \"#utility.yul\":1312:1375   */\n      tag_210\n      jumpi\n        /* \"#utility.yul\":1371:1372   */\n      0x00\n        /* \"#utility.yul\":1368:1369   */\n      dup1\n        /* \"#utility.yul\":1361:1373   */\n      revert\n        /* \"#utility.yul\":1312:1375   */\n    tag_210:\n        /* \"#utility.yul\":1259:1381   */\n      pop\n      jump\t// out\n        /* \"#utility.yul\":1387:1526   */\n    tag_144:\n        /* \"#utility.yul\":1433:1438   */\n      0x00\n        /* \"#utility.yul\":1471:1477   */\n      dup2\n        /* \"#utility.yul\":1458:1478   */\n      calldataload\n        /* \"#utility.yul\":1449:1478   */\n      swap1\n      pop\n        /* \"#utility.yul\":1487:1520   */\n      tag_212\n        /* \"#utility.yul\":1514:1519   */\n      dup2\n        /* \"#utility.yul\":1487:1520   */\n      tag_143\n      jump\t// in\n    tag_212:\n        /* \"#utility.yul\":1387:1526   */\n      swap3\n      swap2\n      pop\n      pop\n      jump\t// out\n        /* \"#utility.yul\":1532:1861   */\n    tag_22:\n        /* \"#utility.yul\":1591:1597   */\n      0x00\n        /* \"#utility.yul\":1640:1642   */\n      0x20\n        /* \"#utility.yul\":1628:1637   */\n      dup3\n        /* \"#utility.yul\":1619:1626   */\n      dup5\n        /* \"#utility.yul\":1615:1638   */\n      sub\n        /* \"#utility.yul\":1611:1643   */\n      slt\n        /* \"#utility.yul\":1608:1727   */\n      iszero\n      tag_214\n      jumpi\n        /* \"#utility.yul\":1646:1725   */\n      tag_215\n      tag_136\n      jump\t// in\n    tag_215:\n        /* \"#utility.yul\":1608:1727   */\n    tag_214:\n        /* \"#utility.yul\":1766:1767   */\n      0x00\n        /* \"#utility.yul\":1791:1844   */\n      tag_216\n        /* \"#utility.yul\":1836:1843   */\n      dup5\n        /* \"#utility.yul\":1827:1833   */\n      dup3\n        /* \"#utility.yul\":1816:1825   */\n      dup6\n        /* \"#utility.yul\":1812:1834   */\n      add\n        /* \"#utility.yul\":1791:1844   */\n      tag_144\n      jump\t// in\n    tag_216:\n        /* \"#utility.yul\":1781:1844   */\n      swap2\n      pop\n        /* \"#utility.yul\":1737:1854   */\n      pop\n        /* \"#utility.yul\":1532:1861   */\n      swap3\n      swap2\n      pop\n      pop\n      jump\t// out\n        /* \"#utility.yul\":1867:1957   */\n    tag_145:\n        /* \"#utility.yul\":1901:1908   */\n      0x00\n        /* \"#utility.yul\":1944:1949   */\n      dup2\n        /* \"#utility.yul\":1937:1950   */\n      iszero\n        /* \"#utility.yul\":1930:1951   */\n      iszero\n        /* \"#utility.yul\":1919:1951   */\n      swap1\n      pop\n        /* \"#utility.yul\":1867:1957   */\n      swap2\n      swap1\n      pop\n      jump\t// out\n        /* \"#utility.yul\":1963:2072   */\n    tag_146:\n        /* \"#utility.yul\":2044:2065   */\n      tag_219\n        /* \"#utility.yul\":2059:2064   */\n      dup2\n        /* \"#utility.yul\":2044:2065   */\n      tag_145\n      jump\t// in\n    tag_219:\n        /* \"#utility.yul\":2039:2042   */\n      dup3\n        /* \"#utility.yul\":2032:2066   */\n      mstore\n        /* \"#utility.yul\":1963:2072   */\n      pop\n      pop\n      jump\t// out\n        /* \"#utility.yul\":2078:2288   */\n    tag_25:\n        /* \"#utility.yul\":2165:2169   */\n      0x00\n        /* \"#utility.yul\":2203:2205   */\n      0x20\n        /* \"#utility.yul\":2192:2201   */\n      dup3\n        /* \"#utility.yul\":2188:2206   */\n      add\n        /* \"#utility.yul\":2180:2206   */\n      swap1\n      pop\n        /* \"#utility.yul\":2216:2281   */\n      tag_221\n        /* \"#utility.yul\":2278:2279   */\n      0x00\n        /* \"#utility.yul\":2267:2276   */\n      dup4\n        /* \"#utility.yul\":2263:2280   */\n      add\n        /* \"#utility.yul\":2254:2260   */\n      dup5\n        /* \"#utility.yul\":2216:2281   */\n      tag_146\n      jump\t// in\n    tag_221:\n        /* \"#utility.yul\":2078:2288   */\n      swap3\n      swap2\n      pop\n      pop\n      jump\t// out\n        /* \"#utility.yul\":2294:2412   */\n    tag_147:\n        /* \"#utility.yul\":2381:2405   */\n      tag_223\n        /* \"#utility.yul\":2399:2404   */\n      dup2\n        /* \"#utility.yul\":2381:2405   */\n      tag_142\n      jump\t// in\n    tag_223:\n        /* \"#utility.yul\":2376:2379   */\n      dup3\n        /* \"#utility.yul\":2369:2406   */\n      mstore\n        /* \"#utility.yul\":2294:2412   */\n      pop\n      pop\n      jump\t// out\n        /* \"#utility.yul\":2418:2640   */\n    tag_30:\n        /* \"#utility.yul\":2511:2515   */\n      0x00\n        /* \"#utility.yul\":2549:2551   */\n      0x20\n        /* \"#utility.yul\":2538:2547   */\n      dup3\n        /* \"#utility.yul\":2534:2552   */\n      add\n        /* \"#utility.yul\":2526:2552   */\n      swap1\n      pop\n        /* \"#utility.yul\":2562:2633   */\n      tag_225\n        /* \"#utility.yul\":2630:2631   */\n      0x00\n        /* \"#utility.yul\":2619:2628   */\n      dup4\n        /* \"#utility.yul\":2615:2632   */\n      add\n        /* \"#utility.yul\":2606:2612   */\n      dup5\n        /* \"#utility.yul\":2562:2633   */\n      tag_147\n      jump\t// in\n    tag_225:\n        /* \"#utility.yul\":2418:2640   */\n      swap3\n      swap2\n      pop\n      pop\n      jump\t// out\n        /* \"#utility.yul\":2646:2745   */\n    tag_148:\n        /* \"#utility.yul\":2698:2704   */\n      0x00\n        /* \"#utility.yul\":2732:2737   */\n      dup2\n        /* \"#utility.yul\":2726:2738   */\n      mload\n        /* \"#utility.yul\":2716:2738   */\n      swap1\n      pop\n        /* \"#utility.yul\":2646:2745   */\n      swap2\n      swap1\n      pop\n      jump\t// out\n        /* \"#utility.yul\":2751:2920   */\n    tag_149:\n        /* \"#utility.yul\":2835:2846   */\n      0x00\n        /* \"#utility.yul\":2869:2875   */\n      dup3\n        /* \"#utility.yul\":2864:2867   */\n      dup3\n        /* \"#utility.yul\":2857:2876   */\n      mstore\n        /* \"#utility.yul\":2909:2913   */\n      0x20\n        /* \"#utility.yul\":2904:2907   */\n      dup3\n        /* \"#utility.yul\":2900:2914   */\n      add\n        /* \"#utility.yul\":2885:2914   */\n      swap1\n      pop\n        /* \"#utility.yul\":2751:2920   */\n      swap3\n      swap2\n      pop\n      pop\n      jump\t// out\n        /* \"#utility.yul\":2926:3172   */\n    tag_150:\n        /* \"#utility.yul\":3007:3008   */\n      0x00\n        /* \"#utility.yul\":3017:3130   */\n    tag_229:\n        /* \"#utility.yul\":3031:3037   */\n      dup4\n        /* \"#utility.yul\":3028:3029   */\n      dup2\n        /* \"#utility.yul\":3025:3038   */\n      lt\n        /* \"#utility.yul\":3017:3130   */\n      iszero\n      tag_231\n      jumpi\n        /* \"#utility.yul\":3116:3117   */\n      dup1\n        /* \"#utility.yul\":3111:3114   */\n      dup3\n        /* \"#utility.yul\":3107:3118   */\n      add\n        /* \"#utility.yul\":3101:3119   */\n      mload\n        /* \"#utility.yul\":3097:3098   */\n      dup2\n        /* \"#utility.yul\":3092:3095   */\n      dup5\n        /* \"#utility.yul\":3088:3099   */\n      add\n        /* \"#utility.yul\":3081:3120   */\n      mstore\n        /* \"#utility.yul\":3053:3055   */\n      0x20\n        /* \"#utility.yul\":3050:3051   */\n      dup2\n        /* \"#utility.yul\":3046:3056   */\n      add\n        /* \"#utility.yul\":3041:3056   */\n      swap1\n      pop\n        /* \"#utility.yul\":3017:3130   */\n      jump(tag_229)\n    tag_231:\n        /* \"#utility.yul\":3164:3165   */\n      0x00\n        /* \"#utility.yul\":3155:3161   */\n      dup5\n        /* \"#utility.yul\":3150:3153   */\n      dup5\n        /* \"#utility.yul\":3146:3162   */\n      add\n        /* \"#utility.yul\":3139:3166   */\n      mstore\n        /* \"#utility.yul\":2988:3172   */\n      pop\n        /* \"#utility.yul\":2926:3172   */\n      pop\n      pop\n      pop\n      jump\t// out\n        /* \"#utility.yul\":3178:3280   */\n    tag_151:\n        /* \"#utility.yul\":3219:3225   */\n      0x00\n        /* \"#utility.yul\":3270:3272   */\n      0x1f\n        /* \"#utility.yul\":3266:3273   */\n      not\n        /* \"#utility.yul\":3261:3263   */\n      0x1f\n        /* \"#utility.yul\":3254:3259   */\n      dup4\n        /* \"#utility.yul\":3250:3264   */\n      add\n        /* \"#utility.yul\":3246:3274   */\n      and\n        /* \"#utility.yul\":3236:3274   */\n      swap1\n      pop\n        /* \"#utility.yul\":3178:3280   */\n      swap2\n      swap1\n      pop\n      jump\t// out\n        /* \"#utility.yul\":3286:3663   */\n    tag_152:\n        /* \"#utility.yul\":3374:3377   */\n      0x00\n        /* \"#utility.yul\":3402:3441   */\n      tag_234\n        /* \"#utility.yul\":3435:3440   */\n      dup3\n        /* \"#utility.yul\":3402:3441   */\n      tag_148\n      jump\t// in\n    tag_234:\n        /* \"#utility.yul\":3457:3528   */\n      tag_235\n        /* \"#utility.yul\":3521:3527   */\n      dup2\n        /* \"#utility.yul\":3516:3519   */\n      dup6\n        /* \"#utility.yul\":3457:3528   */\n      tag_149\n      jump\t// in\n    tag_235:\n        /* \"#utility.yul\":3450:3528   */\n      swap4\n      pop\n        /* \"#utility.yul\":3537:3602   */\n      tag_236\n        /* \"#utility.yul\":3595:3601   */\n      dup2\n        /* \"#utility.yul\":3590:3593   */\n      dup6\n        /* \"#utility.yul\":3583:3587   */\n      0x20\n        /* \"#utility.yul\":3576:3581   */\n      dup7\n        /* \"#utility.yul\":3572:3588   */\n      add\n        /* \"#utility.yul\":3537:3602   */\n      tag_150\n      jump\t// in\n    tag_236:\n        /* \"#utility.yul\":3627:3656   */\n      tag_237\n        /* \"#utility.yul\":3649:3655   */\n      dup2\n        /* \"#utility.yul\":3627:3656   */\n      tag_151\n      jump\t// in\n    tag_237:\n        /* \"#utility.yul\":3622:3625   */\n      dup5\n        /* \"#utility.yul\":3618:3657   */\n      add\n        /* \"#utility.yul\":3611:3657   */\n      swap2\n      pop\n        /* \"#utility.yul\":3378:3663   */\n      pop\n        /* \"#utility.yul\":3286:3663   */\n      swap3\n      swap2\n      pop\n      pop\n      jump\t// out\n        /* \"#utility.yul\":3669:3982   */\n    tag_36:\n        /* \"#utility.yul\":3782:3786   */\n      0x00\n        /* \"#utility.yul\":3820:3822   */\n      0x20\n        /* \"#utility.yul\":3809:3818   */\n      dup3\n        /* \"#utility.yul\":3805:3823   */\n      add\n        /* \"#utility.yul\":3797:3823   */\n      swap1\n      pop\n        /* \"#utility.yul\":3869:3878   */\n      dup2\n        /* \"#utility.yul\":3863:3867   */\n      dup2\n        /* \"#utility.yul\":3859:3879   */\n      sub\n        /* \"#utility.yul\":3855:3856   */\n      0x00\n        /* \"#utility.yul\":3844:3853   */\n      dup4\n        /* \"#utility.yul\":3840:3857   */\n      add\n        /* \"#utility.yul\":3833:3880   */\n      mstore\n        /* \"#utility.yul\":3897:3975   */\n      tag_239\n        /* \"#utility.yul\":3970:3974   */\n      dup2\n        /* \"#utility.yul\":3961:3967   */\n      dup5\n        /* \"#utility.yul\":3897:3975   */\n      tag_152\n      jump\t// in\n    tag_239:\n        /* \"#utility.yul\":3889:3975   */\n      swap1\n      pop\n        /* \"#utility.yul\":3669:3982   */\n      swap3\n      swap2\n      pop\n      pop\n      jump\t// out\n        /* \"#utility.yul\":3988:4106   */\n    tag_153:\n        /* \"#utility.yul\":4075:4099   */\n      tag_241\n        /* \"#utility.yul\":4093:4098   */\n      dup2\n        /* \"#utility.yul\":4075:4099   */\n      tag_138\n      jump\t// in\n    tag_241:\n        /* \"#utility.yul\":4070:4073   */\n      dup3\n        /* \"#utility.yul\":4063:4100   */\n      mstore\n        /* \"#utility.yul\":3988:4106   */\n      pop\n      pop\n      jump\t// out\n        /* \"#utility.yul\":4112:4216   */\n    tag_154:\n        /* \"#utility.yul\":4157:4164   */\n      0x00\n        /* \"#utility.yul\":4186:4210   */\n      tag_243\n        /* \"#utility.yul\":4204:4209   */\n      dup3\n        /* \"#utility.yul\":4186:4210   */\n      tag_141\n      jump\t// in\n    tag_243:\n        /* \"#utility.yul\":4175:4210   */\n      swap1\n      pop\n        /* \"#utility.yul\":4112:4216   */\n      swap2\n      swap1\n      pop\n      jump\t// out\n        /* \"#utility.yul\":4222:4364   */\n    tag_155:\n        /* \"#utility.yul\":4325:4357   */\n      tag_245\n        /* \"#utility.yul\":4351:4356   */\n      dup2\n        /* \"#utility.yul\":4325:4357   */\n      tag_154\n      jump\t// in\n    tag_245:\n        /* \"#utility.yul\":4320:4323   */\n      dup3\n        /* \"#utility.yul\":4313:4358   */\n      mstore\n        /* \"#utility.yul\":4222:4364   */\n      pop\n      pop\n      jump\t// out\n        /* \"#utility.yul\":4370:5145   */\n    tag_42:\n        /* \"#utility.yul\":4605:4609   */\n      0x00\n        /* \"#utility.yul\":4643:4646   */\n      0xa0\n        /* \"#utility.yul\":4632:4641   */\n      dup3\n        /* \"#utility.yul\":4628:4647   */\n      add\n        /* \"#utility.yul\":4620:4647   */\n      swap1\n      pop\n        /* \"#utility.yul\":4693:4702   */\n      dup2\n        /* \"#utility.yul\":4687:4691   */\n      dup2\n        /* \"#utility.yul\":4683:4703   */\n      sub\n        /* \"#utility.yul\":4679:4680   */\n      0x00\n        /* \"#utility.yul\":4668:4677   */\n      dup4\n        /* \"#utility.yul\":4664:4681   */\n      add\n        /* \"#utility.yul\":4657:4704   */\n      mstore\n        /* \"#utility.yul\":4721:4799   */\n      tag_247\n        /* \"#utility.yul\":4794:4798   */\n      dup2\n        /* \"#utility.yul\":4785:4791   */\n      dup9\n        /* \"#utility.yul\":4721:4799   */\n      tag_152\n      jump\t// in\n    tag_247:\n        /* \"#utility.yul\":4713:4799   */\n      swap1\n      pop\n        /* \"#utility.yul\":4809:4881   */\n      tag_248\n        /* \"#utility.yul\":4877:4879   */\n      0x20\n        /* \"#utility.yul\":4866:4875   */\n      dup4\n        /* \"#utility.yul\":4862:4880   */\n      add\n        /* \"#utility.yul\":4853:4859   */\n      dup8\n        /* \"#utility.yul\":4809:4881   */\n      tag_153\n      jump\t// in\n    tag_248:\n        /* \"#utility.yul\":4891:4979   */\n      tag_249\n        /* \"#utility.yul\":4975:4977   */\n      0x40\n        /* \"#utility.yul\":4964:4973   */\n      dup4\n        /* \"#utility.yul\":4960:4978   */\n      add\n        /* \"#utility.yul\":4951:4957   */\n      dup7\n        /* \"#utility.yul\":4891:4979   */\n      tag_155\n      jump\t// in\n    tag_249:\n        /* \"#utility.yul\":4989:5055   */\n      tag_250\n        /* \"#utility.yul\":5051:5053   */\n      0x60\n        /* \"#utility.yul\":5040:5049   */\n      dup4\n        /* \"#utility.yul\":5036:5054   */\n      add\n        /* \"#utility.yul\":5027:5033   */\n      dup6\n        /* \"#utility.yul\":4989:5055   */\n      tag_146\n      jump\t// in\n    tag_250:\n        /* \"#utility.yul\":5065:5138   */\n      tag_251\n        /* \"#utility.yul\":5133:5136   */\n      0x80\n        /* \"#utility.yul\":5122:5131   */\n      dup4\n        /* \"#utility.yul\":5118:5137   */\n      add\n        /* \"#utility.yul\":5109:5115   */\n      dup5\n        /* \"#utility.yul\":5065:5138   */\n      tag_153\n      jump\t// in\n    tag_251:\n        /* \"#utility.yul\":4370:5145   */\n      swap7\n      swap6\n      pop\n      pop\n      pop\n      pop\n      pop\n      pop\n      jump\t// out\n        /* \"#utility.yul\":5151:5373   */\n    tag_47:\n        /* \"#utility.yul\":5244:5248   */\n      0x00\n        /* \"#utility.yul\":5282:5284   */\n      0x20\n        /* \"#utility.yul\":5271:5280   */\n      dup3\n        /* \"#utility.yul\":5267:5285   */\n      add\n        /* \"#utility.yul\":5259:5285   */\n      swap1\n      pop\n        /* \"#utility.yul\":5295:5366   */\n      tag_253\n        /* \"#utility.yul\":5363:5364   */\n      0x00\n        /* \"#utility.yul\":5352:5361   */\n      dup4\n        /* \"#utility.yul\":5348:5365   */\n      add\n        /* \"#utility.yul\":5339:5345   */\n      dup5\n        /* \"#utility.yul\":5295:5366   */\n      tag_153\n      jump\t// in\n    tag_253:\n        /* \"#utility.yul\":5151:5373   */\n      swap3\n      swap2\n      pop\n      pop\n      jump\t// out\n        /* \"#utility.yul\":5379:5496   */\n    tag_156:\n        /* \"#utility.yul\":5488:5489   */\n      0x00\n        /* \"#utility.yul\":5485:5486   */\n      dup1\n        /* \"#utility.yul\":5478:5490   */\n      revert\n        /* \"#utility.yul\":5502:5619   */\n    tag_157:\n        /* \"#utility.yul\":5611:5612   */\n      0x00\n        /* \"#utility.yul\":5608:5609   */\n      dup1\n        /* \"#utility.yul\":5601:5613   */\n      revert\n        /* \"#utility.yul\":5625:5742   */\n    tag_158:\n        /* \"#utility.yul\":5734:5735   */\n      0x00\n        /* \"#utility.yul\":5731:5732   */\n      dup1\n        /* \"#utility.yul\":5724:5736   */\n      revert\n        /* \"#utility.yul\":5762:6315   */\n    tag_159:\n        /* \"#utility.yul\":5820:5828   */\n      0x00\n        /* \"#utility.yul\":5830:5836   */\n      dup1\n        /* \"#utility.yul\":5880:5883   */\n      dup4\n        /* \"#utility.yul\":5873:5877   */\n      0x1f\n        /* \"#utility.yul\":5865:5871   */\n      dup5\n        /* \"#utility.yul\":5861:5878   */\n      add\n        /* \"#utility.yul\":5857:5884   */\n      slt\n        /* \"#utility.yul\":5847:5969   */\n      tag_258\n      jumpi\n        /* \"#utility.yul\":5888:5967   */\n      tag_259\n      tag_156\n      jump\t// in\n    tag_259:\n        /* \"#utility.yul\":5847:5969   */\n    tag_258:\n        /* \"#utility.yul\":6001:6007   */\n      dup3\n        /* \"#utility.yul\":5988:6008   */\n      calldataload\n        /* \"#utility.yul\":5978:6008   */\n      swap1\n      pop\n        /* \"#utility.yul\":6031:6049   */\n      0xffffffffffffffff\n        /* \"#utility.yul\":6023:6029   */\n      dup2\n        /* \"#utility.yul\":6020:6050   */\n      gt\n        /* \"#utility.yul\":6017:6134   */\n      iszero\n      tag_260\n      jumpi\n        /* \"#utility.yul\":6053:6132   */\n      tag_261\n      tag_157\n      jump\t// in\n    tag_261:\n        /* \"#utility.yul\":6017:6134   */\n    tag_260:\n        /* \"#utility.yul\":6167:6171   */\n      0x20\n        /* \"#utility.yul\":6159:6165   */\n      dup4\n        /* \"#utility.yul\":6155:6172   */\n      add\n        /* \"#utility.yul\":6143:6172   */\n      swap2\n      pop\n        /* \"#utility.yul\":6221:6224   */\n      dup4\n        /* \"#utility.yul\":6213:6217   */\n      0x01\n        /* \"#utility.yul\":6205:6211   */\n      dup3\n        /* \"#utility.yul\":6201:6218   */\n      mul\n        /* \"#utility.yul\":6191:6199   */\n      dup4\n        /* \"#utility.yul\":6187:6219   */\n      add\n        /* \"#utility.yul\":6184:6225   */\n      gt\n        /* \"#utility.yul\":6181:6309   */\n      iszero\n      tag_262\n      jumpi\n        /* \"#utility.yul\":6228:6307   */\n      tag_263\n      tag_158\n      jump\t// in\n    tag_263:\n        /* \"#utility.yul\":6181:6309   */\n    tag_262:\n        /* \"#utility.yul\":5762:6315   */\n      swap3\n      pop\n      swap3\n      swap1\n      pop\n      jump\t// out\n        /* \"#utility.yul\":6321:6459   */\n    tag_160:\n        /* \"#utility.yul\":6402:6434   */\n      tag_265\n        /* \"#utility.yul\":6428:6433   */\n      dup2\n        /* \"#utility.yul\":6402:6434   */\n      tag_154\n      jump\t// in\n    tag_265:\n        /* \"#utility.yul\":6395:6400   */\n      dup2\n        /* \"#utility.yul\":6392:6435   */\n      eq\n        /* \"#utility.yul\":6382:6453   */\n      tag_266\n      jumpi\n        /* \"#utility.yul\":6449:6450   */\n      0x00\n        /* \"#utility.yul\":6446:6447   */\n      dup1\n        /* \"#utility.yul\":6439:6451   */\n      revert\n        /* \"#utility.yul\":6382:6453   */\n    tag_266:\n        /* \"#utility.yul\":6321:6459   */\n      pop\n      jump\t// out\n        /* \"#utility.yul\":6465:6620   */\n    tag_161:\n        /* \"#utility.yul\":6519:6524   */\n      0x00\n        /* \"#utility.yul\":6557:6563   */\n      dup2\n        /* \"#utility.yul\":6544:6564   */\n      calldataload\n        /* \"#utility.yul\":6535:6564   */\n      swap1\n      pop\n        /* \"#utility.yul\":6573:6614   */\n      tag_268\n        /* \"#utility.yul\":6608:6613   */\n      dup2\n        /* \"#utility.yul\":6573:6614   */\n      tag_160\n      jump\t// in\n    tag_268:\n        /* \"#utility.yul\":6465:6620   */\n      swap3\n      swap2\n      pop\n      pop\n      jump\t// out\n        /* \"#utility.yul\":6626:7461   */\n    tag_51:\n        /* \"#utility.yul\":6723:6729   */\n      0x00\n        /* \"#utility.yul\":6731:6737   */\n      dup1\n        /* \"#utility.yul\":6739:6745   */\n      0x00\n        /* \"#utility.yul\":6747:6753   */\n      dup1\n        /* \"#utility.yul\":6796:6798   */\n      0x60\n        /* \"#utility.yul\":6784:6793   */\n      dup6\n        /* \"#utility.yul\":6775:6782   */\n      dup8\n        /* \"#utility.yul\":6771:6794   */\n      sub\n        /* \"#utility.yul\":6767:6799   */\n      slt\n        /* \"#utility.yul\":6764:6883   */\n      iszero\n      tag_270\n      jumpi\n        /* \"#utility.yul\":6802:6881   */\n      tag_271\n      tag_136\n      jump\t// in\n    tag_271:\n        /* \"#utility.yul\":6764:6883   */\n    tag_270:\n        /* \"#utility.yul\":6950:6951   */\n      0x00\n        /* \"#utility.yul\":6939:6948   */\n      dup6\n        /* \"#utility.yul\":6935:6952   */\n      add\n        /* \"#utility.yul\":6922:6953   */\n      calldataload\n        /* \"#utility.yul\":6980:6998   */\n      0xffffffffffffffff\n        /* \"#utility.yul\":6972:6978   */\n      dup2\n        /* \"#utility.yul\":6969:6999   */\n      gt\n        /* \"#utility.yul\":6966:7083   */\n      iszero\n      tag_272\n      jumpi\n        /* \"#utility.yul\":7002:7081   */\n      tag_273\n      tag_137\n      jump\t// in\n    tag_273:\n        /* \"#utility.yul\":6966:7083   */\n    tag_272:\n        /* \"#utility.yul\":7115:7180   */\n      tag_274\n        /* \"#utility.yul\":7172:7179   */\n      dup8\n        /* \"#utility.yul\":7163:7169   */\n      dup3\n        /* \"#utility.yul\":7152:7161   */\n      dup9\n        /* \"#utility.yul\":7148:7170   */\n      add\n        /* \"#utility.yul\":7115:7180   */\n      tag_159\n      jump\t// in\n    tag_274:\n        /* \"#utility.yul\":7097:7180   */\n      swap5\n      pop\n      swap5\n      pop\n        /* \"#utility.yul\":6893:7190   */\n      pop\n        /* \"#utility.yul\":7229:7231   */\n      0x20\n        /* \"#utility.yul\":7255:7308   */\n      tag_275\n        /* \"#utility.yul\":7300:7307   */\n      dup8\n        /* \"#utility.yul\":7291:7297   */\n      dup3\n        /* \"#utility.yul\":7280:7289   */\n      dup9\n        /* \"#utility.yul\":7276:7298   */\n      add\n        /* \"#utility.yul\":7255:7308   */\n      tag_140\n      jump\t// in\n    tag_275:\n        /* \"#utility.yul\":7245:7308   */\n      swap3\n      pop\n        /* \"#utility.yul\":7200:7318   */\n      pop\n        /* \"#utility.yul\":7357:7359   */\n      0x40\n        /* \"#utility.yul\":7383:7444   */\n      tag_276\n        /* \"#utility.yul\":7436:7443   */\n      dup8\n        /* \"#utility.yul\":7427:7433   */\n      dup3\n        /* \"#utility.yul\":7416:7425   */\n      dup9\n        /* \"#utility.yul\":7412:7434   */\n      add\n        /* \"#utility.yul\":7383:7444   */\n      tag_161\n      jump\t// in\n    tag_276:\n        /* \"#utility.yul\":7373:7444   */\n      swap2\n      pop\n        /* \"#utility.yul\":7328:7454   */\n      pop\n        /* \"#utility.yul\":6626:7461   */\n      swap3\n      swap6\n      swap2\n      swap5\n      pop\n      swap3\n      pop\n      jump\t// out\n        /* \"#utility.yul\":7467:7941   */\n    tag_60:\n        /* \"#utility.yul\":7535:7541   */\n      0x00\n        /* \"#utility.yul\":7543:7549   */\n      dup1\n        /* \"#utility.yul\":7592:7594   */\n      0x40\n        /* \"#utility.yul\":7580:7589   */\n      dup4\n        /* \"#utility.yul\":7571:7578   */\n      dup6\n        /* \"#utility.yul\":7567:7590   */\n      sub\n        /* \"#utility.yul\":7563:7595   */\n      slt\n        /* \"#utility.yul\":7560:7679   */\n      iszero\n      tag_278\n      jumpi\n        /* \"#utility.yul\":7598:7677   */\n      tag_279\n      tag_136\n      jump\t// in\n    tag_279:\n        /* \"#utility.yul\":7560:7679   */\n    tag_278:\n        /* \"#utility.yul\":7718:7719   */\n      0x00\n        /* \"#utility.yul\":7743:7796   */\n      tag_280\n        /* \"#utility.yul\":7788:7795   */\n      dup6\n        /* \"#utility.yul\":7779:7785   */\n      dup3\n        /* \"#utility.yul\":7768:7777   */\n      dup7\n        /* \"#utility.yul\":7764:7786   */\n      add\n        /* \"#utility.yul\":7743:7796   */\n      tag_140\n      jump\t// in\n    tag_280:\n        /* \"#utility.yul\":7733:7796   */\n      swap3\n      pop\n        /* \"#utility.yul\":7689:7806   */\n      pop\n        /* \"#utility.yul\":7845:7847   */\n      0x20\n        /* \"#utility.yul\":7871:7924   */\n      tag_281\n        /* \"#utility.yul\":7916:7923   */\n      dup6\n        /* \"#utility.yul\":7907:7913   */\n      dup3\n        /* \"#utility.yul\":7896:7905   */\n      dup7\n        /* \"#utility.yul\":7892:7914   */\n      add\n        /* \"#utility.yul\":7871:7924   */\n      tag_144\n      jump\t// in\n    tag_281:\n        /* \"#utility.yul\":7861:7924   */\n      swap2\n      pop\n        /* \"#utility.yul\":7816:7934   */\n      pop\n        /* \"#utility.yul\":7467:7941   */\n      swap3\n      pop\n      swap3\n      swap1\n      pop\n      jump\t// out\n        /* \"#utility.yul\":7947:8118   */\n    tag_162:\n        /* \"#utility.yul\":8087:8110   */\n      0x496e76616c6964207265717565737420696e6465780000000000000000000000\n        /* \"#utility.yul\":8083:8084   */\n      0x00\n        /* \"#utility.yul\":8075:8081   */\n      dup3\n        /* \"#utility.yul\":8071:8085   */\n      add\n        /* \"#utility.yul\":8064:8111   */\n      mstore\n        /* \"#utility.yul\":7947:8118   */\n      pop\n      jump\t// out\n        /* \"#utility.yul\":8124:8490   */\n    tag_163:\n        /* \"#utility.yul\":8266:8269   */\n      0x00\n        /* \"#utility.yul\":8287:8354   */\n      tag_284\n        /* \"#utility.yul\":8351:8353   */\n      0x15\n        /* \"#utility.yul\":8346:8349   */\n      dup4\n        /* \"#utility.yul\":8287:8354   */\n      tag_149\n      jump\t// in\n    tag_284:\n        /* \"#utility.yul\":8280:8354   */\n      swap2\n      pop\n        /* \"#utility.yul\":8363:8456   */\n      tag_285\n        /* \"#utility.yul\":8452:8455   */\n      dup3\n        /* \"#utility.yul\":8363:8456   */\n      tag_162\n      jump\t// in\n    tag_285:\n        /* \"#utility.yul\":8481:8483   */\n      0x20\n        /* \"#utility.yul\":8476:8479   */\n      dup3\n        /* \"#utility.yul\":8472:8484   */\n      add\n        /* \"#utility.yul\":8465:8484   */\n      swap1\n      pop\n        /* \"#utility.yul\":8124:8490   */\n      swap2\n      swap1\n      pop\n      jump\t// out\n        /* \"#utility.yul\":8496:8915   */\n    tag_74:\n        /* \"#utility.yul\":8662:8666   */\n      0x00\n        /* \"#utility.yul\":8700:8702   */\n      0x20\n        /* \"#utility.yul\":8689:8698   */\n      dup3\n        /* \"#utility.yul\":8685:8703   */\n      add\n        /* \"#utility.yul\":8677:8703   */\n      swap1\n      pop\n        /* \"#utility.yul\":8749:8758   */\n      dup2\n        /* \"#utility.yul\":8743:8747   */\n      dup2\n        /* \"#utility.yul\":8739:8759   */\n      sub\n        /* \"#utility.yul\":8735:8736   */\n      0x00\n        /* \"#utility.yul\":8724:8733   */\n      dup4\n        /* \"#utility.yul\":8720:8737   */\n      add\n        /* \"#utility.yul\":8713:8760   */\n      mstore\n        /* \"#utility.yul\":8777:8908   */\n      tag_287\n        /* \"#utility.yul\":8903:8907   */\n      dup2\n        /* \"#utility.yul\":8777:8908   */\n      tag_163\n      jump\t// in\n    tag_287:\n        /* \"#utility.yul\":8769:8908   */\n      swap1\n      pop\n        /* \"#utility.yul\":8496:8915   */\n      swap2\n      swap1\n      pop\n      jump\t// out\n        /* \"#utility.yul\":8921:9101   */\n    tag_78:\n        /* \"#utility.yul\":8969:9046   */\n      0x4e487b7100000000000000000000000000000000000000000000000000000000\n        /* \"#utility.yul\":8966:8967   */\n      0x00\n        /* \"#utility.yul\":8959:9047   */\n      mstore\n        /* \"#utility.yul\":9066:9070   */\n      0x32\n        /* \"#utility.yul\":9063:9064   */\n      0x04\n        /* \"#utility.yul\":9056:9071   */\n      mstore\n        /* \"#utility.yul\":9090:9094   */\n      0x24\n        /* \"#utility.yul\":9087:9088   */\n      0x00\n        /* \"#utility.yul\":9080:9095   */\n      revert\n        /* \"#utility.yul\":9107:9285   */\n    tag_164:\n        /* \"#utility.yul\":9247:9277   */\n      0x5265717565737420697320616c726561647920636f6d706c6574652100000000\n        /* \"#utility.yul\":9243:9244   */\n      0x00\n        /* \"#utility.yul\":9235:9241   */\n      dup3\n        /* \"#utility.yul\":9231:9245   */\n      add\n        /* \"#utility.yul\":9224:9278   */\n      mstore\n        /* \"#utility.yul\":9107:9285   */\n      pop\n      jump\t// out\n        /* \"#utility.yul\":9291:9657   */\n    tag_165:\n        /* \"#utility.yul\":9433:9436   */\n      0x00\n        /* \"#utility.yul\":9454:9521   */\n      tag_291\n        /* \"#utility.yul\":9518:9520   */\n      0x1c\n        /* \"#utility.yul\":9513:9516   */\n      dup4\n        /* \"#utility.yul\":9454:9521   */\n      tag_149\n      jump\t// in\n    tag_291:\n        /* \"#utility.yul\":9447:9521   */\n      swap2\n      pop\n        /* \"#utility.yul\":9530:9623   */\n      tag_292\n        /* \"#utility.yul\":9619:9622   */\n      dup3\n        /* \"#utility.yul\":9530:9623   */\n      tag_164\n      jump\t// in\n    tag_292:\n        /* \"#utility.yul\":9648:9650   */\n      0x20\n        /* \"#utility.yul\":9643:9646   */\n      dup3\n        /* \"#utility.yul\":9639:9651   */\n      add\n        /* \"#utility.yul\":9632:9651   */\n      swap1\n      pop\n        /* \"#utility.yul\":9291:9657   */\n      swap2\n      swap1\n      pop\n      jump\t// out\n        /* \"#utility.yul\":9663:10082   */\n    tag_82:\n        /* \"#utility.yul\":9829:9833   */\n      0x00\n        /* \"#utility.yul\":9867:9869   */\n      0x20\n        /* \"#utility.yul\":9856:9865   */\n      dup3\n        /* \"#utility.yul\":9852:9870   */\n      add\n        /* \"#utility.yul\":9844:9870   */\n      swap1\n      pop\n        /* \"#utility.yul\":9916:9925   */\n      dup2\n        /* \"#utility.yul\":9910:9914   */\n      dup2\n        /* \"#utility.yul\":9906:9926   */\n      sub\n        /* \"#utility.yul\":9902:9903   */\n      0x00\n        /* \"#utility.yul\":9891:9900   */\n      dup4\n        /* \"#utility.yul\":9887:9904   */\n      add\n        /* \"#utility.yul\":9880:9927   */\n      mstore\n        /* \"#utility.yul\":9944:10075   */\n      tag_294\n        /* \"#utility.yul\":10070:10074   */\n      dup2\n        /* \"#utility.yul\":9944:10075   */\n      tag_165\n      jump\t// in\n    tag_294:\n        /* \"#utility.yul\":9936:10075   */\n      swap1\n      pop\n        /* \"#utility.yul\":9663:10082   */\n      swap2\n      swap1\n      pop\n      jump\t// out\n        /* \"#utility.yul\":10088:10268   */\n    tag_166:\n        /* \"#utility.yul\":10136:10213   */\n      0x4e487b7100000000000000000000000000000000000000000000000000000000\n        /* \"#utility.yul\":10133:10134   */\n      0x00\n        /* \"#utility.yul\":10126:10214   */\n      mstore\n        /* \"#utility.yul\":10233:10237   */\n      0x12\n        /* \"#utility.yul\":10230:10231   */\n      0x04\n        /* \"#utility.yul\":10223:10238   */\n      mstore\n        /* \"#utility.yul\":10257:10261   */\n      0x24\n        /* \"#utility.yul\":10254:10255   */\n      0x00\n        /* \"#utility.yul\":10247:10262   */\n      revert\n        /* \"#utility.yul\":10274:10454   */\n    tag_167:\n        /* \"#utility.yul\":10322:10399   */\n      0x4e487b7100000000000000000000000000000000000000000000000000000000\n        /* \"#utility.yul\":10319:10320   */\n      0x00\n        /* \"#utility.yul\":10312:10400   */\n      mstore\n        /* \"#utility.yul\":10419:10423   */\n      0x11\n        /* \"#utility.yul\":10416:10417   */\n      0x04\n        /* \"#utility.yul\":10409:10424   */\n      mstore\n        /* \"#utility.yul\":10443:10447   */\n      0x24\n        /* \"#utility.yul\":10440:10441   */\n      0x00\n        /* \"#utility.yul\":10433:10448   */\n      revert\n        /* \"#utility.yul\":10460:10645   */\n    tag_84:\n        /* \"#utility.yul\":10500:10501   */\n      0x00\n        /* \"#utility.yul\":10517:10537   */\n      tag_298\n        /* \"#utility.yul\":10535:10536   */\n      dup3\n        /* \"#utility.yul\":10517:10537   */\n      tag_138\n      jump\t// in\n    tag_298:\n        /* \"#utility.yul\":10512:10537   */\n      swap2\n      pop\n        /* \"#utility.yul\":10551:10571   */\n      tag_299\n        /* \"#utility.yul\":10569:10570   */\n      dup4\n        /* \"#utility.yul\":10551:10571   */\n      tag_138\n      jump\t// in\n    tag_299:\n        /* \"#utility.yul\":10546:10571   */\n      swap3\n      pop\n        /* \"#utility.yul\":10590:10591   */\n      dup3\n        /* \"#utility.yul\":10580:10615   */\n      tag_300\n      jumpi\n        /* \"#utility.yul\":10595:10613   */\n      tag_301\n      tag_166\n      jump\t// in\n    tag_301:\n        /* \"#utility.yul\":10580:10615   */\n    tag_300:\n        /* \"#utility.yul\":10637:10638   */\n      dup3\n        /* \"#utility.yul\":10634:10635   */\n      dup3\n        /* \"#utility.yul\":10630:10639   */\n      div\n        /* \"#utility.yul\":10625:10639   */\n      swap1\n      pop\n        /* \"#utility.yul\":10460:10645   */\n      swap3\n      swap2\n      pop\n      pop\n      jump\t// out\n        /* \"#utility.yul\":10651:10833   */\n    tag_168:\n        /* \"#utility.yul\":10791:10825   */\n      0x4e6f7420656e6f75676820617070726f76616c7320746f2070726f636573732e\n        /* \"#utility.yul\":10787:10788   */\n      0x00\n        /* \"#utility.yul\":10779:10785   */\n      dup3\n        /* \"#utility.yul\":10775:10789   */\n      add\n        /* \"#utility.yul\":10768:10826   */\n      mstore\n        /* \"#utility.yul\":10651:10833   */\n      pop\n      jump\t// out\n        /* \"#utility.yul\":10839:11205   */\n    tag_169:\n        /* \"#utility.yul\":10981:10984   */\n      0x00\n        /* \"#utility.yul\":11002:11069   */\n      tag_304\n        /* \"#utility.yul\":11066:11068   */\n      0x20\n        /* \"#utility.yul\":11061:11064   */\n      dup4\n        /* \"#utility.yul\":11002:11069   */\n      tag_149\n      jump\t// in\n    tag_304:\n        /* \"#utility.yul\":10995:11069   */\n      swap2\n      pop\n        /* \"#utility.yul\":11078:11171   */\n      tag_305\n        /* \"#utility.yul\":11167:11170   */\n      dup3\n        /* \"#utility.yul\":11078:11171   */\n      tag_168\n      jump\t// in\n    tag_305:\n        /* \"#utility.yul\":11196:11198   */\n      0x20\n        /* \"#utility.yul\":11191:11194   */\n      dup3\n        /* \"#utility.yul\":11187:11199   */\n      add\n        /* \"#utility.yul\":11180:11199   */\n      swap1\n      pop\n        /* \"#utility.yul\":10839:11205   */\n      swap2\n      swap1\n      pop\n      jump\t// out\n        /* \"#utility.yul\":11211:11630   */\n    tag_87:\n        /* \"#utility.yul\":11377:11381   */\n      0x00\n        /* \"#utility.yul\":11415:11417   */\n      0x20\n        /* \"#utility.yul\":11404:11413   */\n      dup3\n        /* \"#utility.yul\":11400:11418   */\n      add\n        /* \"#utility.yul\":11392:11418   */\n      swap1\n      pop\n        /* \"#utility.yul\":11464:11473   */\n      dup2\n        /* \"#utility.yul\":11458:11462   */\n      dup2\n        /* \"#utility.yul\":11454:11474   */\n      sub\n        /* \"#utility.yul\":11450:11451   */\n      0x00\n        /* \"#utility.yul\":11439:11448   */\n      dup4\n        /* \"#utility.yul\":11435:11452   */\n      add\n        /* \"#utility.yul\":11428:11475   */\n      mstore\n        /* \"#utility.yul\":11492:11623   */\n      tag_307\n        /* \"#utility.yul\":11618:11622   */\n      dup2\n        /* \"#utility.yul\":11492:11623   */\n      tag_169\n      jump\t// in\n    tag_307:\n        /* \"#utility.yul\":11484:11623   */\n      swap1\n      pop\n        /* \"#utility.yul\":11211:11630   */\n      swap2\n      swap1\n      pop\n      jump\t// out\n        /* \"#utility.yul\":11636:11816   */\n    tag_170:\n        /* \"#utility.yul\":11684:11761   */\n      0x4e487b7100000000000000000000000000000000000000000000000000000000\n        /* \"#utility.yul\":11681:11682   */\n      0x00\n        /* \"#utility.yul\":11674:11762   */\n      mstore\n        /* \"#utility.yul\":11781:11785   */\n      0x22\n        /* \"#utility.yul\":11778:11779   */\n      0x04\n        /* \"#utility.yul\":11771:11786   */\n      mstore\n        /* \"#utility.yul\":11805:11809   */\n      0x24\n        /* \"#utility.yul\":11802:11803   */\n      0x00\n        /* \"#utility.yul\":11795:11810   */\n      revert\n        /* \"#utility.yul\":11822:12142   */\n    tag_98:\n        /* \"#utility.yul\":11866:11872   */\n      0x00\n        /* \"#utility.yul\":11903:11904   */\n      0x02\n        /* \"#utility.yul\":11897:11901   */\n      dup3\n        /* \"#utility.yul\":11893:11905   */\n      div\n        /* \"#utility.yul\":11883:11905   */\n      swap1\n      pop\n        /* \"#utility.yul\":11950:11951   */\n      0x01\n        /* \"#utility.yul\":11944:11948   */\n      dup3\n        /* \"#utility.yul\":11940:11952   */\n      and\n        /* \"#utility.yul\":11971:11989   */\n      dup1\n        /* \"#utility.yul\":11961:12042   */\n      tag_310\n      jumpi\n        /* \"#utility.yul\":12027:12031   */\n      0x7f\n        /* \"#utility.yul\":12019:12025   */\n      dup3\n        /* \"#utility.yul\":12015:12032   */\n      and\n        /* \"#utility.yul\":12005:12032   */\n      swap2\n      pop\n        /* \"#utility.yul\":11961:12042   */\n    tag_310:\n        /* \"#utility.yul\":12089:12091   */\n      0x20\n        /* \"#utility.yul\":12081:12087   */\n      dup3\n        /* \"#utility.yul\":12078:12092   */\n      lt\n        /* \"#utility.yul\":12058:12076   */\n      dup2\n        /* \"#utility.yul\":12055:12093   */\n      sub\n        /* \"#utility.yul\":12052:12136   */\n      tag_311\n      jumpi\n        /* \"#utility.yul\":12108:12126   */\n      tag_312\n      tag_170\n      jump\t// in\n    tag_312:\n        /* \"#utility.yul\":12052:12136   */\n    tag_311:\n        /* \"#utility.yul\":11873:12142   */\n      pop\n        /* \"#utility.yul\":11822:12142   */\n      swap2\n      swap1\n      pop\n      jump\t// out\n        /* \"#utility.yul\":12148:12328   */\n    tag_171:\n        /* \"#utility.yul\":12196:12273   */\n      0x4e487b7100000000000000000000000000000000000000000000000000000000\n        /* \"#utility.yul\":12193:12194   */\n      0x00\n        /* \"#utility.yul\":12186:12274   */\n      mstore\n        /* \"#utility.yul\":12293:12297   */\n      0x41\n        /* \"#utility.yul\":12290:12291   */\n      0x04\n        /* \"#utility.yul\":12283:12298   */\n      mstore\n        /* \"#utility.yul\":12317:12321   */\n      0x24\n        /* \"#utility.yul\":12314:12315   */\n      0x00\n        /* \"#utility.yul\":12307:12322   */\n      revert\n        /* \"#utility.yul\":12334:12475   */\n    tag_172:\n        /* \"#utility.yul\":12383:12387   */\n      0x00\n        /* \"#utility.yul\":12406:12409   */\n      dup2\n        /* \"#utility.yul\":12398:12409   */\n      swap1\n      pop\n        /* \"#utility.yul\":12429:12432   */\n      dup2\n        /* \"#utility.yul\":12426:12427   */\n      0x00\n        /* \"#utility.yul\":12419:12433   */\n      mstore\n        /* \"#utility.yul\":12463:12467   */\n      0x20\n        /* \"#utility.yul\":12460:12461   */\n      0x00\n        /* \"#utility.yul\":12450:12468   */\n      keccak256\n        /* \"#utility.yul\":12442:12468   */\n      swap1\n      pop\n        /* \"#utility.yul\":12334:12475   */\n      swap2\n      swap1\n      pop\n      jump\t// out\n        /* \"#utility.yul\":12481:12574   */\n    tag_173:\n        /* \"#utility.yul\":12518:12524   */\n      0x00\n        /* \"#utility.yul\":12565:12567   */\n      0x20\n        /* \"#utility.yul\":12560:12562   */\n      0x1f\n        /* \"#utility.yul\":12553:12558   */\n      dup4\n        /* \"#utility.yul\":12549:12563   */\n      add\n        /* \"#utility.yul\":12545:12568   */\n      div\n        /* \"#utility.yul\":12535:12568   */\n      swap1\n      pop\n        /* \"#utility.yul\":12481:12574   */\n      swap2\n      swap1\n      pop\n      jump\t// out\n        /* \"#utility.yul\":12580:12687   */\n    tag_174:\n        /* \"#utility.yul\":12624:12632   */\n      0x00\n        /* \"#utility.yul\":12674:12679   */\n      dup3\n        /* \"#utility.yul\":12668:12672   */\n      dup3\n        /* \"#utility.yul\":12664:12680   */\n      shl\n        /* \"#utility.yul\":12643:12680   */\n      swap1\n      pop\n        /* \"#utility.yul\":12580:12687   */\n      swap3\n      swap2\n      pop\n      pop\n      jump\t// out\n        /* \"#utility.yul\":12693:13086   */\n    tag_175:\n        /* \"#utility.yul\":12762:12768   */\n      0x00\n        /* \"#utility.yul\":12812:12813   */\n      0x08\n        /* \"#utility.yul\":12800:12810   */\n      dup4\n        /* \"#utility.yul\":12796:12814   */\n      mul\n        /* \"#utility.yul\":12835:12932   */\n      tag_318\n        /* \"#utility.yul\":12865:12931   */\n      0xffffffffffffffffffffffffffffffffffffffffffffffffffffffffffffffff\n        /* \"#utility.yul\":12854:12863   */\n      dup3\n        /* \"#utility.yul\":12835:12932   */\n      tag_174\n      jump\t// in\n    tag_318:\n        /* \"#utility.yul\":12953:12992   */\n      tag_319\n        /* \"#utility.yul\":12983:12991   */\n      dup7\n        /* \"#utility.yul\":12972:12981   */\n      dup4\n        /* \"#utility.yul\":12953:12992   */\n      tag_174\n      jump\t// in\n    tag_319:\n        /* \"#utility.yul\":12941:12992   */\n      swap6\n      pop\n        /* \"#utility.yul\":13025:13029   */\n      dup1\n        /* \"#utility.yul\":13021:13030   */\n      not\n        /* \"#utility.yul\":13014:13019   */\n      dup5\n        /* \"#utility.yul\":13010:13031   */\n      and\n        /* \"#utility.yul\":13001:13031   */\n      swap4\n      pop\n        /* \"#utility.yul\":13074:13078   */\n      dup1\n        /* \"#utility.yul\":13064:13072   */\n      dup7\n        /* \"#utility.yul\":13060:13079   */\n      and\n        /* \"#utility.yul\":13053:13058   */\n      dup5\n        /* \"#utility.yul\":13050:13080   */\n      or\n        /* \"#utility.yul\":13040:13080   */\n      swap3\n      pop\n        /* \"#utility.yul\":12769:13086   */\n      pop\n      pop\n        /* \"#utility.yul\":12693:13086   */\n      swap4\n      swap3\n      pop\n      pop\n      pop\n      jump\t// out\n        /* \"#utility.yul\":13092:13152   */\n    tag_176:\n        /* \"#utility.yul\":13120:13123   */\n      0x00\n        /* \"#utility.yul\":13141:13146   */\n      dup2\n        /* \"#utility.yul\":13134:13146   */\n      swap1\n      pop\n        /* \"#utility.yul\":13092:13152   */\n      swap2\n      swap1\n      pop\n      jump\t// out\n        /* \"#utility.yul\":13158:13300   */\n    tag_177:\n        /* \"#utility.yul\":13208:13217   */\n      0x00\n        /* \"#utility.yul\":13241:13294   */\n      tag_322\n        /* \"#utility.yul\":13259:13293   */\n      tag_323\n        /* \"#utility.yul\":13268:13292   */\n      tag_324\n        /* \"#utility.yul\":13286:13291   */\n      dup5\n        /* \"#utility.yul\":13268:13292   */\n      tag_138\n      jump\t// in\n    tag_324:\n        /* \"#utility.yul\":13259:13293   */\n      tag_176\n      jump\t// in\n    tag_323:\n        /* \"#utility.yul\":13241:13294   */\n      tag_138\n      jump\t// in\n    tag_322:\n        /* \"#utility.yul\":13228:13294   */\n      swap1\n      pop\n        /* \"#utility.yul\":13158:13300   */\n      swap2\n      swap1\n      pop\n      jump\t// out\n        /* \"#utility.yul\":13306:13381   */\n    tag_178:\n        /* \"#utility.yul\":13349:13352   */\n      0x00\n        /* \"#utility.yul\":13370:13375   */\n      dup2\n        /* \"#utility.yul\":13363:13375   */\n      swap1\n      pop\n        /* \"#utility.yul\":13306:13381   */\n      swap2\n      swap1\n      pop\n      jump\t// out\n        /* \"#utility.yul\":13387:13656   */\n    tag_179:\n        /* \"#utility.yul\":13497:13536   */\n      tag_327\n        /* \"#utility.yul\":13528:13535   */\n      dup4\n        /* \"#utility.yul\":13497:13536   */\n      tag_177\n      jump\t// in\n    tag_327:\n        /* \"#utility.yul\":13558:13649   */\n      tag_328\n        /* \"#utility.yul\":13607:13648   */\n      tag_329\n        /* \"#utility.yul\":13631:13647   */\n      dup3\n        /* \"#utility.yul\":13607:13648   */\n      tag_178\n      jump\t// in\n    tag_329:\n        /* \"#utility.yul\":13599:13605   */\n      dup5\n        /* \"#utility.yul\":13592:13596   */\n      dup5\n        /* \"#utility.yul\":13586:13597   */\n      sload\n        /* \"#utility.yul\":13558:13649   */\n      tag_175\n      jump\t// in\n    tag_328:\n        /* \"#utility.yul\":13552:13556   */\n      dup3\n        /* \"#utility.yul\":13545:13650   */\n      sstore\n        /* \"#utility.yul\":13463:13656   */\n      pop\n        /* \"#utility.yul\":13387:13656   */\n      pop\n      pop\n      pop\n      jump\t// out\n        /* \"#utility.yul\":13662:13735   */\n    tag_180:\n        /* \"#utility.yul\":13707:13710   */\n      0x00\n        /* \"#utility.yul\":13662:13735   */\n      swap1\n      jump\t// out\n        /* \"#utility.yul\":13741:13930   */\n    tag_181:\n        /* \"#utility.yul\":13818:13850   */\n      tag_332\n      tag_180\n      jump\t// in\n    tag_332:\n        /* \"#utility.yul\":13859:13924   */\n      tag_333\n        /* \"#utility.yul\":13917:13923   */\n      dup2\n        /* \"#utility.yul\":13909:13915   */\n      dup5\n        /* \"#utility.yul\":13903:13907   */\n      dup5\n        /* \"#utility.yul\":13859:13924   */\n      tag_179\n      jump\t// in\n    tag_333:\n        /* \"#utility.yul\":13794:13930   */\n      pop\n        /* \"#utility.yul\":13741:13930   */\n      pop\n      pop\n      jump\t// out\n        /* \"#utility.yul\":13936:14122   */\n    tag_182:\n        /* \"#utility.yul\":13996:14116   */\n    tag_335:\n        /* \"#utility.yul\":14013:14016   */\n      dup2\n        /* \"#utility.yul\":14006:14011   */\n      dup2\n        /* \"#utility.yul\":14003:14017   */\n      lt\n        /* \"#utility.yul\":13996:14116   */\n      iszero\n      tag_337\n      jumpi\n        /* \"#utility.yul\":14067:14106   */\n      tag_338\n        /* \"#utility.yul\":14104:14105   */\n      0x00\n        /* \"#utility.yul\":14097:14102   */\n      dup3\n        /* \"#utility.yul\":14067:14106   */\n      tag_181\n      jump\t// in\n    tag_338:\n        /* \"#utility.yul\":14040:14041   */\n      0x01\n        /* \"#utility.yul\":14033:14038   */\n      dup2\n        /* \"#utility.yul\":14029:14042   */\n      add\n        /* \"#utility.yul\":14020:14042   */\n      swap1\n      pop\n        /* \"#utility.yul\":13996:14116   */\n      jump(tag_335)\n    tag_337:\n        /* \"#utility.yul\":13936:14122   */\n      pop\n      pop\n      jump\t// out\n        /* \"#utility.yul\":14128:14671   */\n    tag_183:\n        /* \"#utility.yul\":14229:14231   */\n      0x1f\n        /* \"#utility.yul\":14224:14227   */\n      dup3\n        /* \"#utility.yul\":14221:14232   */\n      gt\n        /* \"#utility.yul\":14218:14664   */\n      iszero\n      tag_340\n      jumpi\n        /* \"#utility.yul\":14263:14301   */\n      tag_341\n        /* \"#utility.yul\":14295:14300   */\n      dup2\n        /* \"#utility.yul\":14263:14301   */\n      tag_172\n      jump\t// in\n    tag_341:\n        /* \"#utility.yul\":14347:14376   */\n      tag_342\n        /* \"#utility.yul\":14365:14375   */\n      dup5\n        /* \"#utility.yul\":14347:14376   */\n      tag_173\n      jump\t// in\n    tag_342:\n        /* \"#utility.yul\":14337:14345   */\n      dup2\n        /* \"#utility.yul\":14333:14377   */\n      add\n        /* \"#utility.yul\":14530:14532   */\n      0x20\n        /* \"#utility.yul\":14518:14528   */\n      dup6\n        /* \"#utility.yul\":14515:14533   */\n      lt\n        /* \"#utility.yul\":14512:14561   */\n      iszero\n      tag_343\n      jumpi\n        /* \"#utility.yul\":14551:14559   */\n      dup2\n        /* \"#utility.yul\":14536:14559   */\n      swap1\n      pop\n        /* \"#utility.yul\":14512:14561   */\n    tag_343:\n        /* \"#utility.yul\":14574:14654   */\n      tag_344\n        /* \"#utility.yul\":14630:14652   */\n      tag_345\n        /* \"#utility.yul\":14648:14651   */\n      dup6\n        /* \"#utility.yul\":14630:14652   */\n      tag_173\n      jump\t// in\n    tag_345:\n        /* \"#utility.yul\":14620:14628   */\n      dup4\n        /* \"#utility.yul\":14616:14653   */\n      add\n        /* \"#utility.yul\":14603:14614   */\n      dup3\n        /* \"#utility.yul\":14574:14654   */\n      tag_182\n      jump\t// in\n    tag_344:\n        /* \"#utility.yul\":14233:14664   */\n      pop\n      pop\n        /* \"#utility.yul\":14218:14664   */\n    tag_340:\n        /* \"#utility.yul\":14128:14671   */\n      pop\n      pop\n      pop\n      jump\t// out\n        /* \"#utility.yul\":14677:14794   */\n    tag_184:\n        /* \"#utility.yul\":14731:14739   */\n      0x00\n        /* \"#utility.yul\":14781:14786   */\n      dup3\n        /* \"#utility.yul\":14775:14779   */\n      dup3\n        /* \"#utility.yul\":14771:14787   */\n      shr\n        /* \"#utility.yul\":14750:14787   */\n      swap1\n      pop\n        /* \"#utility.yul\":14677:14794   */\n      swap3\n      swap2\n      pop\n      pop\n      jump\t// out\n        /* \"#utility.yul\":14800:14969   */\n    tag_185:\n        /* \"#utility.yul\":14844:14850   */\n      0x00\n        /* \"#utility.yul\":14877:14928   */\n      tag_348\n        /* \"#utility.yul\":14925:14926   */\n      0x00\n        /* \"#utility.yul\":14921:14927   */\n      not\n        /* \"#utility.yul\":14913:14918   */\n      dup5\n        /* \"#utility.yul\":14910:14911   */\n      0x08\n        /* \"#utility.yul\":14906:14919   */\n      mul\n        /* \"#utility.yul\":14877:14928   */\n      tag_184\n      jump\t// in\n    tag_348:\n        /* \"#utility.yul\":14873:14929   */\n      not\n        /* \"#utility.yul\":14958:14962   */\n      dup1\n        /* \"#utility.yul\":14952:14956   */\n      dup4\n        /* \"#utility.yul\":14948:14963   */\n      and\n        /* \"#utility.yul\":14938:14963   */\n      swap2\n      pop\n        /* \"#utility.yul\":14851:14969   */\n      pop\n        /* \"#utility.yul\":14800:14969   */\n      swap3\n      swap2\n      pop\n      pop\n      jump\t// out\n        /* \"#utility.yul\":14974:15269   */\n    tag_186:\n        /* \"#utility.yul\":15050:15054   */\n      0x00\n        /* \"#utility.yul\":15196:15225   */\n      tag_350\n        /* \"#utility.yul\":15221:15224   */\n      dup4\n        /* \"#utility.yul\":15215:15219   */\n      dup4\n        /* \"#utility.yul\":15196:15225   */\n      tag_185\n      jump\t// in\n    tag_350:\n        /* \"#utility.yul\":15188:15225   */\n      swap2\n      pop\n        /* \"#utility.yul\":15258:15261   */\n      dup3\n        /* \"#utility.yul\":15255:15256   */\n      0x02\n        /* \"#utility.yul\":15251:15262   */\n      mul\n        /* \"#utility.yul\":15245:15249   */\n      dup3\n        /* \"#utility.yul\":15242:15263   */\n      or\n        /* \"#utility.yul\":15234:15263   */\n      swap1\n      pop\n        /* \"#utility.yul\":14974:15269   */\n      swap3\n      swap2\n      pop\n      pop\n      jump\t// out\n        /* \"#utility.yul\":15274:16669   */\n    tag_115:\n        /* \"#utility.yul\":15391:15428   */\n      tag_352\n        /* \"#utility.yul\":15424:15427   */\n      dup3\n        /* \"#utility.yul\":15391:15428   */\n      tag_148\n      jump\t// in\n    tag_352:\n        /* \"#utility.yul\":15493:15511   */\n      0xffffffffffffffff\n        /* \"#utility.yul\":15485:15491   */\n      dup2\n        /* \"#utility.yul\":15482:15512   */\n      gt\n        /* \"#utility.yul\":15479:15535   */\n      iszero\n      tag_353\n      jumpi\n        /* \"#utility.yul\":15515:15533   */\n      tag_354\n      tag_171\n      jump\t// in\n    tag_354:\n        /* \"#utility.yul\":15479:15535   */\n    tag_353:\n        /* \"#utility.yul\":15559:15597   */\n      tag_355\n        /* \"#utility.yul\":15591:15595   */\n      dup3\n        /* \"#utility.yul\":15585:15596   */\n      sload\n        /* \"#utility.yul\":15559:15597   */\n      tag_98\n      jump\t// in\n    tag_355:\n        /* \"#utility.yul\":15644:15711   */\n      tag_356\n        /* \"#utility.yul\":15704:15710   */\n      dup3\n        /* \"#utility.yul\":15696:15702   */\n      dup3\n        /* \"#utility.yul\":15690:15694   */\n      dup6\n        /* \"#utility.yul\":15644:15711   */\n      tag_183\n      jump\t// in\n    tag_356:\n        /* \"#utility.yul\":15738:15739   */\n      0x00\n        /* \"#utility.yul\":15762:15766   */\n      0x20\n        /* \"#utility.yul\":15749:15766   */\n      swap1\n      pop\n        /* \"#utility.yul\":15794:15796   */\n      0x1f\n        /* \"#utility.yul\":15786:15792   */\n      dup4\n        /* \"#utility.yul\":15783:15797   */\n      gt\n        /* \"#utility.yul\":15811:15812   */\n      0x01\n        /* \"#utility.yul\":15806:16424   */\n      dup2\n      eq\n      tag_358\n      jumpi\n        /* \"#utility.yul\":16468:16469   */\n      0x00\n        /* \"#utility.yul\":16485:16491   */\n      dup5\n        /* \"#utility.yul\":16482:16559   */\n      iszero\n      tag_359\n      jumpi\n        /* \"#utility.yul\":16534:16543   */\n      dup3\n        /* \"#utility.yul\":16529:16532   */\n      dup8\n        /* \"#utility.yul\":16525:16544   */\n      add\n        /* \"#utility.yul\":16519:16545   */\n      mload\n        /* \"#utility.yul\":16510:16545   */\n      swap1\n      pop\n        /* \"#utility.yul\":16482:16559   */\n    tag_359:\n        /* \"#utility.yul\":16585:16652   */\n      tag_360\n        /* \"#utility.yul\":16645:16651   */\n      dup6\n        /* \"#utility.yul\":16638:16643   */\n      dup3\n        /* \"#utility.yul\":16585:16652   */\n      tag_186\n      jump\t// in\n    tag_360:\n        /* \"#utility.yul\":16579:16583   */\n      dup7\n        /* \"#utility.yul\":16572:16653   */\n      sstore\n        /* \"#utility.yul\":16441:16663   */\n      pop\n        /* \"#utility.yul\":15776:16663   */\n      jump(tag_357)\n        /* \"#utility.yul\":15806:16424   */\n    tag_358:\n        /* \"#utility.yul\":15858:15862   */\n      0x1f\n        /* \"#utility.yul\":15854:15863   */\n      not\n        /* \"#utility.yul\":15846:15852   */\n      dup5\n        /* \"#utility.yul\":15842:15864   */\n      and\n        /* \"#utility.yul\":15892:15929   */\n      tag_361\n        /* \"#utility.yul\":15924:15928   */\n      dup7\n        /* \"#utility.yul\":15892:15929   */\n      tag_172\n      jump\t// in\n    tag_361:\n        /* \"#utility.yul\":15951:15952   */\n      0x00\n        /* \"#utility.yul\":15965:16173   */\n    tag_362:\n        /* \"#utility.yul\":15979:15986   */\n      dup3\n        /* \"#utility.yul\":15976:15977   */\n      dup2\n        /* \"#utility.yul\":15973:15987   */\n      lt\n        /* \"#utility.yul\":15965:16173   */\n      iszero\n      tag_364\n      jumpi\n        /* \"#utility.yul\":16058:16067   */\n      dup5\n        /* \"#utility.yul\":16053:16056   */\n      dup10\n        /* \"#utility.yul\":16049:16068   */\n      add\n        /* \"#utility.yul\":16043:16069   */\n      mload\n        /* \"#utility.yul\":16035:16041   */\n      dup3\n        /* \"#utility.yul\":16028:16070   */\n      sstore\n        /* \"#utility.yul\":16109:16110   */\n      0x01\n        /* \"#utility.yul\":16101:16107   */\n      dup3\n        /* \"#utility.yul\":16097:16111   */\n      add\n        /* \"#utility.yul\":16087:16111   */\n      swap2\n      pop\n        /* \"#utility.yul\":16156:16158   */\n      0x20\n        /* \"#utility.yul\":16145:16154   */\n      dup6\n        /* \"#utility.yul\":16141:16159   */\n      add\n        /* \"#utility.yul\":16128:16159   */\n      swap5\n      pop\n        /* \"#utility.yul\":16002:16006   */\n      0x20\n        /* \"#utility.yul\":15999:16000   */\n      dup2\n        /* \"#utility.yul\":15995:16007   */\n      add\n        /* \"#utility.yul\":15990:16007   */\n      swap1\n      pop\n        /* \"#utility.yul\":15965:16173   */\n      jump(tag_362)\n    tag_364:\n        /* \"#utility.yul\":16201:16207   */\n      dup7\n        /* \"#utility.yul\":16192:16199   */\n      dup4\n        /* \"#utility.yul\":16189:16208   */\n      lt\n        /* \"#utility.yul\":16186:16365   */\n      iszero\n      tag_365\n      jumpi\n        /* \"#utility.yul\":16259:16268   */\n      dup5\n        /* \"#utility.yul\":16254:16257   */\n      dup10\n        /* \"#utility.yul\":16250:16269   */\n      add\n        /* \"#utility.yul\":16244:16270   */\n      mload\n        /* \"#utility.yul\":16302:16350   */\n      tag_366\n        /* \"#utility.yul\":16344:16348   */\n      0x1f\n        /* \"#utility.yul\":16336:16342   */\n      dup10\n        /* \"#utility.yul\":16332:16349   */\n      and\n        /* \"#utility.yul\":16321:16330   */\n      dup3\n        /* \"#utility.yul\":16302:16350   */\n      tag_185\n      jump\t// in\n    tag_366:\n        /* \"#utility.yul\":16294:16300   */\n      dup4\n        /* \"#utility.yul\":16287:16351   */\n      sstore\n        /* \"#utility.yul\":16209:16365   */\n      pop\n        /* \"#utility.yul\":16186:16365   */\n    tag_365:\n        /* \"#utility.yul\":16411:16412   */\n      0x01\n        /* \"#utility.yul\":16407:16408   */\n      0x02\n        /* \"#utility.yul\":16399:16405   */\n      dup9\n        /* \"#utility.yul\":16395:16409   */\n      mul\n        /* \"#utility.yul\":16391:16413   */\n      add\n        /* \"#utility.yul\":16385:16389   */\n      dup9\n        /* \"#utility.yul\":16378:16414   */\n      sstore\n        /* \"#utility.yul\":15813:16424   */\n      pop\n      pop\n      pop\n        /* \"#utility.yul\":15776:16663   */\n    tag_357:\n      pop\n        /* \"#utility.yul\":15366:16669   */\n      pop\n      pop\n      pop\n        /* \"#utility.yul\":15274:16669   */\n      pop\n      pop\n      jump\t// out\n        /* \"#utility.yul\":16675:16908   */\n    tag_120:\n        /* \"#utility.yul\":16714:16717   */\n      0x00\n        /* \"#utility.yul\":16737:16761   */\n      tag_368\n        /* \"#utility.yul\":16755:16760   */\n      dup3\n        /* \"#utility.yul\":16737:16761   */\n      tag_138\n      jump\t// in\n    tag_368:\n        /* \"#utility.yul\":16728:16761   */\n      swap2\n      pop\n        /* \"#utility.yul\":16783:16849   */\n      0xffffffffffffffffffffffffffffffffffffffffffffffffffffffffffffffff\n        /* \"#utility.yul\":16776:16781   */\n      dup3\n        /* \"#utility.yul\":16773:16850   */\n      sub\n        /* \"#utility.yul\":16770:16873   */\n      tag_369\n      jumpi\n        /* \"#utility.yul\":16853:16871   */\n      tag_370\n      tag_167\n      jump\t// in\n    tag_370:\n        /* \"#utility.yul\":16770:16873   */\n    tag_369:\n        /* \"#utility.yul\":16900:16901   */\n      0x01\n        /* \"#utility.yul\":16893:16898   */\n      dup3\n        /* \"#utility.yul\":16889:16902   */\n      add\n        /* \"#utility.yul\":16882:16902   */\n      swap1\n      pop\n        /* \"#utility.yul\":16675:16908   */\n      swap2\n      swap1\n      pop\n      jump\t// out\n        /* \"#utility.yul\":16914:17089   */\n    tag_187:\n        /* \"#utility.yul\":17054:17081   */\n      0x596f7520617265206e6f74206120636f6e7472696275746f7200000000000000\n        /* \"#utility.yul\":17050:17051   */\n      0x00\n        /* \"#utility.yul\":17042:17048   */\n      dup3\n        /* \"#utility.yul\":17038:17052   */\n      add\n        /* \"#utility.yul\":17031:17082   */\n      mstore\n        /* \"#utility.yul\":16914:17089   */\n      pop\n      jump\t// out\n        /* \"#utility.yul\":17095:17461   */\n    tag_188:\n        /* \"#utility.yul\":17237:17240   */\n      0x00\n        /* \"#utility.yul\":17258:17325   */\n      tag_373\n        /* \"#utility.yul\":17322:17324   */\n      0x19\n        /* \"#utility.yul\":17317:17320   */\n      dup4\n        /* \"#utility.yul\":17258:17325   */\n      tag_149\n      jump\t// in\n    tag_373:\n        /* \"#utility.yul\":17251:17325   */\n      swap2\n      pop\n        /* \"#utility.yul\":17334:17427   */\n      tag_374\n        /* \"#utility.yul\":17423:17426   */\n      dup3\n        /* \"#utility.yul\":17334:17427   */\n      tag_187\n      jump\t// in\n    tag_374:\n        /* \"#utility.yul\":17452:17454   */\n      0x20\n        /* \"#utility.yul\":17447:17450   */\n      dup3\n        /* \"#utility.yul\":17443:17455   */\n      add\n        /* \"#utility.yul\":17436:17455   */\n      swap1\n      pop\n        /* \"#utility.yul\":17095:17461   */\n      swap2\n      swap1\n      pop\n      jump\t// out\n        /* \"#utility.yul\":17467:17886   */\n    tag_127:\n        /* \"#utility.yul\":17633:17637   */\n      0x00\n        /* \"#utility.yul\":17671:17673   */\n      0x20\n        /* \"#utility.yul\":17660:17669   */\n      dup3\n        /* \"#utility.yul\":17656:17674   */\n      add\n        /* \"#utility.yul\":17648:17674   */\n      swap1\n      pop\n        /* \"#utility.yul\":17720:17729   */\n      dup2\n        /* \"#utility.yul\":17714:17718   */\n      dup2\n        /* \"#utility.yul\":17710:17730   */\n      sub\n        /* \"#utility.yul\":17706:17707   */\n      0x00\n        /* \"#utility.yul\":17695:17704   */\n      dup4\n        /* \"#utility.yul\":17691:17708   */\n      add\n        /* \"#utility.yul\":17684:17731   */\n      mstore\n        /* \"#utility.yul\":17748:17879   */\n      tag_376\n        /* \"#utility.yul\":17874:17878   */\n      dup2\n        /* \"#utility.yul\":17748:17879   */\n      tag_188\n      jump\t// in\n    tag_376:\n        /* \"#utility.yul\":17740:17879   */\n      swap1\n      pop\n        /* \"#utility.yul\":17467:17886   */\n      swap2\n      swap1\n      pop\n      jump\t// out\n        /* \"#utility.yul\":17892:18117   */\n    tag_189:\n        /* \"#utility.yul\":18032:18066   */\n      0x596f75206861766520616c726561647920617070726f76656420746869732072\n        /* \"#utility.yul\":18028:18029   */\n      0x00\n        /* \"#utility.yul\":18020:18026   */\n      dup3\n        /* \"#utility.yul\":18016:18030   */\n      add\n        /* \"#utility.yul\":18009:18067   */\n      mstore\n        /* \"#utility.yul\":18101:18109   */\n      0x6571756573740000000000000000000000000000000000000000000000000000\n        /* \"#utility.yul\":18096:18098   */\n      0x20\n        /* \"#utility.yul\":18088:18094   */\n      dup3\n        /* \"#utility.yul\":18084:18099   */\n      add\n        /* \"#utility.yul\":18077:18110   */\n      mstore\n        /* \"#utility.yul\":17892:18117   */\n      pop\n      jump\t// out\n        /* \"#utility.yul\":18123:18489   */\n    tag_190:\n        /* \"#utility.yul\":18265:18268   */\n      0x00\n        /* \"#utility.yul\":18286:18353   */\n      tag_379\n        /* \"#utility.yul\":18350:18352   */\n      0x26\n        /* \"#utility.yul\":18345:18348   */\n      dup4\n        /* \"#utility.yul\":18286:18353   */\n      tag_149\n      jump\t// in\n    tag_379:\n        /* \"#utility.yul\":18279:18353   */\n      swap2\n      pop\n        /* \"#utility.yul\":18362:18455   */\n      tag_380\n        /* \"#utility.yul\":18451:18454   */\n      dup3\n        /* \"#utility.yul\":18362:18455   */\n      tag_189\n      jump\t// in\n    tag_380:\n        /* \"#utility.yul\":18480:18482   */\n      0x40\n        /* \"#utility.yul\":18475:18478   */\n      dup3\n        /* \"#utility.yul\":18471:18483   */\n      add\n        /* \"#utility.yul\":18464:18483   */\n      swap1\n      pop\n        /* \"#utility.yul\":18123:18489   */\n      swap2\n      swap1\n      pop\n      jump\t// out\n        /* \"#utility.yul\":18495:18914   */\n    tag_130:\n        /* \"#utility.yul\":18661:18665   */\n      0x00\n        /* \"#utility.yul\":18699:18701   */\n      0x20\n        /* \"#utility.yul\":18688:18697   */\n      dup3\n        /* \"#utility.yul\":18684:18702   */\n      add\n        /* \"#utility.yul\":18676:18702   */\n      swap1\n      pop\n        /* \"#utility.yul\":18748:18757   */\n      dup2\n        /* \"#utility.yul\":18742:18746   */\n      dup2\n        /* \"#utility.yul\":18738:18758   */\n      sub\n        /* \"#utility.yul\":18734:18735   */\n      0x00\n        /* \"#utility.yul\":18723:18732   */\n      dup4\n        /* \"#utility.yul\":18719:18736   */\n      add\n        /* \"#utility.yul\":18712:18759   */\n      mstore\n        /* \"#utility.yul\":18776:18907   */\n      tag_382\n        /* \"#utility.yul\":18902:18906   */\n      dup2\n        /* \"#utility.yul\":18776:18907   */\n      tag_190\n      jump\t// in\n    tag_382:\n        /* \"#utility.yul\":18768:18907   */\n      swap1\n      pop\n        /* \"#utility.yul\":18495:18914   */\n      swap2\n      swap1\n      pop\n      jump\t// out\n\n    auxdata: 0xa26469706673582212202e5d49da48404c12a890f2bf7016eaa808d9f56a09453f17deff24bdd7e6f0b764736f6c63430008130033\n}\n","bytecode":{"linkReferences":{},"object":"60806040523480156200001157600080fd5b50604051620017b7380380620017b783398181016040528101906200003791906200012c565b80600260006101000a81548173ffffffffffffffffffffffffffffffffffffffff021916908373ffffffffffffffffffffffffffffffffffffffff16021790555081600381905550505062000173565b600080fd5b6000819050919050565b620000a1816200008c565b8114620000ad57600080fd5b50565b600081519050620000c18162000096565b92915050565b600073ffffffffffffffffffffffffffffffffffffffff82169050919050565b6000620000f482620000c7565b9050919050565b6200010681620000e7565b81146200011257600080fd5b50565b6000815190506200012681620000fb565b92915050565b6000806040838503121562000146576200014562000087565b5b60006200015685828601620000b0565b9250506020620001698582860162000115565b9150509250929050565b61163480620001836000396000f3fe60806040526004361061009c5760003560e01c806382fde0931161006457806382fde093146101b05780638a9cfd55146101db578063937e09b114610204578063ab2850da1461022f578063d7bb99ba1461026c578063d7d1bbdb146102765761009c565b806303441006146100a15780630a144391146100ca578063481c6a75146101075780636ddfaed11461013257806381d12c581461016f575b600080fd5b3480156100ad57600080fd5b506100c860048036038101906100c39190610bf5565b61029f565b005b3480156100d657600080fd5b506100f160048036038101906100ec9190610c80565b61049e565b6040516100fe9190610cc8565b60405180910390f35b34801561011357600080fd5b5061011c6104be565b6040516101299190610cf2565b60405180910390f35b34801561013e57600080fd5b5061015960048036038101906101549190610bf5565b6104e4565b6040516101669190610d9d565b60405180910390f35b34801561017b57600080fd5b5061019660048036038101906101919190610bf5565b6105ea565b6040516101a7959493929190610def565b60405180910390f35b3480156101bc57600080fd5b506101c56106e5565b6040516101d29190610e49565b60405180910390f35b3480156101e757600080fd5b5061020260048036038101906101fd9190610ef5565b6106eb565b005b34801561021057600080fd5b5061021961088e565b6040516102269190610e49565b60405180910390f35b34801561023b57600080fd5b5061025660048036038101906102519190610f69565b610894565b6040516102639190610cc8565b60405180910390f35b6102746108c3565b005b34801561028257600080fd5b5061029d60048036038101906102989190610bf5565b61099d565b005b600260009054906101000a900473ffffffffffffffffffffffffffffffffffffffff1673ffffffffffffffffffffffffffffffffffffffff163373ffffffffffffffffffffffffffffffffffffffff16146102f957600080fd5b806001805490508110610341576040517f08c379a000000000000000000000000000000000000000000000000000000000815260040161033890610ff5565b60405180910390fd5b60006001838154811061035757610356611015565b5b906000526020600020906004020190508060020160149054906101000a900460ff16156103b9576040517f08c379a00000000000000000000000000000000000000000000000000000000081526004016103b090611090565b60405180910390fd5b60026005546103c8919061110e565b81600301541161040d576040517f08c379a00000000000000000000000000000000000000000000000000000000081526004016104049061118b565b60405180910390fd5b8060020160009054906101000a900473ffffffffffffffffffffffffffffffffffffffff1673ffffffffffffffffffffffffffffffffffffffff166108fc82600101549081150290604051600060405180830381858888f1935050505015801561047b573d6000803e3d6000fd5b5060018160020160146101000a81548160ff021916908315150217905550505050565b60046020528060005260406000206000915054906101000a900460ff1681565b600260009054906101000a900473ffffffffffffffffffffffffffffffffffffffff1681565b606081600180549050811061052e576040517f08c379a000000000000000000000000000000000000000000000000000000000815260040161052590610ff5565b60405180910390fd5b60006001848154811061054457610543611015565b5b90600052602060002090600402019050806000018054610563906111da565b80601f016020809104026020016040519081016040528092919081815260200182805461058f906111da565b80156105dc5780601f106105b1576101008083540402835291602001916105dc565b820191906000526020600020905b8154815290600101906020018083116105bf57829003601f168201915b505050505092505050919050565b600181815481106105fa57600080fd5b906000526020600020906004020160009150905080600001805461061d906111da565b80601f0160208091040260200160405190810160405280929190818152602001828054610649906111da565b80156106965780601f1061066b57610100808354040283529160200191610696565b820191906000526020600020905b81548152906001019060200180831161067957829003601f168201915b5050505050908060010154908060020160009054906101000a900473ffffffffffffffffffffffffffffffffffffffff16908060020160149054906101000a900460ff16908060030154905085565b60055481565b600260009054906101000a900473ffffffffffffffffffffffffffffffffffffffff1673ffffffffffffffffffffffffffffffffffffffff163373ffffffffffffffffffffffffffffffffffffffff161461074557600080fd5b60016040518060a0016040528086868080601f016020809104026020016040519081016040528093929190818152602001838380828437600081840152601f19601f8201169050808301925050505050505081526020018481526020018373ffffffffffffffffffffffffffffffffffffffff16815260200160001515815260200160008152509080600181540180825580915050600190039060005260206000209060040201600090919091909150600082015181600001908161080a91906113e6565b506020820151816001015560408201518160020160006101000a81548173ffffffffffffffffffffffffffffffffffffffff021916908373ffffffffffffffffffffffffffffffffffffffff16021790555060608201518160020160146101000a81548160ff02191690831515021790555060808201518160030155505050505050565b60035481565b60006020528160005260406000206020528060005260406000206000915091509054906101000a900460ff1681565b600260009054906101000a900473ffffffffffffffffffffffffffffffffffffffff1673ffffffffffffffffffffffffffffffffffffffff163373ffffffffffffffffffffffffffffffffffffffff160361091d57600080fd5b600354341161092b57600080fd5b6001600460003373ffffffffffffffffffffffffffffffffffffffff1673ffffffffffffffffffffffffffffffffffffffff16815260200190815260200160002060006101000a81548160ff02191690831515021790555060056000815480929190610996906114b8565b9190505550565b8060018054905081106109e5576040517f08c379a00000000000000000000000000000000000000000000000000000000081526004016109dc90610ff5565b60405180910390fd5b600460003373ffffffffffffffffffffffffffffffffffffffff1673ffffffffffffffffffffffffffffffffffffffff16815260200190815260200160002060009054906101000a900460ff16610a71576040517f08c379a0000000000000000000000000000000000000000000000000000000008152600401610a689061154c565b60405180910390fd5b60008083815260200190815260200160002060003373ffffffffffffffffffffffffffffffffffffffff1673ffffffffffffffffffffffffffffffffffffffff16815260200190815260200160002060009054906101000a900460ff1615610b0e576040517f08c379a0000000000000000000000000000000000000000000000000000000008152600401610b05906115de565b60405180910390fd5b600160008084815260200190815260200160002060003373ffffffffffffffffffffffffffffffffffffffff1673ffffffffffffffffffffffffffffffffffffffff16815260200190815260200160002060006101000a81548160ff02191690831515021790555060018281548110610b8a57610b89611015565b5b90600052602060002090600402016003016000815480929190610bac906114b8565b91905055505050565b600080fd5b600080fd5b6000819050919050565b610bd281610bbf565b8114610bdd57600080fd5b50565b600081359050610bef81610bc9565b92915050565b600060208284031215610c0b57610c0a610bb5565b5b6000610c1984828501610be0565b91505092915050565b600073ffffffffffffffffffffffffffffffffffffffff82169050919050565b6000610c4d82610c22565b9050919050565b610c5d81610c42565b8114610c6857600080fd5b50565b600081359050610c7a81610c54565b92915050565b600060208284031215610c9657610c95610bb5565b5b6000610ca484828501610c6b565b91505092915050565b60008115159050919050565b610cc281610cad565b82525050565b6000602082019050610cdd6000830184610cb9565b92915050565b610cec81610c42565b82525050565b6000602082019050610d076000830184610ce3565b92915050565b600081519050919050565b600082825260208201905092915050565b60005b83811015610d47578082015181840152602081019050610d2c565b60008484015250505050565b6000601f19601f8301169050919050565b6000610d6f82610d0d565b610d798185610d18565b9350610d89818560208601610d29565b610d9281610d53565b840191505092915050565b60006020820190508181036000830152610db78184610d64565b905092915050565b610dc881610bbf565b82525050565b6000610dd982610c22565b9050919050565b610de981610dce565b82525050565b600060a0820190508181036000830152610e098188610d64565b9050610e186020830187610dbf565b610e256040830186610de0565b610e326060830185610cb9565b610e3f6080830184610dbf565b9695505050505050565b6000602082019050610e5e6000830184610dbf565b92915050565b600080fd5b600080fd5b600080fd5b60008083601f840112610e8957610e88610e64565b5b8235905067ffffffffffffffff811115610ea657610ea5610e69565b5b602083019150836001820283011115610ec257610ec1610e6e565b5b9250929050565b610ed281610dce565b8114610edd57600080fd5b50565b600081359050610eef81610ec9565b92915050565b60008060008060608587031215610f0f57610f0e610bb5565b5b600085013567ffffffffffffffff811115610f2d57610f2c610bba565b5b610f3987828801610e73565b94509450506020610f4c87828801610be0565b9250506040610f5d87828801610ee0565b91505092959194509250565b60008060408385031215610f8057610f7f610bb5565b5b6000610f8e85828601610be0565b9250506020610f9f85828601610c6b565b9150509250929050565b7f496e76616c6964207265717565737420696e6465780000000000000000000000600082015250565b6000610fdf601583610d18565b9150610fea82610fa9565b602082019050919050565b6000602082019050818103600083015261100e81610fd2565b9050919050565b7f4e487b7100000000000000000000000000000000000000000000000000000000600052603260045260246000fd5b7f5265717565737420697320616c726561647920636f6d706c6574652100000000600082015250565b600061107a601c83610d18565b915061108582611044565b602082019050919050565b600060208201905081810360008301526110a98161106d565b9050919050565b7f4e487b7100000000000000000000000000000000000000000000000000000000600052601260045260246000fd5b7f4e487b7100000000000000000000000000000000000000000000000000000000600052601160045260246000fd5b600061111982610bbf565b915061112483610bbf565b925082611134576111336110b0565b5b828204905092915050565b7f4e6f7420656e6f75676820617070726f76616c7320746f2070726f636573732e600082015250565b6000611175602083610d18565b91506111808261113f565b602082019050919050565b600060208201905081810360008301526111a481611168565b9050919050565b7f4e487b7100000000000000000000000000000000000000000000000000000000600052602260045260246000fd5b600060028204905060018216806111f257607f821691505b602082108103611205576112046111ab565b5b50919050565b7f4e487b7100000000000000000000000000000000000000000000000000000000600052604160045260246000fd5b60008190508160005260206000209050919050565b60006020601f8301049050919050565b600082821b905092915050565b60006008830261129c7fffffffffffffffffffffffffffffffffffffffffffffffffffffffffffffffff8261125f565b6112a6868361125f565b95508019841693508086168417925050509392505050565b6000819050919050565b60006112e36112de6112d984610bbf565b6112be565b610bbf565b9050919050565b6000819050919050565b6112fd836112c8565b611311611309826112ea565b84845461126c565b825550505050565b600090565b611326611319565b6113318184846112f4565b505050565b5b818110156113555761134a60008261131e565b600181019050611337565b5050565b601f82111561139a5761136b8161123a565b6113748461124f565b81016020851015611383578190505b61139761138f8561124f565b830182611336565b50505b505050565b600082821c905092915050565b60006113bd6000198460080261139f565b1980831691505092915050565b60006113d683836113ac565b9150826002028217905092915050565b6113ef82610d0d565b67ffffffffffffffff8111156114085761140761120b565b5b61141282546111da565b61141d828285611359565b600060209050601f831160018114611450576000841561143e578287015190505b61144885826113ca565b8655506114b0565b601f19841661145e8661123a565b60005b8281101561148657848901518255600182019150602085019450602081019050611461565b868310156114a3578489015161149f601f8916826113ac565b8355505b6001600288020188555050505b505050505050565b60006114c382610bbf565b91507fffffffffffffffffffffffffffffffffffffffffffffffffffffffffffffffff82036114f5576114f46110df565b5b600182019050919050565b7f596f7520617265206e6f74206120636f6e7472696275746f7200000000000000600082015250565b6000611536601983610d18565b915061154182611500565b602082019050919050565b6000602082019050818103600083015261156581611529565b9050919050565b7f596f75206861766520616c726561647920617070726f7665642074686973207260008201527f6571756573740000000000000000000000000000000000000000000000000000602082015250565b60006115c8602683610d18565b91506115d38261156c565b604082019050919050565b600060208201905081810360008301526115f7816115bb565b905091905056fea26469706673582212202e5d49da48404c12a890f2bf7016eaa808d9f56a09453f17deff24bdd7e6f0b764736f6c63430008130033","opcodes":"PUSH1 0x80 PUSH1 0x40 MSTORE CALLVALUE DUP1 ISZERO PUSH3 0x11 JUMPI PUSH1 0x0 DUP1 REVERT JUMPDEST POP PUSH1 0x40 MLOAD PUSH3 0x17B7 CODESIZE SUB DUP1 PUSH3 0x17B7 DUP4 CODECOPY DUP2 DUP2 ADD PUSH1 0x40 MSTORE DUP2 ADD SWAP1 PUSH3 0x37 SWAP2 SWAP1 PUSH3 0x12C JUMP JUMPDEST DUP1 PUSH1 0x2 PUSH1 0x0 PUSH2 0x100 EXP DUP2 SLOAD DUP2 PUSH20 0xFFFFFFFFFFFFFFFFFFFFFFFFFFFFFFFFFFFFFFFF MUL NOT AND SWAP1 DUP4 PUSH20 0xFFFFFFFFFFFFFFFFFFFFFFFFFFFFFFFFFFFFFFFF AND MUL OR SWAP1 SSTORE POP DUP2 PUSH1 0x3 DUP2 SWAP1 SSTORE POP POP POP PUSH3 0x173 JUMP JUMPDEST PUSH1 0x0 DUP1 REVERT JUMPDEST PUSH1 0x0 DUP2 SWAP1 POP SWAP2 SWAP1 POP JUMP JUMPDEST PUSH3 0xA1 DUP2 PUSH3 0x8C JUMP JUMPDEST DUP2 EQ PUSH3 0xAD JUMPI PUSH1 0x0 DUP1 REVERT JUMPDEST POP JUMP JUMPDEST PUSH1 0x0 DUP2 MLOAD SWAP1 POP PUSH3 0xC1 DUP2 PUSH3 0x96 JUMP JUMPDEST SWAP3 SWAP2 POP POP JUMP JUMPDEST PUSH1 0x0 PUSH20 0xFFFFFFFFFFFFFFFFFFFFFFFFFFFFFFFFFFFFFFFF DUP3 AND SWAP1 POP SWAP2 SWAP1 POP JUMP JUMPDEST PUSH1 0x0 PUSH3 0xF4 DUP3 PUSH3 0xC7 JUMP JUMPDEST SWAP1 POP SWAP2 SWAP1 POP JUMP JUMPDEST PUSH3 0x106 DUP2 PUSH3 0xE7 JUMP JUMPDEST DUP2 EQ PUSH3 0x112 JUMPI PUSH1 0x0 DUP1 REVERT JUMPDEST POP JUMP JUMPDEST PUSH1 0x0 DUP2 MLOAD SWAP1 POP PUSH3 0x126 DUP2 PUSH3 0xFB JUMP JUMPDEST SWAP3 SWAP2 POP POP JUMP JUMPDEST PUSH1 0x0 DUP1 PUSH1 0x40 DUP4 DUP6 SUB SLT ISZERO PUSH3 0x146 JUMPI PUSH3 0x145 PUSH3 0x87 JUMP JUMPDEST JUMPDEST PUSH1 0x0 PUSH3 0x156 DUP6 DUP3 DUP7 ADD PUSH3 0xB0 JUMP JUMPDEST SWAP3 POP POP PUSH1 0x20 PUSH3 0x169 DUP6 DUP3 DUP7 ADD PUSH3 0x115 JUMP JUMPDEST SWAP2 POP POP SWAP3 POP SWAP3 SWAP1 POP JUMP JUMPDEST PUSH2 0x1634 DUP1 PUSH3 0x183 PUSH1 0x0 CODECOPY PUSH1 0x0 RETURN INVALID PUSH1 0x80 PUSH1 0x40 MSTORE PUSH1 0x4 CALLDATASIZE LT PUSH2 0x9C JUMPI PUSH1 0x0 CALLDATALOAD PUSH1 0xE0 SHR DUP1 PUSH4 0x82FDE093 GT PUSH2 0x64 JUMPI DUP1 PUSH4 0x82FDE093 EQ PUSH2 0x1B0 JUMPI DUP1 PUSH4 0x8A9CFD55 EQ PUSH2 0x1DB JUMPI DUP1 PUSH4 0x937E09B1 EQ PUSH2 0x204 JUMPI DUP1 PUSH4 0xAB2850DA EQ PUSH2 0x22F JUMPI DUP1 PUSH4 0xD7BB99BA EQ PUSH2 0x26C JUMPI DUP1 PUSH4 0xD7D1BBDB EQ PUSH2 0x276 JUMPI PUSH2 0x9C JUMP JUMPDEST DUP1 PUSH4 0x3441006 EQ PUSH2 0xA1 JUMPI DUP1 PUSH4 0xA144391 EQ PUSH2 0xCA JUMPI DUP1 PUSH4 0x481C6A75 EQ PUSH2 0x107 JUMPI DUP1 PUSH4 0x6DDFAED1 EQ PUSH2 0x132 JUMPI DUP1 PUSH4 0x81D12C58 EQ PUSH2 0x16F JUMPI JUMPDEST PUSH1 0x0 DUP1 REVERT JUMPDEST CALLVALUE DUP1 ISZERO PUSH2 0xAD JUMPI PUSH1 0x0 DUP1 REVERT JUMPDEST POP PUSH2 0xC8 PUSH1 0x4 DUP1 CALLDATASIZE SUB DUP2 ADD SWAP1 PUSH2 0xC3 SWAP2 SWAP1 PUSH2 0xBF5 JUMP JUMPDEST PUSH2 0x29F JUMP JUMPDEST STOP JUMPDEST CALLVALUE DUP1 ISZERO PUSH2 0xD6 JUMPI PUSH1 0x0 DUP1 REVERT JUMPDEST POP PUSH2 0xF1 PUSH1 0x4 DUP1 CALLDATASIZE SUB DUP2 ADD SWAP1 PUSH2 0xEC SWAP2 SWAP1 PUSH2 0xC80 JUMP JUMPDEST PUSH2 0x49E JUMP JUMPDEST PUSH1 0x40 MLOAD PUSH2 0xFE SWAP2 SWAP1 PUSH2 0xCC8 JUMP JUMPDEST PUSH1 0x40 MLOAD DUP1 SWAP2 SUB SWAP1 RETURN JUMPDEST CALLVALUE DUP1 ISZERO PUSH2 0x113 JUMPI PUSH1 0x0 DUP1 REVERT JUMPDEST POP PUSH2 0x11C PUSH2 0x4BE JUMP JUMPDEST PUSH1 0x40 MLOAD PUSH2 0x129 SWAP2 SWAP1 PUSH2 0xCF2 JUMP JUMPDEST PUSH1 0x40 MLOAD DUP1 SWAP2 SUB SWAP1 RETURN JUMPDEST CALLVALUE DUP1 ISZERO PUSH2 0x13E JUMPI PUSH1 0x0 DUP1 REVERT JUMPDEST POP PUSH2 0x159 PUSH1 0x4 DUP1 CALLDATASIZE SUB DUP2 ADD SWAP1 PUSH2 0x154 SWAP2 SWAP1 PUSH2 0xBF5 JUMP JUMPDEST PUSH2 0x4E4 JUMP JUMPDEST PUSH1 0x40 MLOAD PUSH2 0x166 SWAP2 SWAP1 PUSH2 0xD9D JUMP JUMPDEST PUSH1 0x40 MLOAD DUP1 SWAP2 SUB SWAP1 RETURN JUMPDEST CALLVALUE DUP1 ISZERO PUSH2 0x17B JUMPI PUSH1 0x0 DUP1 REVERT JUMPDEST POP PUSH2 0x196 PUSH1 0x4 DUP1 CALLDATASIZE SUB DUP2 ADD SWAP1 PUSH2 0x191 SWAP2 SWAP1 PUSH2 0xBF5 JUMP JUMPDEST PUSH2 0x5EA JUMP JUMPDEST PUSH1 0x40 MLOAD PUSH2 0x1A7 SWAP6 SWAP5 SWAP4 SWAP3 SWAP2 SWAP1 PUSH2 0xDEF JUMP JUMPDEST PUSH1 0x40 MLOAD DUP1 SWAP2 SUB SWAP1 RETURN JUMPDEST CALLVALUE DUP1 ISZERO PUSH2 0x1BC JUMPI PUSH1 0x0 DUP1 REVERT JUMPDEST POP PUSH2 0x1C5 PUSH2 0x6E5 JUMP JUMPDEST PUSH1 0x40 MLOAD PUSH2 0x1D2 SWAP2 SWAP1 PUSH2 0xE49 JUMP JUMPDEST PUSH1 0x40 MLOAD DUP1 SWAP2 SUB SWAP1 RETURN JUMPDEST CALLVALUE DUP1 ISZERO PUSH2 0x1E7 JUMPI PUSH1 0x0 DUP1 REVERT JUMPDEST POP PUSH2 0x202 PUSH1 0x4 DUP1 CALLDATASIZE SUB DUP2 ADD SWAP1 PUSH2 0x1FD SWAP2 SWAP1 PUSH2 0xEF5 JUMP JUMPDEST PUSH2 0x6EB JUMP JUMPDEST STOP JUMPDEST CALLVALUE DUP1 ISZERO PUSH2 0x210 JUMPI PUSH1 0x0 DUP1 REVERT JUMPDEST POP PUSH2 0x219 PUSH2 0x88E JUMP JUMPDEST PUSH1 0x40 MLOAD PUSH2 0x226 SWAP2 SWAP1 PUSH2 0xE49 JUMP JUMPDEST PUSH1 0x40 MLOAD DUP1 SWAP2 SUB SWAP1 RETURN JUMPDEST CALLVALUE DUP1 ISZERO PUSH2 0x23B JUMPI PUSH1 0x0 DUP1 REVERT JUMPDEST POP PUSH2 0x256 PUSH1 0x4 DUP1 CALLDATASIZE SUB DUP2 ADD SWAP1 PUSH2 0x251 SWAP2 SWAP1 PUSH2 0xF69 JUMP JUMPDEST PUSH2 0x894 JUMP JUMPDEST PUSH1 0x40 MLOAD PUSH2 0x263 SWAP2 SWAP1 PUSH2 0xCC8 JUMP JUMPDEST PUSH1 0x40 MLOAD DUP1 SWAP2 SUB SWAP1 RETURN JUMPDEST PUSH2 0x274 PUSH2 0x8C3 JUMP JUMPDEST STOP JUMPDEST CALLVALUE DUP1 ISZERO PUSH2 0x282 JUMPI PUSH1 0x0 DUP1 REVERT JUMPDEST POP PUSH2 0x29D PUSH1 0x4 DUP1 CALLDATASIZE SUB DUP2 ADD SWAP1 PUSH2 0x298 SWAP2 SWAP1 PUSH2 0xBF5 JUMP JUMPDEST PUSH2 0x99D JUMP JUMPDEST STOP JUMPDEST PUSH1 0x2 PUSH1 0x0 SWAP1 SLOAD SWAP1 PUSH2 0x100 EXP SWAP1 DIV PUSH20 0xFFFFFFFFFFFFFFFFFFFFFFFFFFFFFFFFFFFFFFFF AND PUSH20 0xFFFFFFFFFFFFFFFFFFFFFFFFFFFFFFFFFFFFFFFF AND CALLER PUSH20 0xFFFFFFFFFFFFFFFFFFFFFFFFFFFFFFFFFFFFFFFF AND EQ PUSH2 0x2F9 JUMPI PUSH1 0x0 DUP1 REVERT JUMPDEST DUP1 PUSH1 0x1 DUP1 SLOAD SWAP1 POP DUP2 LT PUSH2 0x341 JUMPI PUSH1 0x40 MLOAD PUSH32 0x8C379A000000000000000000000000000000000000000000000000000000000 DUP2 MSTORE PUSH1 0x4 ADD PUSH2 0x338 SWAP1 PUSH2 0xFF5 JUMP JUMPDEST PUSH1 0x40 MLOAD DUP1 SWAP2 SUB SWAP1 REVERT JUMPDEST PUSH1 0x0 PUSH1 0x1 DUP4 DUP2 SLOAD DUP2 LT PUSH2 0x357 JUMPI PUSH2 0x356 PUSH2 0x1015 JUMP JUMPDEST JUMPDEST SWAP1 PUSH1 0x0 MSTORE PUSH1 0x20 PUSH1 0x0 KECCAK256 SWAP1 PUSH1 0x4 MUL ADD SWAP1 POP DUP1 PUSH1 0x2 ADD PUSH1 0x14 SWAP1 SLOAD SWAP1 PUSH2 0x100 EXP SWAP1 DIV PUSH1 0xFF AND ISZERO PUSH2 0x3B9 JUMPI PUSH1 0x40 MLOAD PUSH32 0x8C379A000000000000000000000000000000000000000000000000000000000 DUP2 MSTORE PUSH1 0x4 ADD PUSH2 0x3B0 SWAP1 PUSH2 0x1090 JUMP JUMPDEST PUSH1 0x40 MLOAD DUP1 SWAP2 SUB SWAP1 REVERT JUMPDEST PUSH1 0x2 PUSH1 0x5 SLOAD PUSH2 0x3C8 SWAP2 SWAP1 PUSH2 0x110E JUMP JUMPDEST DUP2 PUSH1 0x3 ADD SLOAD GT PUSH2 0x40D JUMPI PUSH1 0x40 MLOAD PUSH32 0x8C379A000000000000000000000000000000000000000000000000000000000 DUP2 MSTORE PUSH1 0x4 ADD PUSH2 0x404 SWAP1 PUSH2 0x118B JUMP JUMPDEST PUSH1 0x40 MLOAD DUP1 SWAP2 SUB SWAP1 REVERT JUMPDEST DUP1 PUSH1 0x2 ADD PUSH1 0x0 SWAP1 SLOAD SWAP1 PUSH2 0x100 EXP SWAP1 DIV PUSH20 0xFFFFFFFFFFFFFFFFFFFFFFFFFFFFFFFFFFFFFFFF AND PUSH20 0xFFFFFFFFFFFFFFFFFFFFFFFFFFFFFFFFFFFFFFFF AND PUSH2 0x8FC DUP3 PUSH1 0x1 ADD SLOAD SWAP1 DUP2 ISZERO MUL SWAP1 PUSH1 0x40 MLOAD PUSH1 0x0 PUSH1 0x40 MLOAD DUP1 DUP4 SUB DUP2 DUP6 DUP9 DUP9 CALL SWAP4 POP POP POP POP ISZERO DUP1 ISZERO PUSH2 0x47B JUMPI RETURNDATASIZE PUSH1 0x0 DUP1 RETURNDATACOPY RETURNDATASIZE PUSH1 0x0 REVERT JUMPDEST POP PUSH1 0x1 DUP2 PUSH1 0x2 ADD PUSH1 0x14 PUSH2 0x100 EXP DUP2 SLOAD DUP2 PUSH1 0xFF MUL NOT AND SWAP1 DUP4 ISZERO ISZERO MUL OR SWAP1 SSTORE POP POP POP POP JUMP JUMPDEST PUSH1 0x4 PUSH1 0x20 MSTORE DUP1 PUSH1 0x0 MSTORE PUSH1 0x40 PUSH1 0x0 KECCAK256 PUSH1 0x0 SWAP2 POP SLOAD SWAP1 PUSH2 0x100 EXP SWAP1 DIV PUSH1 0xFF AND DUP2 JUMP JUMPDEST PUSH1 0x2 PUSH1 0x0 SWAP1 SLOAD SWAP1 PUSH2 0x100 EXP SWAP1 DIV PUSH20 0xFFFFFFFFFFFFFFFFFFFFFFFFFFFFFFFFFFFFFFFF AND DUP2 JUMP JUMPDEST PUSH1 0x60 DUP2 PUSH1 0x1 DUP1 SLOAD SWAP1 POP DUP2 LT PUSH2 0x52E JUMPI PUSH1 0x40 MLOAD PUSH32 0x8C379A000000000000000000000000000000000000000000000000000000000 DUP2 MSTORE PUSH1 0x4 ADD PUSH2 0x525 SWAP1 PUSH2 0xFF5 JUMP JUMPDEST PUSH1 0x40 MLOAD DUP1 SWAP2 SUB SWAP1 REVERT JUMPDEST PUSH1 0x0 PUSH1 0x1 DUP5 DUP2 SLOAD DUP2 LT PUSH2 0x544 JUMPI PUSH2 0x543 PUSH2 0x1015 JUMP JUMPDEST JUMPDEST SWAP1 PUSH1 0x0 MSTORE PUSH1 0x20 PUSH1 0x0 KECCAK256 SWAP1 PUSH1 0x4 MUL ADD SWAP1 POP DUP1 PUSH1 0x0 ADD DUP1 SLOAD PUSH2 0x563 SWAP1 PUSH2 0x11DA JUMP JUMPDEST DUP1 PUSH1 0x1F ADD PUSH1 0x20 DUP1 SWAP2 DIV MUL PUSH1 0x20 ADD PUSH1 0x40 MLOAD SWAP1 DUP2 ADD PUSH1 0x40 MSTORE DUP1 SWAP3 SWAP2 SWAP1 DUP2 DUP2 MSTORE PUSH1 0x20 ADD DUP3 DUP1 SLOAD PUSH2 0x58F SWAP1 PUSH2 0x11DA JUMP JUMPDEST DUP1 ISZERO PUSH2 0x5DC JUMPI DUP1 PUSH1 0x1F LT PUSH2 0x5B1 JUMPI PUSH2 0x100 DUP1 DUP4 SLOAD DIV MUL DUP4 MSTORE SWAP2 PUSH1 0x20 ADD SWAP2 PUSH2 0x5DC JUMP JUMPDEST DUP3 ADD SWAP2 SWAP1 PUSH1 0x0 MSTORE PUSH1 0x20 PUSH1 0x0 KECCAK256 SWAP1 JUMPDEST DUP2 SLOAD DUP2 MSTORE SWAP1 PUSH1 0x1 ADD SWAP1 PUSH1 0x20 ADD DUP1 DUP4 GT PUSH2 0x5BF JUMPI DUP3 SWAP1 SUB PUSH1 0x1F AND DUP3 ADD SWAP2 JUMPDEST POP POP POP POP POP SWAP3 POP POP POP SWAP2 SWAP1 POP JUMP JUMPDEST PUSH1 0x1 DUP2 DUP2 SLOAD DUP2 LT PUSH2 0x5FA JUMPI PUSH1 0x0 DUP1 REVERT JUMPDEST SWAP1 PUSH1 0x0 MSTORE PUSH1 0x20 PUSH1 0x0 KECCAK256 SWAP1 PUSH1 0x4 MUL ADD PUSH1 0x0 SWAP2 POP SWAP1 POP DUP1 PUSH1 0x0 ADD DUP1 SLOAD PUSH2 0x61D SWAP1 PUSH2 0x11DA JUMP JUMPDEST DUP1 PUSH1 0x1F ADD PUSH1 0x20 DUP1 SWAP2 DIV MUL PUSH1 0x20 ADD PUSH1 0x40 MLOAD SWAP1 DUP2 ADD PUSH1 0x40 MSTORE DUP1 SWAP3 SWAP2 SWAP1 DUP2 DUP2 MSTORE PUSH1 0x20 ADD DUP3 DUP1 SLOAD PUSH2 0x649 SWAP1 PUSH2 0x11DA JUMP JUMPDEST DUP1 ISZERO PUSH2 0x696 JUMPI DUP1 PUSH1 0x1F LT PUSH2 0x66B JUMPI PUSH2 0x100 DUP1 DUP4 SLOAD DIV MUL DUP4 MSTORE SWAP2 PUSH1 0x20 ADD SWAP2 PUSH2 0x696 JUMP JUMPDEST DUP3 ADD SWAP2 SWAP1 PUSH1 0x0 MSTORE PUSH1 0x20 PUSH1 0x0 KECCAK256 SWAP1 JUMPDEST DUP2 SLOAD DUP2 MSTORE SWAP1 PUSH1 0x1 ADD SWAP1 PUSH1 0x20 ADD DUP1 DUP4 GT PUSH2 0x679 JUMPI DUP3 SWAP1 SUB PUSH1 0x1F AND DUP3 ADD SWAP2 JUMPDEST POP POP POP POP POP SWAP1 DUP1 PUSH1 0x1 ADD SLOAD SWAP1 DUP1 PUSH1 0x2 ADD PUSH1 0x0 SWAP1 SLOAD SWAP1 PUSH2 0x100 EXP SWAP1 DIV PUSH20 0xFFFFFFFFFFFFFFFFFFFFFFFFFFFFFFFFFFFFFFFF AND SWAP1 DUP1 PUSH1 0x2 ADD PUSH1 0x14 SWAP1 SLOAD SWAP1 PUSH2 0x100 EXP SWAP1 DIV PUSH1 0xFF AND SWAP1 DUP1 PUSH1 0x3 ADD SLOAD SWAP1 POP DUP6 JUMP JUMPDEST PUSH1 0x5 SLOAD DUP2 JUMP JUMPDEST PUSH1 0x2 PUSH1 0x0 SWAP1 SLOAD SWAP1 PUSH2 0x100 EXP SWAP1 DIV PUSH20 0xFFFFFFFFFFFFFFFFFFFFFFFFFFFFFFFFFFFFFFFF AND PUSH20 0xFFFFFFFFFFFFFFFFFFFFFFFFFFFFFFFFFFFFFFFF AND CALLER PUSH20 0xFFFFFFFFFFFFFFFFFFFFFFFFFFFFFFFFFFFFFFFF AND EQ PUSH2 0x745 JUMPI PUSH1 0x0 DUP1 REVERT JUMPDEST PUSH1 0x1 PUSH1 0x40 MLOAD DUP1 PUSH1 0xA0 ADD PUSH1 0x40 MSTORE DUP1 DUP7 DUP7 DUP1 DUP1 PUSH1 0x1F ADD PUSH1 0x20 DUP1 SWAP2 DIV MUL PUSH1 0x20 ADD PUSH1 0x40 MLOAD SWAP1 DUP2 ADD PUSH1 0x40 MSTORE DUP1 SWAP4 SWAP3 SWAP2 SWAP1 DUP2 DUP2 MSTORE PUSH1 0x20 ADD DUP4 DUP4 DUP1 DUP3 DUP5 CALLDATACOPY PUSH1 0x0 DUP2 DUP5 ADD MSTORE PUSH1 0x1F NOT PUSH1 0x1F DUP3 ADD AND SWAP1 POP DUP1 DUP4 ADD SWAP3 POP POP POP POP POP POP POP DUP2 MSTORE PUSH1 0x20 ADD DUP5 DUP2 MSTORE PUSH1 0x20 ADD DUP4 PUSH20 0xFFFFFFFFFFFFFFFFFFFFFFFFFFFFFFFFFFFFFFFF AND DUP2 MSTORE PUSH1 0x20 ADD PUSH1 0x0 ISZERO ISZERO DUP2 MSTORE PUSH1 0x20 ADD PUSH1 0x0 DUP2 MSTORE POP SWAP1 DUP1 PUSH1 0x1 DUP2 SLOAD ADD DUP1 DUP3 SSTORE DUP1 SWAP2 POP POP PUSH1 0x1 SWAP1 SUB SWAP1 PUSH1 0x0 MSTORE PUSH1 0x20 PUSH1 0x0 KECCAK256 SWAP1 PUSH1 0x4 MUL ADD PUSH1 0x0 SWAP1 SWAP2 SWAP1 SWAP2 SWAP1 SWAP2 POP PUSH1 0x0 DUP3 ADD MLOAD DUP2 PUSH1 0x0 ADD SWAP1 DUP2 PUSH2 0x80A SWAP2 SWAP1 PUSH2 0x13E6 JUMP JUMPDEST POP PUSH1 0x20 DUP3 ADD MLOAD DUP2 PUSH1 0x1 ADD SSTORE PUSH1 0x40 DUP3 ADD MLOAD DUP2 PUSH1 0x2 ADD PUSH1 0x0 PUSH2 0x100 EXP DUP2 SLOAD DUP2 PUSH20 0xFFFFFFFFFFFFFFFFFFFFFFFFFFFFFFFFFFFFFFFF MUL NOT AND SWAP1 DUP4 PUSH20 0xFFFFFFFFFFFFFFFFFFFFFFFFFFFFFFFFFFFFFFFF AND MUL OR SWAP1 SSTORE POP PUSH1 0x60 DUP3 ADD MLOAD DUP2 PUSH1 0x2 ADD PUSH1 0x14 PUSH2 0x100 EXP DUP2 SLOAD DUP2 PUSH1 0xFF MUL NOT AND SWAP1 DUP4 ISZERO ISZERO MUL OR SWAP1 SSTORE POP PUSH1 0x80 DUP3 ADD MLOAD DUP2 PUSH1 0x3 ADD SSTORE POP POP POP POP POP POP JUMP JUMPDEST PUSH1 0x3 SLOAD DUP2 JUMP JUMPDEST PUSH1 0x0 PUSH1 0x20 MSTORE DUP2 PUSH1 0x0 MSTORE PUSH1 0x40 PUSH1 0x0 KECCAK256 PUSH1 0x20 MSTORE DUP1 PUSH1 0x0 MSTORE PUSH1 0x40 PUSH1 0x0 KECCAK256 PUSH1 0x0 SWAP2 POP SWAP2 POP SWAP1 SLOAD SWAP1 PUSH2 0x100 EXP SWAP1 DIV PUSH1 0xFF AND DUP2 JUMP JUMPDEST PUSH1 0x2 PUSH1 0x0 SWAP1 SLOAD SWAP1 PUSH2 0x100 EXP SWAP1 DIV PUSH20 0xFFFFFFFFFFFFFFFFFFFFFFFFFFFFFFFFFFFFFFFF AND PUSH20 0xFFFFFFFFFFFFFFFFFFFFFFFFFFFFFFFFFFFFFFFF AND CALLER PUSH20 0xFFFFFFFFFFFFFFFFFFFFFFFFFFFFFFFFFFFFFFFF AND SUB PUSH2 0x91D JUMPI PUSH1 0x0 DUP1 REVERT JUMPDEST PUSH1 0x3 SLOAD CALLVALUE GT PUSH2 0x92B JUMPI PUSH1 0x0 DUP1 REVERT JUMPDEST PUSH1 0x1 PUSH1 0x4 PUSH1 0x0 CALLER PUSH20 0xFFFFFFFFFFFFFFFFFFFFFFFFFFFFFFFFFFFFFFFF AND PUSH20 0xFFFFFFFFFFFFFFFFFFFFFFFFFFFFFFFFFFFFFFFF AND DUP2 MSTORE PUSH1 0x20 ADD SWAP1 DUP2 MSTORE PUSH1 0x20 ADD PUSH1 0x0 KECCAK256 PUSH1 0x0 PUSH2 0x100 EXP DUP2 SLOAD DUP2 PUSH1 0xFF MUL NOT AND SWAP1 DUP4 ISZERO ISZERO MUL OR SWAP1 SSTORE POP PUSH1 0x5 PUSH1 0x0 DUP2 SLOAD DUP1 SWAP3 SWAP2 SWAP1 PUSH2 0x996 SWAP1 PUSH2 0x14B8 JUMP JUMPDEST SWAP2 SWAP1 POP SSTORE POP JUMP JUMPDEST DUP1 PUSH1 0x1 DUP1 SLOAD SWAP1 POP DUP2 LT PUSH2 0x9E5 JUMPI PUSH1 0x40 MLOAD PUSH32 0x8C379A000000000000000000000000000000000000000000000000000000000 DUP2 MSTORE PUSH1 0x4 ADD PUSH2 0x9DC SWAP1 PUSH2 0xFF5 JUMP JUMPDEST PUSH1 0x40 MLOAD DUP1 SWAP2 SUB SWAP1 REVERT JUMPDEST PUSH1 0x4 PUSH1 0x0 CALLER PUSH20 0xFFFFFFFFFFFFFFFFFFFFFFFFFFFFFFFFFFFFFFFF AND PUSH20 0xFFFFFFFFFFFFFFFFFFFFFFFFFFFFFFFFFFFFFFFF AND DUP2 MSTORE PUSH1 0x20 ADD SWAP1 DUP2 MSTORE PUSH1 0x20 ADD PUSH1 0x0 KECCAK256 PUSH1 0x0 SWAP1 SLOAD SWAP1 PUSH2 0x100 EXP SWAP1 DIV PUSH1 0xFF AND PUSH2 0xA71 JUMPI PUSH1 0x40 MLOAD PUSH32 0x8C379A000000000000000000000000000000000000000000000000000000000 DUP2 MSTORE PUSH1 0x4 ADD PUSH2 0xA68 SWAP1 PUSH2 0x154C JUMP JUMPDEST PUSH1 0x40 MLOAD DUP1 SWAP2 SUB SWAP1 REVERT JUMPDEST PUSH1 0x0 DUP1 DUP4 DUP2 MSTORE PUSH1 0x20 ADD SWAP1 DUP2 MSTORE PUSH1 0x20 ADD PUSH1 0x0 KECCAK256 PUSH1 0x0 CALLER PUSH20 0xFFFFFFFFFFFFFFFFFFFFFFFFFFFFFFFFFFFFFFFF AND PUSH20 0xFFFFFFFFFFFFFFFFFFFFFFFFFFFFFFFFFFFFFFFF AND DUP2 MSTORE PUSH1 0x20 ADD SWAP1 DUP2 MSTORE PUSH1 0x20 ADD PUSH1 0x0 KECCAK256 PUSH1 0x0 SWAP1 SLOAD SWAP1 PUSH2 0x100 EXP SWAP1 DIV PUSH1 0xFF AND ISZERO PUSH2 0xB0E JUMPI PUSH1 0x40 MLOAD PUSH32 0x8C379A000000000000000000000000000000000000000000000000000000000 DUP2 MSTORE PUSH1 0x4 ADD PUSH2 0xB05 SWAP1 PUSH2 0x15DE JUMP JUMPDEST PUSH1 0x40 MLOAD DUP1 SWAP2 SUB SWAP1 REVERT JUMPDEST PUSH1 0x1 PUSH1 0x0 DUP1 DUP5 DUP2 MSTORE PUSH1 0x20 ADD SWAP1 DUP2 MSTORE PUSH1 0x20 ADD PUSH1 0x0 KECCAK256 PUSH1 0x0 CALLER PUSH20 0xFFFFFFFFFFFFFFFFFFFFFFFFFFFFFFFFFFFFFFFF AND PUSH20 0xFFFFFFFFFFFFFFFFFFFFFFFFFFFFFFFFFFFFFFFF AND DUP2 MSTORE PUSH1 0x20 ADD SWAP1 DUP2 MSTORE PUSH1 0x20 ADD PUSH1 0x0 KECCAK256 PUSH1 0x0 PUSH2 0x100 EXP DUP2 SLOAD DUP2 PUSH1 0xFF MUL NOT AND SWAP1 DUP4 ISZERO ISZERO MUL OR SWAP1 SSTORE POP PUSH1 0x1 DUP3 DUP2 SLOAD DUP2 LT PUSH2 0xB8A JUMPI PUSH2 0xB89 PUSH2 0x1015 JUMP JUMPDEST JUMPDEST SWAP1 PUSH1 0x0 MSTORE PUSH1 0x20 PUSH1 0x0 KECCAK256 SWAP1 PUSH1 0x4 MUL ADD PUSH1 0x3 ADD PUSH1 0x0 DUP2 SLOAD DUP1 SWAP3 SWAP2 SWAP1 PUSH2 0xBAC SWAP1 PUSH2 0x14B8 JUMP JUMPDEST SWAP2 SWAP1 POP SSTORE POP POP POP JUMP JUMPDEST PUSH1 0x0 DUP1 REVERT JUMPDEST PUSH1 0x0 DUP1 REVERT JUMPDEST PUSH1 0x0 DUP2 SWAP1 POP SWAP2 SWAP1 POP JUMP JUMPDEST PUSH2 0xBD2 DUP2 PUSH2 0xBBF JUMP JUMPDEST DUP2 EQ PUSH2 0xBDD JUMPI PUSH1 0x0 DUP1 REVERT JUMPDEST POP JUMP JUMPDEST PUSH1 0x0 DUP2 CALLDATALOAD SWAP1 POP PUSH2 0xBEF DUP2 PUSH2 0xBC9 JUMP JUMPDEST SWAP3 SWAP2 POP POP JUMP JUMPDEST PUSH1 0x0 PUSH1 0x20 DUP3 DUP5 SUB SLT ISZERO PUSH2 0xC0B JUMPI PUSH2 0xC0A PUSH2 0xBB5 JUMP JUMPDEST JUMPDEST PUSH1 0x0 PUSH2 0xC19 DUP5 DUP3 DUP6 ADD PUSH2 0xBE0 JUMP JUMPDEST SWAP2 POP POP SWAP3 SWAP2 POP POP JUMP JUMPDEST PUSH1 0x0 PUSH20 0xFFFFFFFFFFFFFFFFFFFFFFFFFFFFFFFFFFFFFFFF DUP3 AND SWAP1 POP SWAP2 SWAP1 POP JUMP JUMPDEST PUSH1 0x0 PUSH2 0xC4D DUP3 PUSH2 0xC22 JUMP JUMPDEST SWAP1 POP SWAP2 SWAP1 POP JUMP JUMPDEST PUSH2 0xC5D DUP2 PUSH2 0xC42 JUMP JUMPDEST DUP2 EQ PUSH2 0xC68 JUMPI PUSH1 0x0 DUP1 REVERT JUMPDEST POP JUMP JUMPDEST PUSH1 0x0 DUP2 CALLDATALOAD SWAP1 POP PUSH2 0xC7A DUP2 PUSH2 0xC54 JUMP JUMPDEST SWAP3 SWAP2 POP POP JUMP JUMPDEST PUSH1 0x0 PUSH1 0x20 DUP3 DUP5 SUB SLT ISZERO PUSH2 0xC96 JUMPI PUSH2 0xC95 PUSH2 0xBB5 JUMP JUMPDEST JUMPDEST PUSH1 0x0 PUSH2 0xCA4 DUP5 DUP3 DUP6 ADD PUSH2 0xC6B JUMP JUMPDEST SWAP2 POP POP SWAP3 SWAP2 POP POP JUMP JUMPDEST PUSH1 0x0 DUP2 ISZERO ISZERO SWAP1 POP SWAP2 SWAP1 POP JUMP JUMPDEST PUSH2 0xCC2 DUP2 PUSH2 0xCAD JUMP JUMPDEST DUP3 MSTORE POP POP JUMP JUMPDEST PUSH1 0x0 PUSH1 0x20 DUP3 ADD SWAP1 POP PUSH2 0xCDD PUSH1 0x0 DUP4 ADD DUP5 PUSH2 0xCB9 JUMP JUMPDEST SWAP3 SWAP2 POP POP JUMP JUMPDEST PUSH2 0xCEC DUP2 PUSH2 0xC42 JUMP JUMPDEST DUP3 MSTORE POP POP JUMP JUMPDEST PUSH1 0x0 PUSH1 0x20 DUP3 ADD SWAP1 POP PUSH2 0xD07 PUSH1 0x0 DUP4 ADD DUP5 PUSH2 0xCE3 JUMP JUMPDEST SWAP3 SWAP2 POP POP JUMP JUMPDEST PUSH1 0x0 DUP2 MLOAD SWAP1 POP SWAP2 SWAP1 POP JUMP JUMPDEST PUSH1 0x0 DUP3 DUP3 MSTORE PUSH1 0x20 DUP3 ADD SWAP1 POP SWAP3 SWAP2 POP POP JUMP JUMPDEST PUSH1 0x0 JUMPDEST DUP4 DUP2 LT ISZERO PUSH2 0xD47 JUMPI DUP1 DUP3 ADD MLOAD DUP2 DUP5 ADD MSTORE PUSH1 0x20 DUP2 ADD SWAP1 POP PUSH2 0xD2C JUMP JUMPDEST PUSH1 0x0 DUP5 DUP5 ADD MSTORE POP POP POP POP JUMP JUMPDEST PUSH1 0x0 PUSH1 0x1F NOT PUSH1 0x1F DUP4 ADD AND SWAP1 POP SWAP2 SWAP1 POP JUMP JUMPDEST PUSH1 0x0 PUSH2 0xD6F DUP3 PUSH2 0xD0D JUMP JUMPDEST PUSH2 0xD79 DUP2 DUP6 PUSH2 0xD18 JUMP JUMPDEST SWAP4 POP PUSH2 0xD89 DUP2 DUP6 PUSH1 0x20 DUP7 ADD PUSH2 0xD29 JUMP JUMPDEST PUSH2 0xD92 DUP2 PUSH2 0xD53 JUMP JUMPDEST DUP5 ADD SWAP2 POP POP SWAP3 SWAP2 POP POP JUMP JUMPDEST PUSH1 0x0 PUSH1 0x20 DUP3 ADD SWAP1 POP DUP2 DUP2 SUB PUSH1 0x0 DUP4 ADD MSTORE PUSH2 0xDB7 DUP2 DUP5 PUSH2 0xD64 JUMP JUMPDEST SWAP1 POP SWAP3 SWAP2 POP POP JUMP JUMPDEST PUSH2 0xDC8 DUP2 PUSH2 0xBBF JUMP JUMPDEST DUP3 MSTORE POP POP JUMP JUMPDEST PUSH1 0x0 PUSH2 0xDD9 DUP3 PUSH2 0xC22 JUMP JUMPDEST SWAP1 POP SWAP2 SWAP1 POP JUMP JUMPDEST PUSH2 0xDE9 DUP2 PUSH2 0xDCE JUMP JUMPDEST DUP3 MSTORE POP POP JUMP JUMPDEST PUSH1 0x0 PUSH1 0xA0 DUP3 ADD SWAP1 POP DUP2 DUP2 SUB PUSH1 0x0 DUP4 ADD MSTORE PUSH2 0xE09 DUP2 DUP9 PUSH2 0xD64 JUMP JUMPDEST SWAP1 POP PUSH2 0xE18 PUSH1 0x20 DUP4 ADD DUP8 PUSH2 0xDBF JUMP JUMPDEST PUSH2 0xE25 PUSH1 0x40 DUP4 ADD DUP7 PUSH2 0xDE0 JUMP JUMPDEST PUSH2 0xE32 PUSH1 0x60 DUP4 ADD DUP6 PUSH2 0xCB9 JUMP JUMPDEST PUSH2 0xE3F PUSH1 0x80 DUP4 ADD DUP5 PUSH2 0xDBF JUMP JUMPDEST SWAP7 SWAP6 POP POP POP POP POP POP JUMP JUMPDEST PUSH1 0x0 PUSH1 0x20 DUP3 ADD SWAP1 POP PUSH2 0xE5E PUSH1 0x0 DUP4 ADD DUP5 PUSH2 0xDBF JUMP JUMPDEST SWAP3 SWAP2 POP POP JUMP JUMPDEST PUSH1 0x0 DUP1 REVERT JUMPDEST PUSH1 0x0 DUP1 REVERT JUMPDEST PUSH1 0x0 DUP1 REVERT JUMPDEST PUSH1 0x0 DUP1 DUP4 PUSH1 0x1F DUP5 ADD SLT PUSH2 0xE89 JUMPI PUSH2 0xE88 PUSH2 0xE64 JUMP JUMPDEST JUMPDEST DUP3 CALLDATALOAD SWAP1 POP PUSH8 0xFFFFFFFFFFFFFFFF DUP2 GT ISZERO PUSH2 0xEA6 JUMPI PUSH2 0xEA5 PUSH2 0xE69 JUMP JUMPDEST JUMPDEST PUSH1 0x20 DUP4 ADD SWAP2 POP DUP4 PUSH1 0x1 DUP3 MUL DUP4 ADD GT ISZERO PUSH2 0xEC2 JUMPI PUSH2 0xEC1 PUSH2 0xE6E JUMP JUMPDEST JUMPDEST SWAP3 POP SWAP3 SWAP1 POP JUMP JUMPDEST PUSH2 0xED2 DUP2 PUSH2 0xDCE JUMP JUMPDEST DUP2 EQ PUSH2 0xEDD JUMPI PUSH1 0x0 DUP1 REVERT JUMPDEST POP JUMP JUMPDEST PUSH1 0x0 DUP2 CALLDATALOAD SWAP1 POP PUSH2 0xEEF DUP2 PUSH2 0xEC9 JUMP JUMPDEST SWAP3 SWAP2 POP POP JUMP JUMPDEST PUSH1 0x0 DUP1 PUSH1 0x0 DUP1 PUSH1 0x60 DUP6 DUP8 SUB SLT ISZERO PUSH2 0xF0F JUMPI PUSH2 0xF0E PUSH2 0xBB5 JUMP JUMPDEST JUMPDEST PUSH1 0x0 DUP6 ADD CALLDATALOAD PUSH8 0xFFFFFFFFFFFFFFFF DUP2 GT ISZERO PUSH2 0xF2D JUMPI PUSH2 0xF2C PUSH2 0xBBA JUMP JUMPDEST JUMPDEST PUSH2 0xF39 DUP8 DUP3 DUP9 ADD PUSH2 0xE73 JUMP JUMPDEST SWAP5 POP SWAP5 POP POP PUSH1 0x20 PUSH2 0xF4C DUP8 DUP3 DUP9 ADD PUSH2 0xBE0 JUMP JUMPDEST SWAP3 POP POP PUSH1 0x40 PUSH2 0xF5D DUP8 DUP3 DUP9 ADD PUSH2 0xEE0 JUMP JUMPDEST SWAP2 POP POP SWAP3 SWAP6 SWAP2 SWAP5 POP SWAP3 POP JUMP JUMPDEST PUSH1 0x0 DUP1 PUSH1 0x40 DUP4 DUP6 SUB SLT ISZERO PUSH2 0xF80 JUMPI PUSH2 0xF7F PUSH2 0xBB5 JUMP JUMPDEST JUMPDEST PUSH1 0x0 PUSH2 0xF8E DUP6 DUP3 DUP7 ADD PUSH2 0xBE0 JUMP JUMPDEST SWAP3 POP POP PUSH1 0x20 PUSH2 0xF9F DUP6 DUP3 DUP7 ADD PUSH2 0xC6B JUMP JUMPDEST SWAP2 POP POP SWAP3 POP SWAP3 SWAP1 POP JUMP JUMPDEST PUSH32 0x496E76616C6964207265717565737420696E6465780000000000000000000000 PUSH1 0x0 DUP3 ADD MSTORE POP JUMP JUMPDEST PUSH1 0x0 PUSH2 0xFDF PUSH1 0x15 DUP4 PUSH2 0xD18 JUMP JUMPDEST SWAP2 POP PUSH2 0xFEA DUP3 PUSH2 0xFA9 JUMP JUMPDEST PUSH1 0x20 DUP3 ADD SWAP1 POP SWAP2 SWAP1 POP JUMP JUMPDEST PUSH1 0x0 PUSH1 0x20 DUP3 ADD SWAP1 POP DUP2 DUP2 SUB PUSH1 0x0 DUP4 ADD MSTORE PUSH2 0x100E DUP2 PUSH2 0xFD2 JUMP JUMPDEST SWAP1 POP SWAP2 SWAP1 POP JUMP JUMPDEST PUSH32 0x4E487B7100000000000000000000000000000000000000000000000000000000 PUSH1 0x0 MSTORE PUSH1 0x32 PUSH1 0x4 MSTORE PUSH1 0x24 PUSH1 0x0 REVERT JUMPDEST PUSH32 0x5265717565737420697320616C726561647920636F6D706C6574652100000000 PUSH1 0x0 DUP3 ADD MSTORE POP JUMP JUMPDEST PUSH1 0x0 PUSH2 0x107A PUSH1 0x1C DUP4 PUSH2 0xD18 JUMP JUMPDEST SWAP2 POP PUSH2 0x1085 DUP3 PUSH2 0x1044 JUMP JUMPDEST PUSH1 0x20 DUP3 ADD SWAP1 POP SWAP2 SWAP1 POP JUMP JUMPDEST PUSH1 0x0 PUSH1 0x20 DUP3 ADD SWAP1 POP DUP2 DUP2 SUB PUSH1 0x0 DUP4 ADD MSTORE PUSH2 0x10A9 DUP2 PUSH2 0x106D JUMP JUMPDEST SWAP1 POP SWAP2 SWAP1 POP JUMP JUMPDEST PUSH32 0x4E487B7100000000000000000000000000000000000000000000000000000000 PUSH1 0x0 MSTORE PUSH1 0x12 PUSH1 0x4 MSTORE PUSH1 0x24 PUSH1 0x0 REVERT JUMPDEST PUSH32 0x4E487B7100000000000000000000000000000000000000000000000000000000 PUSH1 0x0 MSTORE PUSH1 0x11 PUSH1 0x4 MSTORE PUSH1 0x24 PUSH1 0x0 REVERT JUMPDEST PUSH1 0x0 PUSH2 0x1119 DUP3 PUSH2 0xBBF JUMP JUMPDEST SWAP2 POP PUSH2 0x1124 DUP4 PUSH2 0xBBF JUMP JUMPDEST SWAP3 POP DUP3 PUSH2 0x1134 JUMPI PUSH2 0x1133 PUSH2 0x10B0 JUMP JUMPDEST JUMPDEST DUP3 DUP3 DIV SWAP1 POP SWAP3 SWAP2 POP POP JUMP JUMPDEST PUSH32 0x4E6F7420656E6F75676820617070726F76616C7320746F2070726F636573732E PUSH1 0x0 DUP3 ADD MSTORE POP JUMP JUMPDEST PUSH1 0x0 PUSH2 0x1175 PUSH1 0x20 DUP4 PUSH2 0xD18 JUMP JUMPDEST SWAP2 POP PUSH2 0x1180 DUP3 PUSH2 0x113F JUMP JUMPDEST PUSH1 0x20 DUP3 ADD SWAP1 POP SWAP2 SWAP1 POP JUMP JUMPDEST PUSH1 0x0 PUSH1 0x20 DUP3 ADD SWAP1 POP DUP2 DUP2 SUB PUSH1 0x0 DUP4 ADD MSTORE PUSH2 0x11A4 DUP2 PUSH2 0x1168 JUMP JUMPDEST SWAP1 POP SWAP2 SWAP1 POP JUMP JUMPDEST PUSH32 0x4E487B7100000000000000000000000000000000000000000000000000000000 PUSH1 0x0 MSTORE PUSH1 0x22 PUSH1 0x4 MSTORE PUSH1 0x24 PUSH1 0x0 REVERT JUMPDEST PUSH1 0x0 PUSH1 0x2 DUP3 DIV SWAP1 POP PUSH1 0x1 DUP3 AND DUP1 PUSH2 0x11F2 JUMPI PUSH1 0x7F DUP3 AND SWAP2 POP JUMPDEST PUSH1 0x20 DUP3 LT DUP2 SUB PUSH2 0x1205 JUMPI PUSH2 0x1204 PUSH2 0x11AB JUMP JUMPDEST JUMPDEST POP SWAP2 SWAP1 POP JUMP JUMPDEST PUSH32 0x4E487B7100000000000000000000000000000000000000000000000000000000 PUSH1 0x0 MSTORE PUSH1 0x41 PUSH1 0x4 MSTORE PUSH1 0x24 PUSH1 0x0 REVERT JUMPDEST PUSH1 0x0 DUP2 SWAP1 POP DUP2 PUSH1 0x0 MSTORE PUSH1 0x20 PUSH1 0x0 KECCAK256 SWAP1 POP SWAP2 SWAP1 POP JUMP JUMPDEST PUSH1 0x0 PUSH1 0x20 PUSH1 0x1F DUP4 ADD DIV SWAP1 POP SWAP2 SWAP1 POP JUMP JUMPDEST PUSH1 0x0 DUP3 DUP3 SHL SWAP1 POP SWAP3 SWAP2 POP POP JUMP JUMPDEST PUSH1 0x0 PUSH1 0x8 DUP4 MUL PUSH2 0x129C PUSH32 0xFFFFFFFFFFFFFFFFFFFFFFFFFFFFFFFFFFFFFFFFFFFFFFFFFFFFFFFFFFFFFFFF DUP3 PUSH2 0x125F JUMP JUMPDEST PUSH2 0x12A6 DUP7 DUP4 PUSH2 0x125F JUMP JUMPDEST SWAP6 POP DUP1 NOT DUP5 AND SWAP4 POP DUP1 DUP7 AND DUP5 OR SWAP3 POP POP POP SWAP4 SWAP3 POP POP POP JUMP JUMPDEST PUSH1 0x0 DUP2 SWAP1 POP SWAP2 SWAP1 POP JUMP JUMPDEST PUSH1 0x0 PUSH2 0x12E3 PUSH2 0x12DE PUSH2 0x12D9 DUP5 PUSH2 0xBBF JUMP JUMPDEST PUSH2 0x12BE JUMP JUMPDEST PUSH2 0xBBF JUMP JUMPDEST SWAP1 POP SWAP2 SWAP1 POP JUMP JUMPDEST PUSH1 0x0 DUP2 SWAP1 POP SWAP2 SWAP1 POP JUMP JUMPDEST PUSH2 0x12FD DUP4 PUSH2 0x12C8 JUMP JUMPDEST PUSH2 0x1311 PUSH2 0x1309 DUP3 PUSH2 0x12EA JUMP JUMPDEST DUP5 DUP5 SLOAD PUSH2 0x126C JUMP JUMPDEST DUP3 SSTORE POP POP POP POP JUMP JUMPDEST PUSH1 0x0 SWAP1 JUMP JUMPDEST PUSH2 0x1326 PUSH2 0x1319 JUMP JUMPDEST PUSH2 0x1331 DUP2 DUP5 DUP5 PUSH2 0x12F4 JUMP JUMPDEST POP POP POP JUMP JUMPDEST JUMPDEST DUP2 DUP2 LT ISZERO PUSH2 0x1355 JUMPI PUSH2 0x134A PUSH1 0x0 DUP3 PUSH2 0x131E JUMP JUMPDEST PUSH1 0x1 DUP2 ADD SWAP1 POP PUSH2 0x1337 JUMP JUMPDEST POP POP JUMP JUMPDEST PUSH1 0x1F DUP3 GT ISZERO PUSH2 0x139A JUMPI PUSH2 0x136B DUP2 PUSH2 0x123A JUMP JUMPDEST PUSH2 0x1374 DUP5 PUSH2 0x124F JUMP JUMPDEST DUP2 ADD PUSH1 0x20 DUP6 LT ISZERO PUSH2 0x1383 JUMPI DUP2 SWAP1 POP JUMPDEST PUSH2 0x1397 PUSH2 0x138F DUP6 PUSH2 0x124F JUMP JUMPDEST DUP4 ADD DUP3 PUSH2 0x1336 JUMP JUMPDEST POP POP JUMPDEST POP POP POP JUMP JUMPDEST PUSH1 0x0 DUP3 DUP3 SHR SWAP1 POP SWAP3 SWAP2 POP POP JUMP JUMPDEST PUSH1 0x0 PUSH2 0x13BD PUSH1 0x0 NOT DUP5 PUSH1 0x8 MUL PUSH2 0x139F JUMP JUMPDEST NOT DUP1 DUP4 AND SWAP2 POP POP SWAP3 SWAP2 POP POP JUMP JUMPDEST PUSH1 0x0 PUSH2 0x13D6 DUP4 DUP4 PUSH2 0x13AC JUMP JUMPDEST SWAP2 POP DUP3 PUSH1 0x2 MUL DUP3 OR SWAP1 POP SWAP3 SWAP2 POP POP JUMP JUMPDEST PUSH2 0x13EF DUP3 PUSH2 0xD0D JUMP JUMPDEST PUSH8 0xFFFFFFFFFFFFFFFF DUP2 GT ISZERO PUSH2 0x1408 JUMPI PUSH2 0x1407 PUSH2 0x120B JUMP JUMPDEST JUMPDEST PUSH2 0x1412 DUP3 SLOAD PUSH2 0x11DA JUMP JUMPDEST PUSH2 0x141D DUP3 DUP3 DUP6 PUSH2 0x1359 JUMP JUMPDEST PUSH1 0x0 PUSH1 0x20 SWAP1 POP PUSH1 0x1F DUP4 GT PUSH1 0x1 DUP2 EQ PUSH2 0x1450 JUMPI PUSH1 0x0 DUP5 ISZERO PUSH2 0x143E JUMPI DUP3 DUP8 ADD MLOAD SWAP1 POP JUMPDEST PUSH2 0x1448 DUP6 DUP3 PUSH2 0x13CA JUMP JUMPDEST DUP7 SSTORE POP PUSH2 0x14B0 JUMP JUMPDEST PUSH1 0x1F NOT DUP5 AND PUSH2 0x145E DUP7 PUSH2 0x123A JUMP JUMPDEST PUSH1 0x0 JUMPDEST DUP3 DUP2 LT ISZERO PUSH2 0x1486 JUMPI DUP5 DUP10 ADD MLOAD DUP3 SSTORE PUSH1 0x1 DUP3 ADD SWAP2 POP PUSH1 0x20 DUP6 ADD SWAP5 POP PUSH1 0x20 DUP2 ADD SWAP1 POP PUSH2 0x1461 JUMP JUMPDEST DUP7 DUP4 LT ISZERO PUSH2 0x14A3 JUMPI DUP5 DUP10 ADD MLOAD PUSH2 0x149F PUSH1 0x1F DUP10 AND DUP3 PUSH2 0x13AC JUMP JUMPDEST DUP4 SSTORE POP JUMPDEST PUSH1 0x1 PUSH1 0x2 DUP9 MUL ADD DUP9 SSTORE POP POP POP JUMPDEST POP POP POP POP POP POP JUMP JUMPDEST PUSH1 0x0 PUSH2 0x14C3 DUP3 PUSH2 0xBBF JUMP JUMPDEST SWAP2 POP PUSH32 0xFFFFFFFFFFFFFFFFFFFFFFFFFFFFFFFFFFFFFFFFFFFFFFFFFFFFFFFFFFFFFFFF DUP3 SUB PUSH2 0x14F5 JUMPI PUSH2 0x14F4 PUSH2 0x10DF JUMP JUMPDEST JUMPDEST PUSH1 0x1 DUP3 ADD SWAP1 POP SWAP2 SWAP1 POP JUMP JUMPDEST PUSH32 0x596F7520617265206E6F74206120636F6E7472696275746F7200000000000000 PUSH1 0x0 DUP3 ADD MSTORE POP JUMP JUMPDEST PUSH1 0x0 PUSH2 0x1536 PUSH1 0x19 DUP4 PUSH2 0xD18 JUMP JUMPDEST SWAP2 POP PUSH2 0x1541 DUP3 PUSH2 0x1500 JUMP JUMPDEST PUSH1 0x20 DUP3 ADD SWAP1 POP SWAP2 SWAP1 POP JUMP JUMPDEST PUSH1 0x0 PUSH1 0x20 DUP3 ADD SWAP1 POP DUP2 DUP2 SUB PUSH1 0x0 DUP4 ADD MSTORE PUSH2 0x1565 DUP2 PUSH2 0x1529 JUMP JUMPDEST SWAP1 POP SWAP2 SWAP1 POP JUMP JUMPDEST PUSH32 0x596F75206861766520616C726561647920617070726F76656420746869732072 PUSH1 0x0 DUP3 ADD MSTORE PUSH32 0x6571756573740000000000000000000000000000000000000000000000000000 PUSH1 0x20 DUP3 ADD MSTORE POP JUMP JUMPDEST PUSH1 0x0 PUSH2 0x15C8 PUSH1 0x26 DUP4 PUSH2 0xD18 JUMP JUMPDEST SWAP2 POP PUSH2 0x15D3 DUP3 PUSH2 0x156C JUMP JUMPDEST PUSH1 0x40 DUP3 ADD SWAP1 POP SWAP2 SWAP1 POP JUMP JUMPDEST PUSH1 0x0 PUSH1 0x20 DUP3 ADD SWAP1 POP DUP2 DUP2 SUB PUSH1 0x0 DUP4 ADD MSTORE PUSH2 0x15F7 DUP2 PUSH2 0x15BB JUMP JUMPDEST SWAP1 POP SWAP2 SWAP1 POP JUMP INVALID LOG2 PUSH5 0x6970667358 0x22 SLT KECCAK256 0x2E 0x5D 0x49 0xDA BASEFEE BLOCKHASH 0x4C SLT 0xA8 SWAP1 CALLCODE 0xBF PUSH17 0x16EAA808D9F56A09453F17DEFF24BDD7E6 CREATE 0xB7 PUSH5 0x736F6C6343 STOP ADDMOD SGT STOP CALLER "},"gasEstimates":{"creation":{"codeDepositCost":"1136800","executionCost":"infinite","totalCost":"infinite"},"external":{"approvals(uint256,address)":"3153","approveRequest(uint256)":"infinite","approvers(address)":"2868","approversCount()":"2429","contribute()":"53213","createRequest(string,uint256,address)":"infinite","finalizeRequest(uint256)":"infinite","getRequestDescription(uint256)":"infinite","manager()":"2559","minimumContribution()":"2473","requests(uint256)":"infinite"}},"methodIdentifiers":{"approvals(uint256,address)":"ab2850da","approveRequest(uint256)":"d7d1bbdb","approvers(address)":"0a144391","approversCount()":"82fde093","contribute()":"d7bb99ba","createRequest(string,uint256,address)":"8a9cfd55","finalizeRequest(uint256)":"03441006","getRequestDescription(uint256)":"6ddfaed1","manager()":"481c6a75","minimumContribution()":"937e09b1","requests(uint256)":"81d12c58"}},"storageLayout":{"storage":[{"astId":56,"contract":"Campaign.sol:Campaign","label":"approvals","offset":0,"slot":"0","type":"t_mapping(t_uint256,t_mapping(t_address,t_bool))"},{"astId":60,"contract":"Campaign.sol:Campaign","label":"requests","offset":0,"slot":"1","type":"t_array(t_struct(Request)50_storage)dyn_storage"},{"astId":62,"contract":"Campaign.sol:Campaign","label":"manager","offset":0,"slot":"2","type":"t_address"},{"astId":64,"contract":"Campaign.sol:Campaign","label":"minimumContribution","offset":0,"slot":"3","type":"t_uint256"},{"astId":68,"contract":"Campaign.sol:Campaign","label":"approvers","offset":0,"slot":"4","type":"t_mapping(t_address,t_bool)"},{"astId":70,"contract":"Campaign.sol:Campaign","label":"approversCount","offset":0,"slot":"5","type":"t_uint256"}],"types":{"t_address":{"encoding":"inplace","label":"address","numberOfBytes":"20"},"t_address_payable":{"encoding":"inplace","label":"address payable","numberOfBytes":"20"},"t_array(t_struct(Request)50_storage)dyn_storage":{"base":"t_struct(Request)50_storage","encoding":"dynamic_array","label":"struct Campaign.Request[]","numberOfBytes":"32"},"t_bool":{"encoding":"inplace","label":"bool","numberOfBytes":"1"},"t_mapping(t_address,t_bool)":{"encoding":"mapping","key":"t_address","label":"mapping(address => bool)","numberOfBytes":"32","value":"t_bool"},"t_mapping(t_uint256,t_mapping(t_address,t_bool))":{"encoding":"mapping","key":"t_uint256","label":"mapping(uint256 => mapping(address => bool))","numberOfBytes":"32","value":"t_mapping(t_address,t_bool)"},"t_string_storage":{"encoding":"bytes","label":"string","numberOfBytes":"32"},"t_struct(Request)50_storage":{"encoding":"inplace","label":"struct Campaign.Request","members":[{"astId":41,"contract":"Campaign.sol:Campaign","label":"description","offset":0,"slot":"0","type":"t_string_storage"},{"astId":43,"contract":"Campaign.sol:Campaign","label":"value","offset":0,"slot":"1","type":"t_uint256"},{"astId":45,"contract":"Campaign.sol:Campaign","label":"recipient","offset":0,"slot":"2","type":"t_address_payable"},{"astId":47,"contract":"Campaign.sol:Campaign","label":"complete","offset":20,"slot":"2","type":"t_bool"},{"astId":49,"contract":"Campaign.sol:Campaign","label":"approvalCount","offset":0,"slot":"3","type":"t_uint256"}],"numberOfBytes":"128"},"t_uint256":{"encoding":"inplace","label":"uint256","numberOfBytes":"32"}}},"userdoc":{"kind":"user","methods":{},"version":1}}